H30530322617CUOTA     00003122024
D0003612162007200007880000404202040021288               02122024CUOTA         0003612162010             0003300000P                                    R10   0000000000000000212202400000VTO130530322617
D0002341057407201512880000404078900007958               02122024CUOTA         0002341057410             0003400000P                                    R10   0000000000000000212202400000VTO130530322617
D0002341057407201512880000404078900009010               02122024CUOTA         0002341057410             0003400000P                                    R10   0000000000000000212202400000VTO130530322617
D0003130525307201512880000372950040009024               02122024CUOTA         0003130525310             0003400000P                                    R10   0000000000000000212202400000VTO130530322617
D0003130525307201512880000372950040010550               02122024CUOTA         0003130525310             0003400000P                                    R10   0000000000000000212202400000VTO130530322617
D0003795539807201512880000396344900011782               02122024CUOTA         0003795539810             0003400000P                                    R10   0000000000000000212202400000VTO130530322617
D0002636895007201512880000392074360012207               02122024CUOTA         0002636895010             0003400000P                                    R10   0000000000000000212202400000VTO130530322617
D0003130525307201512880000372950040014365               02122024CUOTA         0003130525310             0003400000P                                    R10   0000000000000000212202400000VTO130530322617
D0003130525307201512880000372950040016722               02122024CUOTA         0003130525310             0003300000P                                    R10   0000000000000000212202400000VTO130530322617
D0001803718107203648880000351412860009952               02122024CUOTA         0001803718110             0003400000P                                    R10   0000000000000000212202400000VTO130530322617
D0003190506200701217300041673149820009843               02122024CUOTA         0003190506210             0003400000P                                    R10   0000000000000000212202400000VTO130530322617
D0002708759700701217300041847491920009940               02122024CUOTA         0002708759710             0003400000P                                    R10   0000000000000000212202400000VTO130530322617
D0002703011200701217300041563904670010660               02122024CUOTA         0002703011210             0003400000P                                    R10   0000000000000000212202400000VTO130530322617
D0003740966400701217300041742973840018890               02122024CUOTA         0003740966410             0003300000P                                    R10   0000000000000000212202400000VTO130530322617
D0003130514000701217300041771272950020038               02122024CUOTA         0003130514010             0003400000P                                    R10   0000000000000000212202400000VTO130530322617
D0003292808900701965300040166847180021297               02122024CUOTA         0003292808910             0003300000P                                    R10   0000000000000000212202400000VTO130530322617
D0003233257804400233400003560980410021167               02122024CUOTA         0003233257810             0003400000P                                    R10   0000000000000000212202400000VTO130530322617
D0003035560704400349400002367972930008383               02122024CUOTA         0003035560710             0003400000P                                    R10   0000000000000000212202400000VTO130530322617
D0002870109904400349400001339761330008937               02122024CUOTA         0002870109910             0003400000P                                    R10   0000000000000000212202400000VTO130530322617
D0002917549604400349400003435968730012656               02122024CUOTA         0002917549610             0003400000P                                    R10   0000000000000000212202400000VTO130530322617
D0003024109804400349400002650408230014305               02122024CUOTA         0003024109810             0002640000P                                    R10   0000000000000000212202400000VTO130530322617
D0002870109904400349400001339761330011786               02122024CUOTA         0002870109910             0003400000P                                    R10   0000000000000000212202400000VTO130530322617
D0003024109804400349400002650408230012240               02122024CUOTA         0003024109810             0002720000P                                    R10   0000000000000000212202400000VTO130530322617
D0002739262704400349400001693111330014456               02122024CUOTA         0002739262710             0003400000P                                    R10   0000000000000000212202400000VTO130530322617
D0002989405004400349400002683558030014174               02122024CUOTA         0002989405010             0003400000P                                    R10   0000000000000000212202400000VTO130530322617
D0003130546804400349200002882848390009825               02122024CUOTA         0003130546810             0003400000P                                    R20   0000000000000000212202400000VTO130530322617
D0003305452201700718400000368076640007313               02122024CUOTA         0003305452210             0003400000P                                    R10   0000000000000000212202400000VTO130530322617
D0002739047501700718400000376672140010032               02122024CUOTA         0002739047510             0003400000P                                    R10   0000000000000000212202400000VTO130530322617
D0002419817001700718400000372602460011114               02122024CUOTA         0002419817010             0003400000P                                    R10   0000000000000000212202400000VTO130530322617
D0002604044001700718400000381399140009842               02122024CUOTA         0002604044010             0003400000P                                    R10   0000000000000000212202400000VTO130530322617
D0003071221101700718400000346550500011132               02122024CUOTA         0003071221110             0003400000P                                    R10   0000000000000000212202400000VTO130530322617
D0002679956701700718400000392321000011729               02122024CUOTA         0002679956710             0003400000P                                    R10   0000000000000000212202400000VTO130530322617
D0003519934401700718400000370034500012790               02122024CUOTA         0003519934410             0003400000P                                    R10   0000000000000000212202400000VTO130530322617
D0003071221101700718400000346550500016659               02122024CUOTA         0003071221110             0003300000P                                    R10   0000000000000000212202400000VTO130530322617
D0002948695701508404010001242773100008324               02122024CUOTA         0002948695710             0003400000P                                    R10   0000000000000000212202400000VTO130530322617
D0003024128101508404010001256230440010350               02122024CUOTA         0003024128110             0003400000P                                    R10   0000000000000000212202400000VTO130530322617
D0003188887701508404010001203504170010458               02122024CUOTA         0003188887710             0003400000P                                    R10   0000000000000000212202400000VTO130530322617
D0003958366628503798400955167680980022420               02122024CUOTA         0003958366610             0003300000P                                    R10   0000000000000000212202400000VTO130530322617
D0003505206528506797400947013913580012135               02122024CUOTA         0003505206510             0003400000P                                    R10   0000000000000000212202400000VTO130530322617
D0003044155301104992300499244909470008972               02122024CUOTA         0003044155310             0003400000P                                    R10   0000000000000000212202400000VTO130530322617
D0003044155301104992300499244909470010566               02122024CUOTA         0003044155310             0003400000P                                    R10   0000000000000000212202400000VTO130530322617
D0003505212401104992300499184339290019010               02122024CUOTA         0003505212410             0003400000P                                    R10   0000000000000000212202400000VTO130530322617
D0003731306801104992300499076670010012304               02122024CUOTA         0003731306810             0003400000P                                    R10   0000000000000000212202400000VTO130530322617
D0003873522701104992300499188195650021124               02122024CUOTA         0003873522710             0003300000P                                    R10   0000000000000000212202400000VTO130530322617
D0003731306801104992300499076670010016657               02122024CUOTA         0003731306810             0003300000P                                    R10   0000000000000000212202400000VTO130530322617
D0002677488432100011300071292042880007334               02122024CUOTA         0002677488410             0003400000P                                    R10   0000000000000000212202400000VTO130530322617
D0002677488432100011300071292042880008382               02122024CUOTA         0002677488410             0003400000P                                    R10   0000000000000000212202400000VTO130530322617
D0003741101732100011300080255904080014189               02122024CUOTA         0003741101710             0003400000P                                    R10   0000000000000000212202400000VTO130530322617
D0001630907732100011300300172666060006819               02122024CUOTA         0001630907710             0003400000P                                    R10   0000000000000000212202400000VTO130530322617
D0003108150832100011500022242111550008921               02122024CUOTA         0003108150810             0003400000P                                    R10   0000000000000000212202400000VTO130530322617
D0002496771932100011300070061066340011267               02122024CUOTA         0002496771910             0000500000P                                    R10   0000000000000000212202400000VTO130530322617
D0003323480732100011300071265214140008374               02122024CUOTA         0003323480710             0003400000P                                    R10   0000000000000000212202400000VTO130530322617
D0003323480732100011300071265214140011774               02122024CUOTA         0003323480710             0003400000P                                    R10   0000000000000000212202400000VTO130530322617
D0001854371732100011300070624146560008514               02122024CUOTA         0001854371710             0003400000P                                    R10   0000000000000000212202400000VTO130530322617
D0001854371732100011300070624146560008356               02122024CUOTA         0001854371710             0003400000P                                    R10   0000000000000000212202400000VTO130530322617
D0003011847032100011300071037145290010024               02122024CUOTA         0003011847010             0003400000P                                    R10   0000000000000000212202400000VTO130530322617
D0003011847032100011300071037145290012690               02122024CUOTA         0003011847010             0003400000P                                    R10   0000000000000000212202400000VTO130530322617
D0003112041432100011500026110673250011017               02122024CUOTA         0003112041410             0003400000P                                    R10   0000000000000000212202400000VTO130530322617
D0002739136632100011300070942893090011162               02122024CUOTA         0002739136610             0003400000P                                    R10   0000000000000000212202400000VTO130530322617
D0002630470032100011300070288300520010456               02122024CUOTA         0002630470010             0003400000P                                    R10   0000000000000000212202400000VTO130530322617
D0002630470032100011300070288300520008909               02122024CUOTA         0002630470010             0003400000P                                    R10   0000000000000000212202400000VTO130530322617
D0002496777932100011300070276950740010527               02122024CUOTA         0002496777910             0003400000P                                    R10   0000000000000000212202400000VTO130530322617
D0002867490032100011300070591091230008392               02122024CUOTA         0002867490010             0002720000P                                    R10   0000000000000000212202400000VTO130530322617
D0002844459532100011300070507826400009894               02122024CUOTA         0002844459510             0003400000P                                    R10   0000000000000000212202400000VTO130530322617
D0002844459532100011300070507826400012718               02122024CUOTA         0002844459510             0003400000P                                    R10   0000000000000000212202400000VTO130530322617
D0003213241532100011500023217200840011139               02122024CUOTA         0003213241510             0002720000P                                    R10   0000000000000000212202400000VTO130530322617
D0003213241532100011500023217200840014300               02122024CUOTA         0003213241510             0002640000P                                    R10   0000000000000000212202400000VTO130530322617
D0003213241532100011500023217200840011764               02122024CUOTA         0003213241510             0002720000P                                    R10   0000000000000000212202400000VTO130530322617
D0001466136832100011300070072315910007894               02122024CUOTA         0001466136810             0003400000P                                    R10   0000000000000000212202400000VTO130530322617
D0003352060232100011300071403697550008896               02122024CUOTA         0003352060210             0002720000P                                    R10   0000000000000000212202400000VTO130530322617
D0002824563532100011300079665830960012683               02122024CUOTA         0002824563510             0003400000P                                    R10   0000000000000000212202400000VTO130530322617
D0002824563532100011300079665830960012660               02122024CUOTA         0002824563510             0003400000P                                    R10   0000000000000000212202400000VTO130530322617
D0003440969532100011300300369471390021156               02122024CUOTA         0003440969510             0002720000P                                    R10   0000000000000000212202400000VTO130530322617
D0003440969532100011300300369471390013128               02122024CUOTA         0003440969510             0002720000P                                    R10   0000000000000000212202400000VTO130530322617
D0003855815932100011500031383993190012765               02122024CUOTA         0003855815910             0000500000P                                    R10   0000000000000000212202400000VTO130530322617
D0003277615032100011500029773064520012094               02122024CUOTA         0003277615010             0000500000P                                    R10   0000000000000000212202400000VTO130530322617
D0003039272932100011300071223586780021235               02122024CUOTA         0003039272910             0003400000P                                    R10   0000000000000000212202400000VTO130530322617
D0003308856332100011300079877296840021117               02122024CUOTA         0003308856310             0003400000P                                    R10   0000000000000000212202400000VTO130530322617
D0002457858932100011300070172215790012940               02122024CUOTA         0002457858910             0003400000P                                    R10   0000000000000000212202400000VTO130530322617
D0003388222332100011500031173137210014232               02122024CUOTA         0003388222310             0003400000P                                    R10   0000000000000000212202400000VTO130530322617
D0003773693932100011500029368314300014498               02122024CUOTA         0003773693910             0000500000P                                    R10   0000000000000000212202400000VTO130530322617
D0003469584532100011500030111414460023579               02122024CUOTA         0003469584510             0003300000P                                    R10   0000000000000000212202400000VTO130530322617
D0002744810132100011500035434908920022546               02122024CUOTA         0002744810110             0003300000P                                    R10   0000000000000000212202400000VTO130530322617
D0002744810132100011500035434908920021362               02122024CUOTA         0002744810110             0003300000P                                    R10   0000000000000000212202400000VTO130530322617
D0002903784232102307500009181109770009642               02122024CUOTA         0002903784210             0000500000P                                    R10   0000000000000000212202400000VTO130530322617
D0003044306632102307500008995332680010034               02122024CUOTA         0003044306610             0003400000P                                    R10   0000000000000000212202400000VTO130530322617
D0003044306632102307500008995332680011311               02122024CUOTA         0003044306610             0003400000P                                    R10   0000000000000000212202400000VTO130530322617
D0003022115932102307500010154310040021169               02122024CUOTA         0003022115910             0003400000P                                    R10   0000000000000000212202400000VTO130530322617
D0003418487303402841082840178940070012862               02122024CUOTA         0003418487310             0003400000P                                    R10   0000000000000000212202400000VTO130530322617
D0003374890203402841082840244010070016693               02122024CUOTA         0003374890210             0003300000P                                    R10   0000000000000000212202400000VTO130530322617
D0003374890203402841082840244010070011791               02122024CUOTA         0003374890210             0003400000P                                    R10   0000000000000000212202400000VTO130530322617
D0002745737332100011300079585778320006738               02122024CUOTA         0002745737310             0003400000P                      00000000000000R00   0000000000000000212202400000VTO130530322617
D0002222259232100011300071423447490006772               02122024CUOTA         0002222259210             0003400000P                      00000000000000R00   0000000000000000212202400000VTO130530322617
D0003024109804400349400002650408230006776               02122024CUOTA         0003024109810             0002720000P                      00000000000000R00   0000000000000000212202400000VTO130530322617
D0002530174132100011300080281243650006778               02122024CUOTA         0002530174110             0002720000P                      00000000000000R00   0000000000000000212202400000VTO130530322617
D0002550191332100011300070217565570006795               02122024CUOTA         0002550191310             0003400000P                      00000000000000R00   0000000000000000212202400000VTO130530322617
D0002511408003402841082840136650070006807               02122024CUOTA         0002511408010             0003400000P                      00000000000000R00   0000000000000000212202400000VTO130530322617
D0001830054107201512880000220288680006815               02122024CUOTA         0001830054110             0003400000P                      00000000000000R00   0000000000000000212202400000VTO130530322617
D0002419819432100011300070598247610006962               02122024CUOTA         0002419819410             0003400000P                      00000000000000R00   0000000000000000212202400000VTO130530322617
D0002224289901104992300499099774830007267               02122024CUOTA         0002224289910             0003400000P                      00000000000000R00   0000000000000000212202400000VTO130530322617
D0002914275832100011500022670528360007270               02122024CUOTA         0002914275810             0002720000P                      00000000000000R00   0000000000000000212202400000VTO130530322617
D0002516861707201512880000021664540007275               02122024CUOTA         0002516861710             0003400000P                      00000000000000R00   0000000000000000212202400000VTO130530322617
D0002825384007201512880000390395540007290               02122024CUOTA         0002825384010             0002720000P                      00000000000000R00   0000000000000000212202400000VTO130530322617
D0002645991132100011300070235017110007344               02122024CUOTA         0002645991110             0003400000P                      00000000000000R00   0000000000000000212202400000VTO130530322617
D0002341075232100011500030123302540007795               02122024CUOTA         0002341075210             0003400000P                      00000000000000R00   0000000000000000212202400000VTO130530322617
D0001451406501104992300499281132330007798               02122024CUOTA         0001451406510             0003400000P                      00000000000000R00   0000000000000000212202400000VTO130530322617
D0002804876832100011300070620587770007799               02122024CUOTA         0002804876810             0003400000P                      00000000000000R00   0000000000000000212202400000VTO130530322617
D0002560114301700718400000346320280007806               02122024CUOTA         0002560114310             0003400000P                      00000000000000R00   0000000000000000212202400000VTO130530322617
D0002739013807201512880000369738220007808               02122024CUOTA         0002739013810             0003400000P                      00000000000000R00   0000000000000000212202400000VTO130530322617
D0002566570432100011300071395620460007822               02122024CUOTA         0002566570410             0003400000P                      00000000000000R00   0000000000000000212202400000VTO130530322617
D0002594610101700718400000353415500007850               02122024CUOTA         0002594610110             0003400000P                      00000000000000R00   0000000000000000212202400000VTO130530322617
D0002616115532100011300071099158100007855               02122024CUOTA         0002616115510             0002720000P                      00000000000000R00   0000000000000000212202400000VTO130530322617
D0002867717732100011300071275922220007873               02122024CUOTA         0002867717710             0003400000P                      00000000000000R00   0000000000000000212202400000VTO130530322617
D0003091830600701217300041774001250007893               02122024CUOTA         0003091830610             0002720000P                      00000000000000R00   0000000000000000212202400000VTO130530322617
D0002616178103402841082840230130070007903               02122024CUOTA         0002616178110             0003400000P                      00000000000000R00   0000000000000000212202400000VTO130530322617
D0002570932232100011300070326155790007910               02122024CUOTA         0002570932210             0003400000P                      00000000000000R00   0000000000000000212202400000VTO130530322617
D0002679956701700718400000392321000007914               02122024CUOTA         0002679956710             0003400000P                      00000000000000R00   0000000000000000212202400000VTO130530322617
D0002849702201101160300116125640830007923               02122024CUOTA         0002849702210             0003400000P                      00000000000000R00   0000000000000000212202400000VTO130530322617
D0002279602407201512880000363003360007927               02122024CUOTA         0002279602410             0003400000P                      00000000000000R00   0000000000000000212202400000VTO130530322617
D0002232974307203648880000358545680007968               02122024CUOTA         0002232974310             0003400000P                      00000000000000R00   0000000000000000212202400000VTO130530322617
D0001859995300701217300041558463500007974               02122024CUOTA         0001859995310             0003400000P                      00000000000000R00   0000000000000000212202400000VTO130530322617
D0002526789507201512880000021732720007976               02122024CUOTA         0002526789510             0003400000P                      00000000000000R00   0000000000000000212202400000VTO130530322617
D0002196813207201512880000021526040007977               02122024CUOTA         0002196813210             0002720000P                      00000000000000R00   0000000000000000212202400000VTO130530322617
D0002406301832100011300071217207550007989               02122024CUOTA         0002406301810             0003400000P                      00000000000000R00   0000000000000000212202400000VTO130530322617
D0002406301832100011300071217207550007990               02122024CUOTA         0002406301810             0003400000P                      00000000000000R00   0000000000000000212202400000VTO130530322617
D0002421656932100011300070446134200007994               02122024CUOTA         0002421656910             0003400000P                      00000000000000R00   0000000000000000212202400000VTO130530322617
D0003765124932100011300079396667770008314               02122024CUOTA         0003765124910             0003400000P                      00000000000000R00   0000000000000000212202400000VTO130530322617
D0002981428632100011500028612531490008316               02122024CUOTA         0002981428610             0003400000P                      00000000000000R00   0000000000000000212202400000VTO130530322617
D0002261791900701217300041868101660008330               02122024CUOTA         0002261791910             0003400000P                      00000000000000R00   0000000000000000212202400000VTO130530322617
D0002636884801700718200000304676640008331               02122024CUOTA         0002636884810             0003400000P                      00000000000000R00   0000000000000000212202400000VTO130530322617
D0002341123732100011300070446034360008335               02122024CUOTA         0002341123710             0003400000P                      00000000000000R00   0000000000000000212202400000VTO130530322617
D0001815743732100011300070203201390008353               02122024CUOTA         0001815743710             0003400000P                      00000000000000R00   0000000000000000212202400000VTO130530322617
D0001678235832100011300070210402380008378               02122024CUOTA         0001678235810             0003400000P                      00000000000000R00   0000000000000000212202400000VTO130530322617
D0002304269307201512880000377406720008386               02122024CUOTA         0002304269310             0003400000P                      00000000000000R00   0000000000000000212202400000VTO130530322617
D0002224264301508404010001060581660008396               02122024CUOTA         0002224264310             0003400000P                      00000000000000R00   0000000000000000212202400000VTO130530322617
D0002099726704400349400003462911330008397               02122024CUOTA         0002099726710             0003400000P                      00000000000000R00   0000000000000000212202400000VTO130530322617
D0003091757932100011300071436205850008425               02122024CUOTA         0003091757910             0003400000P                      00000000000000R00   0000000000000000212202400000VTO130530322617
D0002813914132100011300070504039030008441               02122024CUOTA         0002813914110             0002720000P                      00000000000000R00   0000000000000000212202400000VTO130530322617
D0003112051532100011300070569178820008447               02122024CUOTA         0003112051510             0003400000P                      00000000000000R00   0000000000000000212202400000VTO130530322617
D0003172929407201512880000376454720008462               02122024CUOTA         0003172929410             0003400000P                      00000000000000R00   0000000000000000212202400000VTO130530322617
D0002542901532100011300071178021390008472               02122024CUOTA         0002542901510             0003400000P                      00000000000000R00   0000000000000000212202400000VTO130530322617
D0002163208632100011300070303010950008485               02122024CUOTA         0002163208610             0003400000P                      00000000000000R00   0000000000000000212202400000VTO130530322617
D0002397606000701217300041614460210008491               02122024CUOTA         0002397606010             0003400000P                      00000000000000R00   0000000000000000212202400000VTO130530322617
D0002329805407203648880000353754900008494               02122024CUOTA         0002329805410             0003400000P                      00000000000000R00   0000000000000000212202400000VTO130530322617
D0002232974307203648880000358545680008502               02122024CUOTA         0002232974310             0003400000P                      00000000000000R00   0000000000000000212202400000VTO130530322617
D0002410185832100011300070207956340008508               02122024CUOTA         0002410185810             0003400000P                      00000000000000R00   0000000000000000212202400000VTO130530322617
D0002824606604400349400003087528430008516               02122024CUOTA         0002824606610             0003400000P                      00000000000000R00   0000000000000000212202400000VTO130530322617
D0003329297207201512880000399685400008521               02122024CUOTA         0003329297210             0002720000P                      00000000000000R00   0000000000000000212202400000VTO130530322617
D0002335311901104992300499110228010008670               02122024CUOTA         0002335311910             0003400000P                      00000000000000R00   0000000000000000212202400000VTO130530322617
D0002804866432100011300071080664580008828               02122024CUOTA         0002804866410             0003400000P                      00000000000000R00   0000000000000000212202400000VTO130530322617
D0002825384007201512880000390395540008844               02122024CUOTA         0002825384010             0002720000P                      00000000000000R00   0000000000000000212202400000VTO130530322617
D0002718573828506797400950332610580008859               02122024CUOTA         0002718573810             0003400000P                      00000000000000R00   0000000000000000212202400000VTO130530322617
D0003591796507201512880000378484680008860               02122024CUOTA         0003591796510             0003400000P                      00000000000000R00   0000000000000000212202400000VTO130530322617
D0003268890432100011300071409174420008861               02122024CUOTA         0003268890410             0003400000P                      00000000000000R00   0000000000000000212202400000VTO130530322617
D0002397632101700718400000005224140008865               02122024CUOTA         0002397632110             0003400000P                      00000000000000R00   0000000000000000212202400000VTO130530322617
D0002760812532100011300071353135630008867               02122024CUOTA         0002760812510             0003400000P                      00000000000000R00   0000000000000000212202400000VTO130530322617
D0003329297207201512880000399685400008870               02122024CUOTA         0003329297210             0002720000P                      00000000000000R00   0000000000000000212202400000VTO130530322617
D0003091830600701217300041774001250008885               02122024CUOTA         0003091830610             0002720000P                      00000000000000R00   0000000000000000212202400000VTO130530322617
D0002616178007203648880000351313220008890               02122024CUOTA         0002616178010             0003400000P                      00000000000000R00   0000000000000000212202400000VTO130530322617
D0002804876832100011300070620587770008906               02122024CUOTA         0002804876810             0003400000P                      00000000000000R00   0000000000000000212202400000VTO130530322617
D0002887623432100011300070496088320008910               02122024CUOTA         0002887623410             0003400000P                      00000000000000R00   0000000000000000212202400000VTO130530322617
D0003189723907200250880000376639040008939               02122024CUOTA         0003189723910             0003400000P                      00000000000000R00   0000000000000000212202400000VTO130530322617
D0002134049607201512880000019971360008948               02122024CUOTA         0002134049610             0003400000P                      00000000000000R00   0000000000000000212202400000VTO130530322617
D0002903782801104992300499091875010008962               02122024CUOTA         0002903782810             0003400000P                      00000000000000R00   0000000000000000212202400000VTO130530322617
D0002527679032100011300070455353210008964               02122024CUOTA         0002527679010             0002720000P                      00000000000000R00   0000000000000000212202400000VTO130530322617
D0002677468032100011500030207530120008973               02122024CUOTA         0002677468010             0002720000P                      00000000000000R00   0000000000000000212202400000VTO130530322617
D0001762455932100011300070042347770008985               02122024CUOTA         0001762455910             0003400000P                      00000000000000R00   0000000000000000212202400000VTO130530322617
D0002341185032100011300070587419970008987               02122024CUOTA         0002341185010             0002720000P                      00000000000000R00   0000000000000000212202400000VTO130530322617
D0001843304632100011300070171255290008993               02122024CUOTA         0001843304610             0003400000P                      00000000000000R00   0000000000000000212202400000VTO130530322617
D0002196813207201512880000021526040009005               02122024CUOTA         0002196813210             0002720000P                      00000000000000R00   0000000000000000212202400000VTO130530322617
D0002813914132100011300070504039030009014               02122024CUOTA         0002813914110             0002720000P                      00000000000000R00   0000000000000000212202400000VTO130530322617
D0002484094201700718400000325308500009022               02122024CUOTA         0002484094210             0003400000P                      00000000000000R00   0000000000000000212202400000VTO130530322617
D0002056473801700718400000006767460009026               02122024CUOTA         0002056473810             0003400000P                      00000000000000R00   0000000000000000212202400000VTO130530322617
D0002636841532100011300070859578480009028               02122024CUOTA         0002636841510             0003400000P                      00000000000000R00   0000000000000000212202400000VTO130530322617
D0002279602407201512880000363003360009029               02122024CUOTA         0002279602410             0003400000P                      00000000000000R00   0000000000000000212202400000VTO130530322617
D0002090009401702257400000302978890009035               02122024CUOTA         0002090009410             0003400000P                      00000000000000R00   0000000000000000212202400000VTO130530322617
D0000593775932100011500020620813030009039               02122024CUOTA         0000593775910             0003400000P                      00000000000000R00   0000000000000000212202400000VTO130530322617
D0002978570807201659880000376477680009195               02122024CUOTA         0002978570810             0003400000P                      00000000000000R00   0000000000000000212202400000VTO130530322617
D0002971685201104992300499093297650009795               02122024CUOTA         0002971685210             0003400000P                      00000000000000R00   0000000000000000212202400000VTO130530322617
D0002570954532100011300070494569810009841               02122024CUOTA         0002570954510             0003400000P                      00000000000000R00   0000000000000000212202400000VTO130530322617
D0002739013807201512880000369738220009856               02122024CUOTA         0002739013810             0003400000P                      00000000000000R00   0000000000000000212202400000VTO130530322617
D0002716914603402841082840054560000009857               02122024CUOTA         0002716914610             0003400000P                      00000000000000R00   0000000000000000212202400000VTO130530322617
D0002844491807203648880000363185220009887               02122024CUOTA         0002844491810             0003400000P                      00000000000000R00   0000000000000000212202400000VTO130530322617
D0003231526319101059551105011172030009918               02122024CUOTA         0003231526310             0003400000P                      00000000000000R00   0000000000000000212202400000VTO130530322617
D0002182613701700718400000361840460009925               02122024CUOTA         0002182613710             0003400000P                      00000000000000R00   0000000000000000212202400000VTO130530322617
D0003309283007201512880000377830400009948               02122024CUOTA         0003309283010             0003400000P                      00000000000000R00   0000000000000000212202400000VTO130530322617
D0002783471928506797400949066073480009968               02122024CUOTA         0002783471910             0003400000P                      00000000000000R00   0000000000000000212202400000VTO130530322617
D0002179172032100011300070441327830009976               02122024CUOTA         0002179172010             0003400000P                      00000000000000R00   0000000000000000212202400000VTO130530322617
D0002760807801104992300499992833290009985               02122024CUOTA         0002760807810             0003400000P                      00000000000000R00   0000000000000000212202400000VTO130530322617
D0002971685201104992300499093297650009997               02122024CUOTA         0002971685210             0003400000P                      00000000000000R00   0000000000000000212202400000VTO130530322617
D0002530174132100011300080281243650010006               02122024CUOTA         0002530174110             0002720000P                      00000000000000R00   0000000000000000212202400000VTO130530322617
D0002872472832100011300080043356060010028               02122024CUOTA         0002872472810             0003400000P                      00000000000000R00   0000000000000000212202400000VTO130530322617
D0002739071304400349400001711821230010030               02122024CUOTA         0002739071310             0003400000P                      00000000000000R00   0000000000000000212202400000VTO130530322617
D0002677468032100011500030207530120010044               02122024CUOTA         0002677468010             0002720000P                      00000000000000R00   0000000000000000212202400000VTO130530322617
D0003374916507201512880000037994400010050               02122024CUOTA         0003374916510             0003400000P                      00000000000000R00   0000000000000000212202400000VTO130530322617
D0002914275832100011500022670528360010332               02122024CUOTA         0002914275810             0002720000P                      00000000000000R00   0000000000000000212202400000VTO130530322617
D0002953617132100011300070909372880010449               02122024CUOTA         0002953617110             0003400000P                      00000000000000R00   0000000000000000212202400000VTO130530322617
D0002485013200701217300041920359280010450               02122024CUOTA         0002485013210             0003400000P                      00000000000000R00   0000000000000000212202400000VTO130530322617
D0002903783632100011300071350785630010452               02122024CUOTA         0002903783610             0003400000P                      00000000000000R00   0000000000000000212202400000VTO130530322617
D0002224264301508404010001060581660010460               02122024CUOTA         0002224264310             0003400000P                      00000000000000R00   0000000000000000212202400000VTO130530322617
D0002516861707201512880000021664540010461               02122024CUOTA         0002516861710             0003400000P                      00000000000000R00   0000000000000000212202400000VTO130530322617
D0002994937901104992300499093230330010473               02122024CUOTA         0002994937910             0003400000P                      00000000000000R00   0000000000000000212202400000VTO130530322617
D0001475411132100011500026813050280010474               02122024CUOTA         0001475411110             0003400000P                      00000000000000R00   0000000000000000212202400000VTO130530322617
D0003416947438900837400052096809380010478               02122024CUOTA         0003416947410             0003400000P                      00000000000000R00   0000000000000000212202400000VTO130530322617
D0002759845404400349400002166326330010486               02122024CUOTA         0002759845410             0003400000P                      00000000000000R00   0000000000000000212202400000VTO130530322617
D0002903763604400349400001070392930010490               02122024CUOTA         0002903763610             0003400000P                      00000000000000R00   0000000000000000212202400000VTO130530322617
D0002261879501508404010001014511990010494               02122024CUOTA         0002261879510             0003400000P                      00000000000000R00   0000000000000000212202400000VTO130530322617
D0003534352701700718400000366516500010520               02122024CUOTA         0003534352710             0003400000P                      00000000000000R00   0000000000000000212202400000VTO130530322617
D0002657027807201512880000382786040010523               02122024CUOTA         0002657027810             0003400000P                      00000000000000R00   0000000000000000212202400000VTO130530322617
D0002392598132100011300071326935410010529               02122024CUOTA         0002392598110             0003400000P                      00000000000000R00   0000000000000000212202400000VTO130530322617
D0002527679032100011300070455353210010539               02122024CUOTA         0002527679010             0002720000P                      00000000000000R00   0000000000000000212202400000VTO130530322617
D0002813914132100011300070504039030010543               02122024CUOTA         0002813914110             0002720000P                      00000000000000R00   0000000000000000212202400000VTO130530322617
D0002261829207201512880000220333900010553               02122024CUOTA         0002261829210             0003400000P                      00000000000000R00   0000000000000000212202400000VTO130530322617
D0002421656932100011300070446134200010559               02122024CUOTA         0002421656910             0003400000P                      00000000000000R00   0000000000000000212202400000VTO130530322617
D0002739114507203648880000360339860010562               02122024CUOTA         0002739114510             0003400000P                      00000000000000R00   0000000000000000212202400000VTO130530322617
D0002662943107201512880000365442680010570               02122024CUOTA         0002662943110             0003400000P                      00000000000000R00   0000000000000000212202400000VTO130530322617
D0002163125407201512880000221156360010571               02122024CUOTA         0002163125410             0003400000P                      00000000000000R00   0000000000000000212202400000VTO130530322617
D0001379069900701217300041424998130010574               02122024CUOTA         0001379069910             0003400000P                      00000000000000R00   0000000000000000212202400000VTO130530322617
D0002095990432100011300070556071950010586               02122024CUOTA         0002095990410             0003400000P                      00000000000000R00   0000000000000000212202400000VTO130530322617
D0003352060232100011300071403697550010594               02122024CUOTA         0003352060210             0002720000P                      00000000000000R00   0000000000000000212202400000VTO130530322617
D0002745737332100011300079585778320010595               02122024CUOTA         0002745737310             0003400000P                      00000000000000R00   0000000000000000212202400000VTO130530322617
D0002616115532100011300071099158100010597               02122024CUOTA         0002616115510             0002720000P                      00000000000000R00   0000000000000000212202400000VTO130530322617
D0002397632101700718400000005224140010600               02122024CUOTA         0002397632110             0003400000P                      00000000000000R00   0000000000000000212202400000VTO130530322617
D0002511441328506797400951955215880010603               02122024CUOTA         0002511441310             0003400000P                      00000000000000R00   0000000000000000212202400000VTO130530322617
D0002677468032100011500030207530120010631               02122024CUOTA         0002677468010             0002720000P                      00000000000000R00   0000000000000000212202400000VTO130530322617
D0002566570432100011300071395620460010633               02122024CUOTA         0002566570410             0003400000P                      00000000000000R00   0000000000000000212202400000VTO130530322617
D0003091830600701217300041774001250010646               02122024CUOTA         0003091830610             0002720000P                      00000000000000R00   0000000000000000212202400000VTO130530322617
D0002759845404400349400002166326330010928               02122024CUOTA         0002759845410             0003400000P                      00000000000000R00   0000000000000000212202400000VTO130530322617
D0002813949219101059550105533768280010963               02122024CUOTA         0002813949210             0003400000P                      00000000000000R00   0000000000000000212202400000VTO130530322617
D0003441408901700718400000333950780010993               02122024CUOTA         0003441408910             0002720000P                      00000000000000R00   0000000000000000212202400000VTO130530322617
D0002341184732100011300070263525070011026               02122024CUOTA         0002341184710             0003400000P                      00000000000000R00   0000000000000000212202400000VTO130530322617
D0003416765501700718400000373174780011045               02122024CUOTA         0003416765510             0003400000P                      00000000000000R00   0000000000000000212202400000VTO130530322617
D0002813949219101059550105533768280011054               02122024CUOTA         0002813949210             0003400000P                      00000000000000R00   0000000000000000212202400000VTO130530322617
D0002765093801508404020001025844880011080               02122024CUOTA         0002765093810             0003400000P                      00000000000000R00   0000000000000000212202400000VTO130530322617
D0002594604632100011500030239706720011088               02122024CUOTA         0002594604610             0003400000P                      00000000000000R00   0000000000000000212202400000VTO130530322617
D0001826003832100011300070325994420011098               02122024CUOTA         0001826003810             0003400000P                      00000000000000R00   0000000000000000212202400000VTO130530322617
D0002397625132100011300071246872880011115               02122024CUOTA         0002397625110             0003400000P                      00000000000000R00   0000000000000000212202400000VTO130530322617
D0002341185032100011300070587419970011123               02122024CUOTA         0002341185010             0002720000P                      00000000000000R00   0000000000000000212202400000VTO130530322617
D0002906003203402841082840160630060011131               02122024CUOTA         0002906003210             0003400000P                      00000000000000R00   0000000000000000212202400000VTO130530322617
D0002485013200701217300041920359280011145               02122024CUOTA         0002485013210             0003400000P                      00000000000000R00   0000000000000000212202400000VTO130530322617
D0002311785507201512880000021574180011157               02122024CUOTA         0002311785510             0003400000P                      00000000000000R00   0000000000000000212202400000VTO130530322617
D0002989415807201512880000382872680011161               02122024CUOTA         0002989415810             0003400000P                      00000000000000R00   0000000000000000212202400000VTO130530322617
D0003795539807201512880000396344900011172               02122024CUOTA         0003795539810             0003400000P                      00000000000000R00   0000000000000000212202400000VTO130530322617
D0003189723907200250880000376639040011180               02122024CUOTA         0003189723910             0003400000P                      00000000000000R00   0000000000000000212202400000VTO130530322617
D0002872472832100011300080043356060011200               02122024CUOTA         0002872472810             0003400000P                      00000000000000R00   0000000000000000212202400000VTO130530322617
D0003352060232100011300071403697550011299               02122024CUOTA         0003352060210             0002720000P                      00000000000000R00   0000000000000000212202400000VTO130530322617
D0003369312232100011300071310560020011301               02122024CUOTA         0003369312210             0002720000P                      00000000000000R00   0000000000000000212202400000VTO130530322617
D0002496743532100011300070600399470011315               02122024CUOTA         0002496743510             0003400000P                      00000000000000R00   0000000000000000212202400000VTO130530322617
D0002831892101104992300499088916650011319               02122024CUOTA         0002831892110             0003400000P                      00000000000000R00   0000000000000000212202400000VTO130530322617
D0002584425632100011300079815764080011453               02122024CUOTA         0002584425610             0003400000P                      00000000000000R00   0000000000000000212202400000VTO130530322617
D0002739338132100011300070954323370011542               02122024CUOTA         0002739338110             0003400000P                      00000000000000R00   0000000000000000212202400000VTO130530322617
D0003091757932100011300071436205850011620               02122024CUOTA         0003091757910             0003400000P                      00000000000000R00   0000000000000000212202400000VTO130530322617
D0002824606604400349400003087528430011622               02122024CUOTA         0002824606610             0003400000P                      00000000000000R00   0000000000000000212202400000VTO130530322617
D0002657657200701217300041504711020011626               02122024CUOTA         0002657657210             0003400000P                      00000000000000R00   0000000000000000212202400000VTO130530322617
D0002971998532100011300070595520020011632               02122024CUOTA         0002971998510             0003400000P                      00000000000000R00   0000000000000000212202400000VTO130530322617
D0001810105303401008087101574440010011662               02122024CUOTA         0001810105310             0003400000P                      00000000000000R00   0000000000000000212202400000VTO130530322617
D0002261879501508404010001014511990011666               02122024CUOTA         0002261879510             0003400000P                      00000000000000R00   0000000000000000212202400000VTO130530322617
D0002722298832100011300070477420800011701               02122024CUOTA         0002722298810             0003400000P                      00000000000000R00   0000000000000000212202400000VTO130530322617
D0002989431332100011300071278839970011705               02122024CUOTA         0002989431310             0003400000P                      00000000000000R00   0000000000000000212202400000VTO130530322617
D0003505224032100011300071991131670011706               02122024CUOTA         0003505224010             0003400000P                      00000000000000R00   0000000000000000212202400000VTO130530322617
D0004028548232100011300300377433090011710               02122024CUOTA         0004028548210             0003400000P                      00000000000000R00   0000000000000000212202400000VTO130530322617
D0002196813207201512880000021526040011727               02122024CUOTA         0002196813210             0002720000P                      00000000000000R00   0000000000000000212202400000VTO130530322617
D0001379069900701217300041424998130011753               02122024CUOTA         0001379069910             0003400000P                      00000000000000R00   0000000000000000212202400000VTO130530322617
D0002760807801104992300499992833290011756               02122024CUOTA         0002760807810             0003400000P                      00000000000000R00   0000000000000000212202400000VTO130530322617
D0002804866432100011300071080664580011759               02122024CUOTA         0002804866410             0003400000P                      00000000000000R00   0000000000000000212202400000VTO130530322617
D0002570932232100011300070326155790011760               02122024CUOTA         0002570932210             0003400000P                      00000000000000R00   0000000000000000212202400000VTO130530322617
D0002224289901104992300499099774830011761               02122024CUOTA         0002224289910             0003400000P                      00000000000000R00   0000000000000000212202400000VTO130530322617
D0003129739832100011300071804337770011762               02122024CUOTA         0003129739810             0003400000P                      00000000000000R00   0000000000000000212202400000VTO130530322617
D0003591796601104992300499194728510011773               02122024CUOTA         0003591796610             0002720000P                      00000000000000R00   0000000000000000212202400000VTO130530322617
D0003268890432100011300071409174420011778               02122024CUOTA         0003268890410             0003400000P                      00000000000000R00   0000000000000000212202400000VTO130530322617
D0002890035507201512880000020479220011789               02122024CUOTA         0002890035510             0003400000P                      00000000000000R00   0000000000000000212202400000VTO130530322617
D0002616115532100011300071099158100011803               02122024CUOTA         0002616115510             0002720000P                      00000000000000R00   0000000000000000212202400000VTO130530322617
D0022085145232100011300300291684080011812               02122024CUOTA         0022085145210             0003400000P                      00000000000000R00   0000000000000000212202400000VTO130530322617
D0002559604132100011300300195923090011823               02122024CUOTA         0002559604110             0003400000P                      00000000000000R00   0000000000000000212202400000VTO130530322617
D0002739338132100011300070954323370011828               02122024CUOTA         0002739338110             0003400000P                      00000000000000R00   0000000000000000212202400000VTO130530322617
D0003255804932100011300071680662720011851               02122024CUOTA         0003255804910             0002720000P                      00000000000000R00   0000000000000000212202400000VTO130530322617
D0003255804932100011300071680662720011853               02122024CUOTA         0003255804910             0002720000P                      00000000000000R00   0000000000000000212202400000VTO130530322617
D0003031809432100011300071363144420011899               02122024CUOTA         0003031809410             0003400000P                      00000000000000R00   0000000000000000212202400000VTO130530322617
D0002290250132100011300079229143370011900               02122024CUOTA         0002290250110             0003400000P                      00000000000000R00   0000000000000000212202400000VTO130530322617
D0002434677707203648880000357830040011967               02122024CUOTA         0002434677710             0003400000P                      00000000000000R00   0000000000000000212202400000VTO130530322617
D0002767792132100011300070561164700012142               02122024CUOTA         0002767792110             0003400000P                      00000000000000R00   0000000000000000212202400000VTO130530322617
D0003031657507203648880000370742720012143               02122024CUOTA         0003031657510             0003400000P                      00000000000000R00   0000000000000000212202400000VTO130530322617
D0003037296832100011300071990013090012144               02122024CUOTA         0003037296810             0002720000P                      00000000000000R00   0000000000000000212202400000VTO130530322617
D0002341075232100011500030123302540012148               02122024CUOTA         0002341075210             0003400000P                      00000000000000R00   0000000000000000212202400000VTO130530322617
D0003574126207201512880000399655720012158               02122024CUOTA         0003574126210             0003400000P                      00000000000000R00   0000000000000000212202400000VTO130530322617
D0002971699401104992300499138943650012168               02122024CUOTA         0002971699410             0003400000P                      00000000000000R00   0000000000000000212202400000VTO130530322617
D0001677204232100011300070224557050012199               02122024CUOTA         0001677204210             0003400000P                      00000000000000R00   0000000000000000212202400000VTO130530322617
D0003427830432100011300079665389970012200               02122024CUOTA         0003427830410             0003400000P                      00000000000000R00   0000000000000000212202400000VTO130530322617
D0002056483332100011300071432347330012204               02122024CUOTA         0002056483310             0003400000P                      00000000000000R00   0000000000000000212202400000VTO130530322617
D0002914275832100011500022670528360012206               02122024CUOTA         0002914275810             0002720000P                      00000000000000R00   0000000000000000212202400000VTO130530322617
D0003369312232100011300071310560020012216               02122024CUOTA         0003369312210             0002720000P                      00000000000000R00   0000000000000000212202400000VTO130530322617
D0002543815707203648880000354421360012217               02122024CUOTA         0002543815710             0003400000P                      00000000000000R00   0000000000000000212202400000VTO130530322617
D0002971998532100011300070595520020012222               02122024CUOTA         0002971998510             0003400000P                      00000000000000R00   0000000000000000212202400000VTO130530322617
D0003424067519101059551105010179850012269               02122024CUOTA         0003424067510             0003400000P                      00000000000000R00   0000000000000000212202400000VTO130530322617
D0002739115132100011300071375341950012274               02122024CUOTA         0002739115110             0003400000P                      00000000000000R00   0000000000000000212202400000VTO130530322617
D0002906241900701217300041796984100012280               02122024CUOTA         0002906241910             0003400000P                      00000000000000R00   0000000000000000212202400000VTO130530322617
D0002906241900701217300041796984100012281               02122024CUOTA         0002906241910             0003400000P                      00000000000000R00   0000000000000000212202400000VTO130530322617
D0003082410632100011300079762262440012288               02122024CUOTA         0003082410610             0003400000P                      00000000000000R00   0000000000000000212202400000VTO130530322617
D0003133398532100011300071213909690012296               02122024CUOTA         0003133398510             0003400000P                      00000000000000R00   0000000000000000212202400000VTO130530322617
D0002813987832100011300071427193430012299               02122024CUOTA         0002813987810             0003400000P                      00000000000000R00   0000000000000000212202400000VTO130530322617
D0003182538432100011300071427254580012302               02122024CUOTA         0003182538410             0003400000P                      00000000000000R00   0000000000000000212202400000VTO130530322617
D0003534352701700718400000366516500012313               02122024CUOTA         0003534352710             0003400000P                      00000000000000R00   0000000000000000212202400000VTO130530322617
D0002978570807201659880000376477680012315               02122024CUOTA         0002978570810             0003400000P                      00000000000000R00   0000000000000000212202400000VTO130530322617
D0002657027807201512880000382786040012318               02122024CUOTA         0002657027810             0003400000P                      00000000000000R00   0000000000000000212202400000VTO130530322617
D0002135558032100011300070055135290012319               02122024CUOTA         0002135558010             0003400000P                      00000000000000R00   0000000000000000212202400000VTO130530322617
D0002783471928506797400949066073480012325               02122024CUOTA         0002783471910             0003400000P                      00000000000000R00   0000000000000000212202400000VTO130530322617
D0002434677707203648880000357830040012334               02122024CUOTA         0002434677710             0003400000P                      00000000000000R00   0000000000000000212202400000VTO130530322617
D0002584425632100011300079815764080012337               02122024CUOTA         0002584425610             0003400000P                      00000000000000R00   0000000000000000212202400000VTO130530322617
D0003323484907201512880000384435180012422               02122024CUOTA         0003323484910             0000500000P                      00000000000000R00   0000000000000000212202400000VTO130530322617
D0002581884332100011300070561264640012426               02122024CUOTA         0002581884310             0003400000P                      00000000000000R00   0000000000000000212202400000VTO130530322617
D0002581884332100011300070561264640012427               02122024CUOTA         0002581884310             0003400000P                      00000000000000R00   0000000000000000212202400000VTO130530322617
D0002758153607201512880000372211040012473               02122024CUOTA         0002758153610             0003400000P                      00000000000000R00   0000000000000000212202400000VTO130530322617
D0003388243100701217300041720570500012523               02122024CUOTA         0003388243110             0003400000P                      00000000000000R00   0000000000000000212202400000VTO130530322617
D0002434613032100011300071188130020012623               02122024CUOTA         0002434613010             0003400000P                      00000000000000R00   0000000000000000212202400000VTO130530322617
D0002530174132100011300080281243650012625               02122024CUOTA         0002530174110             0002720000P                      00000000000000R00   0000000000000000212202400000VTO130530322617
D0003037296832100011300071990013090012628               02122024CUOTA         0003037296810             0002720000P                      00000000000000R00   0000000000000000212202400000VTO130530322617
D0002677463432100011300071364263090012673               02122024CUOTA         0002677463410             0003400000P                      00000000000000R00   0000000000000000212202400000VTO130530322617
D0003388239803402841082840192720050012710               02122024CUOTA         0003388239810             0003400000P                      00000000000000R00   0000000000000000212202400000VTO130530322617
D0003431424507201512880000373341180012720               02122024CUOTA         0003431424510             0003400000P                      00000000000000R00   0000000000000000212202400000VTO130530322617
D0003329297207201512880000399685400012728               02122024CUOTA         0003329297210             0002720000P                      00000000000000R00   0000000000000000212202400000VTO130530322617
D0001826003832100011300070325994420012741               02122024CUOTA         0001826003810             0003400000P                      00000000000000R00   0000000000000000212202400000VTO130530322617
D0003173935032100011300071240068100012745               02122024CUOTA         0003173935010             0003400000P                      00000000000000R00   0000000000000000212202400000VTO130530322617
D0003309272507201512880000385072540012747               02122024CUOTA         0003309272510             0003400000P                      00000000000000R00   0000000000000000212202400000VTO130530322617
D0003418250500701996300040458686060012748               02122024CUOTA         0003418250510             0003400000P                      00000000000000R00   0000000000000000212202400000VTO130530322617
D0002461873700701217300041746782080012792               02122024CUOTA         0002461873710             0003400000P                      00000000000000R00   0000000000000000212202400000VTO130530322617
D0003277522728506612400951795184580012799               02122024CUOTA         0003277522710             0003400000P                      00000000000000R00   0000000000000000212202400000VTO130530322617
D0002867714732100011300070986058600012852               02122024CUOTA         0002867714710             0003400000P                      00000000000000R00   0000000000000000212202400000VTO130530322617
D0003116908001104992300499128941510012879               02122024CUOTA         0003116908010             0003400000P                      00000000000000R00   0000000000000000212202400000VTO130530322617
D0002953367401700718400000350498500012885               02122024CUOTA         0002953367410             0003400000P                      00000000000000R00   0000000000000000212202400000VTO130530322617
D0002825384007201512880000390395540012896               02122024CUOTA         0002825384010             0002720000P                      00000000000000R00   0000000000000000212202400000VTO130530322617
D0001475411132100011500026813050280012897               02122024CUOTA         0001475411110             0003400000P                      00000000000000R00   0000000000000000212202400000VTO130530322617
D0002722174832100011300071218435790012901               02122024CUOTA         0002722174810             0003400000P                      00000000000000R00   0000000000000000212202400000VTO130530322617
D0001609581901104992300499119469830012904               02122024CUOTA         0001609581910             0003400000P                      00000000000000R00   0000000000000000212202400000VTO130530322617
D0001609581901104992300499119469830012905               02122024CUOTA         0001609581910             0003400000P                      00000000000000R00   0000000000000000212202400000VTO130530322617
D0002806462301700718400000382755000012914               02122024CUOTA         0002806462310             0003400000P                      00000000000000R00   0000000000000000212202400000VTO130530322617
D0002890044632100011300070955922000013031               02122024CUOTA         0002890044610             0003400000P                      00000000000000R00   0000000000000000212202400000VTO130530322617
D0003173935032100011300071240068100013108               02122024CUOTA         0003173935010             0003400000P                      00000000000000R00   0000000000000000212202400000VTO130530322617
D0002813987832100011300071427193430013122               02122024CUOTA         0002813987810             0003400000P                      00000000000000R00   0000000000000000212202400000VTO130530322617
D0003612186707201512880000377379860013133               02122024CUOTA         0003612186710             0003400000P                      00000000000000R00   0000000000000000212202400000VTO130530322617
D0002662943107201512880000365442680013135               02122024CUOTA         0002662943110             0003400000P                      00000000000000R00   0000000000000000212202400000VTO130530322617
D0002376470432100011300071082943430013154               02122024CUOTA         0002376470410             0003400000P                      00000000000000R00   0000000000000000212202400000VTO130530322617
D0002718573828506797400950332610580013160               02122024CUOTA         0002718573810             0003400000P                      00000000000000R00   0000000000000000212202400000VTO130530322617
D0002767792132100011300070561164700014169               02122024CUOTA         0002767792110             0003400000P                      00000000000000R00   0000000000000000212202400000VTO130530322617
D0002406333200701217300048929017180014180               02122024CUOTA         0002406333210             0003400000P                      00000000000000R00   0000000000000000212202400000VTO130530322617
D0003062695501103111300311161830830014188               02122024CUOTA         0003062695510             0003400000P                      00000000000000R00   0000000000000000212202400000VTO130530322617
D0003031657507203648880000370742720014302               02122024CUOTA         0003031657510             0003300000P                      00000000000000R00   0000000000000000212202400000VTO130530322617
D0003416779132100011300071680623930014310               02122024CUOTA         0003416779110             0003300000P                      00000000000000R00   0000000000000000212202400000VTO130530322617
D0003369312232100011300071310560020014316               02122024CUOTA         0003369312210             0002640000P                      00000000000000R00   0000000000000000212202400000VTO130530322617
D0003024128601700718400000321629500014337               02122024CUOTA         0003024128610             0003400000P                      00000000000000R00   0000000000000000212202400000VTO130530322617
D0003131153332100011300079496509310014342               02122024CUOTA         0003131153310             0003400000P                      00000000000000R00   0000000000000000212202400000VTO130530322617
D0002739198032100011300071014029810014364               02122024CUOTA         0002739198010             0003400000P                      00000000000000R00   0000000000000000212202400000VTO130530322617
D0002654966432100011300070587938820014385               02122024CUOTA         0002654966410             0000500000P                      00000000000000R00   0000000000000000212202400000VTO130530322617
D0004411534101104992300499191576790014413               02122024CUOTA         000441153418              0003400000P                      00000000000000R00   0000000000000000212202400000VTO130530322617
D0002873842801104206300420115689470014450               02122024CUOTA         0002873842810             0003400000P                      00000000000000R00   0000000000000000212202400000VTO130530322617
D0002320005300701217300048910081820014454               02122024CUOTA         0002320005310             0003400000P                      00000000000000R00   0000000000000000212202400000VTO130530322617
D0002903782801104992300499091875010014489               02122024CUOTA         0002903782810             0003400000P                      00000000000000R00   0000000000000000212202400000VTO130530322617
D0002437674101104992300499001401470014509               02122024CUOTA         0002437674110             0000500000P                      00000000000000R00   0000000000000000212202400000VTO130530322617
D0003416779132100011300071680623930014631               02122024CUOTA         0003416779110             0003400000P                      00000000000000R00   0000000000000000212202400000VTO130530322617
D0003277522728506612400951795184580014633               02122024CUOTA         0003277522710             0003400000P                      00000000000000R00   0000000000000000212202400000VTO130530322617
D0002758153607201512880000372211040016665               02122024CUOTA         0002758153610             0003400000P                      00000000000000R00   0000000000000000212202400000VTO130530322617
D0003416947438900837400052096809380016671               02122024CUOTA         0003416947410             0003400000P                      00000000000000R00   0000000000000000212202400000VTO130530322617
D0003424067519101059551105010179850016674               02122024CUOTA         0003424067510             0003400000P                      00000000000000R00   0000000000000000212202400000VTO130530322617
D0002890044632100011300070955922000016682               02122024CUOTA         0002890044610             0003300000P                      00000000000000R00   0000000000000000212202400000VTO130530322617
D0002739198032100011300071014029810016686               02122024CUOTA         0002739198010             0003300000P                      00000000000000R00   0000000000000000212202400000VTO130530322617
D0002971699401104992300499138943650016688               02122024CUOTA         0002971699410             0003400000P                      00000000000000R00   0000000000000000212202400000VTO130530322617
D0003220798307201512880000379632400016696               02122024CUOTA         0003220798310             0003300000P                      00000000000000R00   0000000000000000212202400000VTO130530322617
D0002527679032100011300070455353210016703               02122024CUOTA         0002527679010             0002720000P                      00000000000000R00   0000000000000000212202400000VTO130530322617
D0003037296832100011300071990013090016709               02122024CUOTA         0003037296810             0002640000P                      00000000000000R00   0000000000000000212202400000VTO130530322617
D0002989415807201512880000382872680016710               02122024CUOTA         0002989415810             0003300000P                      00000000000000R00   0000000000000000212202400000VTO130530322617
D0003574126207201512880000399655720016711               02122024CUOTA         0003574126210             0003300000P                      00000000000000R00   0000000000000000212202400000VTO130530322617
D0003591796601104992300499194728510016721               02122024CUOTA         0003591796610             0002640000P                      00000000000000R00   0000000000000000212202400000VTO130530322617
D0003255804932100011300071680662720017723               02122024CUOTA         0003255804910             0002640000P                      00000000000000R00   0000000000000000212202400000VTO130530322617
D0003172929407201512880000376454720017725               02122024CUOTA         0003172929410             0003400000P                      00000000000000R00   0000000000000000212202400000VTO130530322617
D0003329297207201512880000399685400017732               02122024CUOTA         0003329297210             0002720000P                      00000000000000R00   0000000000000000212202400000VTO130530322617
D0002813914132100011300070504039030017737               02122024CUOTA         0002813914110             0002720000P                      00000000000000R00   0000000000000000212202400000VTO130530322617
D0003388243100701217300041720570500017740               02122024CUOTA         0003388243110             0003400000P                      00000000000000R00   0000000000000000212202400000VTO130530322617
D0003440957600701217300041792695800017745               02122024CUOTA         0003440957610             0003400000P                      00000000000000R00   0000000000000000212202400000VTO130530322617
D0003612171132100011300300206798260018747               02122024CUOTA         0003612171110             0003400000P                      00000000000000R00   0000000000000000212202400000VTO130530322617
D0003126756632100011300079800010680018752               02122024CUOTA         0003126756610             0003400000P                      00000000000000R00   0000000000000000212202400000VTO130530322617
D0003388750932100011300079835962000018811               02122024CUOTA         0003388750910             0003400000P                      00000000000000R00   0000000000000000212202400000VTO130530322617
D0003491334832100011300079352025910018813               02122024CUOTA         0003491334810             0003400000P                      00000000000000R00   0000000000000000212202400000VTO130530322617
D0002948678904400349400001602743830018818               02122024CUOTA         0002948678910             0003400000P                      00000000000000R00   0000000000000000212202400000VTO130530322617
D0003469545832100011300079751044860018839               02122024CUOTA         0003469545810             0003400000P                      00000000000000R00   0000000000000000212202400000VTO130530322617
D0003419570832100011300071396787830018843               02122024CUOTA         0003419570810             0000500000P                      00000000000000R00   0000000000000000212202400000VTO130530322617
D0002349891707201512880000250366860018870               02122024CUOTA         000234989178              0003400000P                      00000000000000R00   0000000000000000212202400000VTO130530322617
D0003268852132100011300071423856780018937               02122024CUOTA         0003268852110             0003400000P                      00000000000000R00   0000000000000000212202400000VTO130530322617
D0002410185401104992300499261083830018947               02122024CUOTA         000241018548              0003400000P                      00000000000000R00   0000000000000000212202400000VTO130530322617
D0003499428501700718400000370965640018977               02122024CUOTA         0003499428510             0003400000P                      00000000000000R00   0000000000000000212202400000VTO130530322617
D0002078723607201512880000365964360021078               02122024CUOTA         0002078723610             0003400000P                      00000000000000R00   0000000000000000212202400000VTO130530322617
D0003427830432100011300079665389970021079               02122024CUOTA         0003427830410             0003300000P                      00000000000000R00   0000000000000000212202400000VTO130530322617
D0002559604402009029110000305562580021094               02122024CUOTA         0002559604410             0003400000P                      00000000000000R00   0000000000000000212202400000VTO130530322617
D0002559604402009029110000305562580021095               02122024CUOTA         0002559604410             0003400000P                      00000000000000R00   0000000000000000212202400000VTO130530322617
D0002341185032100011300070587419970021118               02122024CUOTA         0002341185010             0002720000P                      00000000000000R00   0000000000000000212202400000VTO130530322617
D0003206091107201512880000385029900021132               02122024CUOTA         0003206091110             0003400000P                      00000000000000R00   0000000000000000212202400000VTO130530322617
D0003471150604400349400003562140830021136               02122024CUOTA         0003471150610             0003400000P                      00000000000000R00   0000000000000000212202400000VTO130530322617
D0002722174832100011300071218435790021147               02122024CUOTA         0002722174810             0003400000P                      00000000000000R00   0000000000000000212202400000VTO130530322617
D0002867714732100011300070986058600021151               02122024CUOTA         0002867714710             0003400000P                      00000000000000R00   0000000000000000212202400000VTO130530322617
D0003268554603402117082110143970000021159               02122024CUOTA         0003268554610             0003400000P                      00000000000000R00   0000000000000000212202400000VTO130530322617
D0003469332332100011300072006796400021165               02122024CUOTA         0003469332310             0003400000P                      00000000000000R00   0000000000000000212202400000VTO130530322617
D0002890099519101059551105001697170021170               02122024CUOTA         0002890099510             0003400000P                      00000000000000R00   0000000000000000212202400000VTO130530322617
D0003708600600700764300040880582190021173               02122024CUOTA         0003708600610             0003400000P                      00000000000000R00   0000000000000000212202400000VTO130530322617
D0002722273732100011300079248081170021234               02122024CUOTA         0002722273710             0003400000P                      00000000000000R00   0000000000000000212202400000VTO130530322617
D0002533362432100011500020218368580021250               02122024CUOTA         0002533362410             0000500000P                      00000000000000R00   0000000000000000212202400000VTO130530322617
D0003285969332100011300071956302440021281               02122024CUOTA         0003285969310             0003400000P                      00000000000000R00   0000000000000000212202400000VTO130530322617
D0003031651500701217300041867725670021287               02122024CUOTA         0003031651510             0003400000P                      00000000000000R00   0000000000000000212202400000VTO130530322617
D0003050747032100011300070477030960021291               02122024CUOTA         0003050747010             0003300000P                      00000000000000R00   0000000000000000212202400000VTO130530322617
D0003591716232100011300071353483870021292               02122024CUOTA         0003591716210             0003300000P                      00000000000000R00   0000000000000000212202400000VTO130530322617
D0003351950832100011300071937822440021296               02122024CUOTA         0003351950810             0003300000P                      00000000000000R00   0000000000000000212202400000VTO130530322617
D0003604525032100011300080311359250021298               02122024CUOTA         0003604525010             0003300000P                      00000000000000R00   0000000000000000212202400000VTO130530322617
D0003073893432100011300071396020300021299               02122024CUOTA         0003073893410             0003300000P                      00000000000000R00   0000000000000000212202400000VTO130530322617
D0003440985407201512880000388017900021302               02122024CUOTA         0003440985410             0003300000P                      00000000000000R00   0000000000000000212202400000VTO130530322617
D0003574394832100011300079747212220021306               02122024CUOTA         0003574394810             0003300000P                      00000000000000R00   0000000000000000212202400000VTO130530322617
D0002996746332100011300079350646120021310               02122024CUOTA         0002996746310             0003300000P                      00000000000000R00   0000000000000000212202400000VTO130530322617
D0003574109000701217300041929569950021311               02122024CUOTA         0003574109010             0003300000P                      00000000000000R00   0000000000000000212202400000VTO130530322617
D0003129621832100011300071329382440021312               02122024CUOTA         0003129621810             0003300000P                      00000000000000R00   0000000000000000212202400000VTO130530322617
D0003024138332100011300071389228980021323               02122024CUOTA         0003024138310             0003300000P                      00000000000000R00   0000000000000000212202400000VTO130530322617
D0002873359332100011300080386888040021343               02122024CUOTA         0002873359310             0003400000P                      00000000000000R00   0000000000000000212202400000VTO130530322617
D0003263103501104992300499227810650021365               02122024CUOTA         0003263103510             0003300000P                      00000000000000R00   0000000000000000212202400000VTO130530322617
D0003162131301104992300499023650470021392               02122024CUOTA         0003162131310             0003300000P                      00000000000000R00   0000000000000000212202400000VTO130530322617
D0003374929332100011300071406737110021393               02122024CUOTA         0003374929310             0003300000P                      00000000000000R00   0000000000000000212202400000VTO130530322617
D0002795899407201512880000042720900022401               02122024CUOTA         0002795899410             0003400000P                      00000000000000R00   0000000000000000212202400000VTO130530322617
D0001293529707203648880000350984900022441               02122024CUOTA         0001293529710             0003400000P                      00000000000000R00   0000000000000000212202400000VTO130530322617
D0001293529707203648880000350984900022447               02122024CUOTA         0001293529710             0003400000P                      00000000000000R00   0000000000000000212202400000VTO130530322617
D0003424160700701217300041710648000022480               02122024CUOTA         0003424160710             0003400000P                      00000000000000R00   0000000000000000212202400000VTO130530322617
D0003263103501104992300499227810650022482               02122024CUOTA         0003263103510             0003400000P                      00000000000000R00   0000000000000000212202400000VTO130530322617
D0002944447832100011300080015627990022491               02122024CUOTA         0002944447810             0003400000P                      00000000000000R00   0000000000000000212202400000VTO130530322617
D0003247640332100011300079847721170023555               02122024CUOTA         000324764038              0003400000P                      00000000000000R00   0000000000000000212202400000VTO130530322617
T0000428000001381520000
