H30530322617CUOTA     02021072025            A C HNOS MISERIC                                                                                                                                           
D0002703008532100011300070557480520002131               01082025CUOTA         000000000004              0006000000P                      00000000000000      00000000000000000000000         30530322617
D0002224289901104992300499099774830007267               01082025CUOTA         000000000006              0009000000P                      00000000000000      00000000000000000000000         30530322617
D0002914275832100011500022670528360007270               01082025CUOTA         000000000006              0009000000P                      00000000000000      00000000000000000000000         30530322617
D0002516861707201512880000021664540007275               01082025CUOTA         000000000006              0009000000P                      00000000000000      00000000000000000000000         30530322617
D0002636876001508404010001253533120007277               01082025CUOTA         000000000006              0007650000P                      00000000000000      00000000000000000000000         30530322617
D0002722290032100011300070497387330007285               01082025CUOTA         000000000006              0009000000P                      00000000000000      00000000000000000000000         30530322617
D0002315803132100011300070365423430007286               01082025CUOTA         000000000006              0009000000P                      00000000000000      00000000000000000000000         30530322617
D0002825384007201512880000390395540007290               01082025CUOTA         000000000006              0009000000P                      00000000000000      00000000000000000000000         30530322617
D0002193519432100011500031183307090007297               01082025CUOTA         000000000006              0009000000P                      00000000000000      00000000000000000000000         30530322617
D0002280600932100011300070373604360007305               01082025CUOTA         000000000006              0009000000P                      00000000000000      00000000000000000000000         30530322617
D0002849836132100011300070492113150007311               01082025CUOTA         000000000006              0009000000P                      00000000000000      00000000000000000000000         30530322617
D0003305452201700718400000368076640007313               01082025CUOTA         000000000006              0009000000P                      00000000000000      00000000000000000000000         30530322617
D0002163288507200298880000023790900007317               01082025CUOTA         000000000006              0009000000P                      00000000000000      00000000000000000000000         30530322617
D0003019024732100011300079701938760007318               01082025CUOTA         000000000006              0009000000P                      00000000000000      00000000000000000000000         30530322617
D0002677488432100011300071292042880007334               01082025CUOTA         000000000006              0009000000P                      00000000000000      00000000000000000000000         30530322617
D0002448434501508404010001220784100007337               01082025CUOTA         000000000006              0009000000P                      00000000000000      00000000000000000000000         30530322617
D0002645991132100011300070235017110007344               01082025CUOTA         000000000006              0009000000P                      00000000000000      00000000000000000000000         30530322617
D0002341075232100011500030123302540007795               01082025CUOTA         000000000006              0009000000P                      00000000000000      00000000000000000000000         30530322617
D0002767781832100011500025556245670007841               01082025CUOTA         000000000006              0009000000P                      00000000000000      00000000000000000000000         30530322617
D0002718512632100011300300187113650007846               01082025CUOTA         000000000006              0009000000P                      00000000000000      00000000000000000000000         30530322617
D0002594610101700718400000353415500007850               01082025CUOTA         000000000006              0009000000P                      00000000000000      00000000000000000000000         30530322617
D0002616115532100011300071099158100007855               01082025CUOTA         000000000006              0007650000P                      00000000000000      00000000000000000000000         30530322617
D0002657001901101689300168451445290007863               01082025CUOTA         000000000006              0009000000P                      00000000000000      00000000000000000000000         30530322617
D0002835495619101059551105011173710007865               01082025CUOTA         000000000006              0009000000P                      00000000000000      00000000000000000000000         30530322617
D0002867717732100011300071275922220007873               01082025CUOTA         000000000006              0009000000P                      00000000000000      00000000000000000000000         30530322617
D0002616168907201512880000383041900007880               01082025CUOTA         000000000006              0009000000P                      00000000000000      00000000000000000000000         30530322617
D0003091830600701217300041774001250007893               01082025CUOTA         000000000006              0007650000P                      00000000000000      00000000000000000000000         30530322617
D0001466136832100011300070072315910007894               01082025CUOTA         000000000006              0009000000P                      00000000000000      00000000000000000000000         30530322617
D0002616178103402841082840230130070007903               01082025CUOTA         000000000006              0009000000P                      00000000000000      00000000000000000000000         30530322617
D0002347384607203648880000351433360007904               01082025CUOTA         000000000006              0009000000P                      00000000000000      00000000000000000000000         30530322617
D0002722281532100011300071071655070007908               01082025CUOTA         000000000006              0009000000P                      00000000000000      00000000000000000000000         30530322617
D0002570932232100011300070326155790007910               01082025CUOTA         000000000006              0009000000P                      00000000000000      00000000000000000000000         30530322617
D0003765124932100011300079396667770008314               01082025CUOTA         000000000006              0009000000P                      00000000000000      00000000000000000000000         30530322617
D0002695492807203648880000357646540008315               01082025CUOTA         000000000006              0009000000P                      00000000000000      00000000000000000000000         30530322617
D0002981428632100011500028612531490008316               01082025CUOTA         000000000006              0009000000P                      00000000000000      00000000000000000000000         30530322617
D0002015153300701217300041939351110008321               01082025CUOTA         000000000006              0009000000P                      00000000000000      00000000000000000000000         30530322617
D0002948695701508404010001242773100008324               01082025CUOTA         000000000006              0009000000P                      00000000000000      00000000000000000000000         30530322617
D0002280600932100011300070373604360008325               01082025CUOTA         000000000006              0009000000P                      00000000000000      00000000000000000000000         30530322617
D0002261791900701217300041868101660008330               01082025CUOTA         000000000006              0009000000P                      00000000000000      00000000000000000000000         30530322617
D0002636884801700718200000304676640008331               01082025CUOTA         000000000006              0009000000P                      00000000000000      00000000000000000000000         30530322617
D0002341123732100011300070446034360008335               01082025CUOTA         000000000006              0009000000P                      00000000000000      00000000000000000000000         30530322617
D0002455397832100011300300059134640008342               01082025CUOTA         000000000006              0009000000P                      00000000000000      00000000000000000000000         30530322617
D0002261899701700718400000345880000008343               01082025CUOTA         000000000006              0009000000P                      00000000000000      00000000000000000000000         30530322617
D0002812501932100011300071013978100008347               01082025CUOTA         000000000006              0009000000P                      00000000000000      00000000000000000000000         30530322617
D0001815743732100011300070203201390008353               01082025CUOTA         000000000006              0009000000P                      00000000000000      00000000000000000000000         30530322617
D0001854371732100011300070624146560008356               01082025CUOTA         000000000006              0009000000P                      00000000000000      00000000000000000000000         30530322617
D0001678235832100011300070210402380008378               01082025CUOTA         000000000006              0009000000P                      00000000000000      00000000000000000000000         30530322617
D0002677488432100011300071292042880008382               01082025CUOTA         000000000006              0009000000P                      00000000000000      00000000000000000000000         30530322617
D0003035560704400349400002367972930008383               01082025CUOTA         000000000006              0009000000P                      00000000000000      00000000000000000000000         30530322617
D0002304269307201512880000377406720008386               01082025CUOTA         000000000006              0009000000P                      00000000000000      00000000000000000000000         30530322617
D0002867490032100011300070591091230008392               01082025CUOTA         000000000006              0007650000P                      00000000000000      00000000000000000000000         30530322617
D0002224264301508404010001060581660008396               01082025CUOTA         000000000006              0009000000P                      00000000000000      00000000000000000000000         30530322617
D0002099726704400349400003462911330008397               01082025CUOTA         000000000006              0009000000P                      00000000000000      00000000000000000000000         30530322617
D0002530185807201512880000252129900008400               01082025CUOTA         000000000006              0009000000P                      00000000000000      00000000000000000000000         30530322617
D0002903797107201512880000403342860008424               01082025CUOTA         000000000006              0009000000P                      00000000000000      00000000000000000000000         30530322617
D0003091757932100011300071436205850008425               01082025CUOTA         000000000006              0009000000P                      00000000000000      00000000000000000000000         30530322617
D0385525228607201512880000403204360008433               01082025CUOTA         000000000006              0009000000P                      00000000000000      00000000000000000000000         30530322617
D0002813914132100011300070504039030008441               01082025CUOTA         000000000006              0007650000P                      00000000000000      00000000000000000000000         30530322617
D0003112051532100011300070569178820008447               01082025CUOTA         000000000006              0009000000P                      00000000000000      00000000000000000000000         30530322617
D0003044322632100011300071323676620008455               01082025CUOTA         000000000006              0009000000P                      00000000000000      00000000000000000000000         30530322617
D0003113226607201512880000044950400008459               01082025CUOTA         000000000006              0007650000P                      00000000000000      00000000000000000000000         30530322617
D0003172929407201512880000376454720008462               01082025CUOTA         000000000006              0009000000P                      00000000000000      00000000000000000000000         30530322617
D0002824639332100011300079541107490008465               01082025CUOTA         000000000006              0009000000P                      00000000000000      00000000000000000000000         30530322617
D0002543793132100011500022562296380008467               01082025CUOTA         000000000006              0009000000P                      00000000000000      00000000000000000000000         30530322617
D0002542901532100011300071178021390008472               01082025CUOTA         000000000006              0009000000P                      00000000000000      00000000000000000000000         30530322617
D0002677476128506797400950390250180008473               01082025CUOTA         000000000006              0009000000P                      00000000000000      00000000000000000000000         30530322617
D0002397640607203648880000350789860008474               01082025CUOTA         000000000006              0009000000P                      00000000000000      00000000000000000000000         30530322617
D0002781108001104992300499251735150008475               01082025CUOTA         000000000006              0009000000P                      00000000000000      00000000000000000000000         30530322617
D0002163208632100011300070303010950008485               01082025CUOTA         000000000006              0009000000P                      00000000000000      00000000000000000000000         30530322617
D0002163182407201512880000020646040008489               01082025CUOTA         000000000006              0009000000P                      00000000000000      00000000000000000000000         30530322617
D0002329805407203648880000353754900008494               01082025CUOTA         000000000006              0009000000P                      00000000000000      00000000000000000000000         30530322617
D0002133927532100011300070272773150008499               01082025CUOTA         000000000006              0009000000P                      00000000000000      00000000000000000000000         30530322617
D0002232974307203648880000358545680008502               01082025CUOTA         000000000006              0009000000P                      00000000000000      00000000000000000000000         30530322617
D0002261756528506797400949661735680008506               01082025CUOTA         000000000006              0009000000P                      00000000000000      00000000000000000000000         30530322617
D0002410185832100011300070207956340008508               01082025CUOTA         000000000006              0009000000P                      00000000000000      00000000000000000000000         30530322617
D0002261816207201512880000019986720008511               01082025CUOTA         000000000006              0009000000P                      00000000000000      00000000000000000000000         30530322617
D0001854371732100011300070624146560008514               01082025CUOTA         000000000006              0009000000P                      00000000000000      00000000000000000000000         30530322617
D0002824606604400349400003087528430008516               01082025CUOTA         000000000006              0009000000P                      00000000000000      00000000000000000000000         30530322617
D0003329297207201512880000399685400008521               01082025CUOTA         000000000006              0007650000P                      00000000000000      00000000000000000000000         30530322617
D0002224279832100011300070542346280008831               01082025CUOTA         000000000006              0009000000P                      00000000000000      00000000000000000000000         30530322617
D0002761028932100011300070503797270008843               01082025CUOTA         000000000006              0009000000P                      00000000000000      00000000000000000000000         30530322617
D0002825384007201512880000390395540008844               01082025CUOTA         000000000006              0009000000P                      00000000000000      00000000000000000000000         30530322617
D0002739198507203648880000350035400008848               01082025CUOTA         000000000006              0009000000P                      00000000000000      00000000000000000000000         30530322617
D0002722290032100011300070497387330008850               01082025CUOTA         000000000006              0009000000P                      00000000000000      00000000000000000000000         30530322617
D0002900107201508404010001094280140008858               01082025CUOTA         000000000006              0009000000P                      00000000000000      00000000000000000000000         30530322617
D0002718573819101059551105013635210008859               01082025CUOTA         000000000006              0009000000P                      00000000000000      00000000000000000000000         30530322617
D0003591796507201512880000378484680008860               01082025CUOTA         000000000006              0009000000P                      00000000000000      00000000000000000000000         30530322617
D0003268890432100011300071409174420008861               01082025CUOTA         000000000006              0009000000P                      00000000000000      00000000000000000000000         30530322617
D0002397632101700718400000005224140008865               01082025CUOTA         000000000006              0009000000P                      00000000000000      00000000000000000000000         30530322617
D0002760812532100011300071353135630008867               01082025CUOTA         000000000006              0009000000P                      00000000000000      00000000000000000000000         30530322617
D0003329297207201512880000399685400008870               01082025CUOTA         000000000006              0007650000P                      00000000000000      00000000000000000000000         30530322617
D0002923699507201512880000362679540008876               01082025CUOTA         000000000006              0009000000P                      00000000000000      00000000000000000000000         30530322617
D0002824610307201512880000361628220008878               01082025CUOTA         000000000006              0009000000P                      00000000000000      00000000000000000000000         30530322617
D0002903797107201512880000403342860008879               01082025CUOTA         000000000006              0009000000P                      00000000000000      00000000000000000000000         30530322617
D0002948667832100011300300000954080008881               01082025CUOTA         000000000006              0009000000P                      00000000000000      00000000000000000000000         30530322617
D0002844486032100011500028963454800008882               01082025CUOTA         000000000006              0009000000P                      00000000000000      00000000000000000000000         30530322617
D0002533389632100011300070274742660008884               01082025CUOTA         000000000006              0009000000P                      00000000000000      00000000000000000000000         30530322617
D0003091830600701217300041774001250008885               01082025CUOTA         000000000006              0007650000P                      00000000000000      00000000000000000000000         30530322617
D0002616178007203648880000351313220008890               01082025CUOTA         000000000006              0009000000P                      00000000000000      00000000000000000000000         30530322617
D0003352060232100011300071403697550008896               01082025CUOTA         000000000006              0007650000P                      00000000000000      00000000000000000000000         30530322617
D0002804876832100011300070620587770008906               01082025CUOTA         000000000006              0009000000P                      00000000000000      00000000000000000000000         30530322617
D0002630470032100011300070288300520008909               01082025CUOTA         000000000006              0009000000P                      00000000000000      00000000000000000000000         30530322617
D0002887623432100011300070496088320008910               01082025CUOTA         000000000006              0009000000P                      00000000000000      00000000000000000000000         30530322617
D0002427748207201512880000365475400008915               01082025CUOTA         000000000006              0009000000P                      00000000000000      00000000000000000000000         30530322617
D0002419344232100011300070401270020008920               01082025CUOTA         000000000006              0009000000P                      00000000000000      00000000000000000000000         30530322617
D0003108150832100011500022242111550008921               01082025CUOTA         000000000006              0009000000P                      00000000000000      00000000000000000000000         30530322617
D0002718591432100011500021102035010008936               01082025CUOTA         000000000006              0009000000P                      00000000000000      00000000000000000000000         30530322617
D0002870109907201512880000047754900008937               01082025CUOTA         000000000006              0009000000P                      00000000000000      00000000000000000000000         30530322617
D0002540026301100136300013106687470008938               01082025CUOTA         000000000006              0009000000P                      00000000000000      00000000000000000000000         30530322617
D0003189723907200250880000376639040008939               01082025CUOTA         000000000006              0009000000P                      00000000000000      00000000000000000000000         30530322617
D0002030729932100011500032856824300008940               01082025CUOTA         000000000006              0009000000P                      00000000000000      00000000000000000000000         30530322617
D0002134049607201512880000019971360008948               01082025CUOTA         000000000006              0009000000P                      00000000000000      00000000000000000000000         30530322617
D0002903782801104992300499091875010008962               01082025CUOTA         000000000006              0009000000P                      00000000000000      00000000000000000000000         30530322617
D0002527679032100011300070455353210008964               01082025CUOTA         000000000006              0007650000P                      00000000000000      00000000000000000000000         30530322617
D0003044155301104992300499244909470008972               01082025CUOTA         000000000006              0009000000P                      00000000000000      00000000000000000000000         30530322617
D0002677468032100011500030207530120008973               01082025CUOTA         000000000006              0007650000P                      00000000000000      00000000000000000000000         30530322617
D0002222471607201512880000022278180008981               01082025CUOTA         000000000006              0009000000P                      00000000000000      00000000000000000000000         30530322617
D0002511449800701217300041891014940008982               01082025CUOTA         000000000006              0009000000P                      00000000000000      00000000000000000000000         30530322617
D0003112046401104992300499050069650008984               01082025CUOTA         000000000006              0009000000P                      00000000000000      00000000000000000000000         30530322617
D0001762455932100011300070042347770008985               01082025CUOTA         000000000006              0009000000P                      00000000000000      00000000000000000000000         30530322617
D0002341185032100011300070587419970008987               01082025CUOTA         000000000006              0007650000P                      00000000000000      00000000000000000000000         30530322617
D0002341138332100011300070247733590008989               01082025CUOTA         000000000006              0009000000P                      00000000000000      00000000000000000000000         30530322617
D0001843304632100011300070171255290008993               01082025CUOTA         000000000006              0009000000P                      00000000000000      00000000000000000000000         30530322617
D0002304219832102307500010044298900008995               01082025CUOTA         000000000006              0009000000P                      00000000000000      00000000000000000000000         30530322617
D0001826007307201512880000220361220008999               01082025CUOTA         000000000006              0009000000P                      00000000000000      00000000000000000000000         30530322617
D0002291745101700718400000005333640009002               01082025CUOTA         000000000006              0009000000P                      00000000000000      00000000000000000000000         30530322617
D0002196813207201512880000021526040009005               01082025CUOTA         000000000006              0009000000P                      00000000000000      00000000000000000000000         30530322617
D0002564453432100011300070990371010009009               01082025CUOTA         000000000006              0009000000P                      00000000000000      00000000000000000000000         30530322617
D0002341057407201512880000404078900009010               01082025CUOTA         000000000006              0009000000P                      00000000000000      00000000000000000000000         30530322617
D0002813914132100011300070504039030009014               01082025CUOTA         000000000006              0007650000P                      00000000000000      00000000000000000000000         30530322617
D0002643868307203648880000358543220009018               01082025CUOTA         000000000006              0009000000P                      00000000000000      00000000000000000000000         30530322617
D0002484094201700718400000325308500009022               01082025CUOTA         000000000006              0009000000P                      00000000000000      00000000000000000000000         30530322617
D0003130525307201512880000372950040009024               01082025CUOTA         000000000006              0009000000P                      00000000000000      00000000000000000000000         30530322617
D0002056473801700718400000006767460009026               01082025CUOTA         000000000006              0009000000P                      00000000000000      00000000000000000000000         30530322617
D0002163193928506797400949584671380009027               01082025CUOTA         000000000006              0009000000P                      00000000000000      00000000000000000000000         30530322617
D0002636841532100011300070859578480009028               01082025CUOTA         000000000006              0009000000P                      00000000000000      00000000000000000000000         30530322617
D0002279602407201512880000363003360009029               01082025CUOTA         000000000006              0009000000P                      00000000000000      00000000000000000000000         30530322617
D0002362548307201512880000396539180009030               01082025CUOTA         000000000006              0009000000P                      00000000000000      00000000000000000000000         30530322617
D0002133911701104992300499091835470009031               01082025CUOTA         000000000006              0009000000P                      00000000000000      00000000000000000000000         30530322617
D0002090009401702257400000302978890009035               01082025CUOTA         000000000006              0009000000P                      00000000000000      00000000000000000000000         30530322617
D0000593775932100011500020620813030009039               01082025CUOTA         000000000006              0009000000P                      00000000000000      00000000000000000000000         30530322617
D0002978570807201659880000376477680009195               01082025CUOTA         000000000006              0009000000P                      00000000000000      00000000000000000000000         30530322617
D0002867722601508404010001146143340009715               01082025CUOTA         000000000006              0009000000P                      00000000000000      00000000000000000000000         30530322617
D0002971685201104992300499093297650009795               01082025CUOTA         000000000006              0009000000P                      00000000000000      00000000000000000000000         30530322617
D0003130546804400349200002882848390009825               01082025CUOTA         000000000006              0009000000P                      00000000000000      00000000000000000000000         30530322617
D0002570954532100011300070494569810009841               01082025CUOTA         000000000006              0009000000P                      00000000000000      00000000000000000000000         30530322617
D0002604044001700718400000381399140009842               01082025CUOTA         000000000006              0009000000P                      00000000000000      00000000000000000000000         30530322617
D0003190506200701217300041673149820009843               01082025CUOTA         000000000006              0009000000P                      00000000000000      00000000000000000000000         30530322617
D0002708767219100476550047542675640009844               01082025CUOTA         000000000006              0009000000P                      00000000000000      00000000000000000000000         30530322617
D0002739013807201512880000369738220009856               01082025CUOTA         000000000006              0009000000P                      00000000000000      00000000000000000000000         30530322617
D0002716914603402841082840054560000009857               01082025CUOTA         000000000006              0009000000P                      00000000000000      00000000000000000000000         30530322617
D0002484061332100011300071318084360009859               01082025CUOTA         000000000006              0009000000P                      00000000000000      00000000000000000000000         30530322617
D0002484061332100011300071318084360009860               01082025CUOTA         000000000006              0009000000P                      00000000000000      00000000000000000000000         30530322617
D0002622065732100011300071321159190009865               01082025CUOTA         000000000006              0009000000P                      00000000000000      00000000000000000000000         30530322617
D0002844491807203648880000363185220009887               01082025CUOTA         000000000006              0009000000P                      00000000000000      00000000000000000000000         30530322617
D0003713892000701217300042164221340009891               01082025CUOTA         000000000006              0009000000P                      00000000000000      00000000000000000000000         30530322617
D0002844459532100011300070507826400009894               01082025CUOTA         000000000006              0009000000P                      00000000000000      00000000000000000000000         30530322617
D0003416764732100011500031294624240009896               01082025CUOTA         000000000006              0007650000P                      00000000000000      00000000000000000000000         30530322617
D0385525228607201512880000403204360009898               01082025CUOTA         000000000006              0009000000P                      00000000000000      00000000000000000000000         30530322617
D0002890013704400349400003156301030009917               01082025CUOTA         000000000006              0009000000P                      00000000000000      00000000000000000000000         30530322617
D0003231526319101059551105011172030009918               01082025CUOTA         000000000006              0009000000P                      00000000000000      00000000000000000000000         30530322617
D0002182613701700718400000361840460009925               01082025CUOTA         000000000006              0009000000P                      00000000000000      00000000000000000000000         30530322617
D0001313206707203648880000363768360009928               01082025CUOTA         000000000006              0009000000P                      00000000000000      00000000000000000000000         30530322617
D0002708759700701217300041847491920009940               01082025CUOTA         000000000006              0009000000P                      00000000000000      00000000000000000000000         30530322617
D0003173921232100011500029875033750009947               01082025CUOTA         000000000006              0009000000P                      00000000000000      00000000000000000000000         30530322617
D0003309283007201512880000377830400009948               01082025CUOTA         000000000006              0009000000P                      00000000000000      00000000000000000000000         30530322617
D0002804897601508404010001200326320009951               01082025CUOTA         000000000006              0009000000P                      00000000000000      00000000000000000000000         30530322617
D0001803718107203648880000351412860009952               01082025CUOTA         000000000006              0009000000P                      00000000000000      00000000000000000000000         30530322617
D0002397640607203648880000350789860009965               01082025CUOTA         000000000006              0009000000P                      00000000000000      00000000000000000000000         30530322617
D0001815488632100011300070496410020009966               01082025CUOTA         000000000006              0009000000P                      00000000000000      00000000000000000000000         30530322617
D0002783471928506797400949066073480009968               01082025CUOTA         000000000006              0009000000P                      00000000000000      00000000000000000000000         30530322617
D0002179172032100011300070441327830009976               01082025CUOTA         000000000006              0009000000P                      00000000000000      00000000000000000000000         30530322617
D0002760807801104992300499992833290009985               01082025CUOTA         000000000006              0009000000P                      00000000000000      00000000000000000000000         30530322617
D0002957673832100011300071125086120009989               01082025CUOTA         000000000006              0007650000P                      00000000000000      00000000000000000000000         30530322617
D0002530174132100011300080281243650010006               01082025CUOTA         000000000006              0009000000P                      00000000000000      00000000000000000000000         30530322617
D0002304117500701217300041754165910010008               01082025CUOTA         000000000006              0009000000P                      00000000000000      00000000000000000000000         30530322617
D0002718512632100011300300187113650010011               01082025CUOTA         000000000006              0009000000P                      00000000000000      00000000000000000000000         30530322617
D0002437651732100011300079243065290010014               01082025CUOTA         000000000006              0009000000P                      00000000000000      00000000000000000000000         30530322617
D0003308933432100011300079981999190010015               01082025CUOTA         000000000006              0009000000P                      00000000000000      00000000000000000000000         30530322617
D0002872472832100011300080043356060010028               01082025CUOTA         000000000006              0009000000P                      00000000000000      00000000000000000000000         30530322617
D0002739071304400349400001711821230010030               01082025CUOTA         000000000006              0009000000P                      00000000000000      00000000000000000000000         30530322617
D0002739047501700718400000376672140010032               01082025CUOTA         000000000006              0009000000P                      00000000000000      00000000000000000000000         30530322617
D0003044306632102307500008995332680010034               01082025CUOTA         000000000006              0009000000P                      00000000000000      00000000000000000000000         30530322617
D0002965329132100011300070477040680010035               01082025CUOTA         000000000006              0009000000P                      00000000000000      00000000000000000000000         30530322617
D0002540026301100136300013106687470010041               01082025CUOTA         000000000006              0009000000P                      00000000000000      00000000000000000000000         30530322617
D0002030729932100011500032856824300010042               01082025CUOTA         000000000006              0009000000P                      00000000000000      00000000000000000000000         30530322617
D0002677468032100011500030207530120010044               01082025CUOTA         000000000006              0007650000P                      00000000000000      00000000000000000000000         30530322617
D0002812501932100011300071013978100010048               01082025CUOTA         000000000006              0009000000P                      00000000000000      00000000000000000000000         30530322617
D0003374916507201512880000037994400010050               01082025CUOTA         000000000006              0009000000P                      00000000000000      00000000000000000000000         30530322617
D0003534446507201512880000396462680010097               01082025CUOTA         000000000006              0009000000P                      00000000000000      00000000000000000000000         30530322617
D0002739175004400349400003107152830010099               01082025CUOTA         000000000006              0009000000P                      00000000000000      00000000000000000000000         30530322617
D0002708767219100476550047542675640010100               01082025CUOTA         000000000006              0009000000P                      00000000000000      00000000000000000000000         30530322617
D0002717245732100011300070414947270010348               01082025CUOTA         000000000006              0007650000P                      00000000000000      00000000000000000000000         30530322617
D0003024128101508404010001256230440010350               01082025CUOTA         000000000006              0009000000P                      00000000000000      00000000000000000000000         30530322617
D0003173976904400349400002778760430010447               01082025CUOTA         000000000006              0009000000P                      00000000000000      00000000000000000000000         30530322617
D0002953617132100011300070909372880010449               01082025CUOTA         000000000006              0009000000P                      00000000000000      00000000000000000000000         30530322617
D0002485013200701217300041920359280010450               01082025CUOTA         000000000006              0009000000P                      00000000000000      00000000000000000000000         30530322617
D0002739090007201512880000370605900010451               01082025CUOTA         000000000006              0009000000P                      00000000000000      00000000000000000000000         30530322617
D0002903783632100011300071350785630010452               01082025CUOTA         000000000006              0009000000P                      00000000000000      00000000000000000000000         30530322617
D0002630470032100011300070288300520010456               01082025CUOTA         000000000006              0009000000P                      00000000000000      00000000000000000000000         30530322617
D0003188887701508404010001203504170010458               01082025CUOTA         000000000006              0009000000P                      00000000000000      00000000000000000000000         30530322617
D0002224264301508404010001060581660010460               01082025CUOTA         000000000006              0009000000P                      00000000000000      00000000000000000000000         30530322617
D0002516861707201512880000021664540010461               01082025CUOTA         000000000006              0009000000P                      00000000000000      00000000000000000000000         30530322617
D0002616131107201512880000021746400010463               01082025CUOTA         000000000006              0009000000P                      00000000000000      00000000000000000000000         30530322617
D0002530185807201512880000252129900010464               01082025CUOTA         000000000006              0009000000P                      00000000000000      00000000000000000000000         30530322617
D0003591756432100011300071273414420010471               01082025CUOTA         000000000006              0009000000P                      00000000000000      00000000000000000000000         30530322617
D0002994937901104992300499093230330010473               01082025CUOTA         000000000006              0009000000P                      00000000000000      00000000000000000000000         30530322617
D0001475411132100011500026813050280010474               01082025CUOTA         000000000006              0009000000P                      00000000000000      00000000000000000000000         30530322617
D0003416947438900837400052096809380010478               01082025CUOTA         000000000006              0009000000P                      00000000000000      00000000000000000000000         30530322617
D0003528745632100011300300309747330010479               01082025CUOTA         000000000006              0009000000P                      00000000000000      00000000000000000000000         30530322617
D0002781106328506797400948956906880010483               01082025CUOTA         000000000006              0009000000P                      00000000000000      00000000000000000000000         30530322617
D0002261879532100011300070040909750010494               01082025CUOTA         000000000006              0009000000P                      00000000000000      00000000000000000000000         30530322617
D0003534352701700718400000366516500010520               01082025CUOTA         000000000006              0009000000P                      00000000000000      00000000000000000000000         30530322617
D0002657027807201512880000382786040010523               01082025CUOTA         000000000006              0009000000P                      00000000000000      00000000000000000000000         30530322617
D0002989418032100011300071168080460010525               01082025CUOTA         000000000006              0009000000P                      00000000000000      00000000000000000000000         30530322617
D0002496777932100011300070276950740010527               01082025CUOTA         000000000006              0009000000P                      00000000000000      00000000000000000000000         30530322617
D0002392598132100011300071326935410010529               01082025CUOTA         000000000006              0009000000P                      00000000000000      00000000000000000000000         30530322617
D0002850306807201512880000224689900010534               01082025CUOTA         000000000006              0009000000P                      00000000000000      00000000000000000000000         30530322617
D0002527679032100011300070455353210010539               01082025CUOTA         000000000006              0007650000P                      00000000000000      00000000000000000000000         30530322617
D0002591220500701217300042040581740010540               01082025CUOTA         000000000006              0009000000P                      00000000000000      00000000000000000000000         30530322617
D0002813914132100011300070504039030010543               01082025CUOTA         000000000006              0007650000P                      00000000000000      00000000000000000000000         30530322617
D0003130525307201512880000372950040010550               01082025CUOTA         000000000006              0009000000P                      00000000000000      00000000000000000000000         30530322617
D0002261829207201512880000220333900010553               01082025CUOTA         000000000006              0009000000P                      00000000000000      00000000000000000000000         30530322617
D0002341136332100011300070406366780010558               01082025CUOTA         000000000006              0009000000P                      00000000000000      00000000000000000000000         30530322617
D0002421656932100011300070446134200010559               01082025CUOTA         000000000006              0009000000P                      00000000000000      00000000000000000000000         30530322617
D0002739114507203648880000360339860010562               01082025CUOTA         000000000006              0009000000P                      00000000000000      00000000000000000000000         30530322617
D0002543793132100011500022562296380010565               01082025CUOTA         000000000006              0009000000P                      00000000000000      00000000000000000000000         30530322617
D0003044155301104992300499244909470010566               01082025CUOTA         000000000006              0009000000P                      00000000000000      00000000000000000000000         30530322617
D0002804897601508404010001200326320010567               01082025CUOTA         000000000006              0009000000P                      00000000000000      00000000000000000000000         30530322617
D0002662943107201512880000365442680010570               01082025CUOTA         000000000006              0009000000P                      00000000000000      00000000000000000000000         30530322617
D0002163125407201512880000221156360010571               01082025CUOTA         000000000006              0009000000P                      00000000000000      00000000000000000000000         30530322617
D0002781108001104992300499251735150010572               01082025CUOTA         000000000006              0009000000P                      00000000000000      00000000000000000000000         30530322617
D0001379069900701217300041424998130010574               01082025CUOTA         000000000006              0009000000P                      00000000000000      00000000000000000000000         30530322617
D0003268887228506797400949717220580010575               01082025CUOTA         000000000006              0009000000P                      00000000000000      00000000000000000000000         30530322617
D0002813917928506797400949717212080010582               01082025CUOTA         000000000006              0009000000P                      00000000000000      00000000000000000000000         30530322617
D0002095990432100011300070556071950010586               01082025CUOTA         000000000006              0009000000P                      00000000000000      00000000000000000000000         30530322617
D0003352060232100011300071403697550010594               01082025CUOTA         000000000006              0007650000P                      00000000000000      00000000000000000000000         30530322617
D0002745737332100011300079585778320010595               01082025CUOTA         000000000006              0009000000P                      00000000000000      00000000000000000000000         30530322617
D0002616115532100011300071099158100010597               01082025CUOTA         000000000006              0007650000P                      00000000000000      00000000000000000000000         30530322617
D0002758175501700718400000359659140010598               01082025CUOTA         000000000006              0009000000P                      00000000000000      00000000000000000000000         30530322617
D0002397632101700718400000005224140010600               01082025CUOTA         000000000006              0009000000P                      00000000000000      00000000000000000000000         30530322617
D0002511441328506797400951955215880010603               01082025CUOTA         000000000006              0009000000P                      00000000000000      00000000000000000000000         30530322617
D0002734212307201512880000020797540010616               01082025CUOTA         000000000006              0009000000P                      00000000000000      00000000000000000000000         30530322617
D0002677468032100011500030207530120010631               01082025CUOTA         000000000006              0007650000P                      00000000000000      00000000000000000000000         30530322617
D0002566570432100011300071395620460010633               01082025CUOTA         000000000006              0009000000P                      00000000000000      00000000000000000000000         30530322617
D0002163288507200298880000023790900010640               01082025CUOTA         000000000006              0009000000P                      00000000000000      00000000000000000000000         30530322617
D0003091830600701217300041774001250010646               01082025CUOTA         000000000006              0007650000P                      00000000000000      00000000000000000000000         30530322617
D0003499419319101059551105010711670010661               01082025CUOTA         000000000006              0009000000P                      00000000000000      00000000000000000000000         30530322617
D0002971995332100011500022476843810010676               01082025CUOTA         000000000006              0001000000P                      00000000000000      00000000000000000000000         30530322617
D0004044658132100011500028389540840010686               01082025CUOTA         000000000006              0001000000P                      00000000000000      00000000000000000000000         30530322617
D0002739053001700718400000325267960010952               01082025CUOTA         000000000006              0007650000P                      00000000000000      00000000000000000000000         30530322617
D0002440965700701217300041804502670010955               01082025CUOTA         000000000006              0009000000P                      00000000000000      00000000000000000000000         30530322617
D0002813949219101059550105533768280010963               01082025CUOTA         000000000006              0009000000P                      00000000000000      00000000000000000000000         30530322617
D0003441408901700718400000333950780010993               01082025CUOTA         000000000006              0007650000P                      00000000000000      00000000000000000000000         30530322617
D0002622065732100011300071321159190011011               01082025CUOTA         000000000006              0009000000P                      00000000000000      00000000000000000000000         30530322617
D0003112041432100011500026110673250011017               01082025CUOTA         000000000006              0009000000P                      00000000000000      00000000000000000000000         30530322617
D0002604046932100011300071209616340011025               01082025CUOTA         000000000006              0009000000P                      00000000000000      00000000000000000000000         30530322617
D0002341184732100011300070263525070011026               01082025CUOTA         000000000006              0009000000P                      00000000000000      00000000000000000000000         30530322617
D0005162671232100011300070526084360011039               01082025CUOTA         000000000006              0009000000P                      00000000000000      00000000000000000000000         30530322617
D0002570958732100011300070494301890011040               01082025CUOTA         000000000006              0009000000P                      00000000000000      00000000000000000000000         30530322617
D0003416765501700718400000373174780011045               01082025CUOTA         000000000006              0009000000P                      00000000000000      00000000000000000000000         30530322617
D0002813949219101059550105533768280011054               01082025CUOTA         000000000006              0009000000P                      00000000000000      00000000000000000000000         30530322617
D0002760822001508404010001203660890011058               01082025CUOTA         000000000006              0009000000P                      00000000000000      00000000000000000000000         30530322617
D0002765093801508404020001025844880011080               01082025CUOTA         000000000006              0009000000P                      00000000000000      00000000000000000000000         30530322617
D0002739197432100011300070241628100011085               01082025CUOTA         000000000006              0009000000P                      00000000000000      00000000000000000000000         30530322617
D0002594604632100011500030239706720011088               01082025CUOTA         000000000006              0009000000P                      00000000000000      00000000000000000000000         30530322617
D0001826003832100011300070325994420011098               01082025CUOTA         000000000006              0009000000P                      00000000000000      00000000000000000000000         30530322617
D0002419817001700718400000372602460011114               01082025CUOTA         000000000006              0009000000P                      00000000000000      00000000000000000000000         30530322617
D0002397625132100011300071246872880011115               01082025CUOTA         000000000006              0009000000P                      00000000000000      00000000000000000000000         30530322617
D0002419334800701217200000056034200011116               01082025CUOTA         000000000006              0009000000P                      00000000000000      00000000000000000000000         30530322617
D0002341185032100011300070587419970011123               01082025CUOTA         000000000006              0007650000P                      00000000000000      00000000000000000000000         30530322617
D0002570997332100011300071112788480011125               01082025CUOTA         000000000006              0009000000P                      00000000000000      00000000000000000000000         30530322617
D0002906003203402841082840160630060011131               01082025CUOTA         000000000006              0007500000P                      00000000000000      00000000000000000000000         30530322617
D0003071221101508404010001152497390011132               01082025CUOTA         000000000006              0007500000P                      00000000000000      00000000000000000000000         30530322617
D0002971691132100011300071399395850011136               01082025CUOTA         000000000006              0007500000P                      00000000000000      00000000000000000000000         30530322617
D0003213241532100011500023217200840011139               01082025CUOTA         000000000006              0006375000P                      00000000000000      00000000000000000000000         30530322617
D0003416764732100011500031294624240011144               01082025CUOTA         000000000006              0006375000P                      00000000000000      00000000000000000000000         30530322617
D0002485013200701217300041920359280011145               01082025CUOTA         000000000006              0007500000P                      00000000000000      00000000000000000000000         30530322617
D0002570936132100011300071200512720011156               01082025CUOTA         000000000006              0007500000P                      00000000000000      00000000000000000000000         30530322617
D0002311785507201512880000021574180011157               01082025CUOTA         000000000006              0007500000P                      00000000000000      00000000000000000000000         30530322617
D0002989415807201512880000382872680011161               01082025CUOTA         000000000006              0007500000P                      00000000000000      00000000000000000000000         30530322617
D0002739136632100011300070942893090011162               01082025CUOTA         000000000006              0007500000P                      00000000000000      00000000000000000000000         30530322617
D0003795539807201512880000396344900011172               01082025CUOTA         000000000006              0007500000P                      00000000000000      00000000000000000000000         30530322617
D0003691218532100011300080166213150011174               01082025CUOTA         000000000006              0007500000P                      00000000000000      00000000000000000000000         30530322617
D0003189723907200250880000376639040011180               01082025CUOTA         000000000006              0007500000P                      00000000000000      00000000000000000000000         30530322617
D0002533389632100011300070274742660011188               01082025CUOTA         000000000006              0007500000P                      00000000000000      00000000000000000000000         30530322617
D0002824610307201512880000361628220011194               01082025CUOTA         000000000006              0007500000P                      00000000000000      00000000000000000000000         30530322617
D0003424377107201512880000020732680011198               01082025CUOTA         000000000006              0007500000P                      00000000000000      00000000000000000000000         30530322617
D0002872472832100011300080043356060011200               01082025CUOTA         000000000006              0007500000P                      00000000000000      00000000000000000000000         30530322617
D0003848436632100011500027045867370011255               01082025CUOTA         000000000006              0001000000P                      00000000000000      00000000000000000000000         30530322617
D0002550196307201512880000020408220011287               01082025CUOTA         000000000006              0007500000P                      00000000000000      00000000000000000000000         30530322617
D0002791817332100011300070447623370011290               01082025CUOTA         000000000006              0007500000P                      00000000000000      00000000000000000000000         30530322617
D0002813917928506797400949717212080011296               01082025CUOTA         000000000006              0007500000P                      00000000000000      00000000000000000000000         30530322617
D0003352060232100011300071403697550011299               01082025CUOTA         000000000006              0006375000P                      00000000000000      00000000000000000000000         30530322617
D0003285993907201512880000371462720011300               01082025CUOTA         000000000006              0007500000P                      00000000000000      00000000000000000000000         30530322617
D0003369312232100011300071310560020011301               01082025CUOTA         000000000006              0006375000P                      00000000000000      00000000000000000000000         30530322617
D0002739053001700718400000325267960011305               01082025CUOTA         000000000006              0006375000P                      00000000000000      00000000000000000000000         30530322617
D0003044306632102307500008995332680011311               01082025CUOTA         000000000006              0007500000P                      00000000000000      00000000000000000000000         30530322617
D0001029316601104992300499179368010011312               01082025CUOTA         000000000006              0007500000P                      00000000000000      00000000000000000000000         30530322617
D0002496743532100011300070600399470011315               01082025CUOTA         000000000006              0009000000P                      00000000000000      00000000000000000000000         30530322617
D0002739092100701217300041866540830011318               01082025CUOTA         000000000006              0009000000P                      00000000000000      00000000000000000000000         30530322617
D0002831892101104992300499088916650011319               01082025CUOTA         000000000006              0009000000P                      00000000000000      00000000000000000000000         30530322617
D0002867732032100011300300198779690011322               01082025CUOTA         000000000006              0009000000P                      00000000000000      00000000000000000000000         30530322617
D0002897705332100011500031208877870011332               01082025CUOTA         000000000006              0001000000P                      00000000000000      00000000000000000000000         30530322617
D0002550791732100011300079664180800011339               01082025CUOTA         000000000006              0007650000P                      00000000000000      00000000000000000000000         30530322617
D0002573003532100011300070502668980011396               01082025CUOTA         000000000004              0006000000P                      00000000000000      00000000000000000000000         30530322617
D0002584425632100011300079815764080011453               01082025CUOTA         000000000006              0009000000P                      00000000000000      00000000000000000000000         30530322617
D0002739338132100011300070954323370011542               01082025CUOTA         000000000006              0009000000P                      00000000000000      00000000000000000000000         30530322617
D0003231547028503507400954066754880011574               01082025CUOTA         000000000006              0009000000P                      00000000000000      00000000000000000000000         30530322617
D0003469555632100011500026114699850011613               01082025CUOTA         000000000006              0001000000P                      00000000000000      00000000000000000000000         30530322617
D0002530142632100011300071240209750011617               01082025CUOTA         000000000006              0009000000P                      00000000000000      00000000000000000000000         30530322617
D0002636876001508404010001253533120011618               01082025CUOTA         000000000006              0007650000P                      00000000000000      00000000000000000000000         30530322617
D0003091757932100011300071436205850011620               01082025CUOTA         000000000006              0009000000P                      00000000000000      00000000000000000000000         30530322617
D0005297087732100011300070990641670011621               01082025CUOTA         000000000006              0009000000P                      00000000000000      00000000000000000000000         30530322617
D0002824606604400349400003087528430011622               01082025CUOTA         000000000006              0009000000P                      00000000000000      00000000000000000000000         30530322617
D0002657657200701217300041504711020011626               01082025CUOTA         000000000006              0009000000P                      00000000000000      00000000000000000000000         30530322617
D0002437669807201512880000370515540011627               01082025CUOTA         000000000006              0009000000P                      00000000000000      00000000000000000000000         30530322617
D0002163127932100011300070564413870011628               01082025CUOTA         000000000006              0009000000P                      00000000000000      00000000000000000000000         30530322617
D0002971998532100011300070595520020011632               01082025CUOTA         000000000006              0009000000P                      00000000000000      00000000000000000000000         30530322617
D0002261737532100011300070988517990011647               01082025CUOTA         000000000006              0009000000P                      00000000000000      00000000000000000000000         30530322617
D0002397665532100011500022987589850011653               01082025CUOTA         000000000006              0009000000P                      00000000000000      00000000000000000000000         30530322617
D0001680222807201512880000045309540011654               01082025CUOTA         000000000006              0009000000P                      00000000000000      00000000000000000000000         30530322617
D0001810105303401008087101574440010011662               01082025CUOTA         000000000006              0009000000P                      00000000000000      00000000000000000000000         30530322617
D0002261879532100011300070040909750011666               01082025CUOTA         000000000006              0009000000P                      00000000000000      00000000000000000000000         30530322617
D0003773688807203648880000003566400011674               01082025CUOTA         000000000006              0009000000P                      00000000000000      00000000000000000000000         30530322617
D0002760894301700718400000333716780011677               01082025CUOTA         000000000006              0009000000P                      00000000000000      00000000000000000000000         30530322617
D0002370577601508404010001204670270011678               01082025CUOTA         000000000006              0009000000P                      00000000000000      00000000000000000000000         30530322617
D0002570974007201512880000381155720011680               01082025CUOTA         000000000006              0009000000P                      00000000000000      00000000000000000000000         30530322617
D0003268559407203648300000372243150011694               01082025CUOTA         000000000006              0009000000P                      00000000000000      00000000000000000000000         30530322617
D0002789993332100011300071369659470011696               01082025CUOTA         000000000006              0009000000P                      00000000000000      00000000000000000000000         30530322617
D0003423637001700718400000353612000011697               01082025CUOTA         000000000006              0009000000P                      00000000000000      00000000000000000000000         30530322617
D0003374901632100011300071237315350011700               01082025CUOTA         000000000006              0009000000P                      00000000000000      00000000000000000000000         30530322617
D0002722298832100011300070477420800011701               01082025CUOTA         000000000006              0009000000P                      00000000000000      00000000000000000000000         30530322617
D0003190502904400349400003128780230011704               01082025CUOTA         000000000006              0009000000P                      00000000000000      00000000000000000000000         30530322617
D0002989431332100011300071278839970011705               01082025CUOTA         000000000006              0009000000P                      00000000000000      00000000000000000000000         30530322617
D0003505224032100011300071991131670011706               01082025CUOTA         000000000006              0009000000P                      00000000000000      00000000000000000000000         30530322617
D0003298049607201512880000375093360011712               01082025CUOTA         000000000006              0009000000P                      00000000000000      00000000000000000000000         30530322617
D0003205417532100011300300398379470011720               01082025CUOTA         000000000006              0009000000P                      00000000000000      00000000000000000000000         30530322617
D0003591774932100011300080219463590011722               01082025CUOTA         000000000006              0009000000P                      00000000000000      00000000000000000000000         30530322617
D0002196813207201512880000021526040011727               01082025CUOTA         000000000006              0009000000P                      00000000000000      00000000000000000000000         30530322617
D0001815488632100011300070496410020011728               01082025CUOTA         000000000006              0009000000P                      00000000000000      00000000000000000000000         30530322617
D0002761593307201512880000021492220011730               01082025CUOTA         000000000006              0009000000P                      00000000000000      00000000000000000000000         30530322617
D0002850306807201512880000224689900011731               01082025CUOTA         000000000006              0009000000P                      00000000000000      00000000000000000000000         30530322617
D0002717245732100011300070414947270011733               01082025CUOTA         000000000006              0007650000P                      00000000000000      00000000000000000000000         30530322617
D0002616165132100011300071923594360011738               01082025CUOTA         000000000006              0009000000P                      00000000000000      00000000000000000000000         30530322617
D0002900107201508404010001094280140011740               01082025CUOTA         000000000006              0009000000P                      00000000000000      00000000000000000000000         30530322617
D0002406826232100011300070448812720011742               01082025CUOTA         000000000006              0009000000P                      00000000000000      00000000000000000000000         30530322617
D0002971675907201512880000372169860011744               01082025CUOTA         000000000006              0009000000P                      00000000000000      00000000000000000000000         30530322617
D0002397640607203648880000350789860011748               01082025CUOTA         000000000006              0009000000P                      00000000000000      00000000000000000000000         30530322617
D0002511449800701217300041891014940011749               01082025CUOTA         000000000006              0009000000P                      00000000000000      00000000000000000000000         30530322617
D0001379069900701217300041424998130011753               01082025CUOTA         000000000006              0007500000P                      00000000000000      00000000000000000000000         30530322617
D0003268887228506797400949717220580011755               01082025CUOTA         000000000006              0007500000P                      00000000000000      00000000000000000000000         30530322617
D0002760807801104992300499992833290011756               01082025CUOTA         000000000006              0007500000P                      00000000000000      00000000000000000000000         30530322617
D0002914273732100011300070559201730011757               01082025CUOTA         000000000006              0007500000P                      00000000000000      00000000000000000000000         30530322617
D0002804866432100011300071080664580011759               01082025CUOTA         000000000006              0007500000P                      00000000000000      00000000000000000000000         30530322617
D0002570932232100011300070326155790011760               01082025CUOTA         000000000006              0007500000P                      00000000000000      00000000000000000000000         30530322617
D0002224289901104992300499099774830011761               01082025CUOTA         000000000006              0007500000P                      00000000000000      00000000000000000000000         30530322617
D0003129739832100011300071804337770011762               01082025CUOTA         000000000006              0007500000P                      00000000000000      00000000000000000000000         30530322617
D0003213241532100011500023217200840011764               01082025CUOTA         000000000006              0006375000P                      00000000000000      00000000000000000000000         30530322617
D0002441339232100011300070359070460011765               01082025CUOTA         000000000006              0007500000P                      00000000000000      00000000000000000000000         30530322617
D0003113226607201512880000044950400011768               01082025CUOTA         000000000006              0006375000P                      00000000000000      00000000000000000000000         30530322617
D0003591796601104992300499194728510011773               01082025CUOTA         000000000006              0006375000P                      00000000000000      00000000000000000000000         30530322617
D0003268890432100011300071409174420011778               01082025CUOTA         000000000006              0007500000P                      00000000000000      00000000000000000000000         30530322617
D0003795539807201512880000396344900011782               01082025CUOTA         000000000006              0007500000P                      00000000000000      00000000000000000000000         30530322617
D0002870109907201512880000047754900011786               01082025CUOTA         000000000006              0007500000P                      00000000000000      00000000000000000000000         30530322617
D0002890035507201512880000020479220011789               01082025CUOTA         000000000006              0007500000P                      00000000000000      00000000000000000000000         30530322617
D0003374890203402841082840244010070011791               01082025CUOTA         000000000006              0007500000P                      00000000000000      00000000000000000000000         30530322617
D0002616115532100011300071099158100011803               01082025CUOTA         000000000006              0006375000P                      00000000000000      00000000000000000000000         30530322617
D0003161340332100011500029930069630011807               01082025CUOTA         000000000006              0007500000P                      00000000000000      00000000000000000000000         30530322617
D0003165457832100011300070594420800011809               01082025CUOTA         000000000006              0006375000P                      00000000000000      00000000000000000000000         30530322617
D0022085145232100011300300291684080011812               01082025CUOTA         000000000006              0007500000P                      00000000000000      00000000000000000000000         30530322617
D0003423142232100011300071880462380011815               01082025CUOTA         000000000006              0007500000P                      00000000000000      00000000000000000000000         30530322617
D0002559604132100011300300195923090011823               01082025CUOTA         000000000006              0007500000P                      00000000000000      00000000000000000000000         30530322617
D0002718586232100011300079526924360011825               01082025CUOTA         000000000006              0007500000P                      00000000000000      00000000000000000000000         30530322617
D0002739338132100011300070954323370011828               01082025CUOTA         000000000006              0007500000P                      00000000000000      00000000000000000000000         30530322617
D0003534500232100011500030639305950011837               01082025CUOTA         000000000006              0001000000P                      00000000000000      00000000000000000000000         30530322617
D0003255804932100011300071680662720011851               01082025CUOTA         000000000006              0007500000P                      00000000000000      00000000000000000000000         30530322617
D0003255804932100011300071680662720011853               01082025CUOTA         000000000006              0007500000P                      00000000000000      00000000000000000000000         30530322617
D0003293786632100011300071126874920011863               01082025CUOTA         000000000006              0009000000P                      00000000000000      00000000000000000000000         30530322617
D0003416764732100011500031294624240011864               01082025CUOTA         000000000006              0006375000P                      00000000000000      00000000000000000000000         30530322617
D0001183339532100011500029056717150011888               01082025CUOTA         000000000006              0007500000P                      00000000000000      00000000000000000000000         30530322617
D0003031809432100011300071363144420011899               01082025CUOTA         000000000006              0009000000P                      00000000000000      00000000000000000000000         30530322617
D0002290250132100011300079229143370011900               01082025CUOTA         000000000006              0009000000P                      00000000000000      00000000000000000000000         30530322617
D0002434677707203648880000357830040011967               01082025CUOTA         000000000006              0009000000P                      00000000000000      00000000000000000000000         30530322617
D0003591756432100011300071273414420012084               01082025CUOTA         000000000006              0007500000P                      00000000000000      00000000000000000000000         30530322617
D0003440955401104992300499137810470012103               01082025CUOTA         000000000006              0001000000P                      00000000000000      00000000000000000000000         30530322617
D0003505206528506797400947013913580012135               01082025CUOTA         000000000006              0007500000P                      00000000000000      00000000000000000000000         30530322617
D0003091836332100011300079584798480012137               01082025CUOTA         000000000006              0007500000P                      00000000000000      00000000000000000000000         30530322617
D0002333538504400349400001246878730012141               01082025CUOTA         000000000006              0007500000P                      00000000000000      00000000000000000000000         30530322617
D0002767792132100011300070561164700012142               01082025CUOTA         000000000006              0007500000P                      00000000000000      00000000000000000000000         30530322617
D0003031657507203648880000370742720012143               01082025CUOTA         000000000006              0007500000P                      00000000000000      00000000000000000000000         30530322617
D0003037296832100011300071990013090012144               01082025CUOTA         000000000006              0007500000P                      00000000000000      00000000000000000000000         30530322617
D0003091814232100011300070491681230012145               01082025CUOTA         000000000006              0007500000P                      00000000000000      00000000000000000000000         30530322617
D0002341075232100011500030123302540012148               01082025CUOTA         000000000006              0007500000P                      00000000000000      00000000000000000000000         30530322617
D0003024139200701217300041797522170012149               01082025CUOTA         000000000006              0007500000P                      00000000000000      00000000000000000000000         30530322617
D0003130554207201512880000378995720012152               01082025CUOTA         000000000006              0007500000P                      00000000000000      00000000000000000000000         30530322617
D0003574126207201512880000399655720012158               01082025CUOTA         000000000006              0007500000P                      00000000000000      00000000000000000000000         30530322617
D0002858961801104992300499994412790012164               01082025CUOTA         000000000006              0007500000P                      00000000000000      00000000000000000000000         30530322617
D0003019024732100011300079701938760012186               01082025CUOTA         000000000006              0007500000P                      00000000000000      00000000000000000000000         30530322617
D0002695476601700718400000338165280012198               01082025CUOTA         000000000006              0007500000P                      00000000000000      00000000000000000000000         30530322617
D0001677204232100011300070224557050012199               01082025CUOTA         000000000006              0007500000P                      00000000000000      00000000000000000000000         30530322617
D0003427830432100011300079665389970012200               01082025CUOTA         000000000006              0007500000P                      00000000000000      00000000000000000000000         30530322617
D0002056483332100011300071432347330012204               01082025CUOTA         000000000006              0007500000P                      00000000000000      00000000000000000000000         30530322617
D0002914275832100011500022670528360012206               01082025CUOTA         000000000006              0007500000P                      00000000000000      00000000000000000000000         30530322617
D0002636895007201512880000392074360012207               01082025CUOTA         000000000006              0007500000P                      00000000000000      00000000000000000000000         30530322617
D0003369312232100011300071310560020012216               01082025CUOTA         000000000006              0006375000P                      00000000000000      00000000000000000000000         30530322617
D0003691218532100011300080166213150012221               01082025CUOTA         000000000006              0007500000P                      00000000000000      00000000000000000000000         30530322617
D0002971998532100011300070595520020012222               01082025CUOTA         000000000006              0007500000P                      00000000000000      00000000000000000000000         30530322617
D0002550791732100011300079664180800012223               01082025CUOTA         000000000006              0006375000P                      00000000000000      00000000000000000000000         30530322617
D0003024109804400349400002650408230012240               01082025CUOTA         000000000006              0007500000P                      00000000000000      00000000000000000000000         30530322617
D0002761028932100011300070503797270012241               01082025CUOTA         000000000006              0007500000P                      00000000000000      00000000000000000000000         30530322617
D0002887064532100011300070262835130012242               01082025CUOTA         000000000006              0007500000P                      00000000000000      00000000000000000000000         30530322617
D0003752935401700718400000386255960012254               01082025CUOTA         000000000006              0007500000P                      00000000000000      00000000000000000000000         30530322617
D0003604549832100011300079334425910012257               01082025CUOTA         000000000006              0007500000P                      00000000000000      00000000000000000000000         30530322617
D0003612180707201512880000384231720012260               01082025CUOTA         000000000006              0007500000P                      00000000000000      00000000000000000000000         30530322617
D0002874422007201512880000388020900012262               01082025CUOTA         000000000006              0007500000P                      00000000000000      00000000000000000000000         30530322617
D0003424067519101059551105010179850012269               01082025CUOTA         000000000006              0007500000P                      00000000000000      00000000000000000000000         30530322617
D0002739115132100011300071375341950012274               01082025CUOTA         000000000006              0007500000P                      00000000000000      00000000000000000000000         30530322617
D0002197942401101092300109246901010012278               01082025CUOTA         000000000006              0007500000P                      00000000000000      00000000000000000000000         30530322617
D0002906241900701217300041796984100012280               01082025CUOTA         000000000006              0007500000P                      00000000000000      00000000000000000000000         30530322617
D0002906241900701217300041796984100012281               01082025CUOTA         000000000006              0007500000P                      00000000000000      00000000000000000000000         30530322617
D0003173972315001308000130601852820012287               01082025CUOTA         000000000006              0007500000P                      00000000000000      00000000000000000000000         30530322617
D0003082410632100011300079762262440012288               01082025CUOTA         000000000006              0007500000P                      00000000000000      00000000000000000000000         30530322617
D0002867717132100011300071390124420012289               01082025CUOTA         000000000006              0007500000P                      00000000000000      00000000000000000000000         30530322617
D0003133398532100011300071213909690012296               01082025CUOTA         000000000006              0007500000P                      00000000000000      00000000000000000000000         30530322617
D0002813987832100011300071427193430012299               01082025CUOTA         000000000006              0007500000P                      00000000000000      00000000000000000000000         30530322617
D0003182538432100011300071427254580012302               01082025CUOTA         000000000006              0007500000P                      00000000000000      00000000000000000000000         30530322617
D0003731306801104992300499076670010012304               01082025CUOTA         000000000006              0007500000P                      00000000000000      00000000000000000000000         30530322617
D0003534352701700718400000366516500012313               01082025CUOTA         000000000006              0007500000P                      00000000000000      00000000000000000000000         30530322617
D0002978570807201659880000376477680012315               01082025CUOTA         000000000006              0007500000P                      00000000000000      00000000000000000000000         30530322617
D0002657027807201512880000382786040012318               01082025CUOTA         000000000006              0007500000P                      00000000000000      00000000000000000000000         30530322617
D0002135558032100011300070055135290012319               01082025CUOTA         000000000006              0007500000P                      00000000000000      00000000000000000000000         30530322617
D0002163182407201512880000020646040012320               01082025CUOTA         000000000006              0007500000P                      00000000000000      00000000000000000000000         30530322617
D0002329805407203648880000353754900012321               01082025CUOTA         000000000006              0007500000P                      00000000000000      00000000000000000000000         30530322617
D0002783471928506797400949066073480012325               01082025CUOTA         000000000006              0007500000P                      00000000000000      00000000000000000000000         30530322617
D0003112046401104992300499050069650012333               01082025CUOTA         000000000006              0007500000P                      00000000000000      00000000000000000000000         30530322617
D0002434677707203648880000357830040012334               01082025CUOTA         000000000006              0007500000P                      00000000000000      00000000000000000000000         30530322617
D0002584425632100011300079815764080012337               01082025CUOTA         000000000006              0007500000P                      00000000000000      00000000000000000000000         30530322617
D0003269285232100011300300203052220012343               01082025CUOTA         000000000006              0001000000P                      00000000000000      00000000000000000000000         30530322617
D0002767781832100011500025556245670012389               01082025CUOTA         000000000006              0007500000P                      00000000000000      00000000000000000000000         30530322617
D0002581884332100011300070561264640012426               01082025CUOTA         000000000006              0007500000P                      00000000000000      00000000000000000000000         30530322617
D0002581884332100011300070561264640012427               01082025CUOTA         000000000006              0009000000P                      00000000000000      00000000000000000000000         30530322617
D0002758153607201512880000372211040012473               01082025CUOTA         000000000006              0009000000P                      00000000000000      00000000000000000000000         30530322617
D0003388243100701217300041720570500012523               01082025CUOTA         000000000006              0007650000P                      00000000000000      00000000000000000000000         30530322617
D0002782192200701217200000062088460012527               01082025CUOTA         000000000006              0007500000P                      00000000000000      00000000000000000000000         30530322617
D0002434613032100011300071188130020012547               01082025CUOTA         000000000006              0008100000P                      00000000000000      00000000000000000000000         30530322617
D0002163265204400349400001721751130012574               01082025CUOTA         000000000006              0007500000P                      00000000000000      00000000000000000000000         30530322617
D0002971691132100011300071399395850012613               01082025CUOTA         000000000006              0007500000P                      00000000000000      00000000000000000000000         30530322617
D0002953617132100011300070909372880012621               01082025CUOTA         000000000006              0007500000P                      00000000000000      00000000000000000000000         30530322617
D0002341002032100011300070467002720012622               01082025CUOTA         000000000006              0007500000P                      00000000000000      00000000000000000000000         30530322617
D0002434613032100011300071188130020012623               01082025CUOTA         000000000006              0006750000P                      00000000000000      00000000000000000000000         30530322617
D0003113226607201512880000044950400012624               01082025CUOTA         000000000006              0006375000P                      00000000000000      00000000000000000000000         30530322617
D0002530174132100011300080281243650012625               01082025CUOTA         000000000006              0007500000P                      00000000000000      00000000000000000000000         30530322617
D0003037296832100011300071990013090012628               01082025CUOTA         000000000006              0007500000P                      00000000000000      00000000000000000000000         30530322617
D0003423142232100011300071880462380012631               01082025CUOTA         000000000006              0007500000P                      00000000000000      00000000000000000000000         30530322617
D0003161340332100011500029930069630012632               01082025CUOTA         000000000006              0007500000P                      00000000000000      00000000000000000000000         30530322617
D0003129685507201512880000371463400012635               01082025CUOTA         000000000006              0007500000P                      00000000000000      00000000000000000000000         30530322617
D0002739175004400349400003107152830012641               01082025CUOTA         000000000006              0007500000P                      00000000000000      00000000000000000000000         30530322617
D0003266201232100011300071365204140012654               01082025CUOTA         000000000006              0007500000P                      00000000000000      00000000000000000000000         30530322617
D0002917549604400349400003435968730012656               01082025CUOTA         000000000006              0007500000P                      00000000000000      00000000000000000000000         30530322617
D0003873556803402841082840261210060012657               01082025CUOTA         000000000006              0007500000P                      00000000000000      00000000000000000000000         30530322617
D0002813915032100011300070877848600012658               01082025CUOTA         000000000006              0007500000P                      00000000000000      00000000000000000000000         30530322617
D0002824563532100011300079665830960012660               01082025CUOTA         000000000006              0007500000P                      00000000000000      00000000000000000000000         30530322617
D0003352082501700718400000346218640012661               01082025CUOTA         000000000006              0007500000P                      00000000000000      00000000000000000000000         30530322617
D0002677463432100011300071364263090012673               01082025CUOTA         000000000006              0007500000P                      00000000000000      00000000000000000000000         30530322617
D0003583843001102651300265120416150012677               01082025CUOTA         000000000006              0007500000P                      00000000000000      00000000000000000000000         30530322617
D0002824563532100011300079665830960012683               01082025CUOTA         000000000006              0007500000P                      00000000000000      00000000000000000000000         30530322617
D0002718036932100011300071080606340012684               01082025CUOTA         000000000006              0007500000P                      00000000000000      00000000000000000000000         30530322617
D0002636876001508404010001253533120012695               01082025CUOTA         000000000006              0006375000P                      00000000000000      00000000000000000000000         30530322617
D0003388239803402841082840192720050012710               01082025CUOTA         000000000006              0007500000P                      00000000000000      00000000000000000000000         30530322617
D0002844459532100011300070507826400012718               01082025CUOTA         000000000006              0007500000P                      00000000000000      00000000000000000000000         30530322617
D0003431424507201512880000373341180012720               01082025CUOTA         000000000006              0007500000P                      00000000000000      00000000000000000000000         30530322617
D0002695492807203648880000357646540012727               01082025CUOTA         000000000006              0007500000P                      00000000000000      00000000000000000000000         30530322617
D0003329297207201512880000399685400012728               01082025CUOTA         000000000006              0006375000P                      00000000000000      00000000000000000000000         30530322617
D0001826003832100011300070325994420012741               01082025CUOTA         000000000006              0007500000P                      00000000000000      00000000000000000000000         30530322617
D0003173935032100011300071240068100012745               01082025CUOTA         000000000006              0007500000P                      00000000000000      00000000000000000000000         30530322617
D0003440980504400349400001859781630012746               01082025CUOTA         000000000006              0007500000P                      00000000000000      00000000000000000000000         30530322617
D0003309272507201512880000385072540012747               01082025CUOTA         000000000006              0007500000P                      00000000000000      00000000000000000000000         30530322617
D0003418250500701996300040458686060012748               01082025CUOTA         000000000006              0007500000P                      00000000000000      00000000000000000000000         30530322617
D0003687802500701217300041986287790012752               01082025CUOTA         000000000006              0007500000P                      00000000000000      00000000000000000000000         30530322617
D0003469318432100011500035715567710012762               01082025CUOTA         000000000006              0001000000P                      00000000000000      00000000000000000000000         30530322617
D0002898529932100011300079566521170012773               01082025CUOTA         000000000006              0007500000P                      00000000000000      00000000000000000000000         30530322617
D0002056484732100011300070481014860012776               01082025CUOTA         000000000006              0007500000P                      00000000000000      00000000000000000000000         30530322617
D0003131163201700718400000335027460012777               01082025CUOTA         000000000006              0007500000P                      00000000000000      00000000000000000000000         30530322617
D0003612104332100011500029932519290012782               01082025CUOTA         000000000006              0007500000P                      00000000000000      00000000000000000000000         30530322617
D0002957687932100011300071382961950012785               01082025CUOTA         000000000006              0001000000P                      00000000000000      00000000000000000000000         30530322617
D0003519934401700718400000370034500012790               01082025CUOTA         000000000006              0007500000P                      00000000000000      00000000000000000000000         30530322617
D0002461873700701217300041746782080012792               01082025CUOTA         000000000006              0007500000P                      00000000000000      00000000000000000000000         30530322617
D0003277522728506612400951795184580012799               01082025CUOTA         000000000006              0007500000P                      00000000000000      00000000000000000000000         30530322617
D0002824602232100011300071426284360012850               01082025CUOTA         000000000006              0007500000P                      00000000000000      00000000000000000000000         30530322617
D0002867714732100011300070986058600012852               01082025CUOTA         000000000006              0007500000P                      00000000000000      00000000000000000000000         30530322617
D0003418487303402841082840178940070012862               01082025CUOTA         000000000006              0007500000P                      00000000000000      00000000000000000000000         30530322617
D0003030029601104992300499250842150012864               01082025CUOTA         000000000006              0007500000P                      00000000000000      00000000000000000000000         30530322617
D0003116908001104992300499128941510012879               01082025CUOTA         000000000006              0007500000P                      00000000000000      00000000000000000000000         30530322617
D0002953367401700718400000350498500012885               01082025CUOTA         000000000006              0007500000P                      00000000000000      00000000000000000000000         30530322617
D0003534500232100011500030639305950012888               01082025CUOTA         000000000006              0001000000P                      00000000000000      00000000000000000000000         30530322617
