H30530322617CUOTA     02011012024            A C HNOS MISERIC                                                                                                                                           
D000239760600070121730004161446021                   46214012024CUOTA         000000000004              0000850000P                      00000000000000      0000000000000000000000000000000030530322617
D000239760600070121730004161446021                   46214012024CUOTA         000000000005              0000850000P                      00000000000000      0000000000000000000000000000000030530322617
D000230486613210010350046433341513                   57414012024CUOTA         000000000004              0000850000P                      00000000000000      0000000000000000000000000000000030530322617
D000230486613210010350046433341513                   57414012024CUOTA         000000000005              0000850000P                      00000000000000      0000000000000000000000000000000030530322617
T0000004000000000034000                                                                                                                                                                                 
