H30530322617CUOTA     02019012024            A C HNOS MISERIC                                                                                                                                           
D0002397606000701217300041614460210000462               23012024CUOTA         000000000004              0000850000P                      00000000000000      0000000000000000000000000000000030530322617
D0002397606000701217300041614460210000462               23012024CUOTA         000000000005              0000850000P                      00000000000000      0000000000000000000000000000000030530322617
D0002304866132100103500464333415130000574               23012024CUOTA         000000000004              0000850000P                      00000000000000      0000000000000000000000000000000030530322617
D0002304866132100103500464333415130000574               23012024CUOTA         000000000005              0000850000P                      00000000000000      0000000000000000000000000000000030530322617
T0000004000000003400000                                                                                                                                                                                 
