H30530322617CUOTA     02023012024            A C HNOS MISERIC                                                                                                                                           
D0002304866132100103500464333415130009869               27012024CUOTA         000000000007              0000850000P                      00000000000000      00000000000000000000000         30530322617
D0002304866132100103500464333415130009869               27012024CUOTA         000000000008              0000850000P                      00000000000000      00000000000000000000000         30530322617
D0002397606000701217300041614460210009969               27012024CUOTA         000000000007              0000850000P                      00000000000000      00000000000000000000000         30530322617
D0002397606000701217300041614460210009969               27012024CUOTA         000000000008              0000850000P                      00000000000000      00000000000000000000000         30530322617
T0000004000000003400000                                                                                                                                                                                 
