H30530322617CUOTA     00003062025
D0002825384007201512880000390395540007290               02062025CUOTA         000282538404              0009000000P                                    R10   0000000000000000206202500000VTO130530322617
D0002903797107201512880000403342860008424               02062025CUOTA         000290379714              0009000000P                                    R10   0000000000000000206202500000VTO130530322617
D0003113226607201512880000044950400008459               02062025CUOTA         000311322664              0007650000P                                    R10   0000000000000000206202500000VTO130530322617
D0002825384007201512880000390395540008844               02062025CUOTA         000282538404              0009000000P                                    R10   0000000000000000206202500000VTO130530322617
D0002903797107201512880000403342860008879               02062025CUOTA         000290379714              0009000000P                                    R10   0000000000000000206202500000VTO130530322617
D0002870109907201512880000047754900008937               02062025CUOTA         000287010994              0009000000P                                    R10   0000000000000000206202500000VTO130530322617
D0003130525307201512880000372950040009024               02062025CUOTA         000313052534              0009000000P                                    R10   0000000000000000206202500000VTO130530322617
D0003130525307201512880000372950040010550               02062025CUOTA         000313052534              0009000000P                                    R10   0000000000000000206202500000VTO130530322617
D0003795539807201512880000396344900011172               02062025CUOTA         000379553984              0007500000P                                    R10   0000000000000000206202500000VTO130530322617
D0003424377107201512880000020732680011198               02062025CUOTA         000342437714              0007500000P                                    R10   0000000000000000206202500000VTO130530322617
D0003113226607201512880000044950400011768               02062025CUOTA         000311322664              0006375000P                                    R10   0000000000000000206202500000VTO130530322617
D0003795539807201512880000396344900011782               02062025CUOTA         000379553984              0007500000P                                    R10   0000000000000000206202500000VTO130530322617
D0002636895007201512880000392074360012207               02062025CUOTA         000263689504              0007500000P                                    R10   0000000000000000206202500000VTO130530322617
D0003113226607201512880000044950400012624               02062025CUOTA         000311322664              0006375000P                                    R10   0000000000000000206202500000VTO130530322617
D0002825384007201512880000390395540012896               02062025CUOTA         000282538404              0007500000P                                    R10   0000000000000000206202500000VTO130530322617
D0003130525307201512880000372950040014365               02062025CUOTA         000313052534              0007500000P                                    R10   0000000000000000206202500000VTO130530322617
D0003130525307201512880000372950040016722               02062025CUOTA         000313052534              0005000000P                                    R10   0000000000000000206202500000VTO130530322617
D0003741088007201512880000405427040022502               02062025CUOTA         000374108804              0007500000P                                    R10   0000000000000000206202500000VTO130530322617
D0003534362907201512880000379196180024847               02062025CUOTA         000353436294              0007500000P                                    R02   0000000000000000206202500000VTO130530322617
D0001803718107203648880000351412860009952               02062025CUOTA         000180371814              0009000000P                                    R10   0000000000000000206202500000VTO130530322617
D0003031657507203648880000370742720012143               02062025CUOTA         000303165754              0007500000P                                    R10   0000000000000000206202500000VTO130530322617
D0003323485507203648880000003837360014213               02062025CUOTA         000332348554              0007500000P                                    R10   0000000000000000206202500000VTO130530322617
D0003031657507203648880000370742720014302               02062025CUOTA         000303165754              0007500000P                                    R10   0000000000000000206202500000VTO130530322617
D0003505204007203648880000009848540018834               02062025CUOTA         000350520404              0007500000P                                    R10   0000000000000000206202500000VTO130530322617
D0003505204007203648880000009848540018907               02062025CUOTA         000350520404              0007500000P                                    R10   0000000000000000206202500000VTO130530322617
D0003805270338900837400000816963380021144               02062025CUOTA         000380527034              0007500000P                                    R10   0000000000000000206202500000VTO130530322617
D0002708767219100476550047542675640009844               02062025CUOTA         000270876724              0009000000P                                    R10   0000000000000000206202500000VTO130530322617
D0002708767219100476550047542675640010100               02062025CUOTA         000270876724              0009000000P                                    R10   0000000000000000206202500000VTO130530322617
D0003190506200701217300041673149820009843               02062025CUOTA         000319050624              0009000000P                                    R10   0000000000000000206202500000VTO130530322617
D0002708759700701217300041847491920009940               02062025CUOTA         000270875974              0009000000P                                    R10   0000000000000000206202500000VTO130530322617
D0002739092100701217300041866540830011318               02062025CUOTA         000273909214              0009000000P                                    R10   0000000000000000206202500000VTO130530322617
D0003418250500701996300040458686060012748               02062025CUOTA         000341825054              0007500000P                                    R10   0000000000000000206202500000VTO130530322617
D0003687802500701217300041986287790012752               02062025CUOTA         000368780254              0007500000P                                    R10   0000000000000000206202500000VTO130530322617
D0003740966400701217300041742973840018890               02062025CUOTA         000374096644              0007500000P                                    R10   0000000000000000206202500000VTO130530322617
D0003130514000701217300041771272950020038               02062025CUOTA         000313051404              0007500000P                                    R10   0000000000000000206202500000VTO130530322617
D0003471150604400349400003562140830021136               02062025CUOTA         000347115064              0007500000P                                    R10   0000000000000000206202500000VTO130530322617
D0002739071304400349400001711821230010030               02062025CUOTA         000273907134              0009000000P                                    R10   0000000000000000206202500000VTO130530322617
D0002917549604400349400003435968730012656               02062025CUOTA         000291754964              0007500000P                                    R10   0000000000000000206202500000VTO130530322617
D0002989405004400349400002683558030014174               02062025CUOTA         000298940504              0007500000P                                    R10   0000000000000000206202500000VTO130530322617
D0002739262704400349400001693111330014456               02062025CUOTA         000273926274              0009000000P                                    R10   0000000000000000206202500000VTO130530322617
D0003035560704400349400002367972930008383               02062025CUOTA         000303556074              0009000000P                                    R10   0000000000000000206202500000VTO130530322617
D0003130546804400349200002882848390009825               02062025CUOTA         000313054684              0009000000P                                    R20   0000000000000000206202500000VTO130530322617
D0003305452201700718400000368076640007313               02062025CUOTA         000330545224              0009000000P                                    R10   0000000000000000206202500000VTO130530322617
D0002604044001700718400000381399140009842               02062025CUOTA         000260404404              0009000000P                                    R10   0000000000000000206202500000VTO130530322617
D0002739047501700718400000376672140010032               02062025CUOTA         000273904754              0009000000P                                    R10   0000000000000000206202500000VTO130530322617
D0002419817001700718400000372602460011114               02062025CUOTA         000241981704              0009000000P                                    R10   0000000000000000206202500000VTO130530322617
D0003129711301700718400000363409140022487               02062025CUOTA         000312971134              0007500000P                                    R10   0000000000000000206202500000VTO130530322617
D0002448434501508404010001220784100007337               02062025CUOTA         000244843454              0009000000P                                    R10   0000000000000000206202500000VTO130530322617
D0002948695701508404010001242773100008324               02062025CUOTA         000294869574              0009000000P                                    R10   0000000000000000206202500000VTO130530322617
D0003024128101508404010001256230440010350               02062025CUOTA         000302412814              0009000000P                                    R10   0000000000000000206202500000VTO130530322617
D0003188887701508404010001203504170010458               02062025CUOTA         000318888774              0009000000P                                    R10   0000000000000000206202500000VTO130530322617
D0002765093801508404020001025844880011080               02062025CUOTA         000276509384              0009000000P                                    R10   0000000000000000206202500000VTO130530322617
D0002887065001508404010001161651200014201               02062025CUOTA         000288706504              0007500000P                                    R10   0000000000000000206202500000VTO130530322617
D0002887065001508404010001161651200021146               02062025CUOTA         000288706504              0007500000P                                    R10   0000000000000000206202500000VTO130530322617
D0003231547028503507400954066754880011574               02062025CUOTA         000323154704              0009000000P                                    R10   0000000000000000206202500000VTO130530322617
D0003958366628503798400955167680980022420               02062025CUOTA         000395836664              0005000000P                                    R10   0000000000000000206202500000VTO130530322617
D0003505206528506797400947013913580012135               02062025CUOTA         000350520654              0007500000P                                    R10   0000000000000000206202500000VTO130530322617
D0002677476128506797400950390250180008473               02062025CUOTA         000267747614              0009000000P                                    R10   0000000000000000206202500000VTO130530322617
D0002163193928506797400949584671330009027               02062025CUOTA         000216319394              0009000000P                                    R17   0000000000000000206202500000VTO130530322617
D0003268887228506797400949717220580010575               02062025CUOTA         000326888724              0009000000P                                    R15   0000000000000000206202500000VTO130530322617
D0003268887228506797400949717220580011755               02062025CUOTA         000326888724              0007500000P                                    R15   0000000000000000206202500000VTO130530322617
D0002657001901101689300168451445290007863               02062025CUOTA         000265700194              0009000000P                                    R10   0000000000000000206202500000VTO130530322617
D0003044155301104992300499244909470008972               02062025CUOTA         000304415534              0009000000P                                    R10   0000000000000000206202500000VTO130530322617
D0002133911701104992300499091835470009031               02062025CUOTA         000213391174              0009000000P                                    R10   0000000000000000206202500000VTO130530322617
D0003044155301104992300499244909470010566               02062025CUOTA         000304415534              0009000000P                                    R10   0000000000000000206202500000VTO130530322617
D0003440955401104992300499137810470012103               02062025CUOTA         000344095544              0001000000P                                    R10   0000000000000000206202500000VTO130530322617
D0003731306801104992300499076670010012304               02062025CUOTA         000373130684              0007500000P                                    R10   0000000000000000206202500000VTO130530322617
D0004411534101104992300499191576790014413               02062025CUOTA         000441153412              0006000000P                                    R10   0000000000000000206202500000VTO130530322617
D0003731306801104992300499076670010016657               02062025CUOTA         000373130684              0005000000P                                    R10   0000000000000000206202500000VTO130530322617
D0002410185401104992300499261083830018947               02062025CUOTA         000241018542              0006000000P                                    R10   0000000000000000206202500000VTO130530322617
D0003505212401104992300499184339290019010               02062025CUOTA         000350521244              0007500000P                                    R10   0000000000000000206202500000VTO130530322617
D0003873522701104992300499188195650021124               02062025CUOTA         000387352274              0005000000P                                    R10   0000000000000000206202500000VTO130530322617
D0003432978032100011300074545034640013008               02062025CUOTA         000343297804              0009000000P                                    R14   0000000000000000206202500000VTO130530322617
D0002677488432100011300071292042880007334               02062025CUOTA         000267748844              0009000000P                                    R10   0000000000000000206202500000VTO130530322617
D0002677488432100011300071292042880008382               02062025CUOTA         000267748844              0009000000P                                    R10   0000000000000000206202500000VTO130530322617
D0003711909432100011500030469890620021246               02062025CUOTA         000371190944              0001000000P                                    R10   0000000000000000206202500000VTO130530322617
D0003374929332100011300071406737110021393               02062025CUOTA         000337492934              0005000000P                                    R10   0000000000000000206202500000VTO130530322617
D0003757554232100011500027240190060023731               02062025CUOTA         000375755424              0005000000P                                    R10   0000000000000000206202500000VTO130530322617
D0003757554232100011500027240190060014638               02062025CUOTA         000375755422              0003000000P                                    R10   0000000000000000206202500000VTO130530322617
D0003848436632100011500027045867370023763               02062025CUOTA         000384843664              0000300000P                                    R10   0000000000000000206202500000VTO130530322617
D0003848436632100011500027045867370011255               02062025CUOTA         000384843664              0001000000P                                    R10   0000000000000000206202500000VTO130530322617
D0003958188432100011300080387668100023796               02062025CUOTA         000395818844              0007500000P                                    R10   0000000000000000206202500000VTO130530322617
D0003173968632100011300300167614920024801               02062025CUOTA         000317396864              0007500000P                                    R10   0000000000000000206202500000VTO130530322617
D0002891761532100011300071365523210025026               02062025CUOTA         000289176152              0006000000P                                    R10   0000000000000000206202500000VTO130530322617
D0003205417532100011300300398379470011720               02062025CUOTA         000320541754              0009000000P                                    R10   0000000000000000206202500000VTO130530322617
D0003591774932100011300080219463590011722               02062025CUOTA         000359177494              0009000000P                                    R10   0000000000000000206202500000VTO130530322617
D0003591774932100011300080219463590016701               02062025CUOTA         000359177494              0005000000P                                    R10   0000000000000000206202500000VTO130530322617
D0003323480732100011300071265214140011774               02062025CUOTA         000332348074              0007500000P                                    R10   0000000000000000206202500000VTO130530322617
D0003323480732100011300071265214140008374               02062025CUOTA         000332348074              0009000000P                                    R10   0000000000000000206202500000VTO130530322617
D0003165457832100011300070594420800011809               02062025CUOTA         000316545784              0006375000P                                    R10   0000000000000000206202500000VTO130530322617
D0003165457832100011300070594420800014319               02062025CUOTA         000316545784              0006375000P                                    R10   0000000000000000206202500000VTO130530322617
D0003165457832100011300070594420800021098               02062025CUOTA         000316545784              0004250000P                                    R10   0000000000000000206202500000VTO130530322617
D0003534500232100011500030639305950011837               02062025CUOTA         000353450024              0001000000P                                    R10   0000000000000000206202500000VTO130530322617
D0003534500232100011500030639305950012888               02062025CUOTA         000353450024              0001000000P                                    R10   0000000000000000206202500000VTO130530322617
D0003416764732100011500031294624240011864               02062025CUOTA         000341676474              0006375000P                                    R10   0000000000000000206202500000VTO130530322617
D0003416764732100011500031294624240009896               02062025CUOTA         000341676474              0007650000P                                    R10   0000000000000000206202500000VTO130530322617
D0003416764732100011500031294624240011144               02062025CUOTA         000341676474              0006375000P                                    R10   0000000000000000206202500000VTO130530322617
D0003584662932100011500023223251270011874               02062025CUOTA         000358466294              0001000000P                                    R10   0000000000000000206202500000VTO130530322617
D0001183339532100011500029056717150011888               02062025CUOTA         000118333954              0007500000P                                    R10   0000000000000000206202500000VTO130530322617
D0003019024732100011300079701938760012186               02062025CUOTA         000301902474              0007500000P                                    R10   0000000000000000206202500000VTO130530322617
D0003019024732100011300079701938760007318               02062025CUOTA         000301902474              0009000000P                                    R10   0000000000000000206202500000VTO130530322617
D0003691218532100011300080166213150012221               02062025CUOTA         000369121854              0007500000P                                    R10   0000000000000000206202500000VTO130530322617
D0003691218532100011300080166213150013119               02062025CUOTA         000369121854              0007500000P                                    R10   0000000000000000206202500000VTO130530322617
D0003691218532100011300080166213150011174               02062025CUOTA         000369121854              0007500000P                                    R10   0000000000000000206202500000VTO130530322617
D0002761028932100011300070503797270012241               02062025CUOTA         000276102894              0007500000P                                    R10   0000000000000000206202500000VTO130530322617
D0002761028932100011300070503797270008843               02062025CUOTA         000276102894              0009000000P                                    R10   0000000000000000206202500000VTO130530322617
D0003082410632100011300079762262440012288               02062025CUOTA         000308241064              0007500000P                                    R10   0000000000000000206202500000VTO130530322617
D0002813915032100011300070877848600012658               02062025CUOTA         000281391504              0007500000P                                    R10   0000000000000000206202500000VTO130530322617
D0002844459532100011300070507826400012718               02062025CUOTA         000284445954              0007500000P                                    R10   0000000000000000206202500000VTO130530322617
D0002844459532100011300070507826400009894               02062025CUOTA         000284445954              0009000000P                                    R10   0000000000000000206202500000VTO130530322617
D0003469318432100011500035715567710012762               02062025CUOTA         000346931844              0001000000P                                    R10   0000000000000000206202500000VTO130530322617
D0003612104332100011500029932519290012782               02062025CUOTA         000361210434              0007500000P                                    R10   0000000000000000206202500000VTO130530322617
D0002957687932100011300071382961950012785               02062025CUOTA         000295768794              0001000000P                                    R10   0000000000000000206202500000VTO130530322617
D0002957687932100011300071382961950014378               02062025CUOTA         000295768794              0001000000P                                    R10   0000000000000000206202500000VTO130530322617
D0002890044632100011300070955922000013031               02062025CUOTA         000289004464              0007500000P                                    R10   0000000000000000206202500000VTO130530322617
D0002890044632100011300070955922000016682               02062025CUOTA         000289004464              0005000000P                                    R10   0000000000000000206202500000VTO130530322617
D0003440969532100011300300369471390013128               02062025CUOTA         000344096954              0007500000P                                    R10   0000000000000000206202500000VTO130530322617
D0003440969532100011300300369471390021156               02062025CUOTA         000344096954              0007500000P                                    R10   0000000000000000206202500000VTO130530322617
D0003440969532100011300300369471390011096               02062025CUOTA         000344096954              0009000000P                                    R10   0000000000000000206202500000VTO130530322617
D0003469552232100011500036281945890014206               02062025CUOTA         000346955224              0007500000P                                    R10   0000000000000000206202500000VTO130530322617
D0003388222332100011500031173137210014232               02062025CUOTA         000338822234              0007500000P                                    R10   0000000000000000206202500000VTO130530322617
D0003773693932100011500029368314300014498               02062025CUOTA         000377369394              0001000000P                                    R10   0000000000000000206202500000VTO130530322617
D0002533395132100011300070274552500014585               02062025CUOTA         000253339514              0009000000P                                    R10   0000000000000000206202500000VTO130530322617
D0001325171632100011500025045368080014596               02062025CUOTA         000132517164              0007500000P                                    R10   0000000000000000206202500000VTO130530322617
D0004044658132100011500028389540840018777               02062025CUOTA         000404465814              0000300000P                                    R10   0000000000000000206202500000VTO130530322617
D0004044658132100011500028389540840010686               02062025CUOTA         000404465814              0001000000P                                    R10   0000000000000000206202500000VTO130530322617
D0003469545832100011300079751044860018839               02062025CUOTA         000346954584              0007500000P                                    R10   0000000000000000206202500000VTO130530322617
D0003308856332100011300079877296840021117               02062025CUOTA         000330885634              0007500000P                                    R10   0000000000000000206202500000VTO130530322617
D0002163127932100011300070564413870021145               02062025CUOTA         000216312794              0007500000P                                    R10   0000000000000000206202500000VTO130530322617
D0003039272932100011300071223586780021235               02062025CUOTA         000303927294              0007500000P                                    R10   0000000000000000206202500000VTO130530322617
D0001466136832100011300070072315910007894               02062025CUOTA         000146613684              0009000000P                                    R10   0000000000000000206202500000VTO130530322617
D0001854371732100011300070624146560008356               02062025CUOTA         000185437174              0009000000P                                    R10   0000000000000000206202500000VTO130530322617
D0001854371732100011300070624146560008514               02062025CUOTA         000185437174              0009000000P                                    R10   0000000000000000206202500000VTO130530322617
D0002867490032100011300070591091230008392               02062025CUOTA         000286749004              0006300000P                                    R10   0000000000000000206202500000VTO130530322617
D0002542901532100011300071178021390008472               02062025CUOTA         000254290154              0009000000P                                    R10   0000000000000000206202500000VTO130530322617
D0002844486032100011500028963454800008882               02062025CUOTA         000284448604              0009000000P                                    R10   0000000000000000206202500000VTO130530322617
D0002630470032100011300070288300520008909               02062025CUOTA         000263047004              0009000000P                                    R10   0000000000000000206202500000VTO130530322617
D0002630470032100011300070288300520010456               02062025CUOTA         000263047004              0009000000P                                    R10   0000000000000000206202500000VTO130530322617
D0003108150832100011500022242111550008921               02062025CUOTA         000310815084              0009000000P                                    R10   0000000000000000206202500000VTO130530322617
D0002718591432100011500021102035010008936               02062025CUOTA         000271859144              0009000000P                                    R10   0000000000000000206202500000VTO130530322617
D0001843304632100011300070171255290008993               02062025CUOTA         000184330464              0009000000P                                    R10   0000000000000000206202500000VTO130530322617
D0002484061332100011300071318084360009859               02062025CUOTA         000248406134              0009000000P                                    R10   0000000000000000206202500000VTO130530322617
D0002484061332100011300071318084360009860               02062025CUOTA         000248406134              0009000000P                                    R10   0000000000000000206202500000VTO130530322617
D0002965329132100011300070477040680010035               02062025CUOTA         000296532914              0009000000P                                    R10   0000000000000000206202500000VTO130530322617
D0002030729932100011500032856824300010042               02062025CUOTA         000203072994              0009000000P                                    R10   0000000000000000206202500000VTO130530322617
D0002496777932100011300070276950740010527               02062025CUOTA         000249677794              0009000000P                                    R10   0000000000000000206202500000VTO130530322617
D0002971995332100011500022476843810010676               02062025CUOTA         000297199534              0001000000P                                    R10   0000000000000000206202500000VTO130530322617
D0003112041432100011500026110673250011017               02062025CUOTA         000311204144              0009000000P                                    R10   0000000000000000206202500000VTO130530322617
D0002739136632100011300070942893090011162               02062025CUOTA         000273913664              0007500000P                                    R10   0000000000000000206202500000VTO130530322617
D0002897705332100011500031208877870011332               02062025CUOTA         000289770534              0001000000P                                    R10   0000000000000000206202500000VTO130530322617
D0002304219832102307500010044298900008995               02062025CUOTA         000230421984              0009000000P                                    R10   0000000000000000206202500000VTO130530322617
D0003044306632102307500008995332680010034               02062025CUOTA         000304430664              0009000000P                                    R10   0000000000000000206202500000VTO130530322617
D0003044306632102307500008995332680011311               02062025CUOTA         000304430664              0007500000P                                    R10   0000000000000000206202500000VTO130530322617
D0003022115932102307500010154310040021169               02062025CUOTA         000302211594              0007500000P                                    R10   0000000000000000206202500000VTO130530322617
D0003374890203402841082840244010070011791               02062025CUOTA         000337489024              0007500000P                                    R15   0000000000000000206202500000VTO130530322617
D0003268554603402117082110143970000021159               02062025CUOTA         000326855464              0007500000P                                    R10   0000000000000000206202500000VTO130530322617
D0004153344303402841082840176790060023787               02062025CUOTA         000415334434              0007500000P                                    R10   0000000000000000206202500000VTO130530322617
D0003374890203402841082840244010070016693               02062025CUOTA         000337489024              0005000000P                                    R10   0000000000000000206202500000VTO130530322617
D0003873556803402841082840261210060012657               02062025CUOTA         000387355684              0007500000P                                    R10   0000000000000000206202500000VTO130530322617
D0003873556803402841082840261210060014312               02062025CUOTA         000387355684              0007500000P                                    R10   0000000000000000206202500000VTO130530322617
D0001810105303401008087101574440010011662               02062025CUOTA         000181010534              0009000000P                                    R10   0000000000000000206202500000VTO130530322617
D0002703008532100011300070557480520002131               02062025CUOTA         000270300852              0006000000P                      00000000000000R00   0000000000000000206202500000VTO130530322617
D0002224289901104992300499099774830007267               02062025CUOTA         000222428994              0009000000P                      00000000000000R00   0000000000000000206202500000VTO130530322617
D0002914275832100011500022670528360007270               02062025CUOTA         000291427584              0009000000P                      00000000000000R00   0000000000000000206202500000VTO130530322617
D0002516861707201512880000021664540007275               02062025CUOTA         000251686174              0009000000P                      00000000000000R00   0000000000000000206202500000VTO130530322617
D0002636876001508404010001253533120007277               02062025CUOTA         000263687604              0007650000P                      00000000000000R00   0000000000000000206202500000VTO130530322617
D0002722290032100011300070497387330007285               02062025CUOTA         000272229004              0009000000P                      00000000000000R00   0000000000000000206202500000VTO130530322617
D0002315803132100011300070365423430007286               02062025CUOTA         000231580314              0009000000P                      00000000000000R00   0000000000000000206202500000VTO130530322617
D0002193519432100011500031183307090007297               02062025CUOTA         000219351944              0009000000P                      00000000000000R00   0000000000000000206202500000VTO130530322617
D0002280600932100011300070373604360007305               02062025CUOTA         000228060094              0009000000P                      00000000000000R00   0000000000000000206202500000VTO130530322617
D0002849836132100011300070492113150007311               02062025CUOTA         000284983614              0009000000P                      00000000000000R00   0000000000000000206202500000VTO130530322617
D0002163288507200298880000023790900007317               02062025CUOTA         000216328854              0009000000P                      00000000000000R00   0000000000000000206202500000VTO130530322617
D0002645991132100011300070235017110007344               02062025CUOTA         000264599114              0009000000P                      00000000000000R00   0000000000000000206202500000VTO130530322617
D0002341075232100011500030123302540007795               02062025CUOTA         000234107524              0009000000P                      00000000000000R00   0000000000000000206202500000VTO130530322617
D0002767781832100011500025556245670007841               02062025CUOTA         000276778184              0009000000P                      00000000000000R00   0000000000000000206202500000VTO130530322617
D0002718512632100011300300187113650007846               02062025CUOTA         000271851264              0009000000P                      00000000000000R00   0000000000000000206202500000VTO130530322617
D0002594610101700718400000353415500007850               02062025CUOTA         000259461014              0009000000P                      00000000000000R00   0000000000000000206202500000VTO130530322617
D0002616115532100011300071099158100007855               02062025CUOTA         000261611554              0007650000P                      00000000000000R00   0000000000000000206202500000VTO130530322617
D0002835495619101059551105011173710007865               02062025CUOTA         000283549564              0009000000P                      00000000000000R00   0000000000000000206202500000VTO130530322617
D0002867717732100011300071275922220007873               02062025CUOTA         000286771774              0009000000P                      00000000000000R00   0000000000000000206202500000VTO130530322617
D0002616168907201512880000383041900007880               02062025CUOTA         000261616894              0009000000P                      00000000000000R00   0000000000000000206202500000VTO130530322617
D0003091830600701217300041774001250007893               02062025CUOTA         000309183064              0007650000P                      00000000000000R00   0000000000000000206202500000VTO130530322617
D0002616178103402841082840230130070007903               02062025CUOTA         000261617814              0009000000P                      00000000000000R00   0000000000000000206202500000VTO130530322617
D0002347384607203648880000351433360007904               02062025CUOTA         000234738464              0009000000P                      00000000000000R00   0000000000000000206202500000VTO130530322617
D0002722281532100011300071071655070007908               02062025CUOTA         000272228154              0009000000P                      00000000000000R00   0000000000000000206202500000VTO130530322617
D0002570932232100011300070326155790007910               02062025CUOTA         000257093224              0009000000P                      00000000000000R00   0000000000000000206202500000VTO130530322617
D0003765124932100011300079396667770008314               02062025CUOTA         000376512494              0009000000P                      00000000000000R00   0000000000000000206202500000VTO130530322617
D0002695492807203648880000357646540008315               02062025CUOTA         000269549284              0009000000P                      00000000000000R00   0000000000000000206202500000VTO130530322617
D0002981428632100011500028612531490008316               02062025CUOTA         000298142864              0009000000P                      00000000000000R00   0000000000000000206202500000VTO130530322617
D0002015153300701217300041939351110008321               02062025CUOTA         000201515334              0009000000P                      00000000000000R00   0000000000000000206202500000VTO130530322617
D0002280600932100011300070373604360008325               02062025CUOTA         000228060094              0009000000P                      00000000000000R00   0000000000000000206202500000VTO130530322617
D0002261791900701217300041868101660008330               02062025CUOTA         000226179194              0009000000P                      00000000000000R00   0000000000000000206202500000VTO130530322617
D0002636884801700718200000304676640008331               02062025CUOTA         000263688484              0009000000P                      00000000000000R00   0000000000000000206202500000VTO130530322617
D0002341123732100011300070446034360008335               02062025CUOTA         000234112374              0009000000P                      00000000000000R00   0000000000000000206202500000VTO130530322617
D0002455397832100011300300059134640008342               02062025CUOTA         000245539784              0009000000P                      00000000000000R00   0000000000000000206202500000VTO130530322617
D0002261899701700718400000345880000008343               02062025CUOTA         000226189974              0009000000P                      00000000000000R00   0000000000000000206202500000VTO130530322617
D0002812501932100011300071013978100008347               02062025CUOTA         000281250194              0009000000P                      00000000000000R00   0000000000000000206202500000VTO130530322617
D0001815743732100011300070203201390008353               02062025CUOTA         000181574374              0009000000P                      00000000000000R00   0000000000000000206202500000VTO130530322617
D0001678235832100011300070210402380008378               02062025CUOTA         000167823584              0009000000P                      00000000000000R00   0000000000000000206202500000VTO130530322617
D0002304269307201512880000377406720008386               02062025CUOTA         000230426934              0009000000P                      00000000000000R00   0000000000000000206202500000VTO130530322617
D0002224264301508404010001060581660008396               02062025CUOTA         000222426434              0009000000P                      00000000000000R00   0000000000000000206202500000VTO130530322617
D0002099726704400349400003462911330008397               02062025CUOTA         000209972674              0009000000P                      00000000000000R00   0000000000000000206202500000VTO130530322617
D0002530185807201512880000252129900008400               02062025CUOTA         000253018584              0009000000P                      00000000000000R00   0000000000000000206202500000VTO130530322617
D0003091757932100011300071436205850008425               02062025CUOTA         000309175794              0009000000P                      00000000000000R00   0000000000000000206202500000VTO130530322617
D0385525228607201512880000403204360008433               02062025CUOTA         038552522864              0009000000P                      00000000000000R00   0000000000000000206202500000VTO130530322617
D0002813914132100011300070504039030008441               02062025CUOTA         000281391414              0007650000P                      00000000000000R00   0000000000000000206202500000VTO130530322617
D0003112051532100011300070569178820008447               02062025CUOTA         000311205154              0009000000P                      00000000000000R00   0000000000000000206202500000VTO130530322617
D0003044322632100011300071323676620008455               02062025CUOTA         000304432264              0009000000P                      00000000000000R00   0000000000000000206202500000VTO130530322617
D0003172929407201512880000376454720008462               02062025CUOTA         000317292944              0009000000P                      00000000000000R00   0000000000000000206202500000VTO130530322617
D0002824639332100011300079541107490008465               02062025CUOTA         000282463934              0009000000P                      00000000000000R00   0000000000000000206202500000VTO130530322617
D0002543793132100011500022562296380008467               02062025CUOTA         000254379314              0009000000P                      00000000000000R00   0000000000000000206202500000VTO130530322617
D0002397640607203648880000350789860008474               02062025CUOTA         000239764064              0009000000P                      00000000000000R00   0000000000000000206202500000VTO130530322617
D0002781108001104992300499251735150008475               02062025CUOTA         000278110804              0009000000P                      00000000000000R00   0000000000000000206202500000VTO130530322617
D0002163208632100011300070303010950008485               02062025CUOTA         000216320864              0009000000P                      00000000000000R00   0000000000000000206202500000VTO130530322617
D0002163182407201512880000020646040008489               02062025CUOTA         000216318244              0009000000P                      00000000000000R00   0000000000000000206202500000VTO130530322617
D0002397606000701217300041614460210008491               02062025CUOTA         000239760604              0009000000P                      00000000000000R00   0000000000000000206202500000VTO130530322617
D0002329805407203648880000353754900008494               02062025CUOTA         000232980544              0009000000P                      00000000000000R00   0000000000000000206202500000VTO130530322617
D0002133927532100011300070272773150008499               02062025CUOTA         000213392754              0009000000P                      00000000000000R00   0000000000000000206202500000VTO130530322617
D0002232974307203648880000358545680008502               02062025CUOTA         000223297434              0009000000P                      00000000000000R00   0000000000000000206202500000VTO130530322617
D0002261756528506797400949661735680008506               02062025CUOTA         000226175654              0009000000P                      00000000000000R00   0000000000000000206202500000VTO130530322617
D0002410185832100011300070207956340008508               02062025CUOTA         000241018584              0009000000P                      00000000000000R00   0000000000000000206202500000VTO130530322617
D0002261816207201512880000019986720008511               02062025CUOTA         000226181624              0009000000P                      00000000000000R00   0000000000000000206202500000VTO130530322617
D0002824606604400349400003087528430008516               02062025CUOTA         000282460664              0009000000P                      00000000000000R00   0000000000000000206202500000VTO130530322617
D0003329297207201512880000399685400008521               02062025CUOTA         000332929724              0007650000P                      00000000000000R00   0000000000000000206202500000VTO130530322617
D0002224279832100011300070542346280008831               02062025CUOTA         000222427984              0009000000P                      00000000000000R00   0000000000000000206202500000VTO130530322617
D0002739198507203648880000350035400008848               02062025CUOTA         000273919854              0009000000P                      00000000000000R00   0000000000000000206202500000VTO130530322617
D0002722290032100011300070497387330008850               02062025CUOTA         000272229004              0009000000P                      00000000000000R00   0000000000000000206202500000VTO130530322617
D0002718573819101059551105013635210008859               02062025CUOTA         000271857384              0009000000P                      00000000000000R00   0000000000000000206202500000VTO130530322617
D0003591796507201512880000378484680008860               02062025CUOTA         000359179654              0009000000P                      00000000000000R00   0000000000000000206202500000VTO130530322617
D0003268890432100011300071409174420008861               02062025CUOTA         000326889044              0009000000P                      00000000000000R00   0000000000000000206202500000VTO130530322617
D0002397632101700718400000005224140008865               02062025CUOTA         000239763214              0009000000P                      00000000000000R00   0000000000000000206202500000VTO130530322617
D0002760812532100011300071353135630008867               02062025CUOTA         000276081254              0009000000P                      00000000000000R00   0000000000000000206202500000VTO130530322617
D0003329297207201512880000399685400008870               02062025CUOTA         000332929724              0007650000P                      00000000000000R00   0000000000000000206202500000VTO130530322617
D0002923699507201512880000362679540008876               02062025CUOTA         000292369954              0009000000P                      00000000000000R00   0000000000000000206202500000VTO130530322617
D0002824610307201512880000361628220008878               02062025CUOTA         000282461034              0009000000P                      00000000000000R00   0000000000000000206202500000VTO130530322617
D0002948667832100011300300000954080008881               02062025CUOTA         000294866784              0009000000P                      00000000000000R00   0000000000000000206202500000VTO130530322617
D0002533389632100011300070274742660008884               02062025CUOTA         000253338964              0009000000P                      00000000000000R00   0000000000000000206202500000VTO130530322617
D0003091830600701217300041774001250008885               02062025CUOTA         000309183064              0007650000P                      00000000000000R00   0000000000000000206202500000VTO130530322617
D0002616178007203648880000351313220008890               02062025CUOTA         000261617804              0009000000P                      00000000000000R00   0000000000000000206202500000VTO130530322617
D0003352060232100011300071403697550008896               02062025CUOTA         000335206024              0007650000P                      00000000000000R00   0000000000000000206202500000VTO130530322617
D0002804876832100011300070620587770008906               02062025CUOTA         000280487684              0009000000P                      00000000000000R00   0000000000000000206202500000VTO130530322617
D0002887623432100011300070496088320008910               02062025CUOTA         000288762344              0009000000P                      00000000000000R00   0000000000000000206202500000VTO130530322617
D0002427748207201512880000365475400008915               02062025CUOTA         000242774824              0009000000P                      00000000000000R00   0000000000000000206202500000VTO130530322617
D0002419344232100011300070401270020008920               02062025CUOTA         000241934424              0009000000P                      00000000000000R00   0000000000000000206202500000VTO130530322617
D0002540026301100136300013106687470008938               02062025CUOTA         000254002634              0009000000P                      00000000000000R00   0000000000000000206202500000VTO130530322617
D0003189723907200250880000376639040008939               02062025CUOTA         000318972394              0009000000P                      00000000000000R00   0000000000000000206202500000VTO130530322617
D0002030729932100011500032856824300008940               02062025CUOTA         000203072994              0009000000P                      00000000000000R00   0000000000000000206202500000VTO130530322617
D0002134049607201512880000019971360008948               02062025CUOTA         000213404964              0009000000P                      00000000000000R00   0000000000000000206202500000VTO130530322617
D0002030734832100011300079642754360008951               02062025CUOTA         000203073484              0009000000P                      00000000000000R00   0000000000000000206202500000VTO130530322617
D0002903782801104992300499091875010008962               02062025CUOTA         000290378284              0009000000P                      00000000000000R00   0000000000000000206202500000VTO130530322617
D0002527679032100011300070455353210008964               02062025CUOTA         000252767904              0007650000P                      00000000000000R00   0000000000000000206202500000VTO130530322617
D0002677468032100011500030207530120008973               02062025CUOTA         000267746804              0007650000P                      00000000000000R00   0000000000000000206202500000VTO130530322617
D0002222471607201512880000022278180008981               02062025CUOTA         000222247164              0009000000P                      00000000000000R00   0000000000000000206202500000VTO130530322617
D0003112046401104992300499050069650008984               02062025CUOTA         000311204644              0009000000P                      00000000000000R00   0000000000000000206202500000VTO130530322617
D0001762455932100011300070042347770008985               02062025CUOTA         000176245594              0009000000P                      00000000000000R00   0000000000000000206202500000VTO130530322617
D0002341185032100011300070587419970008987               02062025CUOTA         000234118504              0007650000P                      00000000000000R00   0000000000000000206202500000VTO130530322617
D0002341138332100011300070247733590008989               02062025CUOTA         000234113834              0009000000P                      00000000000000R00   0000000000000000206202500000VTO130530322617
D0001826007307201512880000220361220008999               02062025CUOTA         000182600734              0009000000P                      00000000000000R00   0000000000000000206202500000VTO130530322617
D0002196813207201512880000021526040009005               02062025CUOTA         000219681324              0009000000P                      00000000000000R00   0000000000000000206202500000VTO130530322617
D0002564453432100011300070990371010009009               02062025CUOTA         000256445344              0009000000P                      00000000000000R00   0000000000000000206202500000VTO130530322617
D0002341057407201512880000404078900009010               02062025CUOTA         000234105744              0009000000P                      00000000000000R00   0000000000000000206202500000VTO130530322617
D0002813914132100011300070504039030009014               02062025CUOTA         000281391414              0007650000P                      00000000000000R00   0000000000000000206202500000VTO130530322617
D0002643868307203648880000358543220009018               02062025CUOTA         000264386834              0009000000P                      00000000000000R00   0000000000000000206202500000VTO130530322617
D0002484094201700718400000325308500009022               02062025CUOTA         000248409424              0009000000P                      00000000000000R00   0000000000000000206202500000VTO130530322617
D0002056473801700718400000006767460009026               02062025CUOTA         000205647384              0009000000P                      00000000000000R00   0000000000000000206202500000VTO130530322617
D0002636841532100011300070859578480009028               02062025CUOTA         000263684154              0009000000P                      00000000000000R00   0000000000000000206202500000VTO130530322617
D0002279602407201512880000363003360009029               02062025CUOTA         000227960244              0009000000P                      00000000000000R00   0000000000000000206202500000VTO130530322617
D0002362548307201512880000396539180009030               02062025CUOTA         000236254834              0009000000P                      00000000000000R00   0000000000000000206202500000VTO130530322617
D0002090009401702257400000302978890009035               02062025CUOTA         000209000944              0009000000P                      00000000000000R00   0000000000000000206202500000VTO130530322617
D0000593775932100011500020620813030009039               02062025CUOTA         000059377594              0009000000P                      00000000000000R00   0000000000000000206202500000VTO130530322617
D0002978570807201659880000376477680009195               02062025CUOTA         000297857084              0009000000P                      00000000000000R00   0000000000000000206202500000VTO130530322617
D0002867722601508404010001146143340009715               02062025CUOTA         000286772264              0009000000P                      00000000000000R00   0000000000000000206202500000VTO130530322617
D0002971685201104992300499093297650009795               02062025CUOTA         000297168524              0009000000P                      00000000000000R00   0000000000000000206202500000VTO130530322617
D0002570954532100011300070494569810009841               02062025CUOTA         000257095454              0009000000P                      00000000000000R00   0000000000000000206202500000VTO130530322617
D0002739013807201512880000369738220009856               02062025CUOTA         000273901384              0009000000P                      00000000000000R00   0000000000000000206202500000VTO130530322617
D0002716914603402841082840054560000009857               02062025CUOTA         000271691464              0009000000P                      00000000000000R00   0000000000000000206202500000VTO130530322617
D0002622065732100011300071321159190009865               02062025CUOTA         000262206574              0009000000P                      00000000000000R00   0000000000000000206202500000VTO130530322617
D0002844491807203648880000363185220009887               02062025CUOTA         000284449184              0009000000P                      00000000000000R00   0000000000000000206202500000VTO130530322617
D0385525228607201512880000403204360009898               02062025CUOTA         038552522864              0009000000P                      00000000000000R00   0000000000000000206202500000VTO130530322617
D0002890013704400349400003156301030009917               02062025CUOTA         000289001374              0009000000P                      00000000000000R00   0000000000000000206202500000VTO130530322617
D0003231526319101059551105011172030009918               02062025CUOTA         000323152634              0009000000P                      00000000000000R00   0000000000000000206202500000VTO130530322617
D0002182613701700718400000361840460009925               02062025CUOTA         000218261374              0009000000P                      00000000000000R00   0000000000000000206202500000VTO130530322617
D0001313206707203648880000363768360009928               02062025CUOTA         000131320674              0009000000P                      00000000000000R00   0000000000000000206202500000VTO130530322617
D0003173921232100011500029875033750009947               02062025CUOTA         000317392124              0009000000P                      00000000000000R00   0000000000000000206202500000VTO130530322617
D0003309283007201512880000377830400009948               02062025CUOTA         000330928304              0009000000P                      00000000000000R00   0000000000000000206202500000VTO130530322617
D0002804897601508404010001200326320009951               02062025CUOTA         000280489764              0009000000P                      00000000000000R00   0000000000000000206202500000VTO130530322617
D0002341127432100011300070217365790009964               02062025CUOTA         000234112744              0007650000P                      00000000000000R00   0000000000000000206202500000VTO130530322617
D0002397640607203648880000350789860009965               02062025CUOTA         000239764064              0009000000P                      00000000000000R00   0000000000000000206202500000VTO130530322617
D0001815488632100011300070496410020009966               02062025CUOTA         000181548864              0009000000P                      00000000000000R00   0000000000000000206202500000VTO130530322617
D0002783471928506797400949066073480009968               02062025CUOTA         000278347194              0009000000P                      00000000000000R00   0000000000000000206202500000VTO130530322617
D0002179172032100011300070441327830009976               02062025CUOTA         000217917204              0009000000P                      00000000000000R00   0000000000000000206202500000VTO130530322617
D0002760807801104992300499992833290009985               02062025CUOTA         000276080784              0009000000P                      00000000000000R00   0000000000000000206202500000VTO130530322617
D0002957673832100011300071125086120009989               02062025CUOTA         000295767384              0007650000P                      00000000000000R00   0000000000000000206202500000VTO130530322617
D0002530174132100011300080281243650010006               02062025CUOTA         000253017414              0009000000P                      00000000000000R00   0000000000000000206202500000VTO130530322617
D0002304117500701217300041754165910010008               02062025CUOTA         000230411754              0009000000P                      00000000000000R00   0000000000000000206202500000VTO130530322617
D0002718512632100011300300187113650010011               02062025CUOTA         000271851264              0009000000P                      00000000000000R00   0000000000000000206202500000VTO130530322617
D0002437651732100011300079243065290010014               02062025CUOTA         000243765174              0009000000P                      00000000000000R00   0000000000000000206202500000VTO130530322617
D0003308933432100011300079981999190010015               02062025CUOTA         000330893344              0009000000P                      00000000000000R00   0000000000000000206202500000VTO130530322617
D0002872472832100011300080043356060010028               02062025CUOTA         000287247284              0009000000P                      00000000000000R00   0000000000000000206202500000VTO130530322617
D0002540026301100136300013106687470010041               02062025CUOTA         000254002634              0009000000P                      00000000000000R00   0000000000000000206202500000VTO130530322617
D0002677468032100011500030207530120010044               02062025CUOTA         000267746804              0007650000P                      00000000000000R00   0000000000000000206202500000VTO130530322617
D0002812501932100011300071013978100010048               02062025CUOTA         000281250194              0009000000P                      00000000000000R00   0000000000000000206202500000VTO130530322617
D0003374916507201512880000037994400010050               02062025CUOTA         000337491654              0009000000P                      00000000000000R00   0000000000000000206202500000VTO130530322617
D0003534446507201512880000396462680010097               02062025CUOTA         000353444654              0009000000P                      00000000000000R00   0000000000000000206202500000VTO130530322617
D0002739175004400349400003107152830010099               02062025CUOTA         000273917504              0009000000P                      00000000000000R00   0000000000000000206202500000VTO130530322617
D0002717245732100011300070414947270010348               02062025CUOTA         000271724574              0007650000P                      00000000000000R00   0000000000000000206202500000VTO130530322617
D0002953617132100011300070909372880010449               02062025CUOTA         000295361714              0009000000P                      00000000000000R00   0000000000000000206202500000VTO130530322617
D0002485013200701217300041920359280010450               02062025CUOTA         000248501324              0009000000P                      00000000000000R00   0000000000000000206202500000VTO130530322617
D0002739090007201512880000370605900010451               02062025CUOTA         000273909004              0009000000P                      00000000000000R00   0000000000000000206202500000VTO130530322617
D0002903783632100011300071350785630010452               02062025CUOTA         000290378364              0009000000P                      00000000000000R00   0000000000000000206202500000VTO130530322617
D0002224264301508404010001060581660010460               02062025CUOTA         000222426434              0009000000P                      00000000000000R00   0000000000000000206202500000VTO130530322617
D0002516861707201512880000021664540010461               02062025CUOTA         000251686174              0009000000P                      00000000000000R00   0000000000000000206202500000VTO130530322617
D0002616131107201512880000021746400010463               02062025CUOTA         000261613114              0009000000P                      00000000000000R00   0000000000000000206202500000VTO130530322617
D0002530185807201512880000252129900010464               02062025CUOTA         000253018584              0009000000P                      00000000000000R00   0000000000000000206202500000VTO130530322617
D0003591756432100011300071273414420010471               02062025CUOTA         000359175644              0009000000P                      00000000000000R00   0000000000000000206202500000VTO130530322617
D0002994937901104992300499093230330010473               02062025CUOTA         000299493794              0009000000P                      00000000000000R00   0000000000000000206202500000VTO130530322617
D0001475411132100011500026813050280010474               02062025CUOTA         000147541114              0009000000P                      00000000000000R00   0000000000000000206202500000VTO130530322617
D0003416947438900837400052096809380010478               02062025CUOTA         000341694744              0009000000P                      00000000000000R00   0000000000000000206202500000VTO130530322617
D0003528745632100011300300309747330010479               02062025CUOTA         000352874564              0009000000P                      00000000000000R00   0000000000000000206202500000VTO130530322617
D0002781106328506797400948956906880010483               02062025CUOTA         000278110634              0009000000P                      00000000000000R00   0000000000000000206202500000VTO130530322617
D0002261879532100011300070040909750010494               02062025CUOTA         000226187954              0009000000P                      00000000000000R00   0000000000000000206202500000VTO130530322617
D0003534352701700718400000366516500010520               02062025CUOTA         000353435274              0009000000P                      00000000000000R00   0000000000000000206202500000VTO130530322617
D0002657027807201512880000382786040010523               02062025CUOTA         000265702784              0009000000P                      00000000000000R00   0000000000000000206202500000VTO130530322617
D0002989418032100011300071168080460010525               02062025CUOTA         000298941804              0009000000P                      00000000000000R00   0000000000000000206202500000VTO130530322617
D0002392598132100011300071326935410010529               02062025CUOTA         000239259814              0009000000P                      00000000000000R00   0000000000000000206202500000VTO130530322617
D0002850306807201512880000224689900010534               02062025CUOTA         000285030684              0009000000P                      00000000000000R00   0000000000000000206202500000VTO130530322617
D0002527679032100011300070455353210010539               02062025CUOTA         000252767904              0007650000P                      00000000000000R00   0000000000000000206202500000VTO130530322617
D0002591220500701217300042040581740010540               02062025CUOTA         000259122054              0009000000P                      00000000000000R00   0000000000000000206202500000VTO130530322617
D0002813914132100011300070504039030010543               02062025CUOTA         000281391414              0007650000P                      00000000000000R00   0000000000000000206202500000VTO130530322617
D0002261829207201512880000220333900010553               02062025CUOTA         000226182924              0009000000P                      00000000000000R00   0000000000000000206202500000VTO130530322617
D0002341136332100011300070406366780010558               02062025CUOTA         000234113634              0009000000P                      00000000000000R00   0000000000000000206202500000VTO130530322617
D0002421656932100011300070446134200010559               02062025CUOTA         000242165694              0009000000P                      00000000000000R00   0000000000000000206202500000VTO130530322617
D0002739114507203648880000360339860010562               02062025CUOTA         000273911454              0009000000P                      00000000000000R00   0000000000000000206202500000VTO130530322617
D0002543793132100011500022562296380010565               02062025CUOTA         000254379314              0009000000P                      00000000000000R00   0000000000000000206202500000VTO130530322617
D0002804897601508404010001200326320010567               02062025CUOTA         000280489764              0009000000P                      00000000000000R00   0000000000000000206202500000VTO130530322617
D0002662943107201512880000365442680010570               02062025CUOTA         000266294314              0009000000P                      00000000000000R00   0000000000000000206202500000VTO130530322617
D0002163125407201512880000221156360010571               02062025CUOTA         000216312544              0009000000P                      00000000000000R00   0000000000000000206202500000VTO130530322617
D0002781108001104992300499251735150010572               02062025CUOTA         000278110804              0009000000P                      00000000000000R00   0000000000000000206202500000VTO130530322617
D0001379069900701217300041424998130010574               02062025CUOTA         000137906994              0009000000P                      00000000000000R00   0000000000000000206202500000VTO130530322617
D0002813917928506797400949717212080010582               02062025CUOTA         000281391794              0009000000P                      00000000000000R00   0000000000000000206202500000VTO130530322617
D0002095990432100011300070556071950010586               02062025CUOTA         000209599044              0009000000P                      00000000000000R00   0000000000000000206202500000VTO130530322617
D0003352060232100011300071403697550010594               02062025CUOTA         000335206024              0007650000P                      00000000000000R00   0000000000000000206202500000VTO130530322617
D0002745737332100011300079585778320010595               02062025CUOTA         000274573734              0009000000P                      00000000000000R00   0000000000000000206202500000VTO130530322617
D0002616115532100011300071099158100010597               02062025CUOTA         000261611554              0007650000P                      00000000000000R00   0000000000000000206202500000VTO130530322617
D0002758175501700718400000359659140010598               02062025CUOTA         000275817554              0009000000P                      00000000000000R00   0000000000000000206202500000VTO130530322617
D0002397632101700718400000005224140010600               02062025CUOTA         000239763214              0009000000P                      00000000000000R00   0000000000000000206202500000VTO130530322617
D0002511441328506797400951955215880010603               02062025CUOTA         000251144134              0009000000P                      00000000000000R00   0000000000000000206202500000VTO130530322617
D0002734212307201512880000020797540010616               02062025CUOTA         000273421234              0009000000P                      00000000000000R00   0000000000000000206202500000VTO130530322617
D0002677468032100011500030207530120010631               02062025CUOTA         000267746804              0007650000P                      00000000000000R00   0000000000000000206202500000VTO130530322617
D0002566570432100011300071395620460010633               02062025CUOTA         000256657044              0009000000P                      00000000000000R00   0000000000000000206202500000VTO130530322617
D0002163288507200298880000023790900010640               02062025CUOTA         000216328854              0009000000P                      00000000000000R00   0000000000000000206202500000VTO130530322617
D0003091830600701217300041774001250010646               02062025CUOTA         000309183064              0007650000P                      00000000000000R00   0000000000000000206202500000VTO130530322617
D0003499419319101059551105010711670010661               02062025CUOTA         000349941934              0009000000P                      00000000000000R00   0000000000000000206202500000VTO130530322617
D0002739053001700718400000325267960010952               02062025CUOTA         000273905304              0007650000P                      00000000000000R00   0000000000000000206202500000VTO130530322617
D0002440965700701217300041804502670010955               02062025CUOTA         000244096574              0009000000P                      00000000000000R00   0000000000000000206202500000VTO130530322617
D0002813949219101059550105533768280010963               02062025CUOTA         000281394924              0009000000P                      00000000000000R00   0000000000000000206202500000VTO130530322617
D0003441408901700718400000333950780010993               02062025CUOTA         000344140894              0007650000P                      00000000000000R00   0000000000000000206202500000VTO130530322617
D0002622065732100011300071321159190011011               02062025CUOTA         000262206574              0009000000P                      00000000000000R00   0000000000000000206202500000VTO130530322617
D0002604046932100011300071209616340011025               02062025CUOTA         000260404694              0009000000P                      00000000000000R00   0000000000000000206202500000VTO130530322617
D0002341184732100011300070263525070011026               02062025CUOTA         000234118474              0009000000P                      00000000000000R00   0000000000000000206202500000VTO130530322617
D0005162671232100011300070526084360011039               02062025CUOTA         000516267124              0009000000P                      00000000000000R00   0000000000000000206202500000VTO130530322617
D0002570958732100011300070494301890011040               02062025CUOTA         000257095874              0009000000P                      00000000000000R00   0000000000000000206202500000VTO130530322617
D0003416765501700718400000373174780011045               02062025CUOTA         000341676554              0009000000P                      00000000000000R00   0000000000000000206202500000VTO130530322617
D0002813949219101059550105533768280011054               02062025CUOTA         000281394924              0009000000P                      00000000000000R00   0000000000000000206202500000VTO130530322617
D0002760822001508404010001203660890011058               02062025CUOTA         000276082204              0009000000P                      00000000000000R00   0000000000000000206202500000VTO130530322617
D0002739197432100011300070241628100011085               02062025CUOTA         000273919744              0009000000P                      00000000000000R00   0000000000000000206202500000VTO130530322617
D0002594604632100011500030239706720011088               02062025CUOTA         000259460464              0009000000P                      00000000000000R00   0000000000000000206202500000VTO130530322617
D0001826003832100011300070325994420011098               02062025CUOTA         000182600384              0009000000P                      00000000000000R00   0000000000000000206202500000VTO130530322617
D0002341127432100011300070217365790011104               02062025CUOTA         000234112744              0007650000P                      00000000000000R00   0000000000000000206202500000VTO130530322617
D0002341127432100011300070217365790011105               02062025CUOTA         000234112744              0007650000P                      00000000000000R00   0000000000000000206202500000VTO130530322617
D0002397625132100011300071246872880011115               02062025CUOTA         000239762514              0009000000P                      00000000000000R00   0000000000000000206202500000VTO130530322617
D0002419334800701217200000056034200011116               02062025CUOTA         000241933484              0009000000P                      00000000000000R00   0000000000000000206202500000VTO130530322617
D0002341185032100011300070587419970011123               02062025CUOTA         000234118504              0007650000P                      00000000000000R00   0000000000000000206202500000VTO130530322617
D0002570997332100011300071112788480011125               02062025CUOTA         000257099734              0009000000P                      00000000000000R00   0000000000000000206202500000VTO130530322617
D0002906003203402841082840160630060011131               02062025CUOTA         000290600324              0007500000P                      00000000000000R00   0000000000000000206202500000VTO130530322617
D0003071221101508404010001152497390011132               02062025CUOTA         000307122114              0007500000P                      00000000000000R00   0000000000000000206202500000VTO130530322617
D0003213241532100011500023217200840011139               02062025CUOTA         000321324154              0006375000P                      00000000000000R00   0000000000000000206202500000VTO130530322617
D0002485013200701217300041920359280011145               02062025CUOTA         000248501324              0007500000P                      00000000000000R00   0000000000000000206202500000VTO130530322617
D0002311785507201512880000021574180011157               02062025CUOTA         000231178554              0007500000P                      00000000000000R00   0000000000000000206202500000VTO130530322617
D0002989415807201512880000382872680011161               02062025CUOTA         000298941584              0007500000P                      00000000000000R00   0000000000000000206202500000VTO130530322617
D0003189723907200250880000376639040011180               02062025CUOTA         000318972394              0007500000P                      00000000000000R00   0000000000000000206202500000VTO130530322617
D0002533389632100011300070274742660011188               02062025CUOTA         000253338964              0007500000P                      00000000000000R00   0000000000000000206202500000VTO130530322617
D0002824610307201512880000361628220011194               02062025CUOTA         000282461034              0007500000P                      00000000000000R00   0000000000000000206202500000VTO130530322617
D0002872472832100011300080043356060011200               02062025CUOTA         000287247284              0007500000P                      00000000000000R00   0000000000000000206202500000VTO130530322617
D0002550196307201512880000020408220011287               02062025CUOTA         000255019634              0007500000P                      00000000000000R00   0000000000000000206202500000VTO130530322617
D0002791817332100011300070447623370011290               02062025CUOTA         000279181734              0007500000P                      00000000000000R00   0000000000000000206202500000VTO130530322617
D0002813917928506797400949717212080011296               02062025CUOTA         000281391794              0007500000P                      00000000000000R00   0000000000000000206202500000VTO130530322617
D0003352060232100011300071403697550011299               02062025CUOTA         000335206024              0006375000P                      00000000000000R00   0000000000000000206202500000VTO130530322617
D0003285993907201512880000371462720011300               02062025CUOTA         000328599394              0007500000P                      00000000000000R00   0000000000000000206202500000VTO130530322617
D0003369312232100011300071310560020011301               02062025CUOTA         000336931224              0006375000P                      00000000000000R00   0000000000000000206202500000VTO130530322617
D0002739053001700718400000325267960011305               02062025CUOTA         000273905304              0006375000P                      00000000000000R00   0000000000000000206202500000VTO130530322617
D0001029316601104992300499179368010011312               02062025CUOTA         000102931664              0007500000P                      00000000000000R00   0000000000000000206202500000VTO130530322617
D0002496743532100011300070600399470011315               02062025CUOTA         000249674354              0009000000P                      00000000000000R00   0000000000000000206202500000VTO130530322617
D0002831892101104992300499088916650011319               02062025CUOTA         000283189214              0009000000P                      00000000000000R00   0000000000000000206202500000VTO130530322617
D0002867732032100011300300198779690011322               02062025CUOTA         000286773204              0009000000P                      00000000000000R00   0000000000000000206202500000VTO130530322617
D0002550791732100011300079664180800011339               02062025CUOTA         000255079174              0007650000P                      00000000000000R00   0000000000000000206202500000VTO130530322617
D0002573003532100011300070502668980011396               02062025CUOTA         000257300352              0006000000P                      00000000000000R00   0000000000000000206202500000VTO130530322617
D0002584425632100011300079815764080011453               02062025CUOTA         000258442564              0009000000P                      00000000000000R00   0000000000000000206202500000VTO130530322617
D0002739338132100011300070954323370011542               02062025CUOTA         000273933814              0009000000P                      00000000000000R00   0000000000000000206202500000VTO130530322617
D0003469555632100011500026114699850011613               02062025CUOTA         000346955564              0001000000P                      00000000000000R00   0000000000000000206202500000VTO130530322617
D0002530142632100011300071240209750011617               02062025CUOTA         000253014264              0009000000P                      00000000000000R00   0000000000000000206202500000VTO130530322617
D0002636876001508404010001253533120011618               02062025CUOTA         000263687604              0007650000P                      00000000000000R00   0000000000000000206202500000VTO130530322617
D0003091757932100011300071436205850011620               02062025CUOTA         000309175794              0009000000P                      00000000000000R00   0000000000000000206202500000VTO130530322617
D0005297087732100011300070990641670011621               02062025CUOTA         000529708774              0009000000P                      00000000000000R00   0000000000000000206202500000VTO130530322617
D0002824606604400349400003087528430011622               02062025CUOTA         000282460664              0009000000P                      00000000000000R00   0000000000000000206202500000VTO130530322617
D0002657657200701217300041504711020011626               02062025CUOTA         000265765724              0009000000P                      00000000000000R00   0000000000000000206202500000VTO130530322617
D0002437669807201512880000370515540011627               02062025CUOTA         000243766984              0009000000P                      00000000000000R00   0000000000000000206202500000VTO130530322617
D0002163127932100011300070564413870011628               02062025CUOTA         000216312794              0009000000P                      00000000000000R00   0000000000000000206202500000VTO130530322617
D0002971998532100011300070595520020011632               02062025CUOTA         000297199854              0009000000P                      00000000000000R00   0000000000000000206202500000VTO130530322617
D0002261737532100011300070988517990011647               02062025CUOTA         000226173754              0009000000P                      00000000000000R00   0000000000000000206202500000VTO130530322617
D0002397665532100011500022987589850011653               02062025CUOTA         000239766554              0009000000P                      00000000000000R00   0000000000000000206202500000VTO130530322617
D0001680222807201512880000045309540011654               02062025CUOTA         000168022284              0009000000P                      00000000000000R00   0000000000000000206202500000VTO130530322617
D0002261879532100011300070040909750011666               02062025CUOTA         000226187954              0009000000P                      00000000000000R00   0000000000000000206202500000VTO130530322617
D0003773688807203648880000003566400011674               02062025CUOTA         000377368884              0009000000P                      00000000000000R00   0000000000000000206202500000VTO130530322617
D0002760894301700718400000333716780011677               02062025CUOTA         000276089434              0009000000P                      00000000000000R00   0000000000000000206202500000VTO130530322617
D0002370577601508404010001204670270011678               02062025CUOTA         000237057764              0009000000P                      00000000000000R00   0000000000000000206202500000VTO130530322617
D0002570974007201512880000381155720011680               02062025CUOTA         000257097404              0009000000P                      00000000000000R00   0000000000000000206202500000VTO130530322617
D0003268559407203648300000372243150011694               02062025CUOTA         000326855944              0009000000P                      00000000000000R00   0000000000000000206202500000VTO130530322617
D0002789993332100011300071369659470011696               02062025CUOTA         000278999334              0009000000P                      00000000000000R00   0000000000000000206202500000VTO130530322617
D0003423637001700718400000353612000011697               02062025CUOTA         000342363704              0009000000P                      00000000000000R00   0000000000000000206202500000VTO130530322617
D0003374901632100011300071237315350011700               02062025CUOTA         000337490164              0009000000P                      00000000000000R00   0000000000000000206202500000VTO130530322617
D0002722298832100011300070477420800011701               02062025CUOTA         000272229884              0009000000P                      00000000000000R00   0000000000000000206202500000VTO130530322617
D0003190502904400349400003128780230011704               02062025CUOTA         000319050294              0009000000P                      00000000000000R00   0000000000000000206202500000VTO130530322617
D0002989431332100011300071278839970011705               02062025CUOTA         000298943134              0009000000P                      00000000000000R00   0000000000000000206202500000VTO130530322617
D0003505224032100011300071991131670011706               02062025CUOTA         000350522404              0009000000P                      00000000000000R00   0000000000000000206202500000VTO130530322617
D0003298049607201512880000375093360011712               02062025CUOTA         000329804964              0009000000P                      00000000000000R00   0000000000000000206202500000VTO130530322617
D0002196813207201512880000021526040011727               02062025CUOTA         000219681324              0009000000P                      00000000000000R00   0000000000000000206202500000VTO130530322617
D0001815488632100011300070496410020011728               02062025CUOTA         000181548864              0009000000P                      00000000000000R00   0000000000000000206202500000VTO130530322617
D0002761593307201512880000021492220011730               02062025CUOTA         000276159334              0009000000P                      00000000000000R00   0000000000000000206202500000VTO130530322617
D0002850306807201512880000224689900011731               02062025CUOTA         000285030684              0009000000P                      00000000000000R00   0000000000000000206202500000VTO130530322617
D0002717245732100011300070414947270011733               02062025CUOTA         000271724574              0007650000P                      00000000000000R00   0000000000000000206202500000VTO130530322617
D0002616165132100011300071923594360011738               02062025CUOTA         000261616514              0009000000P                      00000000000000R00   0000000000000000206202500000VTO130530322617
D0002406826232100011300070448812720011742               02062025CUOTA         000240682624              0009000000P                      00000000000000R00   0000000000000000206202500000VTO130530322617
D0002971675907201512880000372169860011744               02062025CUOTA         000297167594              0009000000P                      00000000000000R00   0000000000000000206202500000VTO130530322617
D0002397640607203648880000350789860011748               02062025CUOTA         000239764064              0009000000P                      00000000000000R00   0000000000000000206202500000VTO130530322617
D0001379069900701217300041424998130011753               02062025CUOTA         000137906994              0007500000P                      00000000000000R00   0000000000000000206202500000VTO130530322617
D0002760807801104992300499992833290011756               02062025CUOTA         000276080784              0007500000P                      00000000000000R00   0000000000000000206202500000VTO130530322617
D0002804866432100011300071080664580011759               02062025CUOTA         000280486644              0007500000P                      00000000000000R00   0000000000000000206202500000VTO130530322617
D0002570932232100011300070326155790011760               02062025CUOTA         000257093224              0007500000P                      00000000000000R00   0000000000000000206202500000VTO130530322617
D0002224289901104992300499099774830011761               02062025CUOTA         000222428994              0007500000P                      00000000000000R00   0000000000000000206202500000VTO130530322617
D0003129739832100011300071804337770011762               02062025CUOTA         000312973984              0007500000P                      00000000000000R00   0000000000000000206202500000VTO130530322617
D0003213241532100011500023217200840011764               02062025CUOTA         000321324154              0006375000P                      00000000000000R00   0000000000000000206202500000VTO130530322617
D0002441339232100011300070359070460011765               02062025CUOTA         000244133924              0007500000P                      00000000000000R00   0000000000000000206202500000VTO130530322617
D0003591796601104992300499194728510011773               02062025CUOTA         000359179664              0006375000P                      00000000000000R00   0000000000000000206202500000VTO130530322617
D0003268890432100011300071409174420011778               02062025CUOTA         000326889044              0007500000P                      00000000000000R00   0000000000000000206202500000VTO130530322617
D0002870109907201512880000047754900011786               02062025CUOTA         000287010994              0007500000P                      00000000000000R00   0000000000000000206202500000VTO130530322617
D0002890035507201512880000020479220011789               02062025CUOTA         000289003554              0007500000P                      00000000000000R00   0000000000000000206202500000VTO130530322617
D0002616115532100011300071099158100011803               02062025CUOTA         000261611554              0006375000P                      00000000000000R00   0000000000000000206202500000VTO130530322617
D0003161340332100011500029930069630011807               02062025CUOTA         000316134034              0007500000P                      00000000000000R00   0000000000000000206202500000VTO130530322617
D0022085145232100011300300291684080011812               02062025CUOTA         002208514524              0007500000P                      00000000000000R00   0000000000000000206202500000VTO130530322617
D0003423142232100011300071880462380011815               02062025CUOTA         000342314224              0007500000P                      00000000000000R00   0000000000000000206202500000VTO130530322617
D0002559604132100011300300195923090011823               02062025CUOTA         000255960414              0007500000P                      00000000000000R00   0000000000000000206202500000VTO130530322617
D0002718586232100011300079526924360011825               02062025CUOTA         000271858624              0007500000P                      00000000000000R00   0000000000000000206202500000VTO130530322617
D0002739338132100011300070954323370011828               02062025CUOTA         000273933814              0007500000P                      00000000000000R00   0000000000000000206202500000VTO130530322617
D0003255804932100011300071680662720011851               02062025CUOTA         000325580494              0007500000P                      00000000000000R00   0000000000000000206202500000VTO130530322617
D0003255804932100011300071680662720011853               02062025CUOTA         000325580494              0007500000P                      00000000000000R00   0000000000000000206202500000VTO130530322617
D0003293786632100011300071126874920011863               02062025CUOTA         000329378664              0009000000P                      00000000000000R00   0000000000000000206202500000VTO130530322617
D0003031809432100011300071363144420011899               02062025CUOTA         000303180944              0009000000P                      00000000000000R00   0000000000000000206202500000VTO130530322617
D0002290250132100011300079229143370011900               02062025CUOTA         000229025014              0009000000P                      00000000000000R00   0000000000000000206202500000VTO130530322617
D0002434677707203648880000357830040011967               02062025CUOTA         000243467774              0009000000P                      00000000000000R00   0000000000000000206202500000VTO130530322617
D0003591756432100011300071273414420012084               02062025CUOTA         000359175644              0007500000P                      00000000000000R00   0000000000000000206202500000VTO130530322617
D0003363400207205002880000051106180012092               02062025CUOTA         000336340024              0007500000P                      00000000000000R00   0000000000000000206202500000VTO130530322617
D0003091836332100011300079584798480012137               02062025CUOTA         000309183634              0007500000P                      00000000000000R00   0000000000000000206202500000VTO130530322617
D0002333538504400349400001246878730012141               02062025CUOTA         000233353854              0007500000P                      00000000000000R00   0000000000000000206202500000VTO130530322617
D0002767792132100011300070561164700012142               02062025CUOTA         000276779214              0007500000P                      00000000000000R00   0000000000000000206202500000VTO130530322617
D0003037296832100011300071990013090012144               02062025CUOTA         000303729684              0007500000P                      00000000000000R00   0000000000000000206202500000VTO130530322617
D0003091814232100011300070491681230012145               02062025CUOTA         000309181424              0007500000P                      00000000000000R00   0000000000000000206202500000VTO130530322617
D0002341075232100011500030123302540012148               02062025CUOTA         000234107524              0007500000P                      00000000000000R00   0000000000000000206202500000VTO130530322617
D0003024139200701217300041797522170012149               02062025CUOTA         000302413924              0007500000P                      00000000000000R00   0000000000000000206202500000VTO130530322617
D0003130554207201512880000378995720012152               02062025CUOTA         000313055424              0007500000P                      00000000000000R00   0000000000000000206202500000VTO130530322617
D0003574126207201512880000399655720012158               02062025CUOTA         000357412624              0007500000P                      00000000000000R00   0000000000000000206202500000VTO130530322617
D0002858961801104992300499994412790012164               02062025CUOTA         000285896184              0007500000P                      00000000000000R00   0000000000000000206202500000VTO130530322617
D0002695476601700718400000338165280012198               02062025CUOTA         000269547664              0007500000P                      00000000000000R00   0000000000000000206202500000VTO130530322617
D0001677204232100011300070224557050012199               02062025CUOTA         000167720424              0007500000P                      00000000000000R00   0000000000000000206202500000VTO130530322617
D0003427830432100011300079665389970012200               02062025CUOTA         000342783044              0007500000P                      00000000000000R00   0000000000000000206202500000VTO130530322617
D0002056483332100011300071432347330012204               02062025CUOTA         000205648334              0007500000P                      00000000000000R00   0000000000000000206202500000VTO130530322617
D0002914275832100011500022670528360012206               02062025CUOTA         000291427584              0007500000P                      00000000000000R00   0000000000000000206202500000VTO130530322617
D0003369312232100011300071310560020012216               02062025CUOTA         000336931224              0006375000P                      00000000000000R00   0000000000000000206202500000VTO130530322617
D0002971998532100011300070595520020012222               02062025CUOTA         000297199854              0007500000P                      00000000000000R00   0000000000000000206202500000VTO130530322617
D0002550791732100011300079664180800012223               02062025CUOTA         000255079174              0006375000P                      00000000000000R00   0000000000000000206202500000VTO130530322617
D0003024109804400349400002650408230012240               02062025CUOTA         000302410984              0007500000P                      00000000000000R00   0000000000000000206202500000VTO130530322617
D0002887064532100011300070262835130012242               02062025CUOTA         000288706454              0007500000P                      00000000000000R00   0000000000000000206202500000VTO130530322617
D0003752935401700718400000386255960012254               02062025CUOTA         000375293544              0007500000P                      00000000000000R00   0000000000000000206202500000VTO130530322617
D0003604549832100011300079334425910012257               02062025CUOTA         000360454984              0007500000P                      00000000000000R00   0000000000000000206202500000VTO130530322617
D0002874422007201512880000388020900012262               02062025CUOTA         000287442204              0007500000P                      00000000000000R00   0000000000000000206202500000VTO130530322617
D0003424067519101059551105010179850012269               02062025CUOTA         000342406754              0007500000P                      00000000000000R00   0000000000000000206202500000VTO130530322617
D0002739115132100011300071375341950012274               02062025CUOTA         000273911514              0007500000P                      00000000000000R00   0000000000000000206202500000VTO130530322617
D0002197942401101092300109246901010012278               02062025CUOTA         000219794244              0007500000P                      00000000000000R00   0000000000000000206202500000VTO130530322617
D0002906241900701217300041796984100012280               02062025CUOTA         000290624194              0007500000P                      00000000000000R00   0000000000000000206202500000VTO130530322617
D0002906241900701217300041796984100012281               02062025CUOTA         000290624194              0007500000P                      00000000000000R00   0000000000000000206202500000VTO130530322617
D0003173972315001308000130601852820012287               02062025CUOTA         000317397234              0007500000P                      00000000000000R00   0000000000000000206202500000VTO130530322617
D0002867717132100011300071390124420012289               02062025CUOTA         000286771714              0007500000P                      00000000000000R00   0000000000000000206202500000VTO130530322617
D0003133398532100011300071213909690012296               02062025CUOTA         000313339854              0007500000P                      00000000000000R00   0000000000000000206202500000VTO130530322617
D0002813987832100011300071427193430012299               02062025CUOTA         000281398784              0007500000P                      00000000000000R00   0000000000000000206202500000VTO130530322617
