H30530322617CUOTA     02017022025            A C HNOS MISERIC                                                                                                                                           
D0002099726704400349400003462911330008397               03032025CUOTA         000000000001              0009000000P                      00000000000000      00000000000000000000000         30530322617
D0003091757932100011300071436205850008425               03032025CUOTA         000000000001              0009000000P                      00000000000000      00000000000000000000000         30530322617
D0003112051532100011300070569178820008447               03032025CUOTA         000000000001              0009000000P                      00000000000000      00000000000000000000000         30530322617
D0002542901532100011300071178021390008472               03032025CUOTA         000000000001              0009000000P                      00000000000000      00000000000000000000000         30530322617
D0002397606000701217300041614460210008491               03032025CUOTA         000000000001              0009000000P                      00000000000000      00000000000000000000000         30530322617
D0002410185832100011300070207956340008508               03032025CUOTA         000000000001              0009000000P                      00000000000000      00000000000000000000000         30530322617
D0001379069900701217300041424998130010574               03032025CUOTA         000000000001              0009000000P                      00000000000000      00000000000000000000000         30530322617
D0003268887228506797400949717220580010575               03032025CUOTA         000000000001              0009000000P                      00000000000000      00000000000000000000000         30530322617
D0002095990432100011300070556071950010586               03032025CUOTA         000000000001              0009000000P                      00000000000000      00000000000000000000000         30530322617
D0003352060232100011300071403697550010594               03032025CUOTA         000000000001              0009000000P                      00000000000000      00000000000000000000000         30530322617
D0002745737332100011300079585778320010595               03032025CUOTA         000000000001              0009000000P                      00000000000000      00000000000000000000000         30530322617
D0002616115532100011300071099158100010597               03032025CUOTA         000000000001              0009000000P                      00000000000000      00000000000000000000000         30530322617
D0002397632101700718400000005224140010600               03032025CUOTA         000000000001              0009000000P                      00000000000000      00000000000000000000000         30530322617
D0002511441328506797400951955215880010603               03032025CUOTA         000000000001              0009000000P                      00000000000000      00000000000000000000000         30530322617
D0002677468032100011500030207530120010631               03032025CUOTA         000000000001              0009000000P                      00000000000000      00000000000000000000000         30530322617
D0002566570432100011300071395620460010633               03032025CUOTA         000000000001              0009000000P                      00000000000000      00000000000000000000000         30530322617
D0003091830600701217300041774001250010646               03032025CUOTA         000000000001              0009000000P                      00000000000000      00000000000000000000000         30530322617
D0002906003203402841082840160630060011131               03032025CUOTA         000000000001              0007500000P                      00000000000000      00000000000000000000000         30530322617
D0003071221101700718400000346550500011132               03032025CUOTA         000000000001              0007500000P                      00000000000000      00000000000000000000000         30530322617
D0003213241532100011500023217200840011139               03032025CUOTA         000000000001              0007500000P                      00000000000000      00000000000000000000000         30530322617
D0002485013200701217300041920359280011145               03032025CUOTA         000000000001              0007500000P                      00000000000000      00000000000000000000000         30530322617
D0002311785507201512880000021574180011157               03032025CUOTA         000000000001              0007500000P                      00000000000000      00000000000000000000000         30530322617
D0002739136632100011300070942893090011162               03032025CUOTA         000000000001              0007500000P                      00000000000000      00000000000000000000000         30530322617
D0003795539807201512880000396344900011172               03032025CUOTA         000000000001              0007500000P                      00000000000000      00000000000000000000000         30530322617
D0003189723907200250880000376639040011180               03032025CUOTA         000000000001              0007500000P                      00000000000000      00000000000000000000000         30530322617
D0002872472832100011300080043356060011200               03032025CUOTA         000000000001              0007500000P                      00000000000000      00000000000000000000000         30530322617
D0002550196307201512880000020408220011287               03032025CUOTA         000000000001              0007500000P                      00000000000000      00000000000000000000000         30530322617
D0003352060232100011300071403697550011299               03032025CUOTA         000000000001              0007500000P                      00000000000000      00000000000000000000000         30530322617
D0003369312232100011300071310560020011301               03032025CUOTA         000000000001              0007500000P                      00000000000000      00000000000000000000000         30530322617
D0002739053001700718400000325267960011305               03032025CUOTA         000000000001              0007500000P                      00000000000000      00000000000000000000000         30530322617
D0003044306632102307500008995332680011311               03032025CUOTA         000000000001              0007500000P                      00000000000000      00000000000000000000000         30530322617
D0002496743532100011300070600399470011315               03032025CUOTA         000000000001              0009000000P                      00000000000000      00000000000000000000000         30530322617
D0002831892101104992300499088916650011319               03032025CUOTA         000000000001              0009000000P                      00000000000000      00000000000000000000000         30530322617
D0003091757932100011300071436205850011620               03032025CUOTA         000000000001              0009000000P                      00000000000000      00000000000000000000000         30530322617
D0002824606604400349400003087528430011622               03032025CUOTA         000000000001              0009000000P                      00000000000000      00000000000000000000000         30530322617
D0002657657200701217300041504711020011626               03032025CUOTA         000000000001              0009000000P                      00000000000000      00000000000000000000000         30530322617
D0002971998532100011300070595520020011632               03032025CUOTA         000000000001              0009000000P                      00000000000000      00000000000000000000000         30530322617
D0001810105303401008087101574440010011662               03032025CUOTA         000000000001              0009000000P                      00000000000000      00000000000000000000000         30530322617
D0002261879501508404010001014511990011666               03032025CUOTA         000000000001              0009000000P                      00000000000000      00000000000000000000000         30530322617
D0002511476332100011500031110624520011680               03032025CUOTA         000000000001              0009000000P                      00000000000000      00000000000000000000000         30530322617
D0002722298832100011300070477420800011701               03032025CUOTA         000000000001              0009000000P                      00000000000000      00000000000000000000000         30530322617
D0002989431332100011300071278839970011705               03032025CUOTA         000000000001              0009000000P                      00000000000000      00000000000000000000000         30530322617
D0003505224032100011300071991131670011706               03032025CUOTA         000000000001              0009000000P                      00000000000000      00000000000000000000000         30530322617
D0004028548232100011300300377433090011710               03032025CUOTA         000000000001              0009000000P                      00000000000000      00000000000000000000000         30530322617
D0003205417532100011300300398379470011720               03032025CUOTA         000000000001              0009000000P                      00000000000000      00000000000000000000000         30530322617
D0002196813207201512880000021526040011727               03032025CUOTA         000000000001              0009000000P                      00000000000000      00000000000000000000000         30530322617
D0002679956701700718400000392321000011729               03032025CUOTA         000000000001              0009000000P                      00000000000000      00000000000000000000000         30530322617
D0001379069900701217300041424998130011753               03032025CUOTA         000000000001              0007500000P                      00000000000000      00000000000000000000000         30530322617
D0003268887228506797400949717220580011755               03032025CUOTA         000000000001              0007500000P                      00000000000000      00000000000000000000000         30530322617
D0002760807801104992300499992833290011756               03032025CUOTA         000000000001              0007500000P                      00000000000000      00000000000000000000000         30530322617
D0002804866432100011300071080664580011759               03032025CUOTA         000000000001              0007500000P                      00000000000000      00000000000000000000000         30530322617
D0002570932232100011300070326155790011760               03032025CUOTA         000000000001              0007500000P                      00000000000000      00000000000000000000000         30530322617
D0002224289901104992300499099774830011761               03032025CUOTA         000000000001              0007500000P                      00000000000000      00000000000000000000000         30530322617
D0003129739832100011300071804337770011762               03032025CUOTA         000000000001              0007500000P                      00000000000000      00000000000000000000000         30530322617
D0003213241532100011500023217200840011764               03032025CUOTA         000000000001              0007500000P                      00000000000000      00000000000000000000000         30530322617
D0003591796601104992300499194728510011773               03032025CUOTA         000000000001              0007500000P                      00000000000000      00000000000000000000000         30530322617
D0003323480732100011300071265214140011774               03032025CUOTA         000000000001              0007500000P                      00000000000000      00000000000000000000000         30530322617
D0003268890432100011300071409174420011778               03032025CUOTA         000000000001              0007500000P                      00000000000000      00000000000000000000000         30530322617
D0003795539807201512880000396344900011782               03032025CUOTA         000000000001              0007500000P                      00000000000000      00000000000000000000000         30530322617
D0002870109904400349400001339761330011786               03032025CUOTA         000000000001              0007500000P                      00000000000000      00000000000000000000000         30530322617
D0002890035507201512880000020479220011789               03032025CUOTA         000000000001              0007500000P                      00000000000000      00000000000000000000000         30530322617
D0003374890203402841082840244010070011791               03032025CUOTA         000000000001              0007500000P                      00000000000000      00000000000000000000000         30530322617
D0002616115532100011300071099158100011803               03032025CUOTA         000000000001              0007500000P                      00000000000000      00000000000000000000000         30530322617
D0022085145232100011300300291684080011812               03032025CUOTA         000000000001              0007500000P                      00000000000000      00000000000000000000000         30530322617
D0002559604132100011300300195923090011823               03032025CUOTA         000000000001              0007500000P                      00000000000000      00000000000000000000000         30530322617
D0002739338132100011300070954323370011828               03032025CUOTA         000000000001              0007500000P                      00000000000000      00000000000000000000000         30530322617
D0003255804932100011300071680662720011851               03032025CUOTA         000000000001              0007500000P                      00000000000000      00000000000000000000000         30530322617
D0003255804932100011300071680662720011853               03032025CUOTA         000000000001              0007500000P                      00000000000000      00000000000000000000000         30530322617
D0003031809432100011300071363144420011899               03032025CUOTA         000000000001              0009000000P                      00000000000000      00000000000000000000000         30530322617
D0002290250132100011300079229143370011900               03032025CUOTA         000000000001              0009000000P                      00000000000000      00000000000000000000000         30530322617
D0003591756432100011300071273414420012084               03032025CUOTA         000000000001              0007500000P                      00000000000000      00000000000000000000000         30530322617
D0003505206528506797400947013913580012135               03032025CUOTA         000000000001              0007500000P                      00000000000000      00000000000000000000000         30530322617
D0002767792132100011300070561164700012142               03032025CUOTA         000000000001              0007500000P                      00000000000000      00000000000000000000000         30530322617
D0003031657507203648880000370742720012143               03032025CUOTA         000000000001              0007500000P                      00000000000000      00000000000000000000000         30530322617
D0003037296832100011300071990013090012144               03032025CUOTA         000000000001              0007500000P                      00000000000000      00000000000000000000000         30530322617
D0002341075232100011500030123302540012148               03032025CUOTA         000000000001              0007500000P                      00000000000000      00000000000000000000000         30530322617
D0003130554207201512880000378995720012152               03032025CUOTA         000000000001              0007500000P                      00000000000000      00000000000000000000000         30530322617
D0003574126207201512880000399655720012158               03032025CUOTA         000000000001              0007500000P                      00000000000000      00000000000000000000000         30530322617
D0002971699401104992300499138943650012168               03032025CUOTA         000000000001              0007500000P                      00000000000000      00000000000000000000000         30530322617
D0003427830432100011300079665389970012200               03032025CUOTA         000000000001              0007500000P                      00000000000000      00000000000000000000000         30530322617
D0002056483332100011300071432347330012204               03032025CUOTA         000000000001              0007500000P                      00000000000000      00000000000000000000000         30530322617
D0002914275832100011500022670528360012206               03032025CUOTA         000000000001              0007500000P                      00000000000000      00000000000000000000000         30530322617
D0002636895007201512880000392074360012207               03032025CUOTA         000000000001              0007500000P                      00000000000000      00000000000000000000000         30530322617
D0003369312232100011300071310560020012216               03032025CUOTA         000000000001              0007500000P                      00000000000000      00000000000000000000000         30530322617
D0002543815707203648880000354421360012217               03032025CUOTA         000000000001              0007500000P                      00000000000000      00000000000000000000000         30530322617
D0002971998532100011300070595520020012222               03032025CUOTA         000000000001              0007500000P                      00000000000000      00000000000000000000000         30530322617
D0002550791732100011300079664180800012223               03032025CUOTA         000000000001              0007500000P                      00000000000000      00000000000000000000000         30530322617
D0002874422007201512880000388020900012262               03032025CUOTA         000000000001              0007500000P                      00000000000000      00000000000000000000000         30530322617
D0002197942401101092300109246901010012278               03032025CUOTA         000000000001              0007500000P                      00000000000000      00000000000000000000000         30530322617
D0002906241900701217300041796984100012280               03032025CUOTA         000000000001              0007500000P                      00000000000000      00000000000000000000000         30530322617
D0003082410632100011300079762262440012288               03032025CUOTA         000000000001              0007500000P                      00000000000000      00000000000000000000000         30530322617
D0003133398532100011300071213909690012296               03032025CUOTA         000000000001              0007500000P                      00000000000000      00000000000000000000000         30530322617
D0002813987832100011300071427193430012299               03032025CUOTA         000000000001              0007500000P                      00000000000000      00000000000000000000000         30530322617
D0002657027807201512880000382786040012318               03032025CUOTA         000000000001              0007500000P                      00000000000000      00000000000000000000000         30530322617
D0002783471928506797400949066073480012325               03032025CUOTA         000000000001              0007500000P                      00000000000000      00000000000000000000000         30530322617
D0002584425632100011300079815764080012337               03032025CUOTA         000000000001              0007500000P                      00000000000000      00000000000000000000000         30530322617
D0002581884332100011300070561264640012426               03032025CUOTA         000000000001              0007500000P                      00000000000000      00000000000000000000000         30530322617
D0002953617132100011300070909372880012621               03032025CUOTA         000000000001              0007500000P                      00000000000000      00000000000000000000000         30530322617
D0002434613032100011300071188130020012623               03032025CUOTA         000000000001              0007500000P                      00000000000000      00000000000000000000000         30530322617
D0002530174132100011300080281243650012625               03032025CUOTA         000000000001              0007500000P                      00000000000000      00000000000000000000000         30530322617
D0003037296832100011300071990013090012628               03032025CUOTA         000000000001              0007500000P                      00000000000000      00000000000000000000000         30530322617
D0003266201232100011300071365204140012654               03032025CUOTA         000000000001              0007500000P                      00000000000000      00000000000000000000000         30530322617
D0002917549604400349400003435968730012656               03032025CUOTA         000000000001              0007500000P                      00000000000000      00000000000000000000000         30530322617
D0002824563532100011300079665830960012660               03032025CUOTA         000000000001              0007500000P                      00000000000000      00000000000000000000000         30530322617
D0002677463432100011300071364263090012673               03032025CUOTA         000000000001              0007500000P                      00000000000000      00000000000000000000000         30530322617
D0002824563532100011300079665830960012683               03032025CUOTA         000000000001              0007500000P                      00000000000000      00000000000000000000000         30530322617
D0003011847032100011300071037145290012690               03032025CUOTA         000000000001              0007500000P                      00000000000000      00000000000000000000000         30530322617
D0002844459532100011300070507826400012718               03032025CUOTA         000000000001              0007500000P                      00000000000000      00000000000000000000000         30530322617
D0003431424507201512880000373341180012720               03032025CUOTA         000000000001              0007500000P                      00000000000000      00000000000000000000000         30530322617
D0003329297207201512880000399685400012728               03032025CUOTA         000000000001              0007500000P                      00000000000000      00000000000000000000000         30530322617
D0001826003832100011300070325994420012741               03032025CUOTA         000000000001              0007500000P                      00000000000000      00000000000000000000000         30530322617
D0003173935032100011300071240068100012745               03032025CUOTA         000000000001              0007500000P                      00000000000000      00000000000000000000000         30530322617
D0003309272507201512880000385072540012747               03032025CUOTA         000000000001              0007500000P                      00000000000000      00000000000000000000000         30530322617
D0003418250500701996300040458686060012748               03032025CUOTA         000000000001              0007500000P                      00000000000000      00000000000000000000000         30530322617
D0003519934401700718400000370034500012790               03032025CUOTA         000000000001              0007500000P                      00000000000000      00000000000000000000000         30530322617
D0002461873700701217300041746782080012792               03032025CUOTA         000000000001              0007500000P                      00000000000000      00000000000000000000000         30530322617
D0003277522728506612400951795184580012799               03032025CUOTA         000000000001              0007500000P                      00000000000000      00000000000000000000000         30530322617
D0002867714732100011300070986058600012852               03032025CUOTA         000000000001              0007500000P                      00000000000000      00000000000000000000000         30530322617
D0003418487303402841082840178940070012862               03032025CUOTA         000000000001              0007500000P                      00000000000000      00000000000000000000000         30530322617
D0003116908001104992300499128941510012879               03032025CUOTA         000000000001              0007500000P                      00000000000000      00000000000000000000000         30530322617
D0002953367401700718400000350498500012885               03032025CUOTA         000000000001              0007500000P                      00000000000000      00000000000000000000000         30530322617
D0002825384007201512880000390395540012896               03032025CUOTA         000000000001              0007500000P                      00000000000000      00000000000000000000000         30530322617
D0001475411132100011500026813050280012897               03032025CUOTA         000000000001              0007500000P                      00000000000000      00000000000000000000000         30530322617
D0002722174832100011300071218435790012901               03032025CUOTA         000000000001              0009000000P                      00000000000000      00000000000000000000000         30530322617
D0002457858932100011300070172215790012940               03032025CUOTA         000000000001              0007500000P                      00000000000000      00000000000000000000000         30530322617
D0002890044632100011300070955922000013031               03032025CUOTA         000000000001              0007500000P                      00000000000000      00000000000000000000000         30530322617
D0003173935032100011300071240068100013108               03032025CUOTA         000000000001              0007500000P                      00000000000000      00000000000000000000000         30530322617
D0002511476332100011500031110624520013110               03032025CUOTA         000000000001              0007500000P                      00000000000000      00000000000000000000000         30530322617
D0002813987832100011300071427193430013122               03032025CUOTA         000000000001              0007500000P                      00000000000000      00000000000000000000000         30530322617
D0002550196307201512880000020408220013126               03032025CUOTA         000000000001              0007500000P                      00000000000000      00000000000000000000000         30530322617
D0003612186707201512880000377379860013133               03032025CUOTA         000000000001              0007500000P                      00000000000000      00000000000000000000000         30530322617
D0002662943107201512880000365442680013135               03032025CUOTA         000000000001              0007500000P                      00000000000000      00000000000000000000000         30530322617
D0002376470432100011300071082943430013154               03032025CUOTA         000000000001              0007500000P                      00000000000000      00000000000000000000000         30530322617
D0002718573828506797400950332610580013160               03032025CUOTA         000000000001              0007500000P                      00000000000000      00000000000000000000000         30530322617
D0002767792132100011300070561164700014169               03032025CUOTA         000000000001              0007500000P                      00000000000000      00000000000000000000000         30530322617
D0002989405004400349400002683558030014174               03032025CUOTA         000000000001              0007500000P                      00000000000000      00000000000000000000000         30530322617
D0002406333200701217300048929017180014180               03032025CUOTA         000000000001              0007500000P                      00000000000000      00000000000000000000000         30530322617
D0003062695501103111300311161830830014188               03032025CUOTA         000000000001              0007500000P                      00000000000000      00000000000000000000000         30530322617
D0003741101732100011300080255904080014189               03032025CUOTA         000000000001              0007500000P                      00000000000000      00000000000000000000000         30530322617
D0003031616701702257400000309614430014190               03032025CUOTA         000000000001              0007500000P                      00000000000000      00000000000000000000000         30530322617
D0003388222332100011500031173137210014232               03032025CUOTA         000000000001              0007500000P                      00000000000000      00000000000000000000000         30530322617
D0003213241532100011500023217200840014300               03032025CUOTA         000000000001              0007500000P                      00000000000000      00000000000000000000000         30530322617
D0003031657507203648880000370742720014302               03032025CUOTA         000000000001              0007500000P                      00000000000000      00000000000000000000000         30530322617
D0003416779132100011300071680623930014310               03032025CUOTA         000000000001              0007500000P                      00000000000000      00000000000000000000000         30530322617
D0003369312232100011300071310560020014316               03032025CUOTA         000000000001              0007500000P                      00000000000000      00000000000000000000000         30530322617
D0002760812532100011300071353135630014325               03032025CUOTA         000000000001              0007500000P                      00000000000000      00000000000000000000000         30530322617
D0003024128601700718400000321629500014337               03032025CUOTA         000000000001              0007500000P                      00000000000000      00000000000000000000000         30530322617
D0003131153332100011300079496509310014342               03032025CUOTA         000000000001              0007500000P                      00000000000000      00000000000000000000000         30530322617
D0002739198032100011300071014029810014364               03032025CUOTA         000000000001              0007500000P                      00000000000000      00000000000000000000000         30530322617
D0003130525307201512880000372950040014365               03032025CUOTA         000000000001              0007500000P                      00000000000000      00000000000000000000000         30530322617
D0002873842801104206300420115689470014450               03032025CUOTA         000000000001              0007500000P                      00000000000000      00000000000000000000000         30530322617
D0002320005300701217300048910081820014454               03032025CUOTA         000000000001              0009000000P                      00000000000000      00000000000000000000000         30530322617
D0002903782801104992300499091875010014489               03032025CUOTA         000000000001              0007500000P                      00000000000000      00000000000000000000000         30530322617
D0003416779132100011300071680623930014631               03032025CUOTA         000000000001              0007500000P                      00000000000000      00000000000000000000000         30530322617
D0003277522728506612400951795184580014633               03032025CUOTA         000000000001              0007500000P                      00000000000000      00000000000000000000000         30530322617
D0003731306801104992300499076670010016657               03032025CUOTA         000000000001              0005000000P                      00000000000000      00000000000000000000000         30530322617
D0003071221101700718400000346550500016659               03032025CUOTA         000000000001              0005000000P                      00000000000000      00000000000000000000000         30530322617
D0002758153607201512880000372211040016665               03032025CUOTA         000000000001              0007500000P                      00000000000000      00000000000000000000000         30530322617
D0003416947438900837400052096809380016671               03032025CUOTA         000000000001              0007500000P                      00000000000000      00000000000000000000000         30530322617
D0003424067519101059551105010179850016674               03032025CUOTA         000000000001              0007500000P                      00000000000000      00000000000000000000000         30530322617
D0002550791732100011300079664180800016679               03032025CUOTA         000000000001              0005000000P                      00000000000000      00000000000000000000000         30530322617
D0002890044632100011300070955922000016682               03032025CUOTA         000000000001              0005000000P                      00000000000000      00000000000000000000000         30530322617
D0002739198032100011300071014029810016686               03032025CUOTA         000000000001              0005000000P                      00000000000000      00000000000000000000000         30530322617
D0002971699401104992300499138943650016688               03032025CUOTA         000000000001              0007500000P                      00000000000000      00000000000000000000000         30530322617
D0003374890203402841082840244010070016693               03032025CUOTA         000000000001              0005000000P                      00000000000000      00000000000000000000000         30530322617
D0003220798307201512880000379632400016696               03032025CUOTA         000000000001              0007500000P                      00000000000000      00000000000000000000000         30530322617
D0002527679032100011300070455353210016703               03032025CUOTA         000000000001              0007500000P                      00000000000000      00000000000000000000000         30530322617
D0003037296832100011300071990013090016709               03032025CUOTA         000000000001              0005000000P                      00000000000000      00000000000000000000000         30530322617
D0002989415807201512880000382872680016710               03032025CUOTA         000000000001              0005000000P                      00000000000000      00000000000000000000000         30530322617
D0003574126207201512880000399655720016711               03032025CUOTA         000000000001              0005000000P                      00000000000000      00000000000000000000000         30530322617
D0003591796601104992300499194728510016721               03032025CUOTA         000000000001              0005000000P                      00000000000000      00000000000000000000000         30530322617
D0003130525307201512880000372950040016722               03032025CUOTA         000000000001              0005000000P                      00000000000000      00000000000000000000000         30530322617
D0003255804932100011300071680662720017723               03032025CUOTA         000000000001              0005000000P                      00000000000000      00000000000000000000000         30530322617
D0003172929407201512880000376454720017725               03032025CUOTA         000000000001              0007500000P                      00000000000000      00000000000000000000000         30530322617
D0003329297207201512880000399685400017732               03032025CUOTA         000000000001              0007500000P                      00000000000000      00000000000000000000000         30530322617
D0002813914132100011300070504039030017737               03032025CUOTA         000000000001              0007500000P                      00000000000000      00000000000000000000000         30530322617
D0003388243100701217300041720570500017740               03032025CUOTA         000000000001              0007500000P                      00000000000000      00000000000000000000000         30530322617
D0003440957600701217300041792695800017745               03032025CUOTA         000000000001              0007500000P                      00000000000000      00000000000000000000000         30530322617
D0003612171132100011300300206798260018747               03032025CUOTA         000000000001              0007500000P                      00000000000000      00000000000000000000000         30530322617
D0003126756632100011300079800010680018752               03032025CUOTA         000000000001              0007500000P                      00000000000000      00000000000000000000000         30530322617
D0003388750932100011300079835962000018811               03032025CUOTA         000000000001              0007500000P                      00000000000000      00000000000000000000000         30530322617
D0003491334832100011300079352025910018813               03032025CUOTA         000000000001              0007500000P                      00000000000000      00000000000000000000000         30530322617
D0002948678904400349400001602743830018818               03032025CUOTA         000000000001              0007500000P                      00000000000000      00000000000000000000000         30530322617
D0003469545832100011300079751044860018839               03032025CUOTA         000000000001              0007500000P                      00000000000000      00000000000000000000000         30530322617
D0003740966400701217300041742973840018890               03032025CUOTA         000000000001              0007500000P                      00000000000000      00000000000000000000000         30530322617
D0003499428501700718400000370965640018977               03032025CUOTA         000000000001              0007500000P                      00000000000000      00000000000000000000000         30530322617
D0003505212401104992300499184339290019010               03032025CUOTA         000000000001              0007500000P                      00000000000000      00000000000000000000000         30530322617
D0003130514000701217300041771272950020038               03032025CUOTA         000000000001              0007500000P                      00000000000000      00000000000000000000000         30530322617
D0003427830432100011300079665389970021079               03032025CUOTA         000000000001              0005000000P                      00000000000000      00000000000000000000000         30530322617
D0002559604402009029110000305562580021095               03032025CUOTA         000000000001              0007500000P                      00000000000000      00000000000000000000000         30530322617
D0002341185032100011300070587419970021118               03032025CUOTA         000000000001              0007500000P                      00000000000000      00000000000000000000000         30530322617
D0003873522701104992300499188195650021124               03032025CUOTA         000000000001              0005000000P                      00000000000000      00000000000000000000000         30530322617
D0003206091107201512880000385029900021132               03032025CUOTA         000000000001              0007500000P                      00000000000000      00000000000000000000000         30530322617
D0003471150604400349400003562140830021136               03032025CUOTA         000000000001              0007500000P                      00000000000000      00000000000000000000000         30530322617
D0002722174832100011300071218435790021147               03032025CUOTA         000000000001              0007500000P                      00000000000000      00000000000000000000000         30530322617
D0002867714732100011300070986058600021151               03032025CUOTA         000000000001              0007500000P                      00000000000000      00000000000000000000000         30530322617
D0003268554603402117082110143970000021159               03032025CUOTA         000000000001              0007500000P                      00000000000000      00000000000000000000000         30530322617
D0003469332332100011300072006796400021165               03032025CUOTA         000000000001              0007500000P                      00000000000000      00000000000000000000000         30530322617
D0003233257804400233400003560980410021167               03032025CUOTA         000000000001              0007500000P                      00000000000000      00000000000000000000000         30530322617
D0002890099519101059551105001697170021170               03032025CUOTA         000000000001              0007500000P                      00000000000000      00000000000000000000000         30530322617
D0003708600600700764300040880582190021173               03032025CUOTA         000000000001              0007500000P                      00000000000000      00000000000000000000000         30530322617
D0002722273732100011300079248081170021234               03032025CUOTA         000000000001              0007500000P                      00000000000000      00000000000000000000000         30530322617
D0003711909432100011500030469890620021246               03032025CUOTA         000000000001              0007500000P                      00000000000000      00000000000000000000000         30530322617
D0002533362432100011500020218368580021250               03032025CUOTA         000000000001              0007500000P                      00000000000000      00000000000000000000000         30530322617
D0003285969332100011300071956302440021281               03032025CUOTA         000000000001              0007500000P                      00000000000000      00000000000000000000000         30530322617
D0003031651500701217300041867725670021287               03032025CUOTA         000000000001              0007500000P                      00000000000000      00000000000000000000000         30530322617
D0003050747032100011300070477030960021291               03032025CUOTA         000000000001              0005000000P                      00000000000000      00000000000000000000000         30530322617
D0003591716232100011300071353483870021292               03032025CUOTA         000000000001              0005000000P                      00000000000000      00000000000000000000000         30530322617
D0003351950832100011300071937822440021296               03032025CUOTA         000000000001              0005000000P                      00000000000000      00000000000000000000000         30530322617
D0003292808900701965300040166847180021297               03032025CUOTA         000000000001              0005000000P                      00000000000000      00000000000000000000000         30530322617
D0003604525032100011300080311359250021298               03032025CUOTA         000000000001              0005000000P                      00000000000000      00000000000000000000000         30530322617
D0003073893432100011300071396020300021299               03032025CUOTA         000000000001              0005000000P                      00000000000000      00000000000000000000000         30530322617
D0003440985407201512880000388017900021302               03032025CUOTA         000000000001              0005000000P                      00000000000000      00000000000000000000000         30530322617
D0003574394832100011300079747212220021306               03032025CUOTA         000000000001              0005000000P                      00000000000000      00000000000000000000000         30530322617
D0002996746332100011300079350646120021310               03032025CUOTA         000000000001              0005000000P                      00000000000000      00000000000000000000000         30530322617
D0003574109000701217300041929569950021311               03032025CUOTA         000000000001              0005000000P                      00000000000000      00000000000000000000000         30530322617
D0003129621832100011300071329382440021312               03032025CUOTA         000000000001              0005000000P                      00000000000000      00000000000000000000000         30530322617
D0003024138332100011300071389228980021323               03032025CUOTA         000000000001              0005000000P                      00000000000000      00000000000000000000000         30530322617
D0002873359332100011300080386888040021343               03032025CUOTA         000000000001              0007500000P                      00000000000000      00000000000000000000000         30530322617
D0002744810132100011500035434908920021362               03032025CUOTA         000000000001              0007500000P                      00000000000000      00000000000000000000000         30530322617
D0003263103501104992300499227810650021365               03032025CUOTA         000000000001              0007500000P                      00000000000000      00000000000000000000000         30530322617
D0003374929332100011300071406737110021393               03032025CUOTA         000000000001              0005000000P                      00000000000000      00000000000000000000000         30530322617
D0003958366628503798400955167680980022420               03032025CUOTA         000000000001              0005000000P                      00000000000000      00000000000000000000000         30530322617
D0001293529707203648880000350984900022441               03032025CUOTA         000000000001              0007500000P                      00000000000000      00000000000000000000000         30530322617
D0001293529707203648880000350984900022447               03032025CUOTA         000000000001              0009000000P                      00000000000000      00000000000000000000000         30530322617
D0003424160700701217300041710648000022480               03032025CUOTA         000000000001              0007500000P                      00000000000000      00000000000000000000000         30530322617
D0003263103501104992300499227810650022482               03032025CUOTA         000000000001              0007500000P                      00000000000000      00000000000000000000000         30530322617
D0002944447832100011300080015627990022491               03032025CUOTA         000000000001              0007500000P                      00000000000000      00000000000000000000000         30530322617
D0002744810132100011500035434908920022546               03032025CUOTA         000000000001              0005000000P                      00000000000000      00000000000000000000000         30530322617
D0003469584532100011500030111414460023579               03032025CUOTA         000000000001              0005000000P                      00000000000000      00000000000000000000000         30530322617
D0003213241532100011500023217200840023628               03032025CUOTA         000000000001              0005000000P                      00000000000000      00000000000000000000000         30530322617
D0002739053001700718400000325267960023632               03032025CUOTA         000000000001              0005000000P                      00000000000000      00000000000000000000000         30530322617
D0002197942401101092300109246901010023655               03032025CUOTA         000000000001              0007500000P                      00000000000000      00000000000000000000000         30530322617
D0002989411501700718400000357387320023802               03032025CUOTA         000000000001              0007500000P                      00000000000000      00000000000000000000000         30530322617
T0000234000001732000000                                                                                                                                                                                 
