H30530322617CUOTA     02024062024            A C HNOS MISERIC                                                                                                                                           
D0002745737332100011300079585778320006738               01072024CUOTA         000000000005              0002900000P                      00000000000000      00000000000000000000000         30530322617
D0002222259232100011300071423447490006772               01072024CUOTA         000000000005              0002900000P                      00000000000000      00000000000000000000000         30530322617
D0003024109804400349400002650408230006776               01072024CUOTA         000000000005              0002320000P                      00000000000000      00000000000000000000000         30530322617
D0002530174132100011300080281243650006778               01072024CUOTA         000000000005              0002320000P                      00000000000000      00000000000000000000000         30530322617
D0002550191332100011300070217565570006795               01072024CUOTA         000000000005              0002900000P                      00000000000000      00000000000000000000000         30530322617
D0002511408003402841082840136650070006807               01072024CUOTA         000000000005              0002900000P                      00000000000000      00000000000000000000000         30530322617
D0001830054107201512880000220288680006815               01072024CUOTA         000000000005              0002900000P                      00000000000000      00000000000000000000000         30530322617
D0001630907732100011300300172666060006819               01072024CUOTA         000000000005              0002900000P                      00000000000000      00000000000000000000000         30530322617
D0002419819432100011300070598247610006962               01072024CUOTA         000000000005              0002900000P                      00000000000000      00000000000000000000000         30530322617
D0002224289901104992300499099774830007267               01072024CUOTA         000000000005              0002900000P                      00000000000000      00000000000000000000000         30530322617
D0002914275832100011500022670528360007270               01072024CUOTA         000000000005              0002320000P                      00000000000000      00000000000000000000000         30530322617
D0002516861707201512880000021664540007275               01072024CUOTA         000000000005              0002900000P                      00000000000000      00000000000000000000000         30530322617
D0002825384007201512880000390395540007290               01072024CUOTA         000000000005              0002320000P                      00000000000000      00000000000000000000000         30530322617
D0003305452201700718400000368076640007313               01072024CUOTA         000000000005              0002900000P                      00000000000000      00000000000000000000000         30530322617
D0002677488432100011300071292042880007334               01072024CUOTA         000000000005              0002900000P                      00000000000000      00000000000000000000000         30530322617
D0002645991132100011300070235017110007344               01072024CUOTA         000000000005              0002900000P                      00000000000000      00000000000000000000000         30530322617
D0002341075232100011500030123302540007795               01072024CUOTA         000000000005              0002900000P                      00000000000000      00000000000000000000000         30530322617
D0001451406501104992300499281132330007798               01072024CUOTA         000000000005              0002900000P                      00000000000000      00000000000000000000000         30530322617
D0002804876832100011300070620587770007799               01072024CUOTA         000000000005              0002900000P                      00000000000000      00000000000000000000000         30530322617
D0002560114301700718400000346320280007806               01072024CUOTA         000000000005              0002900000P                      00000000000000      00000000000000000000000         30530322617
D0002739013807201512880000369738220007808               01072024CUOTA         000000000005              0002900000P                      00000000000000      00000000000000000000000         30530322617
D0002566570432100011300071395620460007822               01072024CUOTA         000000000005              0002900000P                      00000000000000      00000000000000000000000         30530322617
D0002594610101700718400000353415500007850               01072024CUOTA         000000000005              0002900000P                      00000000000000      00000000000000000000000         30530322617
D0002616115532100011300071099158100007855               01072024CUOTA         000000000005              0002320000P                      00000000000000      00000000000000000000000         30530322617
D0003091830600701217300041774001250007893               01072024CUOTA         000000000005              0002320000P                      00000000000000      00000000000000000000000         30530322617
D0001466136832100011300070072315910007894               01072024CUOTA         000000000005              0002900000P                      00000000000000      00000000000000000000000         30530322617
D0002616178103402841082840230130070007903               01072024CUOTA         000000000005              0002900000P                      00000000000000      00000000000000000000000         30530322617
D0002570932232100011300070326155790007910               01072024CUOTA         000000000005              0002900000P                      00000000000000      00000000000000000000000         30530322617
D0002679956701700718400000392321000007914               01072024CUOTA         000000000005              0002900000P                      00000000000000      00000000000000000000000         30530322617
D0002849702201101160300116125640830007923               01072024CUOTA         000000000005              0002900000P                      00000000000000      00000000000000000000000         30530322617
D0002279602407201512880000363003360007927               01072024CUOTA         000000000005              0002900000P                      00000000000000      00000000000000000000000         30530322617
D0002341057407201512880000404078900007958               01072024CUOTA         000000000005              0002900000P                      00000000000000      00000000000000000000000         30530322617
D0002232974307203648880000358545680007968               01072024CUOTA         000000000005              0002900000P                      00000000000000      00000000000000000000000         30530322617
D0001859995300701217300041558463500007974               01072024CUOTA         000000000005              0002900000P                      00000000000000      00000000000000000000000         30530322617
D0002526789507201512880000021732720007976               01072024CUOTA         000000000005              0002900000P                      00000000000000      00000000000000000000000         30530322617
D0002196813207201512880000021526040007977               01072024CUOTA         000000000005              0002320000P                      00000000000000      00000000000000000000000         30530322617
D0002406301832100011300071217207550007989               01072024CUOTA         000000000005              0002900000P                      00000000000000      00000000000000000000000         30530322617
D0002406301832100011300071217207550007990               01072024CUOTA         000000000005              0002900000P                      00000000000000      00000000000000000000000         30530322617
D0002421656932100011300070446134200007994               01072024CUOTA         000000000005              0002900000P                      00000000000000      00000000000000000000000         30530322617
D0003765124932100011300079396667770008314               01072024CUOTA         000000000005              0002900000P                      00000000000000      00000000000000000000000         30530322617
D0002981428632100011500028612531490008316               01072024CUOTA         000000000005              0002900000P                      00000000000000      00000000000000000000000         30530322617
D0002948695701508404010001242773100008324               01072024CUOTA         000000000005              0002900000P                      00000000000000      00000000000000000000000         30530322617
D0002261791900701217300041868101660008330               01072024CUOTA         000000000005              0002900000P                      00000000000000      00000000000000000000000         30530322617
D0002636884801700718200000304676640008331               01072024CUOTA         000000000005              0002900000P                      00000000000000      00000000000000000000000         30530322617
D0002341123732100011300070446034360008335               01072024CUOTA         000000000005              0002900000P                      00000000000000      00000000000000000000000         30530322617
D0001815743732100011300070203201390008353               01072024CUOTA         000000000005              0002900000P                      00000000000000      00000000000000000000000         30530322617
D0001854371732100011300070624146560008356               01072024CUOTA         000000000005              0002900000P                      00000000000000      00000000000000000000000         30530322617
D0003323480732100011300071265214140008374               01072024CUOTA         000000000005              0002900000P                      00000000000000      00000000000000000000000         30530322617
D0001678235832100011300070210402380008378               01072024CUOTA         000000000005              0002900000P                      00000000000000      00000000000000000000000         30530322617
D0002677488432100011300071292042880008382               01072024CUOTA         000000000005              0002900000P                      00000000000000      00000000000000000000000         30530322617
D0003035560704400349400002367972930008383               01072024CUOTA         000000000005              0002900000P                      00000000000000      00000000000000000000000         30530322617
D0002304269307201512880000377406720008386               01072024CUOTA         000000000005              0002900000P                      00000000000000      00000000000000000000000         30530322617
D0002867490032100011300070591091230008392               01072024CUOTA         000000000005              0002320000P                      00000000000000      00000000000000000000000         30530322617
D0002224264301508404010001060581660008396               01072024CUOTA         000000000005              0002900000P                      00000000000000      00000000000000000000000         30530322617
D0002099726704400349400003462911330008397               01072024CUOTA         000000000005              0002900000P                      00000000000000      00000000000000000000000         30530322617
D0003091757932100011300071436205850008425               01072024CUOTA         000000000005              0002900000P                      00000000000000      00000000000000000000000         30530322617
D0002813914132100011300070504039030008441               01072024CUOTA         000000000005              0002400000P                      00000000000000      00000000000000000000000         30530322617
D0003112051532100011300070569178820008447               01072024CUOTA         000000000005              0002900000P                      00000000000000      00000000000000000000000         30530322617
D0003172929407201512880000376454720008462               01072024CUOTA         000000000005              0002900000P                      00000000000000      00000000000000000000000         30530322617
D0002542901532100011300071178021390008472               01072024CUOTA         000000000005              0002900000P                      00000000000000      00000000000000000000000         30530322617
D0002163208632100011300070303010950008485               01072024CUOTA         000000000005              0002900000P                      00000000000000      00000000000000000000000         30530322617
D0002397606000701217300041614460210008491               01072024CUOTA         000000000005              0002900000P                      00000000000000      00000000000000000000000         30530322617
D0002329805407203648880000353754900008494               01072024CUOTA         000000000005              0002900000P                      00000000000000      00000000000000000000000         30530322617
D0002232974307203648880000358545680008502               01072024CUOTA         000000000005              0002900000P                      00000000000000      00000000000000000000000         30530322617
D0002410185832100011300070207956340008508               01072024CUOTA         000000000005              0002900000P                      00000000000000      00000000000000000000000         30530322617
D0001854371732100011300070624146560008514               01072024CUOTA         000000000005              0002900000P                      00000000000000      00000000000000000000000         30530322617
D0002824606604400349400003087528430008516               01072024CUOTA         000000000005              0002900000P                      00000000000000      00000000000000000000000         30530322617
D0003329297207201512880000399685400008521               01072024CUOTA         000000000005              0002320000P                      00000000000000      00000000000000000000000         30530322617
D0002335311901104992300499110228010008670               01072024CUOTA         000000000005              0002900000P                      00000000000000      00000000000000000000000         30530322617
D0002804866432100011300071080664580008828               01072024CUOTA         000000000005              0002900000P                      00000000000000      00000000000000000000000         30530322617
D0002825384007201512880000390395540008844               01072024CUOTA         000000000005              0002320000P                      00000000000000      00000000000000000000000         30530322617
D0002718573828506797400950332610580008859               01072024CUOTA         000000000005              0002900000P                      00000000000000      00000000000000000000000         30530322617
D0003591796507201512880000378484680008860               01072024CUOTA         000000000005              0002900000P                      00000000000000      00000000000000000000000         30530322617
D0003268890432100011300071409174420008861               01072024CUOTA         000000000005              0002900000P                      00000000000000      00000000000000000000000         30530322617
D0002397632101700718400000005224140008865               01072024CUOTA         000000000005              0002900000P                      00000000000000      00000000000000000000000         30530322617
D0002760812532100011300071353135630008867               01072024CUOTA         000000000005              0002900000P                      00000000000000      00000000000000000000000         30530322617
D0003329297207201512880000399685400008870               01072024CUOTA         000000000005              0002320000P                      00000000000000      00000000000000000000000         30530322617
D0003091830600701217300041774001250008885               01072024CUOTA         000000000005              0002320000P                      00000000000000      00000000000000000000000         30530322617
D0002616178007203648880000351313220008890               01072024CUOTA         000000000005              0002900000P                      00000000000000      00000000000000000000000         30530322617
D0003352060232100011300071403697550008896               01072024CUOTA         000000000005              0002320000P                      00000000000000      00000000000000000000000         30530322617
D0002804876832100011300070620587770008906               01072024CUOTA         000000000005              0002900000P                      00000000000000      00000000000000000000000         30530322617
D0002630470032100011300070288300520008909               01072024CUOTA         000000000005              0002900000P                      00000000000000      00000000000000000000000         30530322617
D0002887623432100011300070496088320008910               01072024CUOTA         000000000005              0002900000P                      00000000000000      00000000000000000000000         30530322617
D0003108150832100011500022242111550008921               01072024CUOTA         000000000005              0002900000P                      00000000000000      00000000000000000000000         30530322617
D0002870109904400349400001339761330008937               01072024CUOTA         000000000005              0002900000P                      00000000000000      00000000000000000000000         30530322617
D0003189723907200250880000376639040008939               01072024CUOTA         000000000005              0002900000P                      00000000000000      00000000000000000000000         30530322617
D0002134049607201512880000019971360008948               01072024CUOTA         000000000005              0002900000P                      00000000000000      00000000000000000000000         30530322617
D0002903782801104992300499091875010008962               01072024CUOTA         000000000005              0002900000P                      00000000000000      00000000000000000000000         30530322617
D0002527679032100011300070455353210008964               01072024CUOTA         000000000005              0002320000P                      00000000000000      00000000000000000000000         30530322617
D0003044155301104992300499244909470008972               01072024CUOTA         000000000005              0002900000P                      00000000000000      00000000000000000000000         30530322617
D0002677468032100011500030207530120008973               01072024CUOTA         000000000005              0002320000P                      00000000000000      00000000000000000000000         30530322617
D0002341185032100011300070587419970008987               01072024CUOTA         000000000005              0002320000P                      00000000000000      00000000000000000000000         30530322617
D0001843304632100011300070171255290008993               01072024CUOTA         000000000005              0002900000P                      00000000000000      00000000000000000000000         30530322617
D0002196813207201512880000021526040009005               01072024CUOTA         000000000005              0002320000P                      00000000000000      00000000000000000000000         30530322617
D0002341057407201512880000404078900009010               01072024CUOTA         000000000005              0002900000P                      00000000000000      00000000000000000000000         30530322617
D0002813914132100011300070504039030009014               01072024CUOTA         000000000005              0002320000P                      00000000000000      00000000000000000000000         30530322617
D0002484094201700718400000325308500009022               01072024CUOTA         000000000005              0002900000P                      00000000000000      00000000000000000000000         30530322617
D0003130525307201512880000372950040009024               01072024CUOTA         000000000005              0002900000P                      00000000000000      00000000000000000000000         30530322617
D0002056473801700718400000006767460009026               01072024CUOTA         000000000005              0002900000P                      00000000000000      00000000000000000000000         30530322617
D0002636841532100011300070859578480009028               01072024CUOTA         000000000005              0002900000P                      00000000000000      00000000000000000000000         30530322617
D0002279602407201512880000363003360009029               01072024CUOTA         000000000005              0002900000P                      00000000000000      00000000000000000000000         30530322617
D0002090009401702257400000302978890009035               01072024CUOTA         000000000005              0002900000P                      00000000000000      00000000000000000000000         30530322617
D0000593775932100011500020620813030009039               01072024CUOTA         000000000005              0002900000P                      00000000000000      00000000000000000000000         30530322617
D0002978570807201659880000376477680009195               01072024CUOTA         000000000005              0002900000P                      00000000000000      00000000000000000000000         30530322617
D0002971685201104992300499093297650009795               01072024CUOTA         000000000005              0002900000P                      00000000000000      00000000000000000000000         30530322617
D0003130546804400349200002882848390009825               01072024CUOTA         000000000005              0002900000P                      00000000000000      00000000000000000000000         30530322617
D0002570954532100011300070494569810009841               01072024CUOTA         000000000005              0002900000P                      00000000000000      00000000000000000000000         30530322617
D0002604044001700718400000381399140009842               01072024CUOTA         000000000005              0002900000P                      00000000000000      00000000000000000000000         30530322617
D0003190506200701217300041673149820009843               01072024CUOTA         000000000005              0002900000P                      00000000000000      00000000000000000000000         30530322617
D0002739013807201512880000369738220009856               01072024CUOTA         000000000005              0002900000P                      00000000000000      00000000000000000000000         30530322617
D0002716914603402841082840054560000009857               01072024CUOTA         000000000005              0002900000P                      00000000000000      00000000000000000000000         30530322617
D0002844491807203648880000363185220009887               01072024CUOTA         000000000005              0002900000P                      00000000000000      00000000000000000000000         30530322617
D0002844459532100011300070507826400009894               01072024CUOTA         000000000005              0002900000P                      00000000000000      00000000000000000000000         30530322617
D0003231526319101059551105011172030009918               01072024CUOTA         000000000005              0002900000P                      00000000000000      00000000000000000000000         30530322617
D0002182613701700718400000361840460009925               01072024CUOTA         000000000005              0002900000P                      00000000000000      00000000000000000000000         30530322617
D0002708759700701217300041847491920009940               01072024CUOTA         000000000005              0002900000P                      00000000000000      00000000000000000000000         30530322617
D0003309283007201512880000377830400009948               01072024CUOTA         000000000005              0002900000P                      00000000000000      00000000000000000000000         30530322617
D0001803718107203648880000351412860009952               01072024CUOTA         000000000005              0002900000P                      00000000000000      00000000000000000000000         30530322617
D0002783471928506797400949066073480009968               01072024CUOTA         000000000005              0002900000P                      00000000000000      00000000000000000000000         30530322617
D0002179172032100011300070441327830009976               01072024CUOTA         000000000005              0002900000P                      00000000000000      00000000000000000000000         30530322617
D0002760807801104992300499992833290009985               01072024CUOTA         000000000005              0002900000P                      00000000000000      00000000000000000000000         30530322617
D0002971685201104992300499093297650009997               01072024CUOTA         000000000005              0002900000P                      00000000000000      00000000000000000000000         30530322617
D0002530174132100011300080281243650010006               01072024CUOTA         000000000005              0002320000P                      00000000000000      00000000000000000000000         30530322617
D0003011847032100011300071037145290010024               01072024CUOTA         000000000005              0002900000P                      00000000000000      00000000000000000000000         30530322617
D0002872472832100011300080043356060010028               01072024CUOTA         000000000005              0002900000P                      00000000000000      00000000000000000000000         30530322617
D0002739071304400349400001711821230010030               01072024CUOTA         000000000005              0002900000P                      00000000000000      00000000000000000000000         30530322617
D0002739047501700718400000376672140010032               01072024CUOTA         000000000005              0002900000P                      00000000000000      00000000000000000000000         30530322617
D0003044306632102307500008995332680010034               01072024CUOTA         000000000005              0002900000P                      00000000000000      00000000000000000000000         30530322617
D0002965329132100011300070477040680010035               01072024CUOTA         000000000005              0002900000P                      00000000000000      00000000000000000000000         30530322617
D0002677468032100011500030207530120010044               01072024CUOTA         000000000005              0002320000P                      00000000000000      00000000000000000000000         30530322617
D0003374916507201512880000037994400010050               01072024CUOTA         000000000005              0002900000P                      00000000000000      00000000000000000000000         30530322617
D0002914275832100011500022670528360010332               01072024CUOTA         000000000005              0002320000P                      00000000000000      00000000000000000000000         30530322617
D0003024128101508404010001256230440010350               01072024CUOTA         000000000005              0002900000P                      00000000000000      00000000000000000000000         30530322617
D0002953617132100011300070909372880010449               01072024CUOTA         000000000005              0002900000P                      00000000000000      00000000000000000000000         30530322617
D0002485013200701217300041920359280010450               01072024CUOTA         000000000005              0002900000P                      00000000000000      00000000000000000000000         30530322617
D0002903783632100011300071350785630010452               01072024CUOTA         000000000005              0002900000P                      00000000000000      00000000000000000000000         30530322617
D0002630470032100011300070288300520010456               01072024CUOTA         000000000005              0002900000P                      00000000000000      00000000000000000000000         30530322617
D0002224264301508404010001060581660010460               01072024CUOTA         000000000005              0002900000P                      00000000000000      00000000000000000000000         30530322617
D0002516861707201512880000021664540010461               01072024CUOTA         000000000005              0002900000P                      00000000000000      00000000000000000000000         30530322617
D0002994937901104992300499093230330010473               01072024CUOTA         000000000005              0002900000P                      00000000000000      00000000000000000000000         30530322617
D0001475411132100011500026813050280010474               01072024CUOTA         000000000005              0002900000P                      00000000000000      00000000000000000000000         30530322617
D0003416947438900837400052096809380010478               01072024CUOTA         000000000005              0002900000P                      00000000000000      00000000000000000000000         30530322617
D0002759845404400349400002166326330010486               01072024CUOTA         000000000005              0002900000P                      00000000000000      00000000000000000000000         30530322617
D0002903763604400349400001070392930010490               01072024CUOTA         000000000005              0002900000P                      00000000000000      00000000000000000000000         30530322617
D0002261879501508404010001014511990010494               01072024CUOTA         000000000005              0002900000P                      00000000000000      00000000000000000000000         30530322617
D0003534352701700718400000366516500010520               01072024CUOTA         000000000005              0002900000P                      00000000000000      00000000000000000000000         30530322617
D0002657027807201512880000382786040010523               01072024CUOTA         000000000005              0002900000P                      00000000000000      00000000000000000000000         30530322617
D0002496777932100011300070276950740010527               01072024CUOTA         000000000005              0002900000P                      00000000000000      00000000000000000000000         30530322617
D0002392598132100011300071326935410010529               01072024CUOTA         000000000005              0002900000P                      00000000000000      00000000000000000000000         30530322617
D0002527679032100011300070455353210010539               01072024CUOTA         000000000005              0002320000P                      00000000000000      00000000000000000000000         30530322617
D0002813914132100011300070504039030010543               01072024CUOTA         000000000005              0002320000P                      00000000000000      00000000000000000000000         30530322617
D0003130525307201512880000372950040010550               01072024CUOTA         000000000005              0002900000P                      00000000000000      00000000000000000000000         30530322617
D0002261829207201512880000220333900010553               01072024CUOTA         000000000005              0002900000P                      00000000000000      00000000000000000000000         30530322617
D0002421656932100011300070446134200010559               01072024CUOTA         000000000005              0002900000P                      00000000000000      00000000000000000000000         30530322617
D0002739114507203648880000360339860010562               01072024CUOTA         000000000005              0002900000P                      00000000000000      00000000000000000000000         30530322617
D0003044155301104992300499244909470010566               01072024CUOTA         000000000005              0002900000P                      00000000000000      00000000000000000000000         30530322617
D0002662943107201512880000365442680010570               01072024CUOTA         000000000005              0002900000P                      00000000000000      00000000000000000000000         30530322617
D0002163125407201512880000221156360010571               01072024CUOTA         000000000005              0002900000P                      00000000000000      00000000000000000000000         30530322617
D0001379069900701217300041424998130010574               01072024CUOTA         000000000005              0002900000P                      00000000000000      00000000000000000000000         30530322617
D0002095990432100011300070556071950010586               01072024CUOTA         000000000005              0002900000P                      00000000000000      00000000000000000000000         30530322617
D0003352060232100011300071403697550010594               01072024CUOTA         000000000005              0002320000P                      00000000000000      00000000000000000000000         30530322617
D0002745737332100011300079585778320010595               01072024CUOTA         000000000005              0002900000P                      00000000000000      00000000000000000000000         30530322617
D0002616115532100011300071099158100010597               01072024CUOTA         000000000005              0002320000P                      00000000000000      00000000000000000000000         30530322617
D0002397632101700718400000005224140010600               01072024CUOTA         000000000005              0002900000P                      00000000000000      00000000000000000000000         30530322617
D0002677468032100011500030207530120010631               01072024CUOTA         000000000005              0002320000P                      00000000000000      00000000000000000000000         30530322617
D0002566570432100011300071395620460010633               01072024CUOTA         000000000005              0002900000P                      00000000000000      00000000000000000000000         30530322617
D0003091830600701217300041774001250010646               01072024CUOTA         000000000005              0002320000P                      00000000000000      00000000000000000000000         30530322617
D0002703011200701217300041563904670010660               01072024CUOTA         000000000005              0002900000P                      00000000000000      00000000000000000000000         30530322617
D0002759845404400349400002166326330010928               01072024CUOTA         000000000005              0002900000P                      00000000000000      00000000000000000000000         30530322617
D0002813949219101059550105533768280010963               01072024CUOTA         000000000005              0002900000P                      00000000000000      00000000000000000000000         30530322617
D0003441408901700718400000333950780010993               01072024CUOTA         000000000005              0002320000P                      00000000000000      00000000000000000000000         30530322617
D0002341184732100011300070263525070011026               01072024CUOTA         000000000005              0002900000P                      00000000000000      00000000000000000000000         30530322617
D0003416765501700718400000373174780011045               01072024CUOTA         000000000005              0002900000P                      00000000000000      00000000000000000000000         30530322617
D0002813949219101059550105533768280011054               01072024CUOTA         000000000005              0002900000P                      00000000000000      00000000000000000000000         30530322617
D0002765093801508404020001025844880011080               01072024CUOTA         000000000005              0002900000P                      00000000000000      00000000000000000000000         30530322617
D0002594604632100011500030239706720011088               01072024CUOTA         000000000005              0002900000P                      00000000000000      00000000000000000000000         30530322617
D0003440969532100011300300369471390011096               01072024CUOTA         000000000005              0002320000P                      00000000000000      00000000000000000000000         30530322617
D0001826003832100011300070325994420011098               01072024CUOTA         000000000005              0002900000P                      00000000000000      00000000000000000000000         30530322617
D0002419817001700718400000372602460011114               01072024CUOTA         000000000005              0002900000P                      00000000000000      00000000000000000000000         30530322617
D0002397625132100011300071246872880011115               01072024CUOTA         000000000005              0002900000P                      00000000000000      00000000000000000000000         30530322617
D0002341185032100011300070587419970011123               01072024CUOTA         000000000005              0002320000P                      00000000000000      00000000000000000000000         30530322617
D0002906003203402841082840160630060011131               01072024CUOTA         000000000005              0002900000P                      00000000000000      00000000000000000000000         30530322617
D0003071221101700718400000346550500011132               01072024CUOTA         000000000005              0002900000P                      00000000000000      00000000000000000000000         30530322617
D0003213241532100011500023217200840011139               01072024CUOTA         000000000005              0002320000P                      00000000000000      00000000000000000000000         30530322617
D0002485013200701217300041920359280011145               01072024CUOTA         000000000005              0002900000P                      00000000000000      00000000000000000000000         30530322617
D0002311785504400349400001404378430011157               01072024CUOTA         000000000005              0002900000P                      00000000000000      00000000000000000000000         30530322617
D0002989415807201512880000382872680011161               01072024CUOTA         000000000005              0002900000P                      00000000000000      00000000000000000000000         30530322617
D0002739136632100011300070942893090011162               01072024CUOTA         000000000005              0002900000P                      00000000000000      00000000000000000000000         30530322617
D0002937674132100011300079859986840011171               01072024CUOTA         000000000005              0002900000P                      00000000000000      00000000000000000000000         30530322617
D0003189723907200250880000376639040011180               01072024CUOTA         000000000005              0002900000P                      00000000000000      00000000000000000000000         30530322617
D0002872472832100011300080043356060011200               01072024CUOTA         000000000005              0002900000P                      00000000000000      00000000000000000000000         30530322617
D0002496771932100011300070061066340011267               01072024CUOTA         000000000005              0000500000P                      00000000000000      00000000000000000000000         30530322617
D0003352060232100011300071403697550011299               01072024CUOTA         000000000005              0002320000P                      00000000000000      00000000000000000000000         30530322617
D0003369312232100011300071310560020011301               01072024CUOTA         000000000005              0002320000P                      00000000000000      00000000000000000000000         30530322617
D0003044306632102307500008995332680011311               01072024CUOTA         000000000005              0002900000P                      00000000000000      00000000000000000000000         30530322617
D0002496743532100011300070600399470011315               01072024CUOTA         000000000005              0002900000P                      00000000000000      00000000000000000000000         30530322617
D0002831892101104992300499088916650011319               01072024CUOTA         000000000005              0002900000P                      00000000000000      00000000000000000000000         30530322617
D0002584425632100011300079815764080011453               01072024CUOTA         000000000005              0002900000P                      00000000000000      00000000000000000000000         30530322617
D0002739338132100011300070954323370011542               01072024CUOTA         000000000005              0002900000P                      00000000000000      00000000000000000000000         30530322617
D0003091757932100011300071436205850011620               01072024CUOTA         000000000005              0002900000P                      00000000000000      00000000000000000000000         30530322617
D0002824606604400349400003087528430011622               01072024CUOTA         000000000005              0002900000P                      00000000000000      00000000000000000000000         30530322617
D0002657657200701217300041504711020011626               01072024CUOTA         000000000005              0002900000P                      00000000000000      00000000000000000000000         30530322617
D0002971998532100011300070595520020011632               01072024CUOTA         000000000005              0002900000P                      00000000000000      00000000000000000000000         30530322617
D0001810105303401008087101574440010011662               01072024CUOTA         000000000005              0002900000P                      00000000000000      00000000000000000000000         30530322617
D0002261879501508404010001014511990011666               01072024CUOTA         000000000005              0002900000P                      00000000000000      00000000000000000000000         30530322617
D0002722298832100011300070477420800011701               01072024CUOTA         000000000005              0002900000P                      00000000000000      00000000000000000000000         30530322617
D0002989431332100011300071278839970011705               01072024CUOTA         000000000005              0002900000P                      00000000000000      00000000000000000000000         30530322617
D0003505224032100011300071991131670011706               01072024CUOTA         000000000005              0002900000P                      00000000000000      00000000000000000000000         30530322617
D0004028548232100011300300377433090011710               01072024CUOTA         000000000005              0002900000P                      00000000000000      00000000000000000000000         30530322617
D0002196813207201512880000021526040011727               01072024CUOTA         000000000005              0002320000P                      00000000000000      00000000000000000000000         30530322617
D0002679956701700718400000392321000011729               01072024CUOTA         000000000005              0002900000P                      00000000000000      00000000000000000000000         30530322617
D0001379069900701217300041424998130011753               01072024CUOTA         000000000005              0002900000P                      00000000000000      00000000000000000000000         30530322617
D0002760807801104992300499992833290011756               01072024CUOTA         000000000005              0002900000P                      00000000000000      00000000000000000000000         30530322617
D0002804866432100011300071080664580011759               01072024CUOTA         000000000005              0002900000P                      00000000000000      00000000000000000000000         30530322617
D0002570932232100011300070326155790011760               01072024CUOTA         000000000005              0002900000P                      00000000000000      00000000000000000000000         30530322617
D0002224289901104992300499099774830011761               01072024CUOTA         000000000005              0002900000P                      00000000000000      00000000000000000000000         30530322617
D0003129739832100011300071804337770011762               01072024CUOTA         000000000005              0002900000P                      00000000000000      00000000000000000000000         30530322617
D0003213241532100011500023217200840011764               01072024CUOTA         000000000005              0002320000P                      00000000000000      00000000000000000000000         30530322617
D0003591796601104992300499194728510011773               01072024CUOTA         000000000005              0002320000P                      00000000000000      00000000000000000000000         30530322617
D0003323480732100011300071265214140011774               01072024CUOTA         000000000005              0002900000P                      00000000000000      00000000000000000000000         30530322617
D0003268890432100011300071409174420011778               01072024CUOTA         000000000005              0002900000P                      00000000000000      00000000000000000000000         30530322617
D0002870109904400349400001339761330011786               01072024CUOTA         000000000005              0002900000P                      00000000000000      00000000000000000000000         30530322617
D0002890035507201512880000020479220011789               01072024CUOTA         000000000005              0002900000P                      00000000000000      00000000000000000000000         30530322617
D0003374890203402841082840244010070011791               01072024CUOTA         000000000005              0002900000P                      00000000000000      00000000000000000000000         30530322617
D0002616115532100011300071099158100011803               01072024CUOTA         000000000005              0002320000P                      00000000000000      00000000000000000000000         30530322617
D0022085145232100011300300291684080011812               01072024CUOTA         000000000005              0002900000P                      00000000000000      00000000000000000000000         30530322617
D0002559604132100011300300195923090011823               01072024CUOTA         000000000005              0002900000P                      00000000000000      00000000000000000000000         30530322617
D0002739338132100011300070954323370011828               01072024CUOTA         000000000005              0002900000P                      00000000000000      00000000000000000000000         30530322617
D0003255804932100011300071680662720011851               01072024CUOTA         000000000005              0002320000P                      00000000000000      00000000000000000000000         30530322617
D0003255804932100011300071680662720011853               01072024CUOTA         000000000005              0002320000P                      00000000000000      00000000000000000000000         30530322617
D0003031809432100011300071363144420011899               01072024CUOTA         000000000005              0002900000P                      00000000000000      00000000000000000000000         30530322617
D0002290250132100011300079229143370011900               01072024CUOTA         000000000005              0002900000P                      00000000000000      00000000000000000000000         30530322617
D0002434677707203648880000357830040011967               01072024CUOTA         000000000005              0002900000P                      00000000000000      00000000000000000000000         30530322617
D0002767792132100011300070561164700012142               01072024CUOTA         000000000005              0002900000P                      00000000000000      00000000000000000000000         30530322617
D0003031657507203648880000370742720012143               01072024CUOTA         000000000005              0002900000P                      00000000000000      00000000000000000000000         30530322617
D0003037296832100011300071990013090012144               01072024CUOTA         000000000005              0002320000P                      00000000000000      00000000000000000000000         30530322617
D0002341075232100011500030123302540012148               01072024CUOTA         000000000005              0002900000P                      00000000000000      00000000000000000000000         30530322617
D0003574126207201512880000399655720012158               01072024CUOTA         000000000005              0002900000P                      00000000000000      00000000000000000000000         30530322617
D0002971699401104992300499138943650012168               01072024CUOTA         000000000005              0002900000P                      00000000000000      00000000000000000000000         30530322617
D0001677204232100011300070224557050012199               01072024CUOTA         000000000005              0002900000P                      00000000000000      00000000000000000000000         30530322617
D0003427830432100011300079665389970012200               01072024CUOTA         000000000005              0002900000P                      00000000000000      00000000000000000000000         30530322617
D0002056483332100011300071432347330012204               01072024CUOTA         000000000005              0002900000P                      00000000000000      00000000000000000000000         30530322617
D0002914275832100011500022670528360012206               01072024CUOTA         000000000005              0002320000P                      00000000000000      00000000000000000000000         30530322617
D0002636895007201512880000392074360012207               01072024CUOTA         000000000005              0002900000P                      00000000000000      00000000000000000000000         30530322617
D0003369312232100011300071310560020012216               01072024CUOTA         000000000005              0002320000P                      00000000000000      00000000000000000000000         30530322617
D0002543815707203648880000354421360012217               01072024CUOTA         000000000005              0002900000P                      00000000000000      00000000000000000000000         30530322617
D0002971998532100011300070595520020012222               01072024CUOTA         000000000005              0002900000P                      00000000000000      00000000000000000000000         30530322617
D0003024109804400349400002650408230012240               01072024CUOTA         000000000005              0002320000P                      00000000000000      00000000000000000000000         30530322617
D0003424067519101059551105010179850012269               01072024CUOTA         000000000005              0002900000P                      00000000000000      00000000000000000000000         30530322617
D0002739115132100011300071375341950012274               01072024CUOTA         000000000005              0002900000P                      00000000000000      00000000000000000000000         30530322617
D0002906241900701217300041796984100012280               01072024CUOTA         000000000005              0002900000P                      00000000000000      00000000000000000000000         30530322617
D0002906241900701217300041796984100012281               01072024CUOTA         000000000005              0002900000P                      00000000000000      00000000000000000000000         30530322617
D0003082410632100011300079762262440012288               01072024CUOTA         000000000005              0002900000P                      00000000000000      00000000000000000000000         30530322617
D0003133398532100011300071213909690012296               01072024CUOTA         000000000005              0002900000P                      00000000000000      00000000000000000000000         30530322617
D0002813987832100011300071427193430012299               01072024CUOTA         000000000005              0002900000P                      00000000000000      00000000000000000000000         30530322617
D0003182538432100011300071427254580012302               01072024CUOTA         000000000005              0002900000P                      00000000000000      00000000000000000000000         30530322617
D0003731306801104992300499076670010012304               01072024CUOTA         000000000005              0002900000P                      00000000000000      00000000000000000000000         30530322617
D0003534352701700718400000366516500012313               01072024CUOTA         000000000005              0002900000P                      00000000000000      00000000000000000000000         30530322617
D0002978570807201659880000376477680012315               01072024CUOTA         000000000005              0002900000P                      00000000000000      00000000000000000000000         30530322617
D0002657027807201512880000382786040012318               01072024CUOTA         000000000005              0002900000P                      00000000000000      00000000000000000000000         30530322617
D0002135558032100011300070055135290012319               01072024CUOTA         000000000005              0002900000P                      00000000000000      00000000000000000000000         30530322617
D0002783471928506797400949066073480012325               01072024CUOTA         000000000005              0002900000P                      00000000000000      00000000000000000000000         30530322617
D0002434677707203648880000357830040012334               01072024CUOTA         000000000005              0002900000P                      00000000000000      00000000000000000000000         30530322617
D0002584425632100011300079815764080012337               01072024CUOTA         000000000005              0002900000P                      00000000000000      00000000000000000000000         30530322617
D0003323484907201512880000384435180012422               01072024CUOTA         000000000005              0000500000P                      00000000000000      00000000000000000000000         30530322617
D0002581884332100011300070561264640012426               01072024CUOTA         000000000005              0002900000P                      00000000000000      00000000000000000000000         30530322617
D0002581884332100011300070561264640012427               01072024CUOTA         000000000005              0002900000P                      00000000000000      00000000000000000000000         30530322617
D0002758153607201512880000372211040012473               01072024CUOTA         000000000005              0002900000P                      00000000000000      00000000000000000000000         30530322617
D0003388243100701217300041720570500012523               01072024CUOTA         000000000005              0002900000P                      00000000000000      00000000000000000000000         30530322617
D0002434613032100011300071188130020012623               01072024CUOTA         000000000005              0002900000P                      00000000000000      00000000000000000000000         30530322617
D0002530174132100011300080281243650012625               01072024CUOTA         000000000005              0002320000P                      00000000000000      00000000000000000000000         30530322617
D0003037296832100011300071990013090012628               01072024CUOTA         000000000005              0002320000P                      00000000000000      00000000000000000000000         30530322617
D0002917549604400349400003435968730012656               01072024CUOTA         000000000005              0002900000P                      00000000000000      00000000000000000000000         30530322617
D0002824563532100011300079665830960012660               01072024CUOTA         000000000005              0002900000P                      00000000000000      00000000000000000000000         30530322617
D0002677463432100011300071364263090012673               01072024CUOTA         000000000005              0002900000P                      00000000000000      00000000000000000000000         30530322617
D0002824563532100011300079665830960012683               01072024CUOTA         000000000005              0002900000P                      00000000000000      00000000000000000000000         30530322617
D0003011847032100011300071037145290012690               01072024CUOTA         000000000005              0002900000P                      00000000000000      00000000000000000000000         30530322617
D0002844459532100011300070507826400012718               01072024CUOTA         000000000005              0002900000P                      00000000000000      00000000000000000000000         30530322617
D0003431424507201512880000373341180012720               01072024CUOTA         000000000005              0002900000P                      00000000000000      00000000000000000000000         30530322617
D0003329297207201512880000399685400012728               01072024CUOTA         000000000005              0002320000P                      00000000000000      00000000000000000000000         30530322617
D0001826003832100011300070325994420012741               01072024CUOTA         000000000005              0002900000P                      00000000000000      00000000000000000000000         30530322617
D0003173935032100011300071240068100012745               01072024CUOTA         000000000005              0002900000P                      00000000000000      00000000000000000000000         30530322617
D0003309272507201512880000385072540012747               01072024CUOTA         000000000005              0002900000P                      00000000000000      00000000000000000000000         30530322617
D0003418250500701996300040458686060012748               01072024CUOTA         000000000005              0002900000P                      00000000000000      00000000000000000000000         30530322617
D0003855815932100011500031383993190012765               01072024CUOTA         000000000005              0000500000P                      00000000000000      00000000000000000000000         30530322617
D0003519934401700718400000370034500012790               01072024CUOTA         000000000005              0002900000P                      00000000000000      00000000000000000000000         30530322617
D0002461873700701217300041746782080012792               01072024CUOTA         000000000005              0002900000P                      00000000000000      00000000000000000000000         30530322617
D0003277522728506612400951795184580012799               01072024CUOTA         000000000005              0002900000P                      00000000000000      00000000000000000000000         30530322617
D0002867714732100011300070986058600012852               01072024CUOTA         000000000005              0002900000P                      00000000000000      00000000000000000000000         30530322617
D0003418487303402841082840178940070012862               01072024CUOTA         000000000005              0002900000P                      00000000000000      00000000000000000000000         30530322617
D0003116908001104992300499128941510012879               01072024CUOTA         000000000005              0002900000P                      00000000000000      00000000000000000000000         30530322617
D0002953367401700718400000350498500012885               01072024CUOTA         000000000005              0002900000P                      00000000000000      00000000000000000000000         30530322617
D0002825384007201512880000390395540012896               01072024CUOTA         000000000005              0002320000P                      00000000000000      00000000000000000000000         30530322617
D0001475411132100011500026813050280012897               01072024CUOTA         000000000005              0002900000P                      00000000000000      00000000000000000000000         30530322617
D0002722174832100011300071218435790012901               01072024CUOTA         000000000005              0002900000P                      00000000000000      00000000000000000000000         30530322617
D0001609581901104992300499119469830012904               01072024CUOTA         000000000005              0002900000P                      00000000000000      00000000000000000000000         30530322617
D0001609581901104992300499119469830012905               01072024CUOTA         000000000005              0002900000P                      00000000000000      00000000000000000000000         30530322617
D0002806462301700718400000382755000012914               01072024CUOTA         000000000005              0002900000P                      00000000000000      00000000000000000000000         30530322617
D0002457858932100011300070172215790012940               01072024CUOTA         000000000005              0002900000P                      00000000000000      00000000000000000000000         30530322617
D0002158079307201468880000018815360013002               01072024CUOTA         000000000003              0002900000P                      00000000000000      00000000000000000000000         30530322617
D0002890044632100011300070955922000013031               01072024CUOTA         000000000005              0002900000P                      00000000000000      00000000000000000000000         30530322617
D0003173935032100011300071240068100013108               01072024CUOTA         000000000005              0002900000P                      00000000000000      00000000000000000000000         30530322617
D0002813987832100011300071427193430013122               01072024CUOTA         000000000005              0002900000P                      00000000000000      00000000000000000000000         30530322617
D0003440969532100011300300369471390013128               01072024CUOTA         000000000005              0002320000P                      00000000000000      00000000000000000000000         30530322617
D0003612186707201512880000377379860013133               01072024CUOTA         000000000005              0002900000P                      00000000000000      00000000000000000000000         30530322617
D0002662943107201512880000365442680013135               01072024CUOTA         000000000005              0002900000P                      00000000000000      00000000000000000000000         30530322617
D0002376470432100011300071082943430013154               01072024CUOTA         000000000005              0002900000P                      00000000000000      00000000000000000000000         30530322617
D0002718573828506797400950332610580013160               01072024CUOTA         000000000005              0002900000P                      00000000000000      00000000000000000000000         30530322617
D0002767792132100011300070561164700014169               01072024CUOTA         000000000005              0002900000P                      00000000000000      00000000000000000000000         30530322617
D0002406333200701217300048929017180014180               01072024CUOTA         000000000005              0002900000P                      00000000000000      00000000000000000000000         30530322617
D0003505207732100011500035184615390014185               01072024CUOTA         000000000005              0002900000P                      00000000000000      00000000000000000000000         30530322617
D0003062695501103111300311161830830014188               01072024CUOTA         000000000005              0002900000P                      00000000000000      00000000000000000000000         30530322617
D0003741101732100011300080255904080014189               01072024CUOTA         000000000005              0002900000P                      00000000000000      00000000000000000000000         30530322617
D0003388222332100011500031173137210014232               01072024CUOTA         000000000005              0002900000P                      00000000000000      00000000000000000000000         30530322617
D0002594623919100476550047519275000014298               01072024CUOTA         000000000005              0002800000P                      00000000000000      00000000000000000000000         30530322617
D0003213241532100011500023217200840014300               01072024CUOTA         000000000005              0002240000P                      00000000000000      00000000000000000000000         30530322617
D0003031657507203648880000370742720014302               01072024CUOTA         000000000005              0002800000P                      00000000000000      00000000000000000000000         30530322617
D0003024109804400349400002650408230014305               01072024CUOTA         000000000005              0002240000P                      00000000000000      00000000000000000000000         30530322617
D0003416779132100011300071680623930014310               01072024CUOTA         000000000005              0002800000P                      00000000000000      00000000000000000000000         30530322617
D0003369312232100011300071310560020014316               01072024CUOTA         000000000005              0002240000P                      00000000000000      00000000000000000000000         30530322617
D0002760812532100011300071353135630014325               01072024CUOTA         000000000005              0002800000P                      00000000000000      00000000000000000000000         30530322617
D0003024128601700718400000321629500014337               01072024CUOTA         000000000005              0002900000P                      00000000000000      00000000000000000000000         30530322617
D0003131153332100011300079496509310014342               01072024CUOTA         000000000005              0002900000P                      00000000000000      00000000000000000000000         30530322617
D0003035531201702592400000037481700014356               01072024CUOTA         000000000005              0002900000P                      00000000000000      00000000000000000000000         30530322617
D0002739198032100011300071014029810014364               01072024CUOTA         000000000005              0002900000P                      00000000000000      00000000000000000000000         30530322617
D0003130525307201512880000372950040014365               01072024CUOTA         000000000005              0002900000P                      00000000000000      00000000000000000000000         30530322617
D0002654966432100011300070587938820014385               01072024CUOTA         000000000005              0000500000P                      00000000000000      00000000000000000000000         30530322617
D0004411534101104992300499191576790014413               01072024CUOTA         000000000003              0002900000P                      00000000000000      00000000000000000000000         30530322617
D0002873842801104206300420115689470014450               01072024CUOTA         000000000005              0002900000P                      00000000000000      00000000000000000000000         30530322617
D0002320005300701217300048910081820014454               01072024CUOTA         000000000005              0002900000P                      00000000000000      00000000000000000000000         30530322617
D0002739262704400349400001693111330014456               01072024CUOTA         000000000005              0002900000P                      00000000000000      00000000000000000000000         30530322617
D0002903782801104992300499091875010014489               01072024CUOTA         000000000005              0002900000P                      00000000000000      00000000000000000000000         30530322617
D0003773693932100011500029368314300014498               01072024CUOTA         000000000005              0000500000P                      00000000000000      00000000000000000000000         30530322617
D0002437674101104992300499001401470014509               01072024CUOTA         000000000005              0000500000P                      00000000000000      00000000000000000000000         30530322617
D0003416779132100011300071680623930014631               01072024CUOTA         000000000005              0002900000P                      00000000000000      00000000000000000000000         30530322617
D0003277522728506612400951795184580014633               01072024CUOTA         000000000005              0002900000P                      00000000000000      00000000000000000000000         30530322617
D0003731306801104992300499076670010016657               01072024CUOTA         000000000005              0002800000P                      00000000000000      00000000000000000000000         30530322617
D0003071221101700718400000346550500016659               01072024CUOTA         000000000005              0002800000P                      00000000000000      00000000000000000000000         30530322617
D0002758153607201512880000372211040016665               01072024CUOTA         000000000005              0002900000P                      00000000000000      00000000000000000000000         30530322617
D0003416947438900837400052096809380016671               01072024CUOTA         000000000005              0002900000P                      00000000000000      00000000000000000000000         30530322617
D0003424067519101059551105010179850016674               01072024CUOTA         000000000005              0002900000P                      00000000000000      00000000000000000000000         30530322617
D0002890044632100011300070955922000016682               01072024CUOTA         000000000005              0002800000P                      00000000000000      00000000000000000000000         30530322617
D0003035531201702592400000037481700016683               01072024CUOTA         000000000005              0002800000P                      00000000000000      00000000000000000000000         30530322617
D0002739198032100011300071014029810016686               01072024CUOTA         000000000005              0002800000P                      00000000000000      00000000000000000000000         30530322617
D0002971699401104992300499138943650016688               01072024CUOTA         000000000005              0002900000P                      00000000000000      00000000000000000000000         30530322617
D0003374890203402841082840244010070016693               01072024CUOTA         000000000005              0002800000P                      00000000000000      00000000000000000000000         30530322617
D0003220798307201512880000379632400016696               01072024CUOTA         000000000005              0002800000P                      00000000000000      00000000000000000000000         30530322617
D0002527679032100011300070455353210016703               01072024CUOTA         000000000005              0002320000P                      00000000000000      00000000000000000000000         30530322617
D0003037296832100011300071990013090016709               01072024CUOTA         000000000005              0002240000P                      00000000000000      00000000000000000000000         30530322617
D0002989415807201512880000382872680016710               01072024CUOTA         000000000005              0002800000P                      00000000000000      00000000000000000000000         30530322617
D0003574126207201512880000399655720016711               01072024CUOTA         000000000005              0002800000P                      00000000000000      00000000000000000000000         30530322617
D0003591796601104992300499194728510016721               01072024CUOTA         000000000005              0002240000P                      00000000000000      00000000000000000000000         30530322617
D0003130525307201512880000372950040016722               01072024CUOTA         000000000005              0002800000P                      00000000000000      00000000000000000000000         30530322617
D0003255804932100011300071680662720017723               01072024CUOTA         000000000005              0002240000P                      00000000000000      00000000000000000000000         30530322617
D0003172929407201512880000376454720017725               01072024CUOTA         000000000005              0002900000P                      00000000000000      00000000000000000000000         30530322617
D0003329297207201512880000399685400017732               01072024CUOTA         000000000005              0002320000P                      00000000000000      00000000000000000000000         30530322617
D0002813914132100011300070504039030017737               01072024CUOTA         000000000005              0002320000P                      00000000000000      00000000000000000000000         30530322617
D0003388243100701217300041720570500017740               01072024CUOTA         000000000005              0002900000P                      00000000000000      00000000000000000000000         30530322617
D0003440957600701217300041792695800017745               01072024CUOTA         000000000005              0002900000P                      00000000000000      00000000000000000000000         30530322617
D0003506647707201512880000375041400017747               01072024CUOTA         000000000005              0002400000P                      00000000000000      00000000000000000000000         30530322617
D0003612171132100011300300206798260018747               01072024CUOTA         000000000005              0002900000P                      00000000000000      00000000000000000000000         30530322617
D0003126756632100011300079800010680018752               01072024CUOTA         000000000005              0002900000P                      00000000000000      00000000000000000000000         30530322617
D0003388750932100011300079835962000018811               01072024CUOTA         000000000005              0002900000P                      00000000000000      00000000000000000000000         30530322617
D0003491334832100011300079352025910018813               01072024CUOTA         000000000005              0002900000P                      00000000000000      00000000000000000000000         30530322617
D0002948678904400349400001602743830018818               01072024CUOTA         000000000005              0002900000P                      00000000000000      00000000000000000000000         30530322617
D0003469545832100011300079751044860018839               01072024CUOTA         000000000005              0002900000P                      00000000000000      00000000000000000000000         30530322617
D0003419570832100011300071396787830018843               01072024CUOTA         000000000005              0000500000P                      00000000000000      00000000000000000000000         30530322617
D0003740966400701217300041742973840018890               01072024CUOTA         000000000005              0002800000P                      00000000000000      00000000000000000000000         30530322617
D0003268852132100011300071423856780018937               01072024CUOTA         000000000005              0002900000P                      00000000000000      00000000000000000000000         30530322617
D0002923690732102307500007396263010018947               01072024CUOTA         000000000003              0002900000P                      00000000000000      00000000000000000000000         30530322617
D0003499428501700718400000370965640018977               01072024CUOTA         000000000005              0002900000P                      00000000000000      00000000000000000000000         30530322617
D0003753079607201512880000022240860019010               01072024CUOTA         000000000005              0002900000P                      00000000000000      00000000000000000000000         30530322617
D0003130514000701217300041771272950020038               01072024CUOTA         000000000005              0002900000P                      00000000000000      00000000000000000000000         30530322617
D0002078723607201512880000365964360021078               01072024CUOTA         000000000005              0002900000P                      00000000000000      00000000000000000000000         30530322617
D0003427830432100011300079665389970021079               01072024CUOTA         000000000005              0002800000P                      00000000000000      00000000000000000000000         30530322617
D0002559604402009029110000305562580021094               01072024CUOTA         000000000005              0002900000P                      00000000000000      00000000000000000000000         30530322617
D0002559604402009029110000305562580021095               01072024CUOTA         000000000005              0002900000P                      00000000000000      00000000000000000000000         30530322617
D0003308856332100011300079877296840021117               01072024CUOTA         000000000005              0002900000P                      00000000000000      00000000000000000000000         30530322617
D0002341185032100011300070587419970021118               01072024CUOTA         000000000005              0002320000P                      00000000000000      00000000000000000000000         30530322617
D0003873522701104992300499188195650021124               01072024CUOTA         000000000005              0002800000P                      00000000000000      00000000000000000000000         30530322617
D0003206091107201512880000385029900021132               01072024CUOTA         000000000005              0002900000P                      00000000000000      00000000000000000000000         30530322617
D0003471150604400349400003562140830021136               01072024CUOTA         000000000005              0002900000P                      00000000000000      00000000000000000000000         30530322617
D0002722174832100011300071218435790021147               01072024CUOTA         000000000005              0002900000P                      00000000000000      00000000000000000000000         30530322617
D0002867714732100011300070986058600021151               01072024CUOTA         000000000005              0002900000P                      00000000000000      00000000000000000000000         30530322617
D0003440969532100011300300369471390021156               01072024CUOTA         000000000005              0002320000P                      00000000000000      00000000000000000000000         30530322617
D0003268554603402117082110143970000021159               01072024CUOTA         000000000005              0002900000P                      00000000000000      00000000000000000000000         30530322617
D0003469332332100011300072006796400021165               01072024CUOTA         000000000005              0002900000P                      00000000000000      00000000000000000000000         30530322617
D0003233257804400233400003560980410021167               01072024CUOTA         000000000005              0002900000P                      00000000000000      00000000000000000000000         30530322617
D0003022115932102307500010154310040021169               01072024CUOTA         000000000005              0002900000P                      00000000000000      00000000000000000000000         30530322617
D0002890099519101059551105001697170021170               01072024CUOTA         000000000005              0002900000P                      00000000000000      00000000000000000000000         30530322617
D0003708600600700764300040880582190021173               01072024CUOTA         000000000005              0002900000P                      00000000000000      00000000000000000000000         30530322617
D0002722273732100011300079248081170021234               01072024CUOTA         000000000005              0002900000P                      00000000000000      00000000000000000000000         30530322617
D0003039272932100011300071223586780021235               01072024CUOTA         000000000005              0002900000P                      00000000000000      00000000000000000000000         30530322617
D0003711909432100011500030469890620021246               01072024CUOTA         000000000005              0000500000P                      00000000000000      00000000000000000000000         30530322617
D0002533362432100011500020218368580021250               01072024CUOTA         000000000005              0000500000P                      00000000000000      00000000000000000000000         30530322617
D0003285969332100011300071956302440021281               01072024CUOTA         000000000005              0002900000P                      00000000000000      00000000000000000000000         30530322617
D0003031651500701217300041867725670021287               01072024CUOTA         000000000005              0002900000P                      00000000000000      00000000000000000000000         30530322617
D0003612162007200007880000404202040021288               01072024CUOTA         000000000005              0002800000P                      00000000000000      00000000000000000000000         30530322617
D0003050747032100011300070477030960021291               01072024CUOTA         000000000005              0002800000P                      00000000000000      00000000000000000000000         30530322617
D0003591716232100011300071353483870021292               01072024CUOTA         000000000005              0002800000P                      00000000000000      00000000000000000000000         30530322617
D0003351950832100011300071937822440021296               01072024CUOTA         000000000005              0002800000P                      00000000000000      00000000000000000000000         30530322617
D0003292808900701965300040166847180021297               01072024CUOTA         000000000005              0002800000P                      00000000000000      00000000000000000000000         30530322617
D0003604525032100011300080311359250021298               01072024CUOTA         000000000005              0002800000P                      00000000000000      00000000000000000000000         30530322617
D0003073893432100011300071396020300021299               01072024CUOTA         000000000005              0002800000P                      00000000000000      00000000000000000000000         30530322617
D0003440985407201512880000388017900021302               01072024CUOTA         000000000005              0002800000P                      00000000000000      00000000000000000000000         30530322617
D0003574394832100011300079747212220021306               01072024CUOTA         000000000005              0002800000P                      00000000000000      00000000000000000000000         30530322617
D0002996746332100011300079350646120021310               01072024CUOTA         000000000005              0002800000P                      00000000000000      00000000000000000000000         30530322617
D0003574109000701217300041929569950021311               01072024CUOTA         000000000005              0002800000P                      00000000000000      00000000000000000000000         30530322617
D0003129621832100011300071329382440021312               01072024CUOTA         000000000005              0002800000P                      00000000000000      00000000000000000000000         30530322617
D0003024138332100011300071389228980021323               01072024CUOTA         000000000005              0002800000P                      00000000000000      00000000000000000000000         30530322617
D0002873359332100011300080386888040021343               01072024CUOTA         000000000005              0002900000P                      00000000000000      00000000000000000000000         30530322617
D0002744810132100011500035434908920021362               01072024CUOTA         000000000005              0002800000P                      00000000000000      00000000000000000000000         30530322617
D0003263103501104992300499227810650021365               01072024CUOTA         000000000005              0002800000P                      00000000000000      00000000000000000000000         30530322617
D0003162131301104992300499023650470021392               01072024CUOTA         000000000005              0002800000P                      00000000000000      00000000000000000000000         30530322617
D0003374929332100011300071406737110021393               01072024CUOTA         000000000005              0002800000P                      00000000000000      00000000000000000000000         30530322617
D0002795899432100011300071298328980022401               01072024CUOTA         000000000005              0002900000P                      00000000000000      00000000000000000000000         30530322617
D0003958366628503798400955167680980022420               01072024CUOTA         000000000005              0002800000P                      00000000000000      00000000000000000000000         30530322617
D0001293529707203648880000350984900022441               01072024CUOTA         000000000005              0002900000P                      00000000000000      00000000000000000000000         30530322617
D0001293529707203648880000350984900022447               01072024CUOTA         000000000005              0002900000P                      00000000000000      00000000000000000000000         30530322617
D0003424160700701217300041710648000022480               01072024CUOTA         000000000005              0002900000P                      00000000000000      00000000000000000000000         30530322617
D0003263103501104992300499227810650022482               01072024CUOTA         000000000005              0002900000P                      00000000000000      00000000000000000000000         30530322617
D0002944447832100011300080015627990022491               01072024CUOTA         000000000005              0002900000P                      00000000000000      00000000000000000000000         30530322617
D0002744810132100011500035434908920022546               01072024CUOTA         000000000005              0002800000P                      00000000000000      00000000000000000000000         30530322617
D0003247640332100011300079847721170023555               01072024CUOTA         000000000003              0002900000P                      00000000000000      00000000000000000000000         30530322617
T0000424000001168700000                                                                                                                                                                                 
