H30530322617CUOTA     02023052024            A C HNOS MISERIC                                                                                                                                           
D0002703008532100011300070557480520002131               01062024CUOTA         000000000004              0002400000P                      00000000000000      00000000000000000000000         30530322617
D0002745737332100011300079585778320006738               01062024CUOTA         000000000004              0002400000P                      00000000000000      00000000000000000000000         30530322617
D0002511441328506797400951955215880006765               01062024CUOTA         000000000004              0002400000P                      00000000000000      00000000000000000000000         30530322617
D0002222259232100011300071423447490006772               01062024CUOTA         000000000004              0002400000P                      00000000000000      00000000000000000000000         30530322617
D0002486823932100011300070990641670006774               01062024CUOTA         000000000004              0002400000P                      00000000000000      00000000000000000000000         30530322617
D0003024109832100011300070458270680006776               01062024CUOTA         000000000004              0001920000P                      00000000000000      00000000000000000000000         30530322617
D0002530174132100011300080281243650006778               01062024CUOTA         000000000004              0001920000P                      00000000000000      00000000000000000000000         30530322617
D0002550191332100011300070217565570006795               01062024CUOTA         000000000004              0002400000P                      00000000000000      00000000000000000000000         30530322617
D0002511408003402841082840136650070006807               01062024CUOTA         000000000004              0002400000P                      00000000000000      00000000000000000000000         30530322617
D0001830054107201512880000220288680006815               01062024CUOTA         000000000004              0002400000P                      00000000000000      00000000000000000000000         30530322617
D0001630907732100011300300172666060006819               01062024CUOTA         000000000004              0002400000P                      00000000000000      00000000000000000000000         30530322617
D0002419819432100011300070598247610006962               01062024CUOTA         000000000004              0002400000P                      00000000000000      00000000000000000000000         30530322617
D0002224289901104992300499099774830007267               01062024CUOTA         000000000004              0002400000P                      00000000000000      00000000000000000000000         30530322617
D0002914275832100011500022670528360007270               01062024CUOTA         000000000004              0001920000P                      00000000000000      00000000000000000000000         30530322617
D0002516861707201512880000021664540007275               01062024CUOTA         000000000004              0002400000P                      00000000000000      00000000000000000000000         30530322617
D0002722290032100011300070497387330007285               01062024CUOTA         000000000004              0002400000P                      00000000000000      00000000000000000000000         30530322617
D0002825384007201512880000390395540007290               01062024CUOTA         000000000004              0001920000P                      00000000000000      00000000000000000000000         30530322617
D0003305452201700718400000368076640007313               01062024CUOTA         000000000004              0002400000P                      00000000000000      00000000000000000000000         30530322617
D0002163288507200298880000023790900007317               01062024CUOTA         000000000004              0002400000P                      00000000000000      00000000000000000000000         30530322617
D0002677488432100011300071292042880007334               01062024CUOTA         000000000004              0002400000P                      00000000000000      00000000000000000000000         30530322617
D0002645991132100011300070235017110007344               01062024CUOTA         000000000004              0002400000P                      00000000000000      00000000000000000000000         30530322617
D0002341075232100011500030123302540007795               01062024CUOTA         000000000004              0002400000P                      00000000000000      00000000000000000000000         30530322617
D0001451406501104992300499281132330007798               01062024CUOTA         000000000004              0002400000P                      00000000000000      00000000000000000000000         30530322617
D0002804876832100011300070620587770007799               01062024CUOTA         000000000004              0002400000P                      00000000000000      00000000000000000000000         30530322617
D0002560114301700718400000346320280007806               01062024CUOTA         000000000004              0002400000P                      00000000000000      00000000000000000000000         30530322617
D0002739013807201512880000369738220007808               01062024CUOTA         000000000004              0002400000P                      00000000000000      00000000000000000000000         30530322617
D0002566570432100011300071395620460007822               01062024CUOTA         000000000004              0002400000P                      00000000000000      00000000000000000000000         30530322617
D0002138190901702257400000309754390007845               01062024CUOTA         000000000004              0002400000P                      00000000000000      00000000000000000000000         30530322617
D0002594610101700718400000353415500007850               01062024CUOTA         000000000004              0002400000P                      00000000000000      00000000000000000000000         30530322617
D0002616115532100011300071099158100007855               01062024CUOTA         000000000004              0001920000P                      00000000000000      00000000000000000000000         30530322617
D0003091830600701217300041774001250007893               01062024CUOTA         000000000004              0001920000P                      00000000000000      00000000000000000000000         30530322617
D0001466136832100011300070072315910007894               01062024CUOTA         000000000004              0002400000P                      00000000000000      00000000000000000000000         30530322617
D0002616178103402841082840230130070007903               01062024CUOTA         000000000004              0002400000P                      00000000000000      00000000000000000000000         30530322617
D0002347384607203648880000351433360007904               01062024CUOTA         000000000004              0002400000P                      00000000000000      00000000000000000000000         30530322617
D0002570932232100011300070326155790007910               01062024CUOTA         000000000004              0002400000P                      00000000000000      00000000000000000000000         30530322617
D0002679956701700718400000392321000007914               01062024CUOTA         000000000004              0002400000P                      00000000000000      00000000000000000000000         30530322617
D0003071204532100011300070839850520007920               01062024CUOTA         000000000004              0002400000P                      00000000000000      00000000000000000000000         30530322617
D0002849702201101160300116125640830007923               01062024CUOTA         000000000004              0002400000P                      00000000000000      00000000000000000000000         30530322617
D0002279602407201512880000363003360007927               01062024CUOTA         000000000004              0002400000P                      00000000000000      00000000000000000000000         30530322617
D0002341057407201512880000404078900007958               01062024CUOTA         000000000004              0002400000P                      00000000000000      00000000000000000000000         30530322617
D0002232974307203648880000358545680007968               01062024CUOTA         000000000004              0002400000P                      00000000000000      00000000000000000000000         30530322617
D0001859995300701217300041558463500007974               01062024CUOTA         000000000004              0002400000P                      00000000000000      00000000000000000000000         30530322617
D0002526789507201512880000021732720007976               01062024CUOTA         000000000004              0002400000P                      00000000000000      00000000000000000000000         30530322617
D0002196813207201512880000021526040007977               01062024CUOTA         000000000004              0001920000P                      00000000000000      00000000000000000000000         30530322617
D0002406301832100011300071217207550007989               01062024CUOTA         000000000004              0002400000P                      00000000000000      00000000000000000000000         30530322617
D0002406301832100011300071217207550007990               01062024CUOTA         000000000004              0002400000P                      00000000000000      00000000000000000000000         30530322617
D0002421656932100011300070446134200007994               01062024CUOTA         000000000004              0002400000P                      00000000000000      00000000000000000000000         30530322617
D0003765124932100011300079396667770008314               01062024CUOTA         000000000004              0002400000P                      00000000000000      00000000000000000000000         30530322617
D0002695492807203648880000357646540008315               01062024CUOTA         000000000004              0002400000P                      00000000000000      00000000000000000000000         30530322617
D0002981428632100011500028612531490008316               01062024CUOTA         000000000004              0002400000P                      00000000000000      00000000000000000000000         30530322617
D0002948695701508404010001242773100008324               01062024CUOTA         000000000004              0002400000P                      00000000000000      00000000000000000000000         30530322617
D0002261791900701217300041868101660008330               01062024CUOTA         000000000004              0002400000P                      00000000000000      00000000000000000000000         30530322617
D0002636884801700718200000304676640008331               01062024CUOTA         000000000004              0002400000P                      00000000000000      00000000000000000000000         30530322617
D0002341123732100011300070446034360008335               01062024CUOTA         000000000004              0002400000P                      00000000000000      00000000000000000000000         30530322617
D0001815743732100011300070203201390008353               01062024CUOTA         000000000004              0002400000P                      00000000000000      00000000000000000000000         30530322617
D0001854371732100011300070624146560008356               01062024CUOTA         000000000004              0002400000P                      00000000000000      00000000000000000000000         30530322617
D0003323480732100011300071265214140008374               01062024CUOTA         000000000004              0002400000P                      00000000000000      00000000000000000000000         30530322617
D0001678235832100011300070210402380008378               01062024CUOTA         000000000004              0002400000P                      00000000000000      00000000000000000000000         30530322617
D0002677488432100011300071292042880008382               01062024CUOTA         000000000004              0002400000P                      00000000000000      00000000000000000000000         30530322617
D0003035560704400349400002367972930008383               01062024CUOTA         000000000004              0002400000P                      00000000000000      00000000000000000000000         30530322617
D0002304269307201512880000377406720008386               01062024CUOTA         000000000004              0002400000P                      00000000000000      00000000000000000000000         30530322617
D0002867490032100011300070591091230008392               01062024CUOTA         000000000004              0001920000P                      00000000000000      00000000000000000000000         30530322617
D0002224264301508404010001060581660008396               01062024CUOTA         000000000004              0002400000P                      00000000000000      00000000000000000000000         30530322617
D0002099726704400349400003462911330008397               01062024CUOTA         000000000004              0002400000P                      00000000000000      00000000000000000000000         30530322617
D0002644700401700718400000360545960008398               01062024CUOTA         000000000004              0002400000P                      00000000000000      00000000000000000000000         30530322617
D0002914288632100011500029472575390008402               01062024CUOTA         000000000004              0002400000P                      00000000000000      00000000000000000000000         30530322617
D0003091757932100011300071436205850008425               01062024CUOTA         000000000004              0002400000P                      00000000000000      00000000000000000000000         30530322617
D0002813914132100011300070504039030008441               01062024CUOTA         000000000004              0001920000P                      00000000000000      00000000000000000000000         30530322617
D0003112051532100011300070569178820008447               01062024CUOTA         000000000004              0002400000P                      00000000000000      00000000000000000000000         30530322617
D0003044322632100011300071323676620008455               01062024CUOTA         000000000004              0002400000P                      00000000000000      00000000000000000000000         30530322617
D0003172929407201512880000376454720008462               01062024CUOTA         000000000004              0002400000P                      00000000000000      00000000000000000000000         30530322617
D0004840988132100011300079541107490008465               01062024CUOTA         000000000004              0002400000P                      00000000000000      00000000000000000000000         30530322617
D0002542901532100011300071178021390008472               01062024CUOTA         000000000004              0002400000P                      00000000000000      00000000000000000000000         30530322617
D0002163208632100011300070303010950008485               01062024CUOTA         000000000004              0002400000P                      00000000000000      00000000000000000000000         30530322617
D0002397606000701217300041614460210008491               01062024CUOTA         000000000004              0002400000P                      00000000000000      00000000000000000000000         30530322617
D0002329805407203648880000353754900008494               01062024CUOTA         000000000004              0002400000P                      00000000000000      00000000000000000000000         30530322617
D0002232974307203648880000358545680008502               01062024CUOTA         000000000004              0002400000P                      00000000000000      00000000000000000000000         30530322617
D0002410185832100011300070207956340008508               01062024CUOTA         000000000004              0002400000P                      00000000000000      00000000000000000000000         30530322617
D0001854371732100011300070624146560008514               01062024CUOTA         000000000004              0002400000P                      00000000000000      00000000000000000000000         30530322617
D0002824606604400349400003087528430008516               01062024CUOTA         000000000004              0002400000P                      00000000000000      00000000000000000000000         30530322617
D0003329297207201512880000399685400008521               01062024CUOTA         000000000004              0001920000P                      00000000000000      00000000000000000000000         30530322617
D0002335311901104992300499110228010008670               01062024CUOTA         000000000004              0002400000P                      00000000000000      00000000000000000000000         30530322617
D0002872454201104992300499055240650008819               01062024CUOTA         000000000004              0002400000P                      00000000000000      00000000000000000000000         30530322617
D0002804866432100011300071080664580008828               01062024CUOTA         000000000004              0002400000P                      00000000000000      00000000000000000000000         30530322617
D0005108726532100011300071216256780008842               01062024CUOTA         000000000004              0002400000P                      00000000000000      00000000000000000000000         30530322617
D0002825384007201512880000390395540008844               01062024CUOTA         000000000004              0001920000P                      00000000000000      00000000000000000000000         30530322617
D0002722290032100011300070497387330008850               01062024CUOTA         000000000004              0002400000P                      00000000000000      00000000000000000000000         30530322617
D0002718573828506797400950332610580008859               01062024CUOTA         000000000004              0002400000P                      00000000000000      00000000000000000000000         30530322617
D0003591796507201512880000378484680008860               01062024CUOTA         000000000004              0002400000P                      00000000000000      00000000000000000000000         30530322617
D0003268890432100011300071409174420008861               01062024CUOTA         000000000004              0002400000P                      00000000000000      00000000000000000000000         30530322617
D0002397632101700718400000005224140008865               01062024CUOTA         000000000004              0002400000P                      00000000000000      00000000000000000000000         30530322617
D0002760812532100011300071353135630008867               01062024CUOTA         000000000004              0002400000P                      00000000000000      00000000000000000000000         30530322617
D0003329297207201512880000399685400008870               01062024CUOTA         000000000004              0001920000P                      00000000000000      00000000000000000000000         30530322617
D0002923699507201512880000362679540008876               01062024CUOTA         000000000004              0002400000P                      00000000000000      00000000000000000000000         30530322617
D0002739045507201512880000017407540008883               01062024CUOTA         000000000004              0002400000P                      00000000000000      00000000000000000000000         30530322617
D0003091830600701217300041774001250008885               01062024CUOTA         000000000004              0001920000P                      00000000000000      00000000000000000000000         30530322617
D0002616178007203648880000351313220008890               01062024CUOTA         000000000004              0002400000P                      00000000000000      00000000000000000000000         30530322617
D0003352060232100011300071403697550008896               01062024CUOTA         000000000004              0002400000P                      00000000000000      00000000000000000000000         30530322617
D0002594623919100476550047519275000008898               01062024CUOTA         000000000004              0002400000P                      00000000000000      00000000000000000000000         30530322617
D0002804876832100011300070620587770008906               01062024CUOTA         000000000004              0002400000P                      00000000000000      00000000000000000000000         30530322617
D0002630470032100011300070288300520008909               01062024CUOTA         000000000004              0002400000P                      00000000000000      00000000000000000000000         30530322617
D0002887623432100011300070496088320008910               01062024CUOTA         000000000004              0002400000P                      00000000000000      00000000000000000000000         30530322617
D0002427748207201512880000365475400008915               01062024CUOTA         000000000004              0002400000P                      00000000000000      00000000000000000000000         30530322617
D0003108150832100011500022242111550008921               01062024CUOTA         000000000004              0002400000P                      00000000000000      00000000000000000000000         30530322617
D0002887081332100011300070614227990008931               01062024CUOTA         000000000004              0002400000P                      00000000000000      00000000000000000000000         30530322617
D0002870109904400349400001339761330008937               01062024CUOTA         000000000004              0002400000P                      00000000000000      00000000000000000000000         30530322617
D0003189723907200250880000376639040008939               01062024CUOTA         000000000004              0002400000P                      00000000000000      00000000000000000000000         30530322617
D0002134049607201512880000019971360008948               01062024CUOTA         000000000004              0002400000P                      00000000000000      00000000000000000000000         30530322617
D0002903782801104992300499091875010008962               01062024CUOTA         000000000004              0002400000P                      00000000000000      00000000000000000000000         30530322617
D0002527679032100011300070455353210008964               01062024CUOTA         000000000004              0001920000P                      00000000000000      00000000000000000000000         30530322617
D0003044155301104992300499244909470008972               01062024CUOTA         000000000004              0002400000P                      00000000000000      00000000000000000000000         30530322617
D0002677468032100011500030207530120008973               01062024CUOTA         000000000004              0001920000P                      00000000000000      00000000000000000000000         30530322617
D0003268883532100011300071367689970008978               01062024CUOTA         000000000004              0002400000P                      00000000000000      00000000000000000000000         30530322617
D0002341185032100011300070587419970008987               01062024CUOTA         000000000004              0001920000P                      00000000000000      00000000000000000000000         30530322617
D0001843304632100011300070171255290008993               01062024CUOTA         000000000004              0002400000P                      00000000000000      00000000000000000000000         30530322617
D0002196813207201512880000021526040009005               01062024CUOTA         000000000004              0001920000P                      00000000000000      00000000000000000000000         30530322617
D0002341057407201512880000404078900009010               01062024CUOTA         000000000004              0002400000P                      00000000000000      00000000000000000000000         30530322617
D0002813914132100011300070504039030009014               01062024CUOTA         000000000004              0001920000P                      00000000000000      00000000000000000000000         30530322617
D0002484094201700718400000325308500009022               01062024CUOTA         000000000004              0002400000P                      00000000000000      00000000000000000000000         30530322617
D0003130525307201512880000372950040009024               01062024CUOTA         000000000004              0002400000P                      00000000000000      00000000000000000000000         30530322617
D0002056473801700718400000006767460009026               01062024CUOTA         000000000004              0002400000P                      00000000000000      00000000000000000000000         30530322617
D0002559669707201512880000021688180009027               01062024CUOTA         000000000004              0002400000P                      00000000000000      00000000000000000000000         30530322617
D0002636841532100011300070859578480009028               01062024CUOTA         000000000004              0002400000P                      00000000000000      00000000000000000000000         30530322617
D0002279602407201512880000363003360009029               01062024CUOTA         000000000004              0002400000P                      00000000000000      00000000000000000000000         30530322617
D0002090009401702257400000302978890009035               01062024CUOTA         000000000004              0002400000P                      00000000000000      00000000000000000000000         30530322617
D0000593775932100011500020620813030009039               01062024CUOTA         000000000004              0002400000P                      00000000000000      00000000000000000000000         30530322617
D0002978570807201659880000376477680009195               01062024CUOTA         000000000004              0002400000P                      00000000000000      00000000000000000000000         30530322617
D0002971685201104992300499093297650009795               01062024CUOTA         000000000004              0002400000P                      00000000000000      00000000000000000000000         30530322617
D0003130546804400349200002882848390009825               01062024CUOTA         000000000004              0002400000P                      00000000000000      00000000000000000000000         30530322617
D0002570954532100011300070494569810009841               01062024CUOTA         000000000004              0002400000P                      00000000000000      00000000000000000000000         30530322617
D0002604044001700718400000381399140009842               01062024CUOTA         000000000004              0002400000P                      00000000000000      00000000000000000000000         30530322617
D0003190506200701217300041673149820009843               01062024CUOTA         000000000004              0002400000P                      00000000000000      00000000000000000000000         30530322617
D0002703767219100476550047542675640009844               01062024CUOTA         000000000004              0002400000P                      00000000000000      00000000000000000000000         30530322617
D0002914288632100011500029472575390009855               01062024CUOTA         000000000004              0002400000P                      00000000000000      00000000000000000000000         30530322617
D0002739013807201512880000369738220009856               01062024CUOTA         000000000004              0002400000P                      00000000000000      00000000000000000000000         30530322617
D0002716914603402841082840054560000009857               01062024CUOTA         000000000004              0002400000P                      00000000000000      00000000000000000000000         30530322617
D0002844491807203648880000363185220009887               01062024CUOTA         000000000004              0002400000P                      00000000000000      00000000000000000000000         30530322617
D0002844459532100011300070507826400009894               01062024CUOTA         000000000004              0002400000P                      00000000000000      00000000000000000000000         30530322617
D0003231526319101059551105011172030009918               01062024CUOTA         000000000004              0002400000P                      00000000000000      00000000000000000000000         30530322617
D0002182613701700718400000361840460009925               01062024CUOTA         000000000004              0002400000P                      00000000000000      00000000000000000000000         30530322617
D0002708759700701217300041847491920009940               01062024CUOTA         000000000004              0002400000P                      00000000000000      00000000000000000000000         30530322617
D0003309283007201512880000377830400009948               01062024CUOTA         000000000004              0002400000P                      00000000000000      00000000000000000000000         30530322617
D0002804897601508404010001200326320009951               01062024CUOTA         000000000004              0002400000P                      00000000000000      00000000000000000000000         30530322617
D0001803718107203648880000351412860009952               01062024CUOTA         000000000004              0002400000P                      00000000000000      00000000000000000000000         30530322617
D0002783471928506797400949066073480009968               01062024CUOTA         000000000004              0002400000P                      00000000000000      00000000000000000000000         30530322617
D0002179172032100011300070441327830009976               01062024CUOTA         000000000004              0002400000P                      00000000000000      00000000000000000000000         30530322617
D0002760807801104992300499992833290009985               01062024CUOTA         000000000004              0002400000P                      00000000000000      00000000000000000000000         30530322617
D0002971685201104992300499093297650009997               01062024CUOTA         000000000004              0002400000P                      00000000000000      00000000000000000000000         30530322617
D0002530174132100011300080281243650010006               01062024CUOTA         000000000004              0001920000P                      00000000000000      00000000000000000000000         30530322617
D0003308933432100011300079981999190010015               01062024CUOTA         000000000004              0002400000P                      00000000000000      00000000000000000000000         30530322617
D0003011847032100011300071037145290010024               01062024CUOTA         000000000004              0002400000P                      00000000000000      00000000000000000000000         30530322617
D0002872472832100011300080043356060010028               01062024CUOTA         000000000004              0002400000P                      00000000000000      00000000000000000000000         30530322617
D0002739071304400349400001711821230010030               01062024CUOTA         000000000004              0002400000P                      00000000000000      00000000000000000000000         30530322617
D0002739047501700718400000376672140010032               01062024CUOTA         000000000004              0002400000P                      00000000000000      00000000000000000000000         30530322617
D0003044306632102307500008995332680010034               01062024CUOTA         000000000004              0002400000P                      00000000000000      00000000000000000000000         30530322617
D0002965329132100011300070477040680010035               01062024CUOTA         000000000004              0002400000P                      00000000000000      00000000000000000000000         30530322617
D0002677468032100011500030207530120010044               01062024CUOTA         000000000004              0001920000P                      00000000000000      00000000000000000000000         30530322617
D0003374916507201512880000037994400010050               01062024CUOTA         000000000004              0002400000P                      00000000000000      00000000000000000000000         30530322617
D0002703767219100476550047542675640010100               01062024CUOTA         000000000004              0002400000P                      00000000000000      00000000000000000000000         30530322617
D0002914275832100011500022670528360010332               01062024CUOTA         000000000004              0001920000P                      00000000000000      00000000000000000000000         30530322617
D0002953617132100011300070909372880010449               01062024CUOTA         000000000004              0002400000P                      00000000000000      00000000000000000000000         30530322617
D0002485013200701217300041920359280010450               01062024CUOTA         000000000004              0002400000P                      00000000000000      00000000000000000000000         30530322617
D0002903783632100011300071350785630010452               01062024CUOTA         000000000004              0002400000P                      00000000000000      00000000000000000000000         30530322617
D0002630470032100011300070288300520010456               01062024CUOTA         000000000004              0002400000P                      00000000000000      00000000000000000000000         30530322617
D0002224264301508404010001060581660010460               01062024CUOTA         000000000004              0002400000P                      00000000000000      00000000000000000000000         30530322617
D0002516861707201512880000021664540010461               01062024CUOTA         000000000004              0002400000P                      00000000000000      00000000000000000000000         30530322617
D0005071492207201512880000021746400010463               01062024CUOTA         000000000004              0002400000P                      00000000000000      00000000000000000000000         30530322617
D0002994937901104992300499093230330010473               01062024CUOTA         000000000004              0002400000P                      00000000000000      00000000000000000000000         30530322617
D0001475411132100011500026813050280010474               01062024CUOTA         000000000004              0002400000P                      00000000000000      00000000000000000000000         30530322617
D0003416947438900837400052096809380010478               01062024CUOTA         000000000004              0002400000P                      00000000000000      00000000000000000000000         30530322617
D0002759845404400349400002166326330010486               01062024CUOTA         000000000004              0002400000P                      00000000000000      00000000000000000000000         30530322617
D0002903763604400349400001070392930010490               01062024CUOTA         000000000004              0002400000P                      00000000000000      00000000000000000000000         30530322617
D0003534352701700718400000366516500010520               01062024CUOTA         000000000004              0002400000P                      00000000000000      00000000000000000000000         30530322617
D0002657027807201512880000382786040010523               01062024CUOTA         000000000004              0002400000P                      00000000000000      00000000000000000000000         30530322617
D0002550106932100011300070555172500010526               01062024CUOTA         000000000004              0002400000P                      00000000000000      00000000000000000000000         30530322617
D0002496777932100011300070276950740010527               01062024CUOTA         000000000004              0002400000P                      00000000000000      00000000000000000000000         30530322617
D0002392598132100011300071326935410010529               01062024CUOTA         000000000004              0002400000P                      00000000000000      00000000000000000000000         30530322617
D0002527679032100011300070455353210010539               01062024CUOTA         000000000004              0001920000P                      00000000000000      00000000000000000000000         30530322617
D0002813914132100011300070504039030010543               01062024CUOTA         000000000004              0001920000P                      00000000000000      00000000000000000000000         30530322617
D0003130525307201512880000372950040010550               01062024CUOTA         000000000004              0002400000P                      00000000000000      00000000000000000000000         30530322617
D0002261829207201512880000220333900010553               01062024CUOTA         000000000004              0002400000P                      00000000000000      00000000000000000000000         30530322617
D0002341136332100011300070406366780010558               01062024CUOTA         000000000004              0002400000P                      00000000000000      00000000000000000000000         30530322617
D0002421656932100011300070446134200010559               01062024CUOTA         000000000004              0002400000P                      00000000000000      00000000000000000000000         30530322617
D0002739114507203648880000360339860010562               01062024CUOTA         000000000004              0002400000P                      00000000000000      00000000000000000000000         30530322617
D0003044155301104992300499244909470010566               01062024CUOTA         000000000004              0002400000P                      00000000000000      00000000000000000000000         30530322617
D0002804897601508404010001200326320010567               01062024CUOTA         000000000004              0002400000P                      00000000000000      00000000000000000000000         30530322617
D0002662943107201512880000365442680010570               01062024CUOTA         000000000004              0002400000P                      00000000000000      00000000000000000000000         30530322617
D0002163125407201512880000221156360010571               01062024CUOTA         000000000004              0002400000P                      00000000000000      00000000000000000000000         30530322617
D0003268887228506797400949717220580010575               01062024CUOTA         000000000004              0002400000P                      00000000000000      00000000000000000000000         30530322617
D0002095990432100011300070556071950010586               01062024CUOTA         000000000004              0002400000P                      00000000000000      00000000000000000000000         30530322617
D0003352060232100011300071403697550010594               01062024CUOTA         000000000004              0001920000P                      00000000000000      00000000000000000000000         30530322617
D0002745737332100011300079585778320010595               01062024CUOTA         000000000004              0002400000P                      00000000000000      00000000000000000000000         30530322617
D0002616115532100011300071099158100010597               01062024CUOTA         000000000004              0001920000P                      00000000000000      00000000000000000000000         30530322617
D0002397632101700718400000005224140010600               01062024CUOTA         000000000004              0002400000P                      00000000000000      00000000000000000000000         30530322617
D0002511441328506797400951955215880010603               01062024CUOTA         000000000004              0002400000P                      00000000000000      00000000000000000000000         30530322617
D0002677468032100011500030207530120010631               01062024CUOTA         000000000004              0001920000P                      00000000000000      00000000000000000000000         30530322617
D0002566570432100011300071395620460010633               01062024CUOTA         000000000004              0002400000P                      00000000000000      00000000000000000000000         30530322617
D0002163288507200298880000023790900010640               01062024CUOTA         000000000004              0002400000P                      00000000000000      00000000000000000000000         30530322617
D0003091830600701217300041774001250010646               01062024CUOTA         000000000004              0001920000P                      00000000000000      00000000000000000000000         30530322617
D0002703011200701217300041563904670010660               01062024CUOTA         000000000004              0002400000P                      00000000000000      00000000000000000000000         30530322617
D0003129616704400349400002488062130010672               01062024CUOTA         000000000004              0002400000P                      00000000000000      00000000000000000000000         30530322617
D0002759845404400349400002166326330010928               01062024CUOTA         000000000004              0002400000P                      00000000000000      00000000000000000000000         30530322617
D0002813949219101059550105533768280010963               01062024CUOTA         000000000004              0002400000P                      00000000000000      00000000000000000000000         30530322617
D0002341032232100011300070297100520010991               01062024CUOTA         000000000004              0002400000P                      00000000000000      00000000000000000000000         30530322617
D0003441408901700718400000333950780010993               01062024CUOTA         000000000004              0001920000P                      00000000000000      00000000000000000000000         30530322617
D0002341184732100011300070263525070011026               01062024CUOTA         000000000004              0002400000P                      00000000000000      00000000000000000000000         30530322617
D0003416765501700718400000373174780011045               01062024CUOTA         000000000004              0002400000P                      00000000000000      00000000000000000000000         30530322617
D0002813949219101059550105533768280011054               01062024CUOTA         000000000004              0002400000P                      00000000000000      00000000000000000000000         30530322617
D0002760822032100011300079762033590011058               01062024CUOTA         000000000004              0002400000P                      00000000000000      00000000000000000000000         30530322617
D0002765093801508404020001025844880011080               01062024CUOTA         000000000004              0002400000P                      00000000000000      00000000000000000000000         30530322617
D0002594604632100011500030239706720011088               01062024CUOTA         000000000004              0002400000P                      00000000000000      00000000000000000000000         30530322617
D0003440969532100011300300369471390011096               01062024CUOTA         000000000004              0001920000P                      00000000000000      00000000000000000000000         30530322617
D0001826003832100011300070325994420011098               01062024CUOTA         000000000004              0002400000P                      00000000000000      00000000000000000000000         30530322617
D0002419817001700718400000372602460011114               01062024CUOTA         000000000004              0002400000P                      00000000000000      00000000000000000000000         30530322617
D0002397625132100011300071246872880011115               01062024CUOTA         000000000004              0002400000P                      00000000000000      00000000000000000000000         30530322617
D0002341185032100011300070587419970011123               01062024CUOTA         000000000004              0001920000P                      00000000000000      00000000000000000000000         30530322617
D0002906003203402841082840160630060011131               01062024CUOTA         000000000004              0002400000P                      00000000000000      00000000000000000000000         30530322617
D0003071221101700718400000346550500011132               01062024CUOTA         000000000004              0002400000P                      00000000000000      00000000000000000000000         30530322617
D0003213241532100011500023217200840011139               01062024CUOTA         000000000004              0001920000P                      00000000000000      00000000000000000000000         30530322617
D0002485013200701217300041920359280011145               01062024CUOTA         000000000004              0002400000P                      00000000000000      00000000000000000000000         30530322617
D0002311785504400349400001404378430011157               01062024CUOTA         000000000004              0002400000P                      00000000000000      00000000000000000000000         30530322617
D0002138190901702257400000309754390011160               01062024CUOTA         000000000004              0002400000P                      00000000000000      00000000000000000000000         30530322617
D0002989415807201512880000382872680011161               01062024CUOTA         000000000004              0002400000P                      00000000000000      00000000000000000000000         30530322617
D0002739136632100011300070942893090011162               01062024CUOTA         000000000004              0002400000P                      00000000000000      00000000000000000000000         30530322617
D0002937674132100011300079859986840011171               01062024CUOTA         000000000004              0002400000P                      00000000000000      00000000000000000000000         30530322617
D0003189723907200250880000376639040011180               01062024CUOTA         000000000004              0002400000P                      00000000000000      00000000000000000000000         30530322617
D0002872472832100011300080043356060011200               01062024CUOTA         000000000004              0002400000P                      00000000000000      00000000000000000000000         30530322617
D0002872454201104992300499055240650011201               01062024CUOTA         000000000004              0002400000P                      00000000000000      00000000000000000000000         30530322617
D0002550196307201512880000020408220011287               01062024CUOTA         000000000004              0002400000P                      00000000000000      00000000000000000000000         30530322617
D0003352060232100011300071403697550011299               01062024CUOTA         000000000004              0001920000P                      00000000000000      00000000000000000000000         30530322617
D0003369312232100011300071310560020011301               01062024CUOTA         000000000004              0001920000P                      00000000000000      00000000000000000000000         30530322617
D0003044306632102307500008995332680011311               01062024CUOTA         000000000004              0002400000P                      00000000000000      00000000000000000000000         30530322617
D0002496743532100011300070600399470011315               01062024CUOTA         000000000004              0002400000P                      00000000000000      00000000000000000000000         30530322617
D0002831892101104992300499088916650011319               01062024CUOTA         000000000004              0002400000P                      00000000000000      00000000000000000000000         30530322617
D0002584425632100011300079815764080011453               01062024CUOTA         000000000004              0002400000P                      00000000000000      00000000000000000000000         30530322617
D0002739338132100011300070954323370011542               01062024CUOTA         000000000004              0002400000P                      00000000000000      00000000000000000000000         30530322617
D0003574127732100011500028033569850011612               01062024CUOTA         000000000004              0002400000P                      00000000000000      00000000000000000000000         30530322617
D0003091757932100011300071436205850011620               01062024CUOTA         000000000004              0002400000P                      00000000000000      00000000000000000000000         30530322617
D0002486823932100011300070990641670011621               01062024CUOTA         000000000004              0002400000P                      00000000000000      00000000000000000000000         30530322617
D0002824606604400349400003087528430011622               01062024CUOTA         000000000004              0002400000P                      00000000000000      00000000000000000000000         30530322617
D0002657657200701217300041504711020011626               01062024CUOTA         000000000004              0002400000P                      00000000000000      00000000000000000000000         30530322617
D0002971998532100011300070595520020011632               01062024CUOTA         000000000004              0002400000P                      00000000000000      00000000000000000000000         30530322617
D0001810105303401008087101574440010011662               01062024CUOTA         000000000004              0002400000P                      00000000000000      00000000000000000000000         30530322617
D0003292831832100011300071323776560011671               01062024CUOTA         000000000004              0002400000P                      00000000000000      00000000000000000000000         30530322617
D0002760894301700718400000333716780011677               01062024CUOTA         000000000004              0002400000P                      00000000000000      00000000000000000000000         30530322617
D0002511476332100011500031110624520011680               01062024CUOTA         000000000004              0002400000P                      00000000000000      00000000000000000000000         30530322617
D0002722298832100011300070477420800011701               01062024CUOTA         000000000004              0002400000P                      00000000000000      00000000000000000000000         30530322617
D0002989431332100011300071278839970011705               01062024CUOTA         000000000004              0002400000P                      00000000000000      00000000000000000000000         30530322617
D0003505224032100011300071991131670011706               01062024CUOTA         000000000004              0002400000P                      00000000000000      00000000000000000000000         30530322617
D0004028548232100011300300377433090011710               01062024CUOTA         000000000004              0002400000P                      00000000000000      00000000000000000000000         30530322617
D0003205417532100011300300398379470011720               01062024CUOTA         000000000004              0002400000P                      00000000000000      00000000000000000000000         30530322617
D0002196813207201512880000021526040011727               01062024CUOTA         000000000004              0001920000P                      00000000000000      00000000000000000000000         30530322617
D0002679956701700718400000392321000011729               01062024CUOTA         000000000004              0002400000P                      00000000000000      00000000000000000000000         30530322617
D0003268887228506797400949717220580011755               01062024CUOTA         000000000004              0002400000P                      00000000000000      00000000000000000000000         30530322617
D0002760807801104992300499992833290011756               01062024CUOTA         000000000004              0002400000P                      00000000000000      00000000000000000000000         30530322617
D0002804866432100011300071080664580011759               01062024CUOTA         000000000004              0002400000P                      00000000000000      00000000000000000000000         30530322617
D0002570932232100011300070326155790011760               01062024CUOTA         000000000004              0002400000P                      00000000000000      00000000000000000000000         30530322617
D0002224289901104992300499099774830011761               01062024CUOTA         000000000004              0002400000P                      00000000000000      00000000000000000000000         30530322617
D0003129739832100011300071804337770011762               01062024CUOTA         000000000004              0002400000P                      00000000000000      00000000000000000000000         30530322617
D0003213241532100011500023217200840011764               01062024CUOTA         000000000004              0001920000P                      00000000000000      00000000000000000000000         30530322617
D0003591796601104992300499194728510011773               01062024CUOTA         000000000004              0001920000P                      00000000000000      00000000000000000000000         30530322617
D0003323480732100011300071265214140011774               01062024CUOTA         000000000004              0002400000P                      00000000000000      00000000000000000000000         30530322617
D0003268890432100011300071409174420011778               01062024CUOTA         000000000004              0002400000P                      00000000000000      00000000000000000000000         30530322617
D0002870109904400349400001339761330011786               01062024CUOTA         000000000004              0002400000P                      00000000000000      00000000000000000000000         30530322617
D0002890035507201512880000020479220011789               01062024CUOTA         000000000004              0002400000P                      00000000000000      00000000000000000000000         30530322617
D0003374890203402841082840244010070011791               01062024CUOTA         000000000004              0002400000P                      00000000000000      00000000000000000000000         30530322617
D0002616115532100011300071099158100011803               01062024CUOTA         000000000004              0001920000P                      00000000000000      00000000000000000000000         30530322617
D0022085145232100011300300291684080011812               01062024CUOTA         000000000004              0002400000P                      00000000000000      00000000000000000000000         30530322617
D0002559604132100011300300195923090011823               01062024CUOTA         000000000004              0002400000P                      00000000000000      00000000000000000000000         30530322617
D0002739338132100011300070954323370011828               01062024CUOTA         000000000004              0002400000P                      00000000000000      00000000000000000000000         30530322617
D0003198896807203648880000365553540011851               01062024CUOTA         000000000004              0001920000P                      00000000000000      00000000000000000000000         30530322617
D0003198896807203648880000365553540011853               01062024CUOTA         000000000004              0001920000P                      00000000000000      00000000000000000000000         30530322617
D0003031809432100011300071363144420011899               01062024CUOTA         000000000004              0002400000P                      00000000000000      00000000000000000000000         30530322617
D0002290250132100011300079229143370011900               01062024CUOTA         000000000004              0002400000P                      00000000000000      00000000000000000000000         30530322617
D0002434677707203648880000357830040011967               01062024CUOTA         000000000004              0002400000P                      00000000000000      00000000000000000000000         30530322617
D0002767792132100011300070561164700012142               01062024CUOTA         000000000004              0002400000P                      00000000000000      00000000000000000000000         30530322617
D0003031657507203648880000370742720012143               01062024CUOTA         000000000004              0002400000P                      00000000000000      00000000000000000000000         30530322617
D0003037296832100011300071990013090012144               01062024CUOTA         000000000004              0001920000P                      00000000000000      00000000000000000000000         30530322617
D0002341075232100011500030123302540012148               01062024CUOTA         000000000004              0002400000P                      00000000000000      00000000000000000000000         30530322617
D0003130554207201512880000378995720012152               01062024CUOTA         000000000004              0002400000P                      00000000000000      00000000000000000000000         30530322617
D0003574126207201512880000399655720012158               01062024CUOTA         000000000004              0002400000P                      00000000000000      00000000000000000000000         30530322617
D0002971699401104992300499138943650012168               01062024CUOTA         000000000004              0002400000P                      00000000000000      00000000000000000000000         30530322617
D0001677204232100011300070224557050012199               01062024CUOTA         000000000004              0002400000P                      00000000000000      00000000000000000000000         30530322617
D0003427830432100011300079665389970012200               01062024CUOTA         000000000004              0002400000P                      00000000000000      00000000000000000000000         30530322617
D0002056483332100011300071432347330012204               01062024CUOTA         000000000004              0002400000P                      00000000000000      00000000000000000000000         30530322617
D0002914275832100011500022670528360012206               01062024CUOTA         000000000004              0001920000P                      00000000000000      00000000000000000000000         30530322617
D0002636895007201512880000392074360012207               01062024CUOTA         000000000004              0002400000P                      00000000000000      00000000000000000000000         30530322617
D0003369312232100011300071310560020012216               01062024CUOTA         000000000004              0001920000P                      00000000000000      00000000000000000000000         30530322617
D0002543815707203648880000354421360012217               01062024CUOTA         000000000004              0002400000P                      00000000000000      00000000000000000000000         30530322617
D0002971998532100011300070595520020012222               01062024CUOTA         000000000004              0002400000P                      00000000000000      00000000000000000000000         30530322617
D0003024109832100011300070458270680012240               01062024CUOTA         000000000004              0001920000P                      00000000000000      00000000000000000000000         30530322617
D0002874422007201512880000388020900012262               01062024CUOTA         000000000004              0002400000P                      00000000000000      00000000000000000000000         30530322617
D0003424067519101059551105010179850012269               01062024CUOTA         000000000004              0002400000P                      00000000000000      00000000000000000000000         30530322617
D0002739115132100011300071375341950012274               01062024CUOTA         000000000004              0002400000P                      00000000000000      00000000000000000000000         30530322617
D0002906241900701217300041796984100012280               01062024CUOTA         000000000004              0002400000P                      00000000000000      00000000000000000000000         30530322617
D0002906241900701217300041796984100012281               01062024CUOTA         000000000004              0002400000P                      00000000000000      00000000000000000000000         30530322617
D0003082410632100011300079762262440012288               01062024CUOTA         000000000004              0002400000P                      00000000000000      00000000000000000000000         30530322617
D0002867717107201512880000226804040012289               01062024CUOTA         000000000004              0002400000P                      00000000000000      00000000000000000000000         30530322617
D0003133398532100011300071213909690012296               01062024CUOTA         000000000004              0002400000P                      00000000000000      00000000000000000000000         30530322617
D0002813987832100011300071427193430012299               01062024CUOTA         000000000004              0002400000P                      00000000000000      00000000000000000000000         30530322617
D0003182538432100011300071427254580012302               01062024CUOTA         000000000004              0002400000P                      00000000000000      00000000000000000000000         30530322617
D0003731306801104992300499076670010012304               01062024CUOTA         000000000004              0002400000P                      00000000000000      00000000000000000000000         30530322617
D0003534352701700718400000366516500012313               01062024CUOTA         000000000004              0002400000P                      00000000000000      00000000000000000000000         30530322617
D0002978570807201659880000376477680012315               01062024CUOTA         000000000004              0002400000P                      00000000000000      00000000000000000000000         30530322617
D0002657027807201512880000382786040012318               01062024CUOTA         000000000004              0002400000P                      00000000000000      00000000000000000000000         30530322617
D0002135558032100011300070055135290012319               01062024CUOTA         000000000004              0002400000P                      00000000000000      00000000000000000000000         30530322617
D0002783471928506797400949066073480012325               01062024CUOTA         000000000004              0002400000P                      00000000000000      00000000000000000000000         30530322617
D0002434677707203648880000357830040012334               01062024CUOTA         000000000004              0002400000P                      00000000000000      00000000000000000000000         30530322617
D0002584425632100011300079815764080012337               01062024CUOTA         000000000004              0002400000P                      00000000000000      00000000000000000000000         30530322617
D0003071204532100011300070839850520012338               01062024CUOTA         000000000004              0002400000P                      00000000000000      00000000000000000000000         30530322617
D0002581884332100011300070561264640012426               01062024CUOTA         000000000004              0002400000P                      00000000000000      00000000000000000000000         30530322617
D0002581884332100011300070561264640012427               01062024CUOTA         000000000004              0002400000P                      00000000000000      00000000000000000000000         30530322617
D0002758153607201512880000372211040012473               01062024CUOTA         000000000004              0002400000P                      00000000000000      00000000000000000000000         30530322617
D0003388243100701217300041720570500012523               01062024CUOTA         000000000004              0002400000P                      00000000000000      00000000000000000000000         30530322617
D0002434613032100011300071188130020012547               01062024CUOTA         000000000004              0002400000P                      00000000000000      00000000000000000000000         30530322617
D0002953617132100011300070909372880012621               01062024CUOTA         000000000004              0002400000P                      00000000000000      00000000000000000000000         30530322617
D0002434613032100011300071188130020012623               01062024CUOTA         000000000004              0002400000P                      00000000000000      00000000000000000000000         30530322617
D0002530174132100011300080281243650012625               01062024CUOTA         000000000004              0001920000P                      00000000000000      00000000000000000000000         30530322617
D0003037296832100011300071990013090012628               01062024CUOTA         000000000004              0001920000P                      00000000000000      00000000000000000000000         30530322617
D0003266201232100011300071365204140012654               01062024CUOTA         000000000004              0002400000P                      00000000000000      00000000000000000000000         30530322617
D0002917549604400349400003435968730012656               01062024CUOTA         000000000004              0002400000P                      00000000000000      00000000000000000000000         30530322617
D0002824563532100011300079665830960012660               01062024CUOTA         000000000004              0002400000P                      00000000000000      00000000000000000000000         30530322617
D0002677463432100011300071364263090012673               01062024CUOTA         000000000004              0002400000P                      00000000000000      00000000000000000000000         30530322617
D0002824563532100011300079665830960012683               01062024CUOTA         000000000004              0002400000P                      00000000000000      00000000000000000000000         30530322617
D0003011847032100011300071037145290012690               01062024CUOTA         000000000004              0002400000P                      00000000000000      00000000000000000000000         30530322617
D0002844459532100011300070507826400012718               01062024CUOTA         000000000004              0002400000P                      00000000000000      00000000000000000000000         30530322617
D0003431424507201512880000373341180012720               01062024CUOTA         000000000004              0002400000P                      00000000000000      00000000000000000000000         30530322617
D0002695492807203648880000357646540012727               01062024CUOTA         000000000004              0002400000P                      00000000000000      00000000000000000000000         30530322617
D0003329297207201512880000399685400012728               01062024CUOTA         000000000004              0001920000P                      00000000000000      00000000000000000000000         30530322617
D0001826003832100011300070325994420012741               01062024CUOTA         000000000004              0002400000P                      00000000000000      00000000000000000000000         30530322617
D0003173935032100011300071240068100012745               01062024CUOTA         000000000004              0002400000P                      00000000000000      00000000000000000000000         30530322617
D0003309272507201512880000385072540012747               01062024CUOTA         000000000004              0002400000P                      00000000000000      00000000000000000000000         30530322617
D0003418250500701996300040458686060012748               01062024CUOTA         000000000004              0002400000P                      00000000000000      00000000000000000000000         30530322617
D0003131163201700718400000335027460012777               01062024CUOTA         000000000004              0002400000P                      00000000000000      00000000000000000000000         30530322617
D0003519934401700718400000370034500012790               01062024CUOTA         000000000004              0002400000P                      00000000000000      00000000000000000000000         30530322617
D0002461873700701217300041746782080012792               01062024CUOTA         000000000004              0002400000P                      00000000000000      00000000000000000000000         30530322617
D0003277522728506612400951795184580012799               01062024CUOTA         000000000004              0002400000P                      00000000000000      00000000000000000000000         30530322617
D0002867714732100011300070986058600012852               01062024CUOTA         000000000004              0002400000P                      00000000000000      00000000000000000000000         30530322617
D0003418487303402841082840178940070012862               01062024CUOTA         000000000004              0002400000P                      00000000000000      00000000000000000000000         30530322617
D0003116908001104992300499128941510012879               01062024CUOTA         000000000004              0002400000P                      00000000000000      00000000000000000000000         30530322617
D0002953367401700718400000350498500012885               01062024CUOTA         000000000004              0002400000P                      00000000000000      00000000000000000000000         30530322617
D0002825384007201512880000390395540012896               01062024CUOTA         000000000004              0001920000P                      00000000000000      00000000000000000000000         30530322617
D0001475411132100011500026813050280012897               01062024CUOTA         000000000004              0002400000P                      00000000000000      00000000000000000000000         30530322617
D0002722174832100011300071218435790012901               01062024CUOTA         000000000004              0002400000P                      00000000000000      00000000000000000000000         30530322617
D0001609581901104992300499119469830012904               01062024CUOTA         000000000004              0002400000P                      00000000000000      00000000000000000000000         30530322617
D0001609581901104992300499119469830012905               01062024CUOTA         000000000004              0002400000P                      00000000000000      00000000000000000000000         30530322617
D0002806462301700718400000382755000012914               01062024CUOTA         000000000004              0002400000P                      00000000000000      00000000000000000000000         30530322617
D0002457858932100011300070172215790012940               01062024CUOTA         000000000004              0002400000P                      00000000000000      00000000000000000000000         30530322617
D0002158079307201468880000018815360013002               01062024CUOTA         000000000004              0002400000P                      00000000000000      00000000000000000000000         30530322617
D0002890044632100011300070955922000013031               01062024CUOTA         000000000004              0002400000P                      00000000000000      00000000000000000000000         30530322617
D0003173935032100011300071240068100013108               01062024CUOTA         000000000004              0002400000P                      00000000000000      00000000000000000000000         30530322617
D0002511476332100011500031110624520013110               01062024CUOTA         000000000004              0002400000P                      00000000000000      00000000000000000000000         30530322617
D0002813987832100011300071427193430013122               01062024CUOTA         000000000004              0002400000P                      00000000000000      00000000000000000000000         30530322617
D0003091759807201512880000374220400013124               01062024CUOTA         000000000004              0002400000P                      00000000000000      00000000000000000000000         30530322617
D0002550196307201512880000020408220013126               01062024CUOTA         000000000004              0002300000P                      00000000000000      00000000000000000000000         30530322617
D0003440969532100011300300369471390013128               01062024CUOTA         000000000004              0001920000P                      00000000000000      00000000000000000000000         30530322617
D0003612186707201512880000377379860013133               01062024CUOTA         000000000004              0002400000P                      00000000000000      00000000000000000000000         30530322617
D0002662943107201512880000365442680013135               01062024CUOTA         000000000004              0002400000P                      00000000000000      00000000000000000000000         30530322617
D0002550106932100011300070555172500013139               01062024CUOTA         000000000004              0002400000P                      00000000000000      00000000000000000000000         30530322617
D0002376470432100011300071082943430013154               01062024CUOTA         000000000004              0002400000P                      00000000000000      00000000000000000000000         30530322617
D0002718573828506797400950332610580013160               01062024CUOTA         000000000004              0002400000P                      00000000000000      00000000000000000000000         30530322617
D0002767792132100011300070561164700014169               01062024CUOTA         000000000004              0002400000P                      00000000000000      00000000000000000000000         30530322617
D0003174094701104992300499077515970014173               01062024CUOTA         000000000004              0002400000P                      00000000000000      00000000000000000000000         30530322617
D0002406333200701217300048929017180014180               01062024CUOTA         000000000004              0002400000P                      00000000000000      00000000000000000000000         30530322617
D0003505207732100011500035184615390014185               01062024CUOTA         000000000004              0002400000P                      00000000000000      00000000000000000000000         30530322617
D0003062695501103111300311161830830014188               01062024CUOTA         000000000004              0002400000P                      00000000000000      00000000000000000000000         30530322617
D0003741101732100011300080255904080014189               01062024CUOTA         000000000004              0002400000P                      00000000000000      00000000000000000000000         30530322617
D0003031616701702257400000309614430014190               01062024CUOTA         000000000004              0002400000P                      00000000000000      00000000000000000000000         30530322617
D0001405433432100011500020918337370014200               01062024CUOTA         000000000004              0002400000P                      00000000000000      00000000000000000000000         30530322617
D0003173960528506797400946385610080014201               01062024CUOTA         000000000004              0002400000P                      00000000000000      00000000000000000000000         30530322617
D0002513069107201659880000366736540014210               01062024CUOTA         000000000004              0002400000P                      00000000000000      00000000000000000000000         30530322617
D0003388222332100011500031173137210014232               01062024CUOTA         000000000004              0002400000P                      00000000000000      00000000000000000000000         30530322617
D0002194942732100011300070270526280014295               01062024CUOTA         000000000004              0002400000P                      00000000000000      00000000000000000000000         30530322617
D0002594623919100476550047519275000014298               01062024CUOTA         000000000004              0002300000P                      00000000000000      00000000000000000000000         30530322617
D0003213241532100011500023217200840014300               01062024CUOTA         000000000004              0001840000P                      00000000000000      00000000000000000000000         30530322617
D0003031657507203648880000370742720014302               01062024CUOTA         000000000004              0002300000P                      00000000000000      00000000000000000000000         30530322617
D0003024109832100011300070458270680014305               01062024CUOTA         000000000004              0001840000P                      00000000000000      00000000000000000000000         30530322617
D0003416779132100011300071680623930014310               01062024CUOTA         000000000004              0002300000P                      00000000000000      00000000000000000000000         30530322617
D0003369312232100011300071310560020014316               01062024CUOTA         000000000004              0001840000P                      00000000000000      00000000000000000000000         30530322617
D0002760812532100011300071353135630014325               01062024CUOTA         000000000004              0002300000P                      00000000000000      00000000000000000000000         30530322617
D0003024128601700718400000321629500014337               01062024CUOTA         000000000004              0002400000P                      00000000000000      00000000000000000000000         30530322617
D0003131153332100011300079496509310014342               01062024CUOTA         000000000004              0002400000P                      00000000000000      00000000000000000000000         30530322617
D0003035531201702592400000037481700014356               01062024CUOTA         000000000004              0002400000P                      00000000000000      00000000000000000000000         30530322617
D0002739198032100011300071014029810014364               01062024CUOTA         000000000004              0002400000P                      00000000000000      00000000000000000000000         30530322617
D0003130525307201512880000372950040014365               01062024CUOTA         000000000004              0002400000P                      00000000000000      00000000000000000000000         30530322617
D0004109394701702745400000040561510014367               01062024CUOTA         000000000004              0002400000P                      00000000000000      00000000000000000000000         30530322617
D0002873842801104206300420115689470014450               01062024CUOTA         000000000004              0002400000P                      00000000000000      00000000000000000000000         30530322617
D0002320005300701217300048910081820014454               01062024CUOTA         000000000004              0002400000P                      00000000000000      00000000000000000000000         30530322617
D0002739262704400349400001693111330014456               01062024CUOTA         000000000004              0002400000P                      00000000000000      00000000000000000000000         30530322617
D0002566586900701217300041626787400014477               01062024CUOTA         000000000004              0002400000P                      00000000000000      00000000000000000000000         30530322617
D0002903782801104992300499091875010014489               01062024CUOTA         000000000004              0002400000P                      00000000000000      00000000000000000000000         30530322617
D0003416779132100011300071680623930014631               01062024CUOTA         000000000004              0002400000P                      00000000000000      00000000000000000000000         30530322617
D0003277522728506612400951795184580014633               01062024CUOTA         000000000004              0002400000P                      00000000000000      00000000000000000000000         30530322617
D0003731306801104992300499076670010016657               01062024CUOTA         000000000004              0002300000P                      00000000000000      00000000000000000000000         30530322617
D0003071221101700718400000346550500016659               01062024CUOTA         000000000004              0002300000P                      00000000000000      00000000000000000000000         30530322617
D0002758153607201512880000372211040016665               01062024CUOTA         000000000004              0002400000P                      00000000000000      00000000000000000000000         30530322617
D0003416947438900837400052096809380016671               01062024CUOTA         000000000004              0002400000P                      00000000000000      00000000000000000000000         30530322617
D0003424067519101059551105010179850016674               01062024CUOTA         000000000004              0002400000P                      00000000000000      00000000000000000000000         30530322617
D0003044322632100011300071323676620016681               01062024CUOTA         000000000004              0002400000P                      00000000000000      00000000000000000000000         30530322617
D0002890044632100011300070955922000016682               01062024CUOTA         000000000004              0002300000P                      00000000000000      00000000000000000000000         30530322617
D0003035531201702592400000037481700016683               01062024CUOTA         000000000004              0002300000P                      00000000000000      00000000000000000000000         30530322617
D0002739198032100011300071014029810016686               01062024CUOTA         000000000004              0002300000P                      00000000000000      00000000000000000000000         30530322617
D0002971699401104992300499138943650016688               01062024CUOTA         000000000004              0002400000P                      00000000000000      00000000000000000000000         30530322617
D0003374890203402841082840244010070016693               01062024CUOTA         000000000004              0002300000P                      00000000000000      00000000000000000000000         30530322617
D0003220798307201512880000379632400016696               01062024CUOTA         000000000004              0002300000P                      00000000000000      00000000000000000000000         30530322617
D0002527679032100011300070455353210016703               01062024CUOTA         000000000004              0001920000P                      00000000000000      00000000000000000000000         30530322617
D0003037296832100011300071990013090016709               01062024CUOTA         000000000004              0001840000P                      00000000000000      00000000000000000000000         30530322617
D0002989415807201512880000382872680016710               01062024CUOTA         000000000004              0002300000P                      00000000000000      00000000000000000000000         30530322617
D0003574126207201512880000399655720016711               01062024CUOTA         000000000004              0002300000P                      00000000000000      00000000000000000000000         30530322617
D0003591796601104992300499194728510016721               01062024CUOTA         000000000004              0001840000P                      00000000000000      00000000000000000000000         30530322617
D0003130525307201512880000372950040016722               01062024CUOTA         000000000004              0002300000P                      00000000000000      00000000000000000000000         30530322617
D0003198896807203648880000365553540017723               01062024CUOTA         000000000004              0001840000P                      00000000000000      00000000000000000000000         30530322617
D0003172929407201512880000376454720017725               01062024CUOTA         000000000004              0002400000P                      00000000000000      00000000000000000000000         30530322617
D0003329297207201512880000399685400017732               01062024CUOTA         000000000004              0001920000P                      00000000000000      00000000000000000000000         30530322617
D0002813914132100011300070504039030017737               01062024CUOTA         000000000004              0001920000P                      00000000000000      00000000000000000000000         30530322617
D0003388243100701217300041720570500017740               01062024CUOTA         000000000004              0002400000P                      00000000000000      00000000000000000000000         30530322617
D0003173966132100011300071804927490017741               01062024CUOTA         000000000004              0002400000P                      00000000000000      00000000000000000000000         30530322617
D0003440957600701217300041792695800017745               01062024CUOTA         000000000004              0002400000P                      00000000000000      00000000000000000000000         30530322617
D0003506647707201512880000375041400017747               01062024CUOTA         000000000004              0002400000P                      00000000000000      00000000000000000000000         30530322617
D0003351985332100011500033765743810018746               01062024CUOTA         000000000004              0002400000P                      00000000000000      00000000000000000000000         30530322617
D0003612171132100011300300206798260018747               01062024CUOTA         000000000004              0002400000P                      00000000000000      00000000000000000000000         30530322617
D0003126756632100011300079800010680018752               01062024CUOTA         000000000004              0002400000P                      00000000000000      00000000000000000000000         30530322617
D0003388750932100011300079835962000018811               01062024CUOTA         000000000004              0002400000P                      00000000000000      00000000000000000000000         30530322617
D0003491334832100011300079352025910018813               01062024CUOTA         000000000004              0002400000P                      00000000000000      00000000000000000000000         30530322617
D0002948678904400349400001602743830018818               01062024CUOTA         000000000004              0002400000P                      00000000000000      00000000000000000000000         30530322617
D0003440966303402841082840089530030018837               01062024CUOTA         000000000004              0002400000P                      00000000000000      00000000000000000000000         30530322617
D0003469545832100011300079751044860018839               01062024CUOTA         000000000004              0002400000P                      00000000000000      00000000000000000000000         30530322617
D0003740966400701217300041742973840018890               01062024CUOTA         000000000004              0002300000P                      00000000000000      00000000000000000000000         30530322617
D0003268852132100011300071423856780018937               01062024CUOTA         000000000004              0002400000P                      00000000000000      00000000000000000000000         30530322617
D0003499428501700718400000370965640018977               01062024CUOTA         000000000004              0002400000P                      00000000000000      00000000000000000000000         30530322617
D0003753079607201512880000022240860019010               01062024CUOTA         000000000004              0002400000P                      00000000000000      00000000000000000000000         30530322617
D0003130514000701217300041771272950020038               01062024CUOTA         000000000004              0002400000P                      00000000000000      00000000000000000000000         30530322617
D0002078723607201512880000365964360021078               01062024CUOTA         000000000004              0002400000P                      00000000000000      00000000000000000000000         30530322617
D0003427830432100011300079665389970021079               01062024CUOTA         000000000004              0002300000P                      00000000000000      00000000000000000000000         30530322617
D0002862972707201512880000372969220021091               01062024CUOTA         000000000004              0002300000P                      00000000000000      00000000000000000000000         30530322617
D0002559604402009029110000305562580021094               01062024CUOTA         000000000004              0002400000P                      00000000000000      00000000000000000000000         30530322617
D0002559604402009029110000305562580021095               01062024CUOTA         000000000004              0002400000P                      00000000000000      00000000000000000000000         30530322617
D0003574127732100011500028033569850021101               01062024CUOTA         000000000004              0002300000P                      00000000000000      00000000000000000000000         30530322617
D0003308856332100011300079877296840021117               01062024CUOTA         000000000004              0002400000P                      00000000000000      00000000000000000000000         30530322617
D0002341185032100011300070587419970021118               01062024CUOTA         000000000004              0001920000P                      00000000000000      00000000000000000000000         30530322617
D0002760894301700718400000333716780021120               01062024CUOTA         000000000004              0002400000P                      00000000000000      00000000000000000000000         30530322617
D0003268883532100011300071367689970021122               01062024CUOTA         000000000004              0002400000P                      00000000000000      00000000000000000000000         30530322617
D0003873522701104992300499188195650021124               01062024CUOTA         000000000004              0002300000P                      00000000000000      00000000000000000000000         30530322617
D0003206091107201512880000385029900021132               01062024CUOTA         000000000004              0002400000P                      00000000000000      00000000000000000000000         30530322617
D0003471150604400349400003562140830021136               01062024CUOTA         000000000004              0002400000P                      00000000000000      00000000000000000000000         30530322617
D0003612186707201512880000377379860021138               01062024CUOTA         000000000004              0002400000P                      00000000000000      00000000000000000000000         30530322617
D0003173960528506797400946385610080021146               01062024CUOTA         000000000004              0002400000P                      00000000000000      00000000000000000000000         30530322617
D0002722174832100011300071218435790021147               01062024CUOTA         000000000004              0002400000P                      00000000000000      00000000000000000000000         30530322617
D0002611616100701910300040149594850021150               01062024CUOTA         000000000004              0002400000P                      00000000000000      00000000000000000000000         30530322617
D0002867714732100011300070986058600021151               01062024CUOTA         000000000004              0002400000P                      00000000000000      00000000000000000000000         30530322617
D0003440969532100011300300369471390021156               01062024CUOTA         000000000004              0001920000P                      00000000000000      00000000000000000000000         30530322617
D0003268554603402117082110143970000021159               01062024CUOTA         000000000004              0002400000P                      00000000000000      00000000000000000000000         30530322617
D0003469332332100011300072006796400021165               01062024CUOTA         000000000004              0002400000P                      00000000000000      00000000000000000000000         30530322617
D0003233257804400233400003560980410021167               01062024CUOTA         000000000004              0002400000P                      00000000000000      00000000000000000000000         30530322617
D0003022115932102307500010154310040021169               01062024CUOTA         000000000004              0002400000P                      00000000000000      00000000000000000000000         30530322617
D0002890099519101059551105001697170021170               01062024CUOTA         000000000004              0002400000P                      00000000000000      00000000000000000000000         30530322617
D0003708600600700764300040880582190021173               01062024CUOTA         000000000004              0002400000P                      00000000000000      00000000000000000000000         30530322617
D0003351973032100011500030683183470021174               01062024CUOTA         000000000004              0002400000P                      00000000000000      00000000000000000000000         30530322617
D0002722273732100011300079248081170021234               01062024CUOTA         000000000004              0002400000P                      00000000000000      00000000000000000000000         30530322617
D0003039272932100011300071223586780021235               01062024CUOTA         000000000004              0002400000P                      00000000000000      00000000000000000000000         30530322617
D0003131196419101059551105006556030021276               01062024CUOTA         000000000004              0002400000P                      00000000000000      00000000000000000000000         30530322617
D0003285969332100011300071956302440021281               01062024CUOTA         000000000004              0002400000P                      00000000000000      00000000000000000000000         30530322617
D0003031651500701217300041867725670021287               01062024CUOTA         000000000004              0002400000P                      00000000000000      00000000000000000000000         30530322617
D0003612162007200007880000404202040021288               01062024CUOTA         000000000004              0002300000P                      00000000000000      00000000000000000000000         30530322617
D0003050747032100011300070477030960021291               01062024CUOTA         000000000004              0002300000P                      00000000000000      00000000000000000000000         30530322617
D0003591716232100011300071353483870021292               01062024CUOTA         000000000004              0002300000P                      00000000000000      00000000000000000000000         30530322617
D0003351950832100011300071937822440021296               01062024CUOTA         000000000004              0002300000P                      00000000000000      00000000000000000000000         30530322617
D0003292808900701965300040166847180021297               01062024CUOTA         000000000004              0002300000P                      00000000000000      00000000000000000000000         30530322617
D0003604525032100011300080311359250021298               01062024CUOTA         000000000004              0002300000P                      00000000000000      00000000000000000000000         30530322617
D0003073893432100011300071396020300021299               01062024CUOTA         000000000004              0002300000P                      00000000000000      00000000000000000000000         30530322617
D0003440985407201512880000388017900021302               01062024CUOTA         000000000004              0002300000P                      00000000000000      00000000000000000000000         30530322617
D0003574394832100011300079747212220021306               01062024CUOTA         000000000004              0002300000P                      00000000000000      00000000000000000000000         30530322617
D0002996746332100011300079350646120021310               01062024CUOTA         000000000004              0002300000P                      00000000000000      00000000000000000000000         30530322617
D0003574109000701217300041929569950021311               01062024CUOTA         000000000004              0002300000P                      00000000000000      00000000000000000000000         30530322617
D0003129621832100011300071329382440021312               01062024CUOTA         000000000004              0002300000P                      00000000000000      00000000000000000000000         30530322617
D0003024138332100011300071389228980021323               01062024CUOTA         000000000004              0002300000P                      00000000000000      00000000000000000000000         30530322617
D0003369321100701217300041942654800021335               01062024CUOTA         000000000004              0002300000P                      00000000000000      00000000000000000000000         30530322617
D0003044338332100011300071265871730021338               01062024CUOTA         000000000004              0002300000P                      00000000000000      00000000000000000000000         30530322617
D0002873359332100011300080386888040021343               01062024CUOTA         000000000004              0002400000P                      00000000000000      00000000000000000000000         30530322617
D0002744810132100011500035434908920021362               01062024CUOTA         000000000004              0002300000P                      00000000000000      00000000000000000000000         30530322617
D0003263103501104992300499227810650021365               01062024CUOTA         000000000004              0002300000P                      00000000000000      00000000000000000000000         30530322617
D0003162131301104992300499023650470021392               01062024CUOTA         000000000004              0002300000P                      00000000000000      00000000000000000000000         30530322617
D0003374929332100011300071406737110021393               01062024CUOTA         000000000004              0002300000P                      00000000000000      00000000000000000000000         30530322617
D0002795899432100011300071298328980022401               01062024CUOTA         000000000004              0002400000P                      00000000000000      00000000000000000000000         30530322617
D0003958366628503798400955167680980022420               01062024CUOTA         000000000004              0002300000P                      00000000000000      00000000000000000000000         30530322617
D0001293529707203648880000350984900022441               01062024CUOTA         000000000004              0002400000P                      00000000000000      00000000000000000000000         30530322617
D0001293529707203648880000350984900022447               01062024CUOTA         000000000004              0002400000P                      00000000000000      00000000000000000000000         30530322617
D0003424160700701217300041710648000022480               01062024CUOTA         000000000004              0002400000P                      00000000000000      00000000000000000000000         30530322617
D0003263103501104992300499227810650022482               01062024CUOTA         000000000004              0002400000P                      00000000000000      00000000000000000000000         30530322617
D0002944447832100011300080015627990022491               01062024CUOTA         000000000004              0002400000P                      00000000000000      00000000000000000000000         30530322617
D0003247640332100011300079847721170023555               01062024CUOTA         000000000004              0002400000P                      00000000000000      00000000000000000000000         30530322617
T0000491000001145600000                                                                                                                                                                                 
