H30530322617CUOTA     02023022024            A C HNOS MISERIC                                                                                                                                           
D0002511441328506797400951955215880006765               05032024CUOTA         000000000001              0001700000P                      00000000000000      00000000000000000000000         30530322617
D0002486823932100011300070990641670006774               05032024CUOTA         000000000001              0001700000P                      00000000000000      00000000000000000000000         30530322617
D0001830054107201512880000220288680006815               05032024CUOTA         000000000001              0001700000P                      00000000000000      00000000000000000000000         30530322617
D0002224289901104992300499099774830007267               05032024CUOTA         000000000001              0001700000P                      00000000000000      00000000000000000000000         30530322617
D0002914275832100011500022670528360007270               05032024CUOTA         000000000001              0001360000P                      00000000000000      00000000000000000000000         30530322617
D0002516861707201512880000021664540007275               05032024CUOTA         000000000001              0001700000P                      00000000000000      00000000000000000000000         30530322617
D0002825384007201512880000390395540007290               05032024CUOTA         000000000001              0001360000P                      00000000000000      00000000000000000000000         30530322617
D0002645991132100011300070235017110007344               05032024CUOTA         000000000001              0001700000P                      00000000000000      00000000000000000000000         30530322617
D0002804876832100011300070620587770007799               05032024CUOTA         000000000001              0001700000P                      00000000000000      00000000000000000000000         30530322617
D0002560114301700718400000346320280007806               05032024CUOTA         000000000001              0001700000P                      00000000000000      00000000000000000000000         30530322617
D0002739013807201512880000369738220007808               05032024CUOTA         000000000001              0001700000P                      00000000000000      00000000000000000000000         30530322617
D0002566570432100011300071395620460007822               05032024CUOTA         000000000001              0001700000P                      00000000000000      00000000000000000000000         30530322617
D0002138190901702257400000309754390007845               05032024CUOTA         000000000001              0001700000P                      00000000000000      00000000000000000000000         30530322617
D0002616178103402841082840230130070007903               05032024CUOTA         000000000001              0001700000P                      00000000000000      00000000000000000000000         30530322617
D0002347384607203648880000351433360007904               05032024CUOTA         000000000001              0001700000P                      00000000000000      00000000000000000000000         30530322617
D0003071204532100011300070839850520007920               05032024CUOTA         000000000001              0001700000P                      00000000000000      00000000000000000000000         30530322617
D0002341057407201512880000404078900007958               05032024CUOTA         000000000001              0001700000P                      00000000000000      00000000000000000000000         30530322617
D0002232974307203648880000358545680007968               05032024CUOTA         000000000001              0001700000P                      00000000000000      00000000000000000000000         30530322617
D0001859995300701217300041558463500007974               05032024CUOTA         000000000001              0001700000P                      00000000000000      00000000000000000000000         30530322617
D0002526789507201512880000021732720007976               05032024CUOTA         000000000001              0001700000P                      00000000000000      00000000000000000000000         30530322617
D0002196813207201512880000021526040007977               05032024CUOTA         000000000001              0001360000P                      00000000000000      00000000000000000000000         30530322617
D0002421656932100011300070446134200007994               05032024CUOTA         000000000001              0001700000P                      00000000000000      00000000000000000000000         30530322617
D0003765124932100011300079396667770008314               05032024CUOTA         000000000001              0001700000P                      00000000000000      00000000000000000000000         30530322617
D0002695492807203648880000357646540008315               05032024CUOTA         000000000001              0001700000P                      00000000000000      00000000000000000000000         30530322617
D0002981428632100011500028612531490008316               05032024CUOTA         000000000001              0001700000P                      00000000000000      00000000000000000000000         30530322617
D0002261791900701217300041868101660008330               05032024CUOTA         000000000001              0001700000P                      00000000000000      00000000000000000000000         30530322617
D0002636884801700718200000304676640008331               05032024CUOTA         000000000001              0001700000P                      00000000000000      00000000000000000000000         30530322617
D0001815743732100011300070203201390008353               05032024CUOTA         000000000001              0001700000P                      00000000000000      00000000000000000000000         30530322617
D0001854371732100011300070624146560008356               05032024CUOTA         000000000001              0001700000P                      00000000000000      00000000000000000000000         30530322617
D0003323480732100011300071265214140008374               05032024CUOTA         000000000001              0001700000P                      00000000000000      00000000000000000000000         30530322617
D0002304269307201512880000377406720008386               05032024CUOTA         000000000001              0001700000P                      00000000000000      00000000000000000000000         30530322617
D0002224264301508404010001060581660008396               05032024CUOTA         000000000001              0001700000P                      00000000000000      00000000000000000000000         30530322617
D0002644700401700718400000360545960008398               05032024CUOTA         000000000001              0001700000P                      00000000000000      00000000000000000000000         30530322617
D0002914288632100011500029472575390008402               05032024CUOTA         000000000001              0001700000P                      00000000000000      00000000000000000000000         30530322617
D0003044322632100011300071323676620008455               05032024CUOTA         000000000001              0001700000P                      00000000000000      00000000000000000000000         30530322617
D0002542901532100011300071178021390008472               05032024CUOTA         000000000001              0001700000P                      00000000000000      00000000000000000000000         30530322617
D0002397606000701217300041614460210008491               05032024CUOTA         000000000001              0001700000P                      00000000000000      00000000000000000000000         30530322617
D0002232974307203648880000358545680008502               05032024CUOTA         000000000001              0001700000P                      00000000000000      00000000000000000000000         30530322617
D0002410185832100011300070207956340008508               05032024CUOTA         000000000001              0001700000P                      00000000000000      00000000000000000000000         30530322617
D0001854371732100011300070624146560008514               05032024CUOTA         000000000001              0001700000P                      00000000000000      00000000000000000000000         30530322617
D0002824606632100011300079832973870008516               05032024CUOTA         000000000001              0001700000P                      00000000000000      00000000000000000000000         30530322617
D0003329297232100011500030352100120008521               05032024CUOTA         000000000001              0001360000P                      00000000000000      00000000000000000000000         30530322617
D0002335311901104992300499110228010008670               05032024CUOTA         000000000001              0001700000P                      00000000000000      00000000000000000000000         30530322617
D0002825384007201512880000390395540008844               05032024CUOTA         000000000001              0001360000P                      00000000000000      00000000000000000000000         30530322617
D0003591796507201512880000378484680008860               05032024CUOTA         000000000001              0001700000P                      00000000000000      00000000000000000000000         30530322617
D0002397632101700718400000005224140008865               05032024CUOTA         000000000001              0001700000P                      00000000000000      00000000000000000000000         30530322617
D0003329297232100011500030352100120008870               05032024CUOTA         000000000001              0001360000P                      00000000000000      00000000000000000000000         30530322617
D0002739045507201512880000017407540008883               05032024CUOTA         000000000001              0001700000P                      00000000000000      00000000000000000000000         30530322617
D0002804876832100011300070620587770008906               05032024CUOTA         000000000001              0001700000P                      00000000000000      00000000000000000000000         30530322617
D0002630470032100011300070288300520008909               05032024CUOTA         000000000001              0001700000P                      00000000000000      00000000000000000000000         30530322617
D0002887623432100011300070496088320008910               05032024CUOTA         000000000001              0001700000P                      00000000000000      00000000000000000000000         30530322617
D0002427748207201512880000365475400008915               05032024CUOTA         000000000001              0001700000P                      00000000000000      00000000000000000000000         30530322617
D0002887081332100011300070614227990008931               05032024CUOTA         000000000001              0001700000P                      00000000000000      00000000000000000000000         30530322617
D0003189723907200250880000376639040008939               05032024CUOTA         000000000001              0001700000P                      00000000000000      00000000000000000000000         30530322617
D0002903782801104992300499091875010008962               05032024CUOTA         000000000001              0001700000P                      00000000000000      00000000000000000000000         30530322617
D0002527679032100011300070455353210008964               05032024CUOTA         000000000001              0001700000P                      00000000000000      00000000000000000000000         30530322617
D0002677468032100011500030207530120008973               05032024CUOTA         000000000001              0001360000P                      00000000000000      00000000000000000000000         30530322617
D0002341185032100011300070587419970008987               05032024CUOTA         000000000001              0001360000P                      00000000000000      00000000000000000000000         30530322617
D0002196813207201512880000021526040009005               05032024CUOTA         000000000001              0001360000P                      00000000000000      00000000000000000000000         30530322617
D0002341057407201512880000404078900009010               05032024CUOTA         000000000001              0001700000P                      00000000000000      00000000000000000000000         30530322617
D0003130525307201512880000372950040009024               05032024CUOTA         000000000001              0001700000P                      00000000000000      00000000000000000000000         30530322617
D0002056473801700718400000006767460009026               05032024CUOTA         000000000001              0001700000P                      00000000000000      00000000000000000000000         30530322617
D0002559669707201512880000021688180009027               05032024CUOTA         000000000001              0001700000P                      00000000000000      00000000000000000000000         30530322617
D0002090009401702257400000302978890009035               05032024CUOTA         000000000001              0001700000P                      00000000000000      00000000000000000000000         30530322617
D0000593775932100011500020620813030009039               05032024CUOTA         000000000001              0001700000P                      00000000000000      00000000000000000000000         30530322617
D0002570954532100011300070494569810009841               05032024CUOTA         000000000001              0001700000P                      00000000000000      00000000000000000000000         30530322617
D0002604044001700718400000381399140009842               05032024CUOTA         000000000001              0001700000P                      00000000000000      00000000000000000000000         30530322617
D0002914288632100011500029472575390009855               05032024CUOTA         000000000001              0001700000P                      00000000000000      00000000000000000000000         30530322617
D0002739013807201512880000369738220009856               05032024CUOTA         000000000001              0001700000P                      00000000000000      00000000000000000000000         30530322617
D0002716914603402841082840054560000009857               05032024CUOTA         000000000001              0001700000P                      00000000000000      00000000000000000000000         30530322617
D0002844491807203648880000363185220009887               05032024CUOTA         000000000001              0001700000P                      00000000000000      00000000000000000000000         30530322617
D0002844459532100011300070507826400009894               05032024CUOTA         000000000001              0001700000P                      00000000000000      00000000000000000000000         30530322617
D0003231526319101059551105011172030009918               05032024CUOTA         000000000001              0001700000P                      00000000000000      00000000000000000000000         30530322617
D0002182613732100011500036091706940009925               05032024CUOTA         000000000001              0001700000P                      00000000000000      00000000000000000000000         30530322617
D0002783471928506797400949066073480009968               05032024CUOTA         000000000001              0001700000P                      00000000000000      00000000000000000000000         30530322617
D0002179172032100011300070441327830009976               05032024CUOTA         000000000001              0001700000P                      00000000000000      00000000000000000000000         30530322617
D0002760807801104992300499992833290009985               05032024CUOTA         000000000001              0001700000P                      00000000000000      00000000000000000000000         30530322617
D0003308933432100011300079981999190010015               05032024CUOTA         000000000001              0001700000P                      00000000000000      00000000000000000000000         30530322617
D0002872472832100011300080043356060010028               05032024CUOTA         000000000001              0001700000P                      00000000000000      00000000000000000000000         30530322617
D0003044306632102307500008995332680010034               05032024CUOTA         000000000001              0001700000P                      00000000000000      00000000000000000000000         30530322617
D0002965329132100011300070477040680010035               05032024CUOTA         000000000001              0001700000P                      00000000000000      00000000000000000000000         30530322617
D0002677468032100011500030207530120010044               05032024CUOTA         000000000001              0001360000P                      00000000000000      00000000000000000000000         30530322617
D0003374916507201512880000037994400010050               05032024CUOTA         000000000001              0001700000P                      00000000000000      00000000000000000000000         30530322617
D0002914275832100011500022670528360010332               05032024CUOTA         000000000001              0001360000P                      00000000000000      00000000000000000000000         30530322617
D0002630470032100011300070288300520010456               05032024CUOTA         000000000001              0001700000P                      00000000000000      00000000000000000000000         30530322617
D0002224264301508404010001060581660010460               05032024CUOTA         000000000001              0001700000P                      00000000000000      00000000000000000000000         30530322617
D0002516861707201512880000021664540010461               05032024CUOTA         000000000001              0001700000P                      00000000000000      00000000000000000000000         30530322617
D0005071492207201512880000021746400010463               05032024CUOTA         000000000001              0001700000P                      00000000000000      00000000000000000000000         30530322617
D0002994937901104992300499093230330010473               05032024CUOTA         000000000001              0001700000P                      00000000000000      00000000000000000000000         30530322617
D0001475411132100011500026813050280010474               05032024CUOTA         000000000001              0001700000P                      00000000000000      00000000000000000000000         30530322617
D0003416947438900837400052096809380010478               05032024CUOTA         000000000001              0001700000P                      00000000000000      00000000000000000000000         30530322617
D0002759845404400349400002166326330010486               05032024CUOTA         000000000001              0001700000P                      00000000000000      00000000000000000000000         30530322617
D0002550106932100011300070555172500010526               05032024CUOTA         000000000001              0001700000P                      00000000000000      00000000000000000000000         30530322617
D0002527679032100011300070455353210010539               05032024CUOTA         000000000001              0001700000P                      00000000000000      00000000000000000000000         30530322617
D0003130525307201512880000372950040010550               05032024CUOTA         000000000001              0001700000P                      00000000000000      00000000000000000000000         30530322617
D0002261829207201512880000220333900010553               05032024CUOTA         000000000001              0001700000P                      00000000000000      00000000000000000000000         30530322617
D0002341136332100011300070406366780010558               05032024CUOTA         000000000001              0001700000P                      00000000000000      00000000000000000000000         30530322617
D0002421656932100011300070446134200010559               05032024CUOTA         000000000001              0001700000P                      00000000000000      00000000000000000000000         30530322617
D0002662943107201512880000365442680010570               05032024CUOTA         000000000001              0001700000P                      00000000000000      00000000000000000000000         30530322617
D0002163125407201512880000221156360010571               05032024CUOTA         000000000001              0001700000P                      00000000000000      00000000000000000000000         30530322617
D0002095990432100011300070556071950010586               05032024CUOTA         000000000001              0001700000P                      00000000000000      00000000000000000000000         30530322617
D0002616115532100011300071099158100010597               05032024CUOTA         000000000001              0001700000P                      00000000000000      00000000000000000000000         30530322617
D0002397632101700718400000005224140010600               05032024CUOTA         000000000001              0001700000P                      00000000000000      00000000000000000000000         30530322617
D0002511441328506797400951955215880010603               05032024CUOTA         000000000001              0001700000P                      00000000000000      00000000000000000000000         30530322617
D0002677468032100011500030207530120010631               05032024CUOTA         000000000001              0001360000P                      00000000000000      00000000000000000000000         30530322617
D0002566570432100011300071395620460010633               05032024CUOTA         000000000001              0001700000P                      00000000000000      00000000000000000000000         30530322617
D0003129616704400349400002488062130010672               05032024CUOTA         000000000001              0001700000P                      00000000000000      00000000000000000000000         30530322617
D0002759845404400349400002166326330010928               05032024CUOTA         000000000001              0001700000P                      00000000000000      00000000000000000000000         30530322617
D0002813949219101059550105533768280010963               05032024CUOTA         000000000001              0001700000P                      00000000000000      00000000000000000000000         30530322617
D0002813949219101059550105533768280011054               05032024CUOTA         000000000001              0001700000P                      00000000000000      00000000000000000000000         30530322617
D0003440969532100011300300369471390011096               05032024CUOTA         000000000001              0001360000P                      00000000000000      00000000000000000000000         30530322617
D0001826003832100011300070325994420011098               05032024CUOTA         000000000001              0001700000P                      00000000000000      00000000000000000000000         30530322617
D0002419817001700718400000372602460011114               05032024CUOTA         000000000001              0001700000P                      00000000000000      00000000000000000000000         30530322617
D0002341185032100011300070587419970011123               05032024CUOTA         000000000001              0001360000P                      00000000000000      00000000000000000000000         30530322617
D0002906003203402841082840160630060011131               05032024CUOTA         000000000001              0001700000P                      00000000000000      00000000000000000000000         30530322617
D0003071221101700718400000346550500011132               05032024CUOTA         000000000001              0001700000P                      00000000000000      00000000000000000000000         30530322617
D0003213241532100011500023217200840011139               05032024CUOTA         000000000001              0001360000P                      00000000000000      00000000000000000000000         30530322617
D0002311785504400349400001404378430011157               05032024CUOTA         000000000001              0001700000P                      00000000000000      00000000000000000000000         30530322617
D0002138190901702257400000309754390011160               05032024CUOTA         000000000001              0001700000P                      00000000000000      00000000000000000000000         30530322617
D0002989415807201512880000382872680011161               05032024CUOTA         000000000001              0001700000P                      00000000000000      00000000000000000000000         30530322617
D0003189723907200250880000376639040011180               05032024CUOTA         000000000001              0001700000P                      00000000000000      00000000000000000000000         30530322617
D0002872472832100011300080043356060011200               05032024CUOTA         000000000001              0001700000P                      00000000000000      00000000000000000000000         30530322617
D0002550196307201512880000020408220011287               05032024CUOTA         000000000001              0001700000P                      00000000000000      00000000000000000000000         30530322617
D0003044306632102307500008995332680011311               05032024CUOTA         000000000001              0001700000P                      00000000000000      00000000000000000000000         30530322617
D0002584425632100011300079815764080011453               05032024CUOTA         000000000001              0001700000P                      00000000000000      00000000000000000000000         30530322617
D0002739338132100011300070954323370011542               05032024CUOTA         000000000001              0001700000P                      00000000000000      00000000000000000000000         30530322617
D0003574127732100011500028033569850011612               05032024CUOTA         000000000001              0001700000P                      00000000000000      00000000000000000000000         30530322617
D0002486823932100011300070990641670011621               05032024CUOTA         000000000001              0001700000P                      00000000000000      00000000000000000000000         30530322617
D0002824606632100011300079832973870011622               05032024CUOTA         000000000001              0001700000P                      00000000000000      00000000000000000000000         30530322617
D0002657657200701217300041504711020011626               05032024CUOTA         000000000001              0001700000P                      00000000000000      00000000000000000000000         30530322617
D0002971998532100011300070595520020011632               05032024CUOTA         000000000001              0001700000P                      00000000000000      00000000000000000000000         30530322617
D0003292831832100011300071323776560011671               05032024CUOTA         000000000001              0001700000P                      00000000000000      00000000000000000000000         30530322617
D0002760894301700718400000333716780011677               05032024CUOTA         000000000001              0001700000P                      00000000000000      00000000000000000000000         30530322617
D0002989431332100011300071278839970011705               05032024CUOTA         000000000001              0001700000P                      00000000000000      00000000000000000000000         30530322617
D0003505224032100011300071991131670011706               05032024CUOTA         000000000001              0001700000P                      00000000000000      00000000000000000000000         30530322617
D0004028548232100011300300377433090011710               05032024CUOTA         000000000001              0001700000P                      00000000000000      00000000000000000000000         30530322617
D0003205417532102307500009969422680011720               05032024CUOTA         000000000001              0001700000P                      00000000000000      00000000000000000000000         30530322617
D0002196813207201512880000021526040011727               05032024CUOTA         000000000001              0001360000P                      00000000000000      00000000000000000000000         30530322617
D0002760807801104992300499992833290011756               05032024CUOTA         000000000001              0001700000P                      00000000000000      00000000000000000000000         30530322617
D0002224289901104992300499099774830011761               05032024CUOTA         000000000001              0001700000P                      00000000000000      00000000000000000000000         30530322617
D0003129739832100011300071804337770011762               05032024CUOTA         000000000001              0001700000P                      00000000000000      00000000000000000000000         30530322617
D0003213241532100011500023217200840011764               05032024CUOTA         000000000001              0001360000P                      00000000000000      00000000000000000000000         30530322617
D0003323480732100011300071265214140011774               05032024CUOTA         000000000001              0001700000P                      00000000000000      00000000000000000000000         30530322617
D0002616115532100011300071099158100011803               05032024CUOTA         000000000001              0001700000P                      00000000000000      00000000000000000000000         30530322617
D0002739338132100011300070954323370011828               05032024CUOTA         000000000001              0001700000P                      00000000000000      00000000000000000000000         30530322617
D0003031809432100011300071363144420011899               05032024CUOTA         000000000001              0001700000P                      00000000000000      00000000000000000000000         30530322617
D0002290250132100011300079229143370011900               05032024CUOTA         000000000001              0001700000P                      00000000000000      00000000000000000000000         30530322617
D0002434677707203648880000357830040011967               05032024CUOTA         000000000001              0001700000P                      00000000000000      00000000000000000000000         30530322617
D0003031657532100011300079789146400012143               05032024CUOTA         000000000001              0001700000P                      00000000000000      00000000000000000000000         30530322617
D0003037296832100011300071990013090012144               05032024CUOTA         000000000001              0001360000P                      00000000000000      00000000000000000000000         30530322617
D0003130554207201512880000378995720012152               05032024CUOTA         000000000001              0001700000P                      00000000000000      00000000000000000000000         30530322617
D0002971699401104992300499138943650012168               05032024CUOTA         000000000001              0001700000P                      00000000000000      00000000000000000000000         30530322617
D0001677204232100011300070224557050012199               05032024CUOTA         000000000001              0001700000P                      00000000000000      00000000000000000000000         30530322617
D0003427830432100011300079665389970012200               05032024CUOTA         000000000001              0001700000P                      00000000000000      00000000000000000000000         30530322617
D0002056483332100011300071432347330012204               05032024CUOTA         000000000001              0001700000P                      00000000000000      00000000000000000000000         30530322617
D0002914275832100011500022670528360012206               05032024CUOTA         000000000001              0001360000P                      00000000000000      00000000000000000000000         30530322617
D0002543815707203648880000354421360012217               05032024CUOTA         000000000001              0001700000P                      00000000000000      00000000000000000000000         30530322617
D0002971998532100011300070595520020012222               05032024CUOTA         000000000001              0001700000P                      00000000000000      00000000000000000000000         30530322617
D0002874422007201512880000388020900012262               05032024CUOTA         000000000001              0001700000P                      00000000000000      00000000000000000000000         30530322617
D0003082410632100011300079762262440012288               05032024CUOTA         000000000001              0001700000P                      00000000000000      00000000000000000000000         30530322617
D0002867717132100011300071390124420012289               05032024CUOTA         000000000001              0001700000P                      00000000000000      00000000000000000000000         30530322617
D0002813987832100011300071427193430012299               05032024CUOTA         000000000001              0001700000P                      00000000000000      00000000000000000000000         30530322617
D0003182538432100011300071427254580012302               05032024CUOTA         000000000001              0001700000P                      00000000000000      00000000000000000000000         30530322617
D0003731306801104992300499076670010012304               05032024CUOTA         000000000001              0001700000P                      00000000000000      00000000000000000000000         30530322617
D0002783471928506797400949066073480012325               05032024CUOTA         000000000001              0001700000P                      00000000000000      00000000000000000000000         30530322617
D0002434677707203648880000357830040012334               05032024CUOTA         000000000001              0001700000P                      00000000000000      00000000000000000000000         30530322617
D0002584425632100011300079815764080012337               05032024CUOTA         000000000001              0001700000P                      00000000000000      00000000000000000000000         30530322617
D0003071204532100011300070839850520012338               05032024CUOTA         000000000001              0001700000P                      00000000000000      00000000000000000000000         30530322617
D00033234849072015122880000384435180012422               05032024CUOTA         000000000001              0000500000P                      00000000000000      00000000000000000000000         30530322617
D0002581884332100011300070561264640012426               05032024CUOTA         000000000001              0001700000P                      00000000000000      00000000000000000000000         30530322617
D0002581884332100011300070561264640012427               05032024CUOTA         000000000001              0001700000P                      00000000000000      00000000000000000000000         30530322617
D0002758153607201512880000372211040012473               05032024CUOTA         000000000001              0001700000P                      00000000000000      00000000000000000000000         30530322617
D0003037296832100011300071990013090012628               05032024CUOTA         000000000001              0001360000P                      00000000000000      00000000000000000000000         30530322617
D0003266201232100011300071365204140012654               05032024CUOTA         000000000001              0001700000P                      00000000000000      00000000000000000000000         30530322617
D0002824563532100011300079665830960012660               05032024CUOTA         000000000001              0001700000P                      00000000000000      00000000000000000000000         30530322617
D0002677463432100011300071364263090012673               05032024CUOTA         000000000001              0001700000P                      00000000000000      00000000000000000000000         30530322617
D0002824563532100011300079665830960012683               05032024CUOTA         000000000001              0001700000P                      00000000000000      00000000000000000000000         30530322617
D0002844459532100011300070507826400012718               05032024CUOTA         000000000001              0001700000P                      00000000000000      00000000000000000000000         30530322617
D0002695492807203648880000357646540012727               05032024CUOTA         000000000001              0001700000P                      00000000000000      00000000000000000000000         30530322617
D0003329297232100011500030352100120012728               05032024CUOTA         000000000001              0001360000P                      00000000000000      00000000000000000000000         30530322617
D0001826003832100011300070325994420012741               05032024CUOTA         000000000001              0001700000P                      00000000000000      00000000000000000000000         30530322617
D0003173935032100011300071240068100012745               05032024CUOTA         000000000001              0001700000P                      00000000000000      00000000000000000000000         30530322617
D0003418250500701996300040458686060012748               05032024CUOTA         000000000001              0001700000P                      00000000000000      00000000000000000000000         30530322617
D0002867714732100011300070986058600012852               05032024CUOTA         000000000001              0001700000P                      00000000000000      00000000000000000000000         30530322617
D0002953367401700718400000350498500012885               05032024CUOTA         000000000001              0001700000P                      00000000000000      00000000000000000000000         30530322617
D0002825384007201512880000390395540012896               05032024CUOTA         000000000001              0001360000P                      00000000000000      00000000000000000000000         30530322617
D0001475411132100011500026813050280012897               05032024CUOTA         000000000001              0001700000P                      00000000000000      00000000000000000000000         30530322617
D0002722174832100011300071218435790012901               05032024CUOTA         000000000001              0001700000P                      00000000000000      00000000000000000000000         30530322617
D00028064623017007184000000382755000012914               05032024CUOTA         000000000001              0001700000P                      00000000000000      00000000000000000000000         30530322617
D0002890044632100011300070955922000013031               05032024CUOTA         000000000001              0001700000P                      00000000000000      00000000000000000000000         30530322617
D0003173935032100011300071240068100013108               05032024CUOTA         000000000001              0001700000P                      00000000000000      00000000000000000000000         30530322617
D0002813987832100011300071427193430013122               05032024CUOTA         000000000001              0001700000P                      00000000000000      00000000000000000000000         30530322617
D0003091759807201512880000374220400013124               05032024CUOTA         000000000001              0001700000P                      00000000000000      00000000000000000000000         30530322617
D0002550196307201512880000020408220013126               05032024CUOTA         000000000001              0001650000P                      00000000000000      00000000000000000000000         30530322617
D0003440969532100011300300369471390013128               05032024CUOTA         000000000001              0001360000P                      00000000000000      00000000000000000000000         30530322617
D0002662943107201512880000365442680013135               05032024CUOTA         000000000001              0001700000P                      00000000000000      00000000000000000000000         30530322617
D0002550106932100011300070555172500013139               05032024CUOTA         000000000001              0001700000P                      00000000000000      00000000000000000000000         30530322617
D0003174094701104992300499077515970014173               05032024CUOTA         000000000001              0001700000P                      00000000000000      00000000000000000000000         30530322617
D0002406333200701217300048929017180014180               05032024CUOTA         000000000001              0001700000P                      00000000000000      00000000000000000000000         30530322617
D0003505207732100011500035184615390014185               05032024CUOTA         000000000001              0001700000P                      00000000000000      00000000000000000000000         30530322617
D0003741101732100011300080255904080014189               05032024CUOTA         000000000001              0001700000P                      00000000000000      00000000000000000000000         30530322617
D0003031616701702257400000309614430014190               05032024CUOTA         000000000001              0001700000P                      00000000000000      00000000000000000000000         30530322617
D0003173960528506797400946385610080014201               05032024CUOTA         000000000001              0001700000P                      00000000000000      00000000000000000000000         30530322617
D0002513069107201659880000366736540014210               05032024CUOTA         000000000001              0001700000P                      00000000000000      00000000000000000000000         30530322617
D0003388222332100011500031173137210014232               05032024CUOTA         000000000001              0001700000P                      00000000000000      00000000000000000000000         30530322617
D0003213241532100011500023217200840014300               05032024CUOTA         000000000001              0001320000P                      00000000000000      00000000000000000000000         30530322617
D0003031657532100011300079789146400014302               05032024CUOTA         000000000001              0001650000P                      00000000000000      00000000000000000000000         30530322617
D0003416779132100011300071680623930014310               05032024CUOTA         000000000001              0001650000P                      00000000000000      00000000000000000000000         30530322617
D0003024128601700718400000321629500014337               05032024CUOTA         000000000001              0001700000P                      00000000000000      00000000000000000000000         30530322617
D0003131153332100011300079496509310014342               05032024CUOTA         000000000001              0001700000P                      00000000000000      00000000000000000000000         30530322617
D0002739198032100011300071014029810014364               05032024CUOTA         000000000001              0001700000P                      00000000000000      00000000000000000000000         30530322617
D0003130525307201512880000372950040014365               05032024CUOTA         000000000001              0001700000P                      00000000000000      00000000000000000000000         30530322617
D0002873842801104206300420115689470014450               05032024CUOTA         000000000001              0001700000P                      00000000000000      00000000000000000000000         30530322617
D0002320005300701217300048910081820014454               05032024CUOTA         000000000001              0001700000P                      00000000000000      00000000000000000000000         30530322617
D0002903782801104992300499091875010014489               05032024CUOTA         000000000001              0001700000P                      00000000000000      00000000000000000000000         30530322617
D0003416779132100011300071680623930014631               05032024CUOTA         000000000001              0001700000P                      00000000000000      00000000000000000000000         30530322617
D0003731306801104992300499076670010016657               05032024CUOTA         000000000001              0001650000P                      00000000000000      00000000000000000000000         30530322617
D0003071221101700718400000346550500016659               05032024CUOTA         000000000001              0001650000P                      00000000000000      00000000000000000000000         30530322617
D0002758153607201512880000372211040016665               05032024CUOTA         000000000001              0001700000P                      00000000000000      00000000000000000000000         30530322617
D0003416947438900837400052096809380016671               05032024CUOTA         000000000001              0001700000P                      00000000000000      00000000000000000000000         30530322617
D0003044322632100011300071323676620016681               05032024CUOTA         000000000001              0001700000P                      00000000000000      00000000000000000000000         30530322617
D0002890044632100011300070955922000016682               05032024CUOTA         000000000001              0001650000P                      00000000000000      00000000000000000000000         30530322617
D0002739198032100011300071014029810016686               05032024CUOTA         000000000001              0001650000P                      00000000000000      00000000000000000000000         30530322617
D0002971699401104992300499138943650016688               05032024CUOTA         000000000001              0001700000P                      00000000000000      00000000000000000000000         30530322617
D0003220798307201512880000379632400016696               05032024CUOTA         000000000001              0001650000P                      00000000000000      00000000000000000000000         30530322617
D0002527679032100011300070455353210016703               05032024CUOTA         000000000001              0001700000P                      00000000000000      00000000000000000000000         30530322617
D0003037296832100011300071990013090016709               05032024CUOTA         000000000001              0001320000P                      00000000000000      00000000000000000000000         30530322617
D0002989415807201512880000382872680016710               05032024CUOTA         000000000001              0001650000P                      00000000000000      00000000000000000000000         30530322617
D0003130525307201512880000372950040016722               05032024CUOTA         000000000001              0001650000P                      00000000000000      00000000000000000000000         30530322617
D0003329297232100011500030352100120017732               05032024CUOTA         000000000001              0001360000P                      00000000000000      00000000000000000000000         30530322617
D0003173966132100011300071804927490017741               05032024CUOTA         000000000001              0001700000P                      00000000000000      00000000000000000000000         30530322617
D0003440957600701217300041792695800017745               05032024CUOTA         000000000001              0001700000P                      00000000000000      00000000000000000000000         30530322617
D0003506647707201512880000375041400017747               05032024CUOTA         000000000001              0001700000P                      00000000000000      00000000000000000000000         30530322617
D0003351985332100011500033765743810018746               05032024CUOTA         000000000001              0001700000P                      00000000000000      00000000000000000000000         30530322617
D0003612171132100011300300206798260018747               05032024CUOTA         000000000001              0001700000P                      00000000000000      00000000000000000000000         30530322617
D0003388750932100011300079835962000018811               05032024CUOTA         000000000001              0001700000P                      00000000000000      00000000000000000000000         30530322617
D0003491334832100011300079352025910018813               05032024CUOTA         000000000001              0001700000P                      00000000000000      00000000000000000000000         30530322617
D0002948678904400349400001602743830018818               05032024CUOTA         000000000001              0001700000P                      00000000000000      00000000000000000000000         30530322617
D0003419570832100011300071396787830018843               05032024CUOTA         000000000001              0000500000P                      00000000000000      00000000000000000000000         30530322617
D0003268852132100011300071423856780018937               05032024CUOTA         000000000001              0001700000P                      00000000000000      00000000000000000000000         30530322617
D0003130514000701217300041771272950020038               05032024CUOTA         000000000001              0001700000P                      00000000000000      00000000000000000000000         30530322617
D0002078723607201512880000365964360021078               05032024CUOTA         000000000001              0001700000P                      00000000000000      00000000000000000000000         30530322617
D0003427830432100011300079665389970021079               05032024CUOTA         000000000001              0001650000P                      00000000000000      00000000000000000000000         30530322617
D0002862972707201512880000372969220021091               05032024CUOTA         000000000001              0001650000P                      00000000000000      00000000000000000000000         30530322617
D0003574127732100011500028033569850021101               05032024CUOTA         000000000001              0001650000P                      00000000000000      00000000000000000000000         30530322617
D0002341185032100011300070587419970021118               05032024CUOTA         000000000001              0001360000P                      00000000000000      00000000000000000000000         30530322617
D0002760894301700718400000333716780021120               05032024CUOTA         000000000001              0001700000P                      00000000000000      00000000000000000000000         30530322617
D0003873522701104992300499188195650021124               05032024CUOTA         000000000001              0001650000P                      00000000000000      00000000000000000000000         30530322617
D0003471150604400349400003562140830021136               05032024CUOTA         000000000001              0001700000P                      00000000000000      00000000000000000000000         30530322617
D0003612186707201512880000377379860021138               05032024CUOTA         000000000001              0001700000P                      00000000000000      00000000000000000000000         30530322617
D0003173960528506797400946385610080021146               05032024CUOTA         000000000001              0001700000P                      00000000000000      00000000000000000000000         30530322617
D0002722174832100011300071218435790021147               05032024CUOTA         000000000001              0001700000P                      00000000000000      00000000000000000000000         30530322617
D0002867714732100011300070986058600021151               05032024CUOTA         000000000001              0001700000P                      00000000000000      00000000000000000000000         30530322617
D0003440969532100011300300369471390021156               05032024CUOTA         000000000001              0001360000P                      00000000000000      00000000000000000000000         30530322617
D0003233257804400233400003560980410021167               05032024CUOTA         000000000001              0001700000P                      00000000000000      00000000000000000000000         30530322617
D0003708600600700764300040880582190021173               05032024CUOTA         000000000001              0001700000P                      00000000000000      00000000000000000000000         30530322617
D0002722273732100011300079248081170021234               05032024CUOTA         000000000001              0001700000P                      00000000000000      00000000000000000000000         30530322617
D0003039272932100011300071223586780021235               05032024CUOTA         000000000001              0001700000P                      00000000000000      00000000000000000000000         30530322617
D0003711909432100011500030469890620021246               05032024CUOTA         000000000001              0000500000P                      00000000000000      00000000000000000000000         30530322617
D0003131196419101059551105006556030021276               05032024CUOTA         000000000001              0001700000P                      00000000000000      00000000000000000000000         30530322617
D0003285969332100011300071956302440021281               05032024CUOTA         000000000001              0001700000P                      00000000000000      00000000000000000000000         30530322617
D0003050747032100011300070477030960021291               05032024CUOTA         000000000001              0001650000P                      00000000000000      00000000000000000000000         30530322617
D0003591716232100011300071353483870021292               05032024CUOTA         000000000001              0001650000P                      00000000000000      00000000000000000000000         30530322617
D0003351950832100011300071937822440021296               05032024CUOTA         000000000001              0001650000P                      00000000000000      00000000000000000000000         30530322617
D0003292808900701965300040166847180021297               05032024CUOTA         000000000001              0001650000P                      00000000000000      00000000000000000000000         30530322617
D0003604525032100011300080311359250021298               05032024CUOTA         000000000001              0001650000P                      00000000000000      00000000000000000000000         30530322617
D0003073893432100011300071396020300021299               05032024CUOTA         000000000001              0001650000P                      00000000000000      00000000000000000000000         30530322617
D0003440985407201512880000388017900021302               05032024CUOTA         000000000001              0001650000P                      00000000000000      00000000000000000000000         30530322617
D0003129621832100011300071329382440021312               05032024CUOTA         000000000001              0001650000P                      00000000000000      00000000000000000000000         30530322617
D0003369321100701217300041942654800021335               05032024CUOTA         000000000001              0001650000P                      00000000000000      00000000000000000000000         30530322617
D0003044338332100011300071265871730021338               05032024CUOTA         000000000001              0001650000P                      00000000000000      00000000000000000000000         30530322617
D0002873359332100011300080386888040021343               05032024CUOTA         000000000001              0001700000P                      00000000000000      00000000000000000000000         30530322617
D0002744810132100011500035434908920021362               05032024CUOTA         000000000001              0001650000P                      00000000000000      00000000000000000000000         30530322617
D0003263103501104992300499227810650021365               05032024CUOTA         000000000001              0001650000P                      00000000000000      00000000000000000000000         30530322617
D0003263103501104992300499227810650022482               05032024CUOTA         000000000001              0001700000P                      00000000000000      00000000000000000000000         30530322617
T0000275000000453000000                                                                                                                                                                                 
