H30530322617CUOTA     02014022024            A C HNOS MISERIC                                                                                                                                           
D0002304866100701217300041614460210008881               20022024CUOTA         000000000001              0000001700P                      00000000000000      00000000000000000000000         30530322617
D0002556158007201512880000111111110010481               20022024CUOTA         000000000001              0000001700P                      00000000000000      00000000000000000000000         30530322617
T0000002000000000003400                                                                                                                                                                                 
