H30530322617CUOTA     02013032024            A C HNOS MISERIC                                                                                                                                           
D0002616115532100011300071099158100007855               15032024CUOTA         000000000001              0001785000P                      00000000000000      00000000000000000000000         30530322617
D0002232974307203648880000358545680007968               15032024CUOTA         000000000001              0001785000P                      00000000000000      00000000000000000000000         30530322617
D0002981428632100011500028612531490008316               15032024CUOTA         000000000001              0001785000P                      00000000000000      00000000000000000000000         30530322617
D0001854371732100011300070624146560008356               15032024CUOTA         000000000001              0001785000P                      00000000000000      00000000000000000000000         30530322617
D0003035560732100011300070561064860008383               15032024CUOTA         000000000001              0001785000P                      00000000000000      00000000000000000000000         30530322617
D0002644700401700718400000360545960008398               15032024CUOTA         000000000001              0001785000P                      00000000000000      00000000000000000000000         30530322617
D0002542901532100011300071178021390008472               15032024CUOTA         000000000001              0001785000P                      00000000000000      00000000000000000000000         30530322617
D0002232974307203648880000358545680008502               15032024CUOTA         000000000001              0001785000P                      00000000000000      00000000000000000000000         30530322617
D0001854371732100011300070624146560008514               15032024CUOTA         000000000001              0001785000P                      00000000000000      00000000000000000000000         30530322617
D0002630470032100011300070288300520008909               15032024CUOTA         000000000001              0001785000P                      00000000000000      00000000000000000000000         30530322617
D0002182613732100011500036091706940009925               15032024CUOTA         000000000001              0001785000P                      00000000000000      00000000000000000000000         30530322617
D0003044306632102307500008995332680010034               15032024CUOTA         000000000001              0001785000P                      00000000000000      00000000000000000000000         30530322617
D0002677468032100011500030207530120010044               15032024CUOTA         000000000001              0001445000P                      00000000000000      00000000000000000000000         30530322617
D0002630470032100011300070288300520010456               15032024CUOTA         000000000001              0001785000P                      00000000000000      00000000000000000000000         30530322617
D0002677468032100011500030207530120010631               15032024CUOTA         000000000001              0001445000P                      00000000000000      00000000000000000000000         30530322617
D0002419817001700718400000372602460011114               15032024CUOTA         000000000001              0001785000P                      00000000000000      00000000000000000000000         30530322617
D0002906003203402841082840160630060011131               15032024CUOTA         000000000001              0001785000P                      00000000000000      00000000000000000000000         30530322617
D0002311785504400349400001404378430011157               15032024CUOTA         000000000001              0001785000P                      00000000000000      00000000000000000000000         30530322617
D0003044306632102307500008995332680011311               15032024CUOTA         000000000001              0001785000P                      00000000000000      00000000000000000000000         30530322617
D0003574127732100011500028033569850011612               15032024CUOTA         000000000001              0001785000P                      00000000000000      00000000000000000000000         30530322617
D0003292831832100011300071323776560011671               15032024CUOTA         000000000001              0001785000P                      00000000000000      00000000000000000000000         30530322617
D0003205417532102307500009969422680011720               15032024CUOTA         000000000001              0001785000P                      00000000000000      00000000000000000000000         30530322617
D0003731306801104992300499076670010012304               15032024CUOTA         000000000001              0001785000P                      00000000000000      00000000000000000000000         30530322617
D0002397606900701217300041614460210012515               15032024CUOTA         000000000001              0001445000P                      00000000000000      00000000000000000000000         30530322617
D0002824563532100011300079665830960012660               15032024CUOTA         000000000001              0001785000P                      00000000000000      00000000000000000000000         30530322617
D0002824563532100011300079665830960012683               15032024CUOTA         000000000001              0001785000P                      00000000000000      00000000000000000000000         30530322617
D0003731306801104992300499076670010016657               15032024CUOTA         000000000001              0001732500P                      00000000000000      00000000000000000000000         30530322617
D0003351985332100011500033765743810018746               15032024CUOTA         000000000001              0001785000P                      00000000000000      00000000000000000000000         30530322617
D0003126756632100011300079800010680018752               15032024CUOTA         000000000001              0001785000P                      00000000000000      00000000000000000000000         30530322617
D0003130514000701217300041771272950020038               15032024CUOTA         000000000001              0001785000P                      00000000000000      00000000000000000000000         30530322617
D0003574127732100011500028033569850021101               15032024CUOTA         000000000001              0001732500P                      00000000000000      00000000000000000000000         30530322617
D0003873522701104992300499188195650021124               15032024CUOTA         000000000001              0001732500P                      00000000000000      00000000000000000000000         30530322617
D0003039272932100011300071223586780021235               15032024CUOTA         000000000001              0001785000P                      00000000000000      00000000000000000000000         30530322617
D0003711909432100011500030469890620021246               15032024CUOTA         000000000001              0000500000P                      00000000000000      00000000000000000000000         30530322617
T0000034000000058227500                                                                                                                                                                                 
