H30530322617CUOTA     02011062024            A C HNOS MISERIC                                                                                                                                           
D0003024109804400349400002650408230006776               15062024CUOTA         000000000004              0002040000P                      00000000000000      00000000000000000000000         30530322617
D0001630907732100011300300172666060006819               15062024CUOTA         000000000004              0002520000P                      00000000000000      00000000000000000000000         30530322617
D0002677488432100011300071292042880007334               15062024CUOTA         000000000004              0002520000P                      00000000000000      00000000000000000000000         30530322617
D0002981428632100011500028612531490008316               15062024CUOTA         000000000004              0002520000P                      00000000000000      00000000000000000000000         30530322617
D0001854371732100011300070624146560008356               15062024CUOTA         000000000004              0002520000P                      00000000000000      00000000000000000000000         30530322617
D0003323480732100011300071265214140008374               15062024CUOTA         000000000004              0002520000P                      00000000000000      00000000000000000000000         30530322617
D0002677488432100011300071292042880008382               15062024CUOTA         000000000004              0002520000P                      00000000000000      00000000000000000000000         30530322617
D0002867490032100011300070591091230008392               15062024CUOTA         000000000004              0002040000P                      00000000000000      00000000000000000000000         30530322617
D0002542901532100011300071178021390008472               15062024CUOTA         000000000004              0002520000P                      00000000000000      00000000000000000000000         30530322617
D0001854371732100011300070624146560008514               15062024CUOTA         000000000004              0002520000P                      00000000000000      00000000000000000000000         30530322617
D0002630470032100011300070288300520008909               15062024CUOTA         000000000004              0002520000P                      00000000000000      00000000000000000000000         30530322617
D0003130525307201512880000372950040009024               15062024CUOTA         000000000004              0002520000P                      00000000000000      00000000000000000000000         30530322617
D0003130546804400349200002882848390009825               15062024CUOTA         000000000004              0002520000P                      00000000000000      00000000000000000000000         30530322617
D0003190506200701217300041673149820009843               15062024CUOTA         000000000004              0002520000P                      00000000000000      00000000000000000000000         30530322617
D0002783471928506797400949066073480009968               15062024CUOTA         000000000004              0002520000P                      00000000000000      00000000000000000000000         30530322617
D0003011847032100011300071037145290010024               15062024CUOTA         000000000004              0002520000P                      00000000000000      00000000000000000000000         30530322617
D0002739047501700718400000376672140010032               15062024CUOTA         000000000004              0002520000P                      00000000000000      00000000000000000000000         30530322617
D0003044306632102307500008995332680010034               15062024CUOTA         000000000004              0002520000P                      00000000000000      00000000000000000000000         30530322617
D0002965329132100011300070477040680010035               15062024CUOTA         000000000004              0002520000P                      00000000000000      00000000000000000000000         30530322617
D0002630470032100011300070288300520010456               15062024CUOTA         000000000004              0002520000P                      00000000000000      00000000000000000000000         30530322617
D0002550106932100011300070555172500010526               15062024CUOTA         000000000004              0002520000P                      00000000000000      00000000000000000000000         30530322617
D0002496777932100011300070276950740010527               15062024CUOTA         000000000004              0002520000P                      00000000000000      00000000000000000000000         30530322617
D0003130525307201512880000372950040010550               15062024CUOTA         000000000004              0002520000P                      00000000000000      00000000000000000000000         30530322617
D0002594604632100011500030239706720011088               15062024CUOTA         000000000004              0002520000P                      00000000000000      00000000000000000000000         30530322617
D0002419817001700718400000372602460011114               15062024CUOTA         000000000004              0002520000P                      00000000000000      00000000000000000000000         30530322617
D0002311785504400349400001404378430011157               15062024CUOTA         000000000004              0002520000P                      00000000000000      00000000000000000000000         30530322617
D0002739136632100011300070942893090011162               15062024CUOTA         000000000004              0002520000P                      00000000000000      00000000000000000000000         30530322617
D0002496771932100011300070061066340011267               15062024CUOTA         000000000004              0000500000P                      00000000000000      00000000000000000000000         30530322617
D0003044306632102307500008995332680011311               15062024CUOTA         000000000004              0002520000P                      00000000000000      00000000000000000000000         30530322617
D0003292831832100011300071323776560011671               15062024CUOTA         000000000004              0002520000P                      00000000000000      00000000000000000000000         30530322617
D0003323480732100011300071265214140011774               15062024CUOTA         000000000004              0002520000P                      00000000000000      00000000000000000000000         30530322617
D0003374890203402841082840244010070011791               15062024CUOTA         000000000004              0002520000P                      00000000000000      00000000000000000000000         30530322617
D0003024109804400349400002650408230012240               15062024CUOTA         000000000004              0002040000P                      00000000000000      00000000000000000000000         30530322617
D0002783471928506797400949066073480012325               15062024CUOTA         000000000004              0002520000P                      00000000000000      00000000000000000000000         30530322617
D0003323484907201512880000384435180012422               15062024CUOTA         000000000004              0000500000P                      00000000000000      00000000000000000000000         30530322617
D0003011847032100011300071037145290012690               15062024CUOTA         000000000004              0002520000P                      00000000000000      00000000000000000000000         30530322617
D0003855815932100011500031383993190012765               15062024CUOTA         000000000004              0000500000P                      00000000000000      00000000000000000000000         30530322617
D0002550106932100011300070555172500013139               15062024CUOTA         000000000004              0002520000P                      00000000000000      00000000000000000000000         30530322617
D0003505207732100011500035184615390014185               15062024CUOTA         000000000004              0002520000P                      00000000000000      00000000000000000000000         30530322617
D0003388222332100011500031173137210014232               15062024CUOTA         000000000004              0002520000P                      00000000000000      00000000000000000000000         30530322617
D0003024109804400349400002650408230014305               15062024CUOTA         000000000004              0001960000P                      00000000000000      00000000000000000000000         30530322617
D0003035531201702592400000037481700014356               15062024CUOTA         000000000004              0002520000P                      00000000000000      00000000000000000000000         30530322617
D0003130525307201512880000372950040014365               15062024CUOTA         000000000004              0002520000P                      00000000000000      00000000000000000000000         30530322617
D0002654966432100011300070587938820014385               15062024CUOTA         000000000004              0000500000P                      00000000000000      00000000000000000000000         30530322617
D0002739262704400349400001693111330014456               15062024CUOTA         000000000004              0002520000P                      00000000000000      00000000000000000000000         30530322617
D0002566586900701217300041626787400014477               15062024CUOTA         000000000002              0002520000P                      00000000000000      00000000000000000000000         30530322617
D0003773693932100011500029368314300014498               15062024CUOTA         000000000004              0000500000P                      00000000000000      00000000000000000000000         30530322617
D0002437674101104992300499001401470014509               15062024CUOTA         000000000004              0000500000P                      00000000000000      00000000000000000000000         30530322617
D0003035531201702592400000037481700016683               15062024CUOTA         000000000004              0002420000P                      00000000000000      00000000000000000000000         30530322617
D0003374890203402841082840244010070016693               15062024CUOTA         000000000004              0002420000P                      00000000000000      00000000000000000000000         30530322617
D0003130525307201512880000372950040016722               15062024CUOTA         000000000004              0002420000P                      00000000000000      00000000000000000000000         30530322617
D0003419570832100011300071396787830018843               15062024CUOTA         000000000004              0000500000P                      00000000000000      00000000000000000000000         30530322617
D0003130514000701217300041771272950020038               15062024CUOTA         000000000004              0002520000P                      00000000000000      00000000000000000000000         30530322617
D0003574127732100011500028033569850021101               15062024CUOTA         000000000004              0002420000P                      00000000000000      00000000000000000000000         30530322617
D0003308856332100011300079877296840021117               15062024CUOTA         000000000004              0002520000P                      00000000000000      00000000000000000000000         30530322617
D0003471150604400349400003562140830021136               15062024CUOTA         000000000004              0002520000P                      00000000000000      00000000000000000000000         30530322617
D0003022115932102307500010154310040021169               15062024CUOTA         000000000004              0002520000P                      00000000000000      00000000000000000000000         30530322617
D0003039272932100011300071223586780021235               15062024CUOTA         000000000004              0002520000P                      00000000000000      00000000000000000000000         30530322617
D0003711909432100011500030469890620021246               15062024CUOTA         000000000004              0000500000P                      00000000000000      00000000000000000000000         30530322617
D0002533362432100011500020218368580021250               15062024CUOTA         000000000004              0000500000P                      00000000000000      00000000000000000000000         30530322617
D0003292808900701965300040166847180021297               15062024CUOTA         000000000004              0002420000P                      00000000000000      00000000000000000000000         30530322617
D0002744810132100011500035434908920021362               15062024CUOTA         000000000004              0002420000P                      00000000000000      00000000000000000000000         30530322617
D0003374929332100011300071406737110021393               15062024CUOTA         000000000004              0002420000P                      00000000000000      00000000000000000000000         30530322617
T0000063000000137880000                                                                                                                                                                                 
