H30530322617CUOTA     02012042024            A C HNOS MISERIC                                                                                                                                           
D0002745737332100011300079585778320006738               16042024CUOTA         000000000002              0001785000P                      00000000000000      00000000000000000000000         30530322617
D0002419819432100011300070598247610006962               16042024CUOTA         000000000002              0001785000P                      00000000000000      00000000000000000000000         30530322617
D0001854371732100011300070624146560008356               16042024CUOTA         000000000002              0001785000P                      00000000000000      00000000000000000000000         30530322617
D0003323480732100011300071265214140008374               16042024CUOTA         000000000002              0001785000P                      00000000000000      00000000000000000000000         30530322617
D0003035560732100011300070561064860008383               16042024CUOTA         000000000002              0001785000P                      00000000000000      00000000000000000000000         30530322617
D0002867490032100011300070591091230008392               16042024CUOTA         000000000002              0001445000P                      00000000000000      00000000000000000000000         30530322617
D0002542901532100011300071178021390008472               16042024CUOTA         000000000002              0001785000P                      00000000000000      00000000000000000000000         30530322617
D0001854371732100011300070624146560008514               16042024CUOTA         000000000002              0001785000P                      00000000000000      00000000000000000000000         30530322617
D0002630470032100011300070288300520008909               16042024CUOTA         000000000002              0001785000P                      00000000000000      00000000000000000000000         30530322617
D0002887081332100011300070614227990008931               16042024CUOTA         000000000002              0001785000P                      00000000000000      00000000000000000000000         30530322617
D0003130525307201512880000372950040009024               16042024CUOTA         000000000002              0001785000P                      00000000000000      00000000000000000000000         30530322617
D0003130546804400349200002882848390009825               16042024CUOTA         000000000002              0001785000P                      00000000000000      00000000000000000000000         30530322617
D0003190506200701217300041673149820009843               16042024CUOTA         000000000002              0001785000P                      00000000000000      00000000000000000000000         30530322617
D0002844459532100011300070507826400009894               16042024CUOTA         000000000002              0001785000P                      00000000000000      00000000000000000000000         30530322617
D0002182613732100011500036091706940009925               16042024CUOTA         000000000002              0001785000P                      00000000000000      00000000000000000000000         30530322617
D0002739047501700718400000376672140010032               16042024CUOTA         000000000002              0001785000P                      00000000000000      00000000000000000000000         30530322617
D0003044306632102307500008995332680010034               16042024CUOTA         000000000002              0001785000P                      00000000000000      00000000000000000000000         30530322617
D0002630470032100011300070288300520010456               16042024CUOTA         000000000002              0001785000P                      00000000000000      00000000000000000000000         30530322617
D0002550106932100011300070555172500010526               16042024CUOTA         000000000002              0001785000P                      00000000000000      00000000000000000000000         30530322617
D0002496777932100011300070276950740010527               16042024CUOTA         000000000002              0001785000P                      00000000000000      00000000000000000000000         30530322617
D0003130525307201512880000372950040010550               16042024CUOTA         000000000002              0001785000P                      00000000000000      00000000000000000000000         30530322617
D0002745737332100011300079585778320010595               16042024CUOTA         000000000002              0001785000P                      00000000000000      00000000000000000000000         30530322617
D0003129616704400349400002488062130010672               16042024CUOTA         000000000002              0001785000P                      00000000000000      00000000000000000000000         30530322617
D0002419817001700718400000372602460011114               16042024CUOTA         000000000002              0001785000P                      00000000000000      00000000000000000000000         30530322617
D0002311785504400349400001404378430011157               16042024CUOTA         000000000002              0001785000P                      00000000000000      00000000000000000000000         30530322617
D0002739136632100011300070942893090011162               16042024CUOTA         000000000002              0001785000P                      00000000000000      00000000000000000000000         30530322617
D0002496771932100011300070061066340011267               16042024CUOTA         000000000002              0000500000P                      00000000000000      00000000000000000000000         30530322617
D0003044306632102307500008995332680011311               16042024CUOTA         000000000002              0001785000P                      00000000000000      00000000000000000000000         30530322617
D0002496743532100011300070600399470011315               16042024CUOTA         000000000002              0001785000P                      00000000000000      00000000000000000000000         30530322617
D0003292831832100011300071323776560011671               16042024CUOTA         000000000002              0001785000P                      00000000000000      00000000000000000000000         30530322617
D0003323480732100011300071265214140011774               16042024CUOTA         000000000002              0001785000P                      00000000000000      00000000000000000000000         30530322617
D0022085145232133311300300291684080011812               16042024CUOTA         000000000002              0001785000P                      00000000000000      00000000000000000000000         30530322617
D0002056483332100011300071432347330012204               16042024CUOTA         000000000002              0001785000P                      00000000000000      00000000000000000000000         30530322617
D0002844459532100011300070507826400012718               16042024CUOTA         000000000002              0001785000P                      00000000000000      00000000000000000000000         30530322617
D0003309272507201512880000385072540012747               16042024CUOTA         000000000002              0001785000P                      00000000000000      00000000000000000000000         30530322617
D0003855815932100011500031383993190012765               16042024CUOTA         000000000002              0000500000P                      00000000000000      00000000000000000000000         30530322617
D0002550106932100011300070555172500013139               16042024CUOTA         000000000002              0001785000P                      00000000000000      00000000000000000000000         30530322617
D0003174094701104992300499077515970014173               16042024CUOTA         000000000002              0001785000P                      00000000000000      00000000000000000000000         30530322617
D0003062695501103111300311161830830014188               16042024CUOTA         000000000002              0001785000P                      00000000000000      00000000000000000000000         30530322617
D0001405433432100011500020918337370014200               16042024CUOTA         000000000002              0001785000P                      00000000000000      00000000000000000000000         30530322617
D0003388222332100011500031173137210014232               16042024CUOTA         000000000002              0001785000P                      00000000000000      00000000000000000000000         30530322617
D0003035531201702592400000037481700014356               16042024CUOTA         000000000002              0001785000P                      00000000000000      00000000000000000000000         30530322617
D0003130525307201512880000372950040014365               16042024CUOTA         000000000002              0001785000P                      00000000000000      00000000000000000000000         30530322617
D0003773693932100011500029368314300014498               16042024CUOTA         000000000002              0000500000P                      00000000000000      00000000000000000000000         30530322617
D0002890044632100011300070955922000016682               16042024CUOTA         000000000002              0001732500P                      00000000000000      00000000000000000000000         30530322617
D0003035531201702592400000037481700016683               16042024CUOTA         000000000002              0001732500P                      00000000000000      00000000000000000000000         30530322617
D0003130525307201512880000372950040016722               16042024CUOTA         000000000002              0001732500P                      00000000000000      00000000000000000000000         30530322617
D0003440966303402841082840089530030018837               16042024CUOTA         000000000002              0001785000P                      00000000000000      00000000000000000000000         30530322617
D0003308856332100011300079877296840021117               16042024CUOTA         000000000002              0001785000P                      00000000000000      00000000000000000000000         30530322617
D0003471150604400349400003562140830021136               16042024CUOTA         000000000002              0001785000P                      00000000000000      00000000000000000000000         30530322617
D0003708600600700764300040880582190021173               16042024CUOTA         000000000002              0001785000P                      00000000000000      00000000000000000000000         30530322617
D0003351973032100011500030683183470021174               16042024CUOTA         000000000002              0001785000P                      00000000000000      00000000000000000000000         30530322617
D0003039272932100011300071223586780021235               16042024CUOTA         000000000002              0001785000P                      00000000000000      00000000000000000000000         30530322617
D0003711909432100011500030469890620021246               16042024CUOTA         000000000002              0000500000P                      00000000000000      00000000000000000000000         30530322617
D0003612162007200007880000404202040021288               16042024CUOTA         000000000002              0001732500P                      00000000000000      00000000000000000000000         30530322617
D0003374929332100011300071406737110021393               16042024CUOTA         000000000002              0001732500P                      00000000000000      00000000000000000000000         30530322617
T0000056000000094217500                                                                                                                                                                                 
