H30530322617CUOTA     00018032024
D0003130514000701217300041771272950020038               15032024CUOTA         000313051401              0001785000P                                    R10   0000000000000001503202400000VTO130530322617
D0002311785504400349400001404378430011157               15032024CUOTA         000231178551              0001785000P                                    R10   0000000000000001503202400000VTO130530322617
D0002419817001700718400000372602460011114               15032024CUOTA         000241981701              0001785000P                                    R10   0000000000000001503202400000VTO130530322617
D0003035560732100011300070561064860008383               15032024CUOTA         000303556071              0001785000P                                    R10   0000000000000001503202400000VTO130530322617
D0002542901532100011300071178021390008472               15032024CUOTA         000254290151              0001785000P                                    R10   0000000000000001503202400000VTO130530322617
D0002630470032100011300070288300520008909               15032024CUOTA         000263047001              0001785000P                                    R10   0000000000000001503202400000VTO130530322617
D0002630470032100011300070288300520010456               15032024CUOTA         000263047001              0001785000P                                    R10   0000000000000001503202400000VTO130530322617
D0002182613732100011500036091706940009925               15032024CUOTA         000218261371              0001785000P                                    R10   0000000000000001503202400000VTO130530322617
D0003574127732100011500028033569850011612               15032024CUOTA         000357412771              0001785000P                                    R10   0000000000000001503202400000VTO130530322617
D0003574127732100011500028033569850021101               15032024CUOTA         000357412771              0001732500P                                    R10   0000000000000001503202400000VTO130530322617
D0003292831832100011300071323776560011671               15032024CUOTA         000329283181              0001785000P                                    R10   0000000000000001503202400000VTO130530322617
D0003039272932100011300071223586780021235               15032024CUOTA         000303927291              0001785000P                                    R10   0000000000000001503202400000VTO130530322617
D0003711909432100011500030469890620021246               15032024CUOTA         000371190941              0000500000P                                    R10   0000000000000001503202400000VTO130530322617
D0003044306632102307500008995332680010034               15032024CUOTA         000304430661              0001785000P                                    R10   0000000000000001503202400000VTO130530322617
D0003044306632102307500008995332680011311               15032024CUOTA         000304430661              0001785000P                                    R10   0000000000000001503202400000VTO130530322617
D0003205417532102307500009969422680011720               15032024CUOTA         000320541751              0001785000P                                    R10   0000000000000001503202400000VTO130530322617
D0003731306801104992300499076670010016657               15032024CUOTA         000373130681              0001732500P                                    R10   0000000000000001503202400000VTO130530322617
D0002616115532100011300071099158100007855               15032024CUOTA         000261611551              0001785000P                      00000000000000R00   0000000000000001503202400000VTO130530322617
D0002644700401700718400000360545960008398               15032024CUOTA         000264470041              0001785000P                      00000000000000R00   0000000000000001503202400000VTO130530322617
D0002906003203402841082840160630060011131               15032024CUOTA         000290600321              0001785000P                      00000000000000R00   0000000000000001503202400000VTO130530322617
D0003126756632100011300079800010680018752               15032024CUOTA         000312675661              0001785000P                      00000000000000R00   0000000000000001503202400000VTO130530322617
T0000021000000036095000
