H30530322617CUOTA     00021032024
D0003130514000701217300041771272950020038               20032024CUOTA         000313051401              0001785000P                                    R10   0000000000000002003202400000VTO230530322617
D0002311785504400349400001404378430011157               20032024CUOTA         000231178551              0001785000P                                    R10   0000000000000002003202400000VTO230530322617
D0002419817001700718400000372602460011114               20032024CUOTA         000241981701              0001785000P                                    R10   0000000000000002003202400000VTO230530322617
D0003035560732100011300070561064860008383               20032024CUOTA         000303556071              0001785000P                                    R10   0000000000000002003202400000VTO230530322617
D0002542901532100011300071178021390008472               20032024CUOTA         000254290151              0001785000P                                    R10   0000000000000002003202400000VTO230530322617
D0002630470032100011300070288300520008909               20032024CUOTA         000263047001              0001785000P                                    R10   0000000000000002003202400000VTO230530322617
D0002630470032100011300070288300520010456               20032024CUOTA         000263047001              0001785000P                                    R10   0000000000000002003202400000VTO230530322617
D0003292831832100011300071323776560011671               20032024CUOTA         000329283181              0001785000P                                    R10   0000000000000002003202400000VTO230530322617
D0003039272932100011300071223586780021235               20032024CUOTA         000303927291              0001785000P                                    R10   0000000000000002003202400000VTO230530322617
D0002182613732100011500036091706940009925               20032024CUOTA         000218261371              0001785000P                                    R10   0000000000000002003202400000VTO230530322617
D0003574127732100011500028033569850011612               20032024CUOTA         000357412771              0001785000P                                    R10   0000000000000002003202400000VTO230530322617
D0003574127732100011500028033569850021101               20032024CUOTA         000357412771              0001732500P                                    R10   0000000000000002003202400000VTO230530322617
D0003711909432100011500030469890620021246               20032024CUOTA         000371190941              0000500000P                                    R10   0000000000000002003202400000VTO230530322617
D0003044306632102307500008995332680010034               20032024CUOTA         000304430661              0001785000P                                    R10   0000000000000002003202400000VTO230530322617
D0003044306632102307500008995332680011311               20032024CUOTA         000304430661              0001785000P                                    R10   0000000000000002003202400000VTO230530322617
D0003205417532102307500009969422680011720               20032024CUOTA         000320541751              0001785000P                                    R10   0000000000000002003202400000VTO230530322617
D0003731306801104992300499076670010016657               20032024CUOTA         000373130681              0001732500P                                    R10   0000000000000002003202400000VTO230530322617
T0000017000000028955000
