202507102025071520250710000090000004285444400449042854444250710090000000000000000000000000051500582933700000000000100057595BPC                       01VISA                                                                       008141582375ee8867-279a-4115-9351-f9274cf01d3220250710091102                                                                                                                                                                                              
202507102025071520250710000090000004285444400449042854444250710090000000000000000000000000051500582933700000000000100057596BPD                                                                                                    00809343751bc741f1-ab64-410a-8063-8b0bf47de24220250710091102                                                                                                                                                                                              
202507102025071020250710000090000004285444400449042854444250710090000000000000000000000000051500582933700000000000100057597TQR                                                                                                    0081415665080853bf-4aee-403d-b64c-a26fe7accbaa20250710091102                                                                                                                                                                                              
202507101900010120250710000000000004285444400449042854444250710090000000000000000000000000051500582933700000000000100057596BPR402MONTO INVALIDO                                                                                   00821441084931e567-97db-4b09-ac5c-4fad89363115estoesunareferencia1                                                                                                                                                                                        
202507101900010120250710000000000004285444400449042854444250710090000000000000000000000000051500582933700000000000100057596BPR402FONDOS INSUFICIENTES                                                                             008214659808d4af8c07-47a2-45fd-9524-599fc78831prueba                                                                                                                                                                                                      
