H30530322617CUOTA     00002072025
D0002825384007201512880000390395540007290               01072025CUOTA         000282538405              0009000000P                                    R10   0000000000000000107202500000VTO130530322617
D0002903797107201512880000403342860008424               01072025CUOTA         000290379715              0009000000P                                    R10   0000000000000000107202500000VTO130530322617
D0003113226607201512880000044950400008459               01072025CUOTA         000311322665              0007650000P                                    R10   0000000000000000107202500000VTO130530322617
D0002825384007201512880000390395540008844               01072025CUOTA         000282538405              0009000000P                                    R10   0000000000000000107202500000VTO130530322617
D0002903797107201512880000403342860008879               01072025CUOTA         000290379715              0009000000P                                    R10   0000000000000000107202500000VTO130530322617
D0002341057407201512880000404078900009010               01072025CUOTA         000234105745              0009000000P                                    R10   0000000000000000107202500000VTO130530322617
D0003130525307201512880000372950040009024               01072025CUOTA         000313052535              0009000000P                                    R10   0000000000000000107202500000VTO130530322617
D0003130525307201512880000372950040010550               01072025CUOTA         000313052535              0009000000P                                    R10   0000000000000000107202500000VTO130530322617
D0003795539807201512880000396344900011172               01072025CUOTA         000379553985              0007500000P                                    R10   0000000000000000107202500000VTO130530322617
D0003424377107201512880000020732680011198               01072025CUOTA         000342437715              0007500000P                                    R10   0000000000000000107202500000VTO130530322617
D0003113226607201512880000044950400011768               01072025CUOTA         000311322665              0006375000P                                    R10   0000000000000000107202500000VTO130530322617
D0003795539807201512880000396344900011782               01072025CUOTA         000379553985              0007500000P                                    R10   0000000000000000107202500000VTO130530322617
D0002870109907201512880000047754900011786               01072025CUOTA         000287010995              0007500000P                                    R10   0000000000000000107202500000VTO130530322617
D0002636895007201512880000392074360012207               01072025CUOTA         000263689505              0007500000P                                    R10   0000000000000000107202500000VTO130530322617
D0003113226607201512880000044950400012624               01072025CUOTA         000311322665              0006375000P                                    R10   0000000000000000107202500000VTO130530322617
D0002825384007201512880000390395540012896               01072025CUOTA         000282538405              0007500000P                                    R10   0000000000000000107202500000VTO130530322617
D0003130525307201512880000372950040014365               01072025CUOTA         000313052535              0007500000P                                    R10   0000000000000000107202500000VTO130530322617
D0003130525307201512880000372950040016722               01072025CUOTA         000313052535              0005000000P                                    R10   0000000000000000107202500000VTO130530322617
D0003741088007201512880000405427040022502               01072025CUOTA         000374108805              0007500000P                                    R10   0000000000000000107202500000VTO130530322617
D0003534362907201512880000379196180024847               01072025CUOTA         000353436295              0007500000P                                    R02   0000000000000000107202500000VTO130530322617
D0001803718107203648880000351412860009952               01072025CUOTA         000180371815              0009000000P                                    R10   0000000000000000107202500000VTO130530322617
D0003268559407203648300000372243150011694               01072025CUOTA         000326855945              0009000000P                                    R10   0000000000000000107202500000VTO130530322617
D0003031657507203648880000370742720012143               01072025CUOTA         000303165755              0007500000P                                    R10   0000000000000000107202500000VTO130530322617
D0003031657507203648880000370742720014302               01072025CUOTA         000303165755              0007500000P                                    R10   0000000000000000107202500000VTO130530322617
D0003505204007203648880000009848540018834               01072025CUOTA         000350520405              0007500000P                                    R10   0000000000000000107202500000VTO130530322617
D0003505204007203648880000009848540018907               01072025CUOTA         000350520405              0007500000P                                    R10   0000000000000000107202500000VTO130530322617
D0003805270338900837400000816963380021144               01072025CUOTA         000380527035              0007500000P                                    R10   0000000000000000107202500000VTO130530322617
D0002708767219100476550047542675640009844               01072025CUOTA         000270876725              0009000000P                                    R10   0000000000000000107202500000VTO130530322617
D0002708767219100476550047542675640010100               01072025CUOTA         000270876725              0009000000P                                    R10   0000000000000000107202500000VTO130530322617
D0003035560704400349400002367972930008383               01072025CUOTA         000303556075              0009000000P                                    R10   0000000000000000107202500000VTO130530322617
D0002163265204400349400001721751130012574               01072025CUOTA         000216326525              0007500000P                                    R10   0000000000000000107202500000VTO130530322617
D0002917549604400349400003435968730012656               01072025CUOTA         000291754965              0007500000P                                    R10   0000000000000000107202500000VTO130530322617
D0003440980504400349400001859781630012746               01072025CUOTA         000344098055              0007500000P                                    R10   0000000000000000107202500000VTO130530322617
D0002739262704400349400001693111330014456               01072025CUOTA         000273926275              0009000000P                                    R10   0000000000000000107202500000VTO130530322617
D0003130546804400349200002882848390009825               01072025CUOTA         000313054685              0009000000P                                    R20   0000000000000000107202500000VTO130530322617
D0002448434501508404010001220784100007337               01072025CUOTA         000244843455              0009000000P                                    R10   0000000000000000107202500000VTO130530322617
D0002948695701508404010001242773100008324               01072025CUOTA         000294869575              0009000000P                                    R10   0000000000000000107202500000VTO130530322617
D0003024128101508404010001256230440010350               01072025CUOTA         000302412815              0009000000P                                    R10   0000000000000000107202500000VTO130530322617
D0003188887701508404010001203504170010458               01072025CUOTA         000318888775              0009000000P                                    R10   0000000000000000107202500000VTO130530322617
D0002765093801508404020001025844880011080               01072025CUOTA         000276509385              0009000000P                                    R10   0000000000000000107202500000VTO130530322617
D0002511449800701217300041891014940008982               01072025CUOTA         000251144985              0009000000P                                    R10   0000000000000000107202500000VTO130530322617
D0003190506200701217300041673149820009843               01072025CUOTA         000319050625              0009000000P                                    R10   0000000000000000107202500000VTO130530322617
D0002708759700701217300041847491920009940               01072025CUOTA         000270875975              0009000000P                                    R10   0000000000000000107202500000VTO130530322617
D0002485013200701217300041920359280010450               01072025CUOTA         000248501325              0009000000P                                    R10   0000000000000000107202500000VTO130530322617
D0002591220500701217300042040581740010540               01072025CUOTA         000259122055              0009000000P                                    R10   0000000000000000107202500000VTO130530322617
D0002485013200701217300041920359280011145               01072025CUOTA         000248501325              0007500000P                                    R10   0000000000000000107202500000VTO130530322617
D0002739092100701217300041866540830011318               01072025CUOTA         000273909215              0009000000P                                    R10   0000000000000000107202500000VTO130530322617
D0002511449800701217300041891014940011749               01072025CUOTA         000251144985              0009000000P                                    R10   0000000000000000107202500000VTO130530322617
D0003418250500701996300040458686060012748               01072025CUOTA         000341825055              0007500000P                                    R10   0000000000000000107202500000VTO130530322617
D0003687802500701217300041986287790012752               01072025CUOTA         000368780255              0007500000P                                    R10   0000000000000000107202500000VTO130530322617
D0002309499300701217300041879863030012914               01072025CUOTA         000230949935              0007500000P                                    R10   0000000000000000107202500000VTO130530322617
D0003130514000701217300041771272950020038               01072025CUOTA         000313051405              0007500000P                                    R10   0000000000000000107202500000VTO130530322617
D0003305452201700718400000368076640007313               01072025CUOTA         000330545225              0009000000P                                    R10   0000000000000000107202500000VTO130530322617
D0002291745101700718400000005333640009002               01072025CUOTA         000229174515              0009000000P                                    R10   0000000000000000107202500000VTO130530322617
D0002604044001700718400000381399140009842               01072025CUOTA         000260404405              0009000000P                                    R10   0000000000000000107202500000VTO130530322617
D0002739053001700718400000325267960010952               01072025CUOTA         000273905305              0007650000P                                    R10   0000000000000000107202500000VTO130530322617
D0002419817001700718400000372602460011114               01072025CUOTA         000241981705              0009000000P                                    R10   0000000000000000107202500000VTO130530322617
D0002739053001700718400000325267960011305               01072025CUOTA         000273905305              0006375000P                                    R10   0000000000000000107202500000VTO130530322617
D0003752935401700718400000386255960012254               01072025CUOTA         000375293545              0007500000P                                    R10   0000000000000000107202500000VTO130530322617
D0003131163201700718400000335027460012777               01072025CUOTA         000313116325              0007500000P                                    R10   0000000000000000107202500000VTO130530322617
D0003519934401700718400000370034500012790               01072025CUOTA         000351993445              0007500000P                                    R10   0000000000000000107202500000VTO130530322617
D0003129711301700718400000363409140022487               01072025CUOTA         000312971135              0007500000P                                    R10   0000000000000000107202500000VTO130530322617
D0002739053001700718400000325267960023632               01072025CUOTA         000273905305              0004250000P                                    R10   0000000000000000107202500000VTO130530322617
D0003231547028503507400954066754880011574               01072025CUOTA         000323154705              0009000000P                                    R10   0000000000000000107202500000VTO130530322617
D0003958366628503798400955167680980022420               01072025CUOTA         000395836665              0005000000P                                    R10   0000000000000000107202500000VTO130530322617
D0002677476128506797400950390250180008473               01072025CUOTA         000267747615              0009000000P                                    R10   0000000000000000107202500000VTO130530322617
D0003127322328506797400953745519080017747               01072025CUOTA         000312732235              0007500000P                                    R10   0000000000000000107202500000VTO130530322617
D0002163193928506797400949584671330009027               01072025CUOTA         000216319395              0009000000P                                    R17   0000000000000000107202500000VTO130530322617
D0003268887228506797400949717220580010575               01072025CUOTA         000326888725              0009000000P                                    R15   0000000000000000107202500000VTO130530322617
D0003268887228506797400949717220580011755               01072025CUOTA         000326888725              0007500000P                                    R15   0000000000000000107202500000VTO130530322617
D0003432978032100011300074545034640013008               01072025CUOTA         000343297805              0009000000P                                    R14   0000000000000000107202500000VTO130530322617
D0003757554232100011500027240190060014638               01072025CUOTA         000375755423              0003000000P                                    R10   0000000000000000107202500000VTO130530322617
D0003757554232100011500027240190060023731               01072025CUOTA         000375755425              0005000000P                                    R10   0000000000000000107202500000VTO130530322617
D0003591774932100011300080219463590016701               01072025CUOTA         000359177495              0005000000P                                    R10   0000000000000000107202500000VTO130530322617
D0003591774932100011300080219463590011722               01072025CUOTA         000359177495              0009000000P                                    R10   0000000000000000107202500000VTO130530322617
D0003044321832100011300070614646900016706               01072025CUOTA         000304432185              0007500000P                                    R10   0000000000000000107202500000VTO130530322617
D0004044658132100011500028389540840018777               01072025CUOTA         000404465815              0000300000P                                    R10   0000000000000000107202500000VTO130530322617
D0004044658132100011500028389540840010686               01072025CUOTA         000404465815              0001000000P                                    R10   0000000000000000107202500000VTO130530322617
D0003469545832100011300079751044860018839               01072025CUOTA         000346954585              0007500000P                                    R10   0000000000000000107202500000VTO130530322617
D0003165457832100011300070594420800021098               01072025CUOTA         000316545785              0004250000P                                    R10   0000000000000000107202500000VTO130530322617
D0003165457832100011300070594420800011809               01072025CUOTA         000316545785              0006375000P                                    R10   0000000000000000107202500000VTO130530322617
D0003165457832100011300070594420800014319               01072025CUOTA         000316545785              0006375000P                                    R10   0000000000000000107202500000VTO130530322617
D0003308856332100011300079877296840021117               01072025CUOTA         000330885635              0007500000P                                    R10   0000000000000000107202500000VTO130530322617
D0002717245732100011300070414947270021121               01072025CUOTA         000271724575              0006375000P                                    R10   0000000000000000107202500000VTO130530322617
D0002717245732100011300070414947270011733               01072025CUOTA         000271724575              0007650000P                                    R10   0000000000000000107202500000VTO130530322617
D0002717245732100011300070414947270010348               01072025CUOTA         000271724575              0007650000P                                    R10   0000000000000000107202500000VTO130530322617
D0003293786632100011300071126874920021131               01072025CUOTA         000329378665              0007500000P                                    R10   0000000000000000107202500000VTO130530322617
D0003293786632100011300071126874920011863               01072025CUOTA         000329378665              0009000000P                                    R10   0000000000000000107202500000VTO130530322617
D0003039272932100011300071223586780021235               01072025CUOTA         000303927295              0007500000P                                    R10   0000000000000000107202500000VTO130530322617
D0003711909432100011500030469890620021246               01072025CUOTA         000371190945              0001000000P                                    R10   0000000000000000107202500000VTO130530322617
D0003374929332100011300071406737110021393               01072025CUOTA         000337492935              0005000000P                                    R10   0000000000000000107202500000VTO130530322617
D0003848436632100011500027045867370023763               01072025CUOTA         000384843665              0000300000P                                    R10   0000000000000000107202500000VTO130530322617
D0003848436632100011500027045867370011255               01072025CUOTA         000384843665              0001000000P                                    R10   0000000000000000107202500000VTO130530322617
D0003958188432100011300080387668100023796               01072025CUOTA         000395818845              0007500000P                                    R10   0000000000000000107202500000VTO130530322617
D0003173968632100011300300167614920024801               01072025CUOTA         000317396865              0007500000P                                    R10   0000000000000000107202500000VTO130530322617
D0002891761532100011300071365523210025026               01072025CUOTA         000289176153              0006000000P                                    R10   0000000000000000107202500000VTO130530322617
D0003416764732100011500031294624240011144               01072025CUOTA         000341676475              0006375000P                                    R10   0000000000000000107202500000VTO130530322617
D0003416764732100011500031294624240011864               01072025CUOTA         000341676475              0006375000P                                    R10   0000000000000000107202500000VTO130530322617
D0003416764732100011500031294624240009896               01072025CUOTA         000341676475              0007650000P                                    R10   0000000000000000107202500000VTO130530322617
D0002739136632100011300070942893090011162               01072025CUOTA         000273913665              0007500000P                                    R10   0000000000000000107202500000VTO130530322617
D0003691218532100011300080166213150011174               01072025CUOTA         000369121855              0007500000P                                    R10   0000000000000000107202500000VTO130530322617
D0003691218532100011300080166213150012221               01072025CUOTA         000369121855              0007500000P                                    R10   0000000000000000107202500000VTO130530322617
D0003691218532100011300080166213150013119               01072025CUOTA         000369121855              0007500000P                                    R10   0000000000000000107202500000VTO130530322617
D0002897705332100011500031208877870011332               01072025CUOTA         000289770535              0001000000P                                    R10   0000000000000000107202500000VTO130530322617
D0002163127932100011300070564413870011628               01072025CUOTA         000216312795              0009000000P                                    R10   0000000000000000107202500000VTO130530322617
D0002441339232100011300070359070460011765               01072025CUOTA         000244133925              0007500000P                                    R10   0000000000000000107202500000VTO130530322617
D0003323480732100011300071265214140011774               01072025CUOTA         000332348075              0007500000P                                    R10   0000000000000000107202500000VTO130530322617
D0003323480732100011300071265214140008374               01072025CUOTA         000332348075              0009000000P                                    R10   0000000000000000107202500000VTO130530322617
D0003268890432100011300071409174420011778               01072025CUOTA         000326889045              0007500000P                                    R10   0000000000000000107202500000VTO130530322617
D0003268890432100011300071409174420008861               01072025CUOTA         000326889045              0009000000P                                    R10   0000000000000000107202500000VTO130530322617
D0003534500232100011500030639305950011837               01072025CUOTA         000353450025              0001000000P                                    R10   0000000000000000107202500000VTO130530322617
D0003534500232100011500030639305950012888               01072025CUOTA         000353450025              0001000000P                                    R10   0000000000000000107202500000VTO130530322617
D0003584662932100011500023223251270011874               01072025CUOTA         000358466295              0001000000P                                    R10   0000000000000000107202500000VTO130530322617
D0002761028932100011300070503797270012241               01072025CUOTA         000276102895              0007500000P                                    R10   0000000000000000107202500000VTO130530322617
D0002761028932100011300070503797270008843               01072025CUOTA         000276102895              0009000000P                                    R10   0000000000000000107202500000VTO130530322617
D0003469318432100011500035715567710012762               01072025CUOTA         000346931845              0001000000P                                    R10   0000000000000000107202500000VTO130530322617
D0003612104332100011500029932519290012782               01072025CUOTA         000361210435              0007500000P                                    R10   0000000000000000107202500000VTO130530322617
D0002957687932100011300071382961950012785               01072025CUOTA         000295768795              0001000000P                                    R10   0000000000000000107202500000VTO130530322617
D0002957687932100011300071382961950014378               01072025CUOTA         000295768795              0001000000P                                    R10   0000000000000000107202500000VTO130530322617
D0002890044632100011300070955922000013031               01072025CUOTA         000289004465              0007500000P                                    R10   0000000000000000107202500000VTO130530322617
D0003469552232100011500036281945890014206               01072025CUOTA         000346955225              0007500000P                                    R10   0000000000000000107202500000VTO130530322617
D0003388222332100011500031173137210014232               01072025CUOTA         000338822235              0007500000P                                    R10   0000000000000000107202500000VTO130530322617
D0002890051932100011300079397296560014250               01072025CUOTA         000289005195              0001000000P                                    R10   0000000000000000107202500000VTO130530322617
D0003247604832100011300080341076280014321               01072025CUOTA         000324760485              0007500000P                                    R10   0000000000000000107202500000VTO130530322617
D0003773693932100011500029368314300014498               01072025CUOTA         000377369395              0001000000P                                    R10   0000000000000000107202500000VTO130530322617
D0001325171632100011500025045368080014596               01072025CUOTA         000132517165              0007500000P                                    R10   0000000000000000107202500000VTO130530322617
D0003019024732100011300079701938760007318               01072025CUOTA         000301902475              0009000000P                                    R10   0000000000000000107202500000VTO130530322617
D0002677488432100011300071292042880007334               01072025CUOTA         000267748845              0009000000P                                    R10   0000000000000000107202500000VTO130530322617
D0002677488432100011300071292042880008382               01072025CUOTA         000267748845              0009000000P                                    R10   0000000000000000107202500000VTO130530322617
D0001466136832100011300070072315910007894               01072025CUOTA         000146613685              0009000000P                                    R10   0000000000000000107202500000VTO130530322617
D0001854371732100011300070624146560008356               01072025CUOTA         000185437175              0009000000P                                    R10   0000000000000000107202500000VTO130530322617
D0001854371732100011300070624146560008514               01072025CUOTA         000185437175              0009000000P                                    R10   0000000000000000107202500000VTO130530322617
D0002867490032100011300070591091230008392               01072025CUOTA         000286749005              0007650000P                                    R10   0000000000000000107202500000VTO130530322617
D0002542901532100011300071178021390008472               01072025CUOTA         000254290155              0009000000P                                    R10   0000000000000000107202500000VTO130530322617
D0003352060232100011300071403697550008896               01072025CUOTA         000335206025              0007650000P                                    R10   0000000000000000107202500000VTO130530322617
D0003352060232100011300071403697550010594               01072025CUOTA         000335206025              0007650000P                                    R10   0000000000000000107202500000VTO130530322617
D0002630470032100011300070288300520008909               01072025CUOTA         000263047005              0009000000P                                    R10   0000000000000000107202500000VTO130530322617
D0002630470032100011300070288300520010456               01072025CUOTA         000263047005              0009000000P                                    R10   0000000000000000107202500000VTO130530322617
D0003108150832100011500022242111550008921               01072025CUOTA         000310815085              0009000000P                                    R10   0000000000000000107202500000VTO130530322617
D0001843304632100011300070171255290008993               01072025CUOTA         000184330465              0009000000P                                    R10   0000000000000000107202500000VTO130530322617
D0002484061332100011300071318084360009859               01072025CUOTA         000248406135              0009000000P                                    R10   0000000000000000107202500000VTO130530322617
D0002484061332100011300071318084360009860               01072025CUOTA         000248406135              0009000000P                                    R10   0000000000000000107202500000VTO130530322617
D0002844459532100011300070507826400009894               01072025CUOTA         000284445955              0009000000P                                    R10   0000000000000000107202500000VTO130530322617
D0002965329132100011300070477040680010035               01072025CUOTA         000296532915              0009000000P                                    R10   0000000000000000107202500000VTO130530322617
D0002677468032100011500030207530120010044               01072025CUOTA         000267746805              0007650000P                                    R10   0000000000000000107202500000VTO130530322617
D0002677468032100011500030207530120010631               01072025CUOTA         000267746805              0007650000P                                    R10   0000000000000000107202500000VTO130530322617
D0002903783632100011300071350785630010452               01072025CUOTA         000290378365              0009000000P                                    R10   0000000000000000107202500000VTO130530322617
D0003591756432100011300071273414420010471               01072025CUOTA         000359175645              0009000000P                                    R10   0000000000000000107202500000VTO130530322617
D0002496777932100011300070276950740010527               01072025CUOTA         000249677795              0009000000P                                    R10   0000000000000000107202500000VTO130530322617
D0002971995332100011500022476843810010676               01072025CUOTA         000297199535              0001000000P                                    R10   0000000000000000107202500000VTO130530322617
D0003112041432100011500026110673250011017               01072025CUOTA         000311204145              0009000000P                                    R10   0000000000000000107202500000VTO130530322617
D0002304219832102307500010044298900008995               01072025CUOTA         000230421985              0009000000P                                    R10   0000000000000000107202500000VTO130530322617
D0003044306632102307500008995332680010034               01072025CUOTA         000304430665              0009000000P                                    R10   0000000000000000107202500000VTO130530322617
D0003044306632102307500008995332680011311               01072025CUOTA         000304430665              0007500000P                                    R10   0000000000000000107202500000VTO130530322617
D0003022115932102307500010154310040021169               01072025CUOTA         000302211595              0007500000P                                    R10   0000000000000000107202500000VTO130530322617
D0002657001901101689300168451445290007863               01072025CUOTA         000265700195              0009000000P                                    R10   0000000000000000107202500000VTO130530322617
D0003044155301104992300499244909470008972               01072025CUOTA         000304415535              0009000000P                                    R10   0000000000000000107202500000VTO130530322617
D0002133911701104992300499091835470009031               01072025CUOTA         000213391175              0009000000P                                    R10   0000000000000000107202500000VTO130530322617
D0003044155301104992300499244909470010566               01072025CUOTA         000304415535              0009000000P                                    R10   0000000000000000107202500000VTO130530322617
D0003440955401104992300499137810470012103               01072025CUOTA         000344095545              0001000000P                                    R10   0000000000000000107202500000VTO130530322617
D0004411534101104992300499191576790014413               01072025CUOTA         000441153413              0006000000P                                    R10   0000000000000000107202500000VTO130530322617
D0002410185401104992300499261083830018947               01072025CUOTA         000241018543              0006000000P                                    R10   0000000000000000107202500000VTO130530322617
D0003505212401104992300499184339290019010               01072025CUOTA         000350521245              0007500000P                                    R10   0000000000000000107202500000VTO130530322617
D0003873522701104992300499188195650021124               01072025CUOTA         000387352275              0005000000P                                    R10   0000000000000000107202500000VTO130530322617
D0003374890203402841082840244010070011791               01072025CUOTA         000337489025              0007500000P                                    R15   0000000000000000107202500000VTO130530322617
D0002616178103402841082840230130070007903               01072025CUOTA         000261617815              0009000000P                                    R10   0000000000000000107202500000VTO130530322617
D0003374890203402841082840244010070016693               01072025CUOTA         000337489025              0005000000P                                    R10   0000000000000000107202500000VTO130530322617
D0003873556803402841082840261210060012657               01072025CUOTA         000387355685              0007500000P                                    R10   0000000000000000107202500000VTO130530322617
D0003873556803402841082840261210060014312               01072025CUOTA         000387355685              0007500000P                                    R10   0000000000000000107202500000VTO130530322617
D0001810105303401008087101574440010011662               01072025CUOTA         000181010535              0009000000P                                    R10   0000000000000000107202500000VTO130530322617
D0002703008532100011300070557480520002131               01072025CUOTA         000270300853              0006000000P                      00000000000000R00   0000000000000000107202500000VTO130530322617
D0002224289901104992300499099774830007267               01072025CUOTA         000222428995              0009000000P                      00000000000000R00   0000000000000000107202500000VTO130530322617
D0002914275832100011500022670528360007270               01072025CUOTA         000291427585              0009000000P                      00000000000000R00   0000000000000000107202500000VTO130530322617
D0002516861707201512880000021664540007275               01072025CUOTA         000251686175              0009000000P                      00000000000000R00   0000000000000000107202500000VTO130530322617
D0002636876001508404010001253533120007277               01072025CUOTA         000263687605              0007650000P                      00000000000000R00   0000000000000000107202500000VTO130530322617
D0002722290032100011300070497387330007285               01072025CUOTA         000272229005              0009000000P                      00000000000000R00   0000000000000000107202500000VTO130530322617
D0002315803132100011300070365423430007286               01072025CUOTA         000231580315              0009000000P                      00000000000000R00   0000000000000000107202500000VTO130530322617
D0002193519432100011500031183307090007297               01072025CUOTA         000219351945              0009000000P                      00000000000000R00   0000000000000000107202500000VTO130530322617
D0002280600932100011300070373604360007305               01072025CUOTA         000228060095              0009000000P                      00000000000000R00   0000000000000000107202500000VTO130530322617
D0002849836132100011300070492113150007311               01072025CUOTA         000284983615              0009000000P                      00000000000000R00   0000000000000000107202500000VTO130530322617
D0002163288507200298880000023790900007317               01072025CUOTA         000216328855              0009000000P                      00000000000000R00   0000000000000000107202500000VTO130530322617
D0002645991132100011300070235017110007344               01072025CUOTA         000264599115              0009000000P                      00000000000000R00   0000000000000000107202500000VTO130530322617
D0002341075232100011500030123302540007795               01072025CUOTA         000234107525              0009000000P                      00000000000000R00   0000000000000000107202500000VTO130530322617
D0002767781832100011500025556245670007841               01072025CUOTA         000276778185              0009000000P                      00000000000000R00   0000000000000000107202500000VTO130530322617
D0002718512632100011300300187113650007846               01072025CUOTA         000271851265              0009000000P                      00000000000000R00   0000000000000000107202500000VTO130530322617
D0002594610101700718400000353415500007850               01072025CUOTA         000259461015              0009000000P                      00000000000000R00   0000000000000000107202500000VTO130530322617
D0002616115532100011300071099158100007855               01072025CUOTA         000261611555              0007650000P                      00000000000000R00   0000000000000000107202500000VTO130530322617
D0002835495619101059551105011173710007865               01072025CUOTA         000283549565              0009000000P                      00000000000000R00   0000000000000000107202500000VTO130530322617
D0002867717732100011300071275922220007873               01072025CUOTA         000286771775              0009000000P                      00000000000000R00   0000000000000000107202500000VTO130530322617
D0002616168907201512880000383041900007880               01072025CUOTA         000261616895              0009000000P                      00000000000000R00   0000000000000000107202500000VTO130530322617
D0003091830600701217300041774001250007893               01072025CUOTA         000309183065              0007650000P                      00000000000000R00   0000000000000000107202500000VTO130530322617
D0002347384607203648880000351433360007904               01072025CUOTA         000234738465              0009000000P                      00000000000000R00   0000000000000000107202500000VTO130530322617
D0002722281532100011300071071655070007908               01072025CUOTA         000272228155              0009000000P                      00000000000000R00   0000000000000000107202500000VTO130530322617
D0002570932232100011300070326155790007910               01072025CUOTA         000257093225              0009000000P                      00000000000000R00   0000000000000000107202500000VTO130530322617
D0003765124932100011300079396667770008314               01072025CUOTA         000376512495              0009000000P                      00000000000000R00   0000000000000000107202500000VTO130530322617
D0002695492807203648880000357646540008315               01072025CUOTA         000269549285              0009000000P                      00000000000000R00   0000000000000000107202500000VTO130530322617
D0002981428632100011500028612531490008316               01072025CUOTA         000298142865              0009000000P                      00000000000000R00   0000000000000000107202500000VTO130530322617
D0002015153300701217300041939351110008321               01072025CUOTA         000201515335              0009000000P                      00000000000000R00   0000000000000000107202500000VTO130530322617
D0002280600932100011300070373604360008325               01072025CUOTA         000228060095              0009000000P                      00000000000000R00   0000000000000000107202500000VTO130530322617
D0002261791900701217300041868101660008330               01072025CUOTA         000226179195              0009000000P                      00000000000000R00   0000000000000000107202500000VTO130530322617
D0002636884801700718200000304676640008331               01072025CUOTA         000263688485              0009000000P                      00000000000000R00   0000000000000000107202500000VTO130530322617
D0002341123732100011300070446034360008335               01072025CUOTA         000234112375              0009000000P                      00000000000000R00   0000000000000000107202500000VTO130530322617
D0002455397832100011300300059134640008342               01072025CUOTA         000245539785              0009000000P                      00000000000000R00   0000000000000000107202500000VTO130530322617
D0002261899701700718400000345880000008343               01072025CUOTA         000226189975              0009000000P                      00000000000000R00   0000000000000000107202500000VTO130530322617
D0002812501932100011300071013978100008347               01072025CUOTA         000281250195              0009000000P                      00000000000000R00   0000000000000000107202500000VTO130530322617
D0001815743732100011300070203201390008353               01072025CUOTA         000181574375              0009000000P                      00000000000000R00   0000000000000000107202500000VTO130530322617
D0001678235832100011300070210402380008378               01072025CUOTA         000167823585              0009000000P                      00000000000000R00   0000000000000000107202500000VTO130530322617
D0002304269307201512880000377406720008386               01072025CUOTA         000230426935              0009000000P                      00000000000000R00   0000000000000000107202500000VTO130530322617
D0002224264301508404010001060581660008396               01072025CUOTA         000222426435              0009000000P                      00000000000000R00   0000000000000000107202500000VTO130530322617
D0002099726704400349400003462911330008397               01072025CUOTA         000209972675              0009000000P                      00000000000000R00   0000000000000000107202500000VTO130530322617
D0002530185807201512880000252129900008400               01072025CUOTA         000253018585              0009000000P                      00000000000000R00   0000000000000000107202500000VTO130530322617
D0003091757932100011300071436205850008425               01072025CUOTA         000309175795              0009000000P                      00000000000000R00   0000000000000000107202500000VTO130530322617
D0385525228607201512880000403204360008433               01072025CUOTA         038552522865              0009000000P                      00000000000000R00   0000000000000000107202500000VTO130530322617
D0002813914132100011300070504039030008441               01072025CUOTA         000281391415              0007650000P                      00000000000000R00   0000000000000000107202500000VTO130530322617
D0003112051532100011300070569178820008447               01072025CUOTA         000311205155              0009000000P                      00000000000000R00   0000000000000000107202500000VTO130530322617
D0003044322632100011300071323676620008455               01072025CUOTA         000304432265              0009000000P                      00000000000000R00   0000000000000000107202500000VTO130530322617
D0003172929407201512880000376454720008462               01072025CUOTA         000317292945              0009000000P                      00000000000000R00   0000000000000000107202500000VTO130530322617
D0002824639332100011300079541107490008465               01072025CUOTA         000282463935              0009000000P                      00000000000000R00   0000000000000000107202500000VTO130530322617
D0002543793132100011500022562296380008467               01072025CUOTA         000254379315              0009000000P                      00000000000000R00   0000000000000000107202500000VTO130530322617
D0002397640607203648880000350789860008474               01072025CUOTA         000239764065              0009000000P                      00000000000000R00   0000000000000000107202500000VTO130530322617
D0002781108001104992300499251735150008475               01072025CUOTA         000278110805              0009000000P                      00000000000000R00   0000000000000000107202500000VTO130530322617
D0002163208632100011300070303010950008485               01072025CUOTA         000216320865              0009000000P                      00000000000000R00   0000000000000000107202500000VTO130530322617
D0002163182407201512880000020646040008489               01072025CUOTA         000216318245              0009000000P                      00000000000000R00   0000000000000000107202500000VTO130530322617
D0002397606000701217300041614460210008491               01072025CUOTA         000239760605              0009000000P                      00000000000000R00   0000000000000000107202500000VTO130530322617
D0002329805407203648880000353754900008494               01072025CUOTA         000232980545              0009000000P                      00000000000000R00   0000000000000000107202500000VTO130530322617
D0002133927532100011300070272773150008499               01072025CUOTA         000213392755              0009000000P                      00000000000000R00   0000000000000000107202500000VTO130530322617
D0002232974307203648880000358545680008502               01072025CUOTA         000223297435              0009000000P                      00000000000000R00   0000000000000000107202500000VTO130530322617
D0002261756528506797400949661735680008506               01072025CUOTA         000226175655              0009000000P                      00000000000000R00   0000000000000000107202500000VTO130530322617
D0002410185832100011300070207956340008508               01072025CUOTA         000241018585              0009000000P                      00000000000000R00   0000000000000000107202500000VTO130530322617
D0002261816207201512880000019986720008511               01072025CUOTA         000226181625              0009000000P                      00000000000000R00   0000000000000000107202500000VTO130530322617
D0002824606604400349400003087528430008516               01072025CUOTA         000282460665              0009000000P                      00000000000000R00   0000000000000000107202500000VTO130530322617
D0003329297207201512880000399685400008521               01072025CUOTA         000332929725              0007650000P                      00000000000000R00   0000000000000000107202500000VTO130530322617
D0002224279832100011300070542346280008831               01072025CUOTA         000222427985              0009000000P                      00000000000000R00   0000000000000000107202500000VTO130530322617
D0002739198507203648880000350035400008848               01072025CUOTA         000273919855              0009000000P                      00000000000000R00   0000000000000000107202500000VTO130530322617
D0002722290032100011300070497387330008850               01072025CUOTA         000272229005              0009000000P                      00000000000000R00   0000000000000000107202500000VTO130530322617
D0002900107201508404010001094280140008858               01072025CUOTA         000290010725              0009000000P                      00000000000000R00   0000000000000000107202500000VTO130530322617
D0002718573819101059551105013635210008859               01072025CUOTA         000271857385              0009000000P                      00000000000000R00   0000000000000000107202500000VTO130530322617
D0003591796507201512880000378484680008860               01072025CUOTA         000359179655              0009000000P                      00000000000000R00   0000000000000000107202500000VTO130530322617
D0002397632101700718400000005224140008865               01072025CUOTA         000239763215              0009000000P                      00000000000000R00   0000000000000000107202500000VTO130530322617
D0002760812532100011300071353135630008867               01072025CUOTA         000276081255              0009000000P                      00000000000000R00   0000000000000000107202500000VTO130530322617
D0003329297207201512880000399685400008870               01072025CUOTA         000332929725              0007650000P                      00000000000000R00   0000000000000000107202500000VTO130530322617
D0002923699507201512880000362679540008876               01072025CUOTA         000292369955              0009000000P                      00000000000000R00   0000000000000000107202500000VTO130530322617
D0002824610307201512880000361628220008878               01072025CUOTA         000282461035              0009000000P                      00000000000000R00   0000000000000000107202500000VTO130530322617
D0002948667832100011300300000954080008881               01072025CUOTA         000294866785              0009000000P                      00000000000000R00   0000000000000000107202500000VTO130530322617
D0002844486032100011500028963454800008882               01072025CUOTA         000284448605              0009000000P                      00000000000000R00   0000000000000000107202500000VTO130530322617
D0002533389632100011300070274742660008884               01072025CUOTA         000253338965              0009000000P                      00000000000000R00   0000000000000000107202500000VTO130530322617
D0003091830600701217300041774001250008885               01072025CUOTA         000309183065              0007650000P                      00000000000000R00   0000000000000000107202500000VTO130530322617
D0002616178007203648880000351313220008890               01072025CUOTA         000261617805              0009000000P                      00000000000000R00   0000000000000000107202500000VTO130530322617
D0002804876832100011300070620587770008906               01072025CUOTA         000280487685              0009000000P                      00000000000000R00   0000000000000000107202500000VTO130530322617
D0002887623432100011300070496088320008910               01072025CUOTA         000288762345              0009000000P                      00000000000000R00   0000000000000000107202500000VTO130530322617
D0002427748207201512880000365475400008915               01072025CUOTA         000242774825              0009000000P                      00000000000000R00   0000000000000000107202500000VTO130530322617
D0002419344232100011300070401270020008920               01072025CUOTA         000241934425              0009000000P                      00000000000000R00   0000000000000000107202500000VTO130530322617
D0002718591432100011500021102035010008936               01072025CUOTA         000271859145              0009000000P                      00000000000000R00   0000000000000000107202500000VTO130530322617
D0002870109907201512880000047754900008937               01072025CUOTA         000287010995              0009000000P                      00000000000000R00   0000000000000000107202500000VTO130530322617
D0002540026301100136300013106687470008938               01072025CUOTA         000254002635              0009000000P                      00000000000000R00   0000000000000000107202500000VTO130530322617
D0003189723907200250880000376639040008939               01072025CUOTA         000318972395              0009000000P                      00000000000000R00   0000000000000000107202500000VTO130530322617
D0002030729932100011500032856824300008940               01072025CUOTA         000203072995              0009000000P                      00000000000000R00   0000000000000000107202500000VTO130530322617
D0002134049607201512880000019971360008948               01072025CUOTA         000213404965              0009000000P                      00000000000000R00   0000000000000000107202500000VTO130530322617
D0002030734832100011300079642754360008951               01072025CUOTA         000203073485              0009000000P                      00000000000000R00   0000000000000000107202500000VTO130530322617
D0002903782801104992300499091875010008962               01072025CUOTA         000290378285              0009000000P                      00000000000000R00   0000000000000000107202500000VTO130530322617
D0002527679032100011300070455353210008964               01072025CUOTA         000252767905              0007650000P                      00000000000000R00   0000000000000000107202500000VTO130530322617
D0002677468032100011500030207530120008973               01072025CUOTA         000267746805              0007650000P                      00000000000000R00   0000000000000000107202500000VTO130530322617
D0002222471607201512880000022278180008981               01072025CUOTA         000222247165              0009000000P                      00000000000000R00   0000000000000000107202500000VTO130530322617
D0003112046401104992300499050069650008984               01072025CUOTA         000311204645              0009000000P                      00000000000000R00   0000000000000000107202500000VTO130530322617
D0001762455932100011300070042347770008985               01072025CUOTA         000176245595              0009000000P                      00000000000000R00   0000000000000000107202500000VTO130530322617
D0002341185032100011300070587419970008987               01072025CUOTA         000234118505              0007650000P                      00000000000000R00   0000000000000000107202500000VTO130530322617
D0002341138332100011300070247733590008989               01072025CUOTA         000234113835              0009000000P                      00000000000000R00   0000000000000000107202500000VTO130530322617
D0001826007307201512880000220361220008999               01072025CUOTA         000182600735              0009000000P                      00000000000000R00   0000000000000000107202500000VTO130530322617
D0002196813207201512880000021526040009005               01072025CUOTA         000219681325              0009000000P                      00000000000000R00   0000000000000000107202500000VTO130530322617
D0002564453432100011300070990371010009009               01072025CUOTA         000256445345              0009000000P                      00000000000000R00   0000000000000000107202500000VTO130530322617
D0002813914132100011300070504039030009014               01072025CUOTA         000281391415              0007650000P                      00000000000000R00   0000000000000000107202500000VTO130530322617
D0002643868307203648880000358543220009018               01072025CUOTA         000264386835              0009000000P                      00000000000000R00   0000000000000000107202500000VTO130530322617
D0002484094201700718400000325308500009022               01072025CUOTA         000248409425              0009000000P                      00000000000000R00   0000000000000000107202500000VTO130530322617
D0002056473801700718400000006767460009026               01072025CUOTA         000205647385              0009000000P                      00000000000000R00   0000000000000000107202500000VTO130530322617
D0002636841532100011300070859578480009028               01072025CUOTA         000263684155              0009000000P                      00000000000000R00   0000000000000000107202500000VTO130530322617
D0002279602407201512880000363003360009029               01072025CUOTA         000227960245              0009000000P                      00000000000000R00   0000000000000000107202500000VTO130530322617
D0002362548307201512880000396539180009030               01072025CUOTA         000236254835              0009000000P                      00000000000000R00   0000000000000000107202500000VTO130530322617
D0002090009401702257400000302978890009035               01072025CUOTA         000209000945              0009000000P                      00000000000000R00   0000000000000000107202500000VTO130530322617
D0000593775932100011500020620813030009039               01072025CUOTA         000059377595              0009000000P                      00000000000000R00   0000000000000000107202500000VTO130530322617
D0002978570807201659880000376477680009195               01072025CUOTA         000297857085              0009000000P                      00000000000000R00   0000000000000000107202500000VTO130530322617
D0002867722601508404010001146143340009715               01072025CUOTA         000286772265              0009000000P                      00000000000000R00   0000000000000000107202500000VTO130530322617
D0002971685201104992300499093297650009795               01072025CUOTA         000297168525              0009000000P                      00000000000000R00   0000000000000000107202500000VTO130530322617
D0002570954532100011300070494569810009841               01072025CUOTA         000257095455              0009000000P                      00000000000000R00   0000000000000000107202500000VTO130530322617
D0002739013807201512880000369738220009856               01072025CUOTA         000273901385              0009000000P                      00000000000000R00   0000000000000000107202500000VTO130530322617
D0002716914603402841082840054560000009857               01072025CUOTA         000271691465              0009000000P                      00000000000000R00   0000000000000000107202500000VTO130530322617
D0002622065732100011300071321159190009865               01072025CUOTA         000262206575              0009000000P                      00000000000000R00   0000000000000000107202500000VTO130530322617
D0002844491807203648880000363185220009887               01072025CUOTA         000284449185              0009000000P                      00000000000000R00   0000000000000000107202500000VTO130530322617
D0385525228607201512880000403204360009898               01072025CUOTA         038552522865              0009000000P                      00000000000000R00   0000000000000000107202500000VTO130530322617
D0002890013704400349400003156301030009917               01072025CUOTA         000289001375              0009000000P                      00000000000000R00   0000000000000000107202500000VTO130530322617
D0003231526319101059551105011172030009918               01072025CUOTA         000323152635              0009000000P                      00000000000000R00   0000000000000000107202500000VTO130530322617
D0002182613701700718400000361840460009925               01072025CUOTA         000218261375              0009000000P                      00000000000000R00   0000000000000000107202500000VTO130530322617
D0001313206707203648880000363768360009928               01072025CUOTA         000131320675              0009000000P                      00000000000000R00   0000000000000000107202500000VTO130530322617
D0003173921232100011500029875033750009947               01072025CUOTA         000317392125              0009000000P                      00000000000000R00   0000000000000000107202500000VTO130530322617
D0003309283007201512880000377830400009948               01072025CUOTA         000330928305              0009000000P                      00000000000000R00   0000000000000000107202500000VTO130530322617
D0002804897601508404010001200326320009951               01072025CUOTA         000280489765              0009000000P                      00000000000000R00   0000000000000000107202500000VTO130530322617
D0002397640607203648880000350789860009965               01072025CUOTA         000239764065              0009000000P                      00000000000000R00   0000000000000000107202500000VTO130530322617
D0001815488632100011300070496410020009966               01072025CUOTA         000181548865              0009000000P                      00000000000000R00   0000000000000000107202500000VTO130530322617
D0002783471928506797400949066073480009968               01072025CUOTA         000278347195              0009000000P                      00000000000000R00   0000000000000000107202500000VTO130530322617
D0002179172032100011300070441327830009976               01072025CUOTA         000217917205              0009000000P                      00000000000000R00   0000000000000000107202500000VTO130530322617
D0002760807801104992300499992833290009985               01072025CUOTA         000276080785              0009000000P                      00000000000000R00   0000000000000000107202500000VTO130530322617
D0002957673832100011300071125086120009989               01072025CUOTA         000295767385              0007650000P                      00000000000000R00   0000000000000000107202500000VTO130530322617
D0002530174132100011300080281243650010006               01072025CUOTA         000253017415              0009000000P                      00000000000000R00   0000000000000000107202500000VTO130530322617
D0002304117500701217300041754165910010008               01072025CUOTA         000230411755              0009000000P                      00000000000000R00   0000000000000000107202500000VTO130530322617
D0002718512632100011300300187113650010011               01072025CUOTA         000271851265              0009000000P                      00000000000000R00   0000000000000000107202500000VTO130530322617
D0002437651732100011300079243065290010014               01072025CUOTA         000243765175              0009000000P                      00000000000000R00   0000000000000000107202500000VTO130530322617
D0003308933432100011300079981999190010015               01072025CUOTA         000330893345              0009000000P                      00000000000000R00   0000000000000000107202500000VTO130530322617
D0002872472832100011300080043356060010028               01072025CUOTA         000287247285              0009000000P                      00000000000000R00   0000000000000000107202500000VTO130530322617
D0002739071304400349400001711821230010030               01072025CUOTA         000273907135              0009000000P                      00000000000000R00   0000000000000000107202500000VTO130530322617
D0002739047501700718400000376672140010032               01072025CUOTA         000273904755              0009000000P                      00000000000000R00   0000000000000000107202500000VTO130530322617
D0002540026301100136300013106687470010041               01072025CUOTA         000254002635              0009000000P                      00000000000000R00   0000000000000000107202500000VTO130530322617
D0002030729932100011500032856824300010042               01072025CUOTA         000203072995              0009000000P                      00000000000000R00   0000000000000000107202500000VTO130530322617
D0002812501932100011300071013978100010048               01072025CUOTA         000281250195              0009000000P                      00000000000000R00   0000000000000000107202500000VTO130530322617
D0003374916507201512880000037994400010050               01072025CUOTA         000337491655              0009000000P                      00000000000000R00   0000000000000000107202500000VTO130530322617
D0003534446507201512880000396462680010097               01072025CUOTA         000353444655              0009000000P                      00000000000000R00   0000000000000000107202500000VTO130530322617
D0002739175004400349400003107152830010099               01072025CUOTA         000273917505              0009000000P                      00000000000000R00   0000000000000000107202500000VTO130530322617
D0003173976904400349400002778760430010447               01072025CUOTA         000317397695              0009000000P                      00000000000000R00   0000000000000000107202500000VTO130530322617
D0002953617132100011300070909372880010449               01072025CUOTA         000295361715              0009000000P                      00000000000000R00   0000000000000000107202500000VTO130530322617
D0002739090007201512880000370605900010451               01072025CUOTA         000273909005              0009000000P                      00000000000000R00   0000000000000000107202500000VTO130530322617
D0002224264301508404010001060581660010460               01072025CUOTA         000222426435              0009000000P                      00000000000000R00   0000000000000000107202500000VTO130530322617
D0002516861707201512880000021664540010461               01072025CUOTA         000251686175              0009000000P                      00000000000000R00   0000000000000000107202500000VTO130530322617
D0002616131107201512880000021746400010463               01072025CUOTA         000261613115              0009000000P                      00000000000000R00   0000000000000000107202500000VTO130530322617
D0002530185807201512880000252129900010464               01072025CUOTA         000253018585              0009000000P                      00000000000000R00   0000000000000000107202500000VTO130530322617
D0002994937901104992300499093230330010473               01072025CUOTA         000299493795              0009000000P                      00000000000000R00   0000000000000000107202500000VTO130530322617
D0001475411132100011500026813050280010474               01072025CUOTA         000147541115              0009000000P                      00000000000000R00   0000000000000000107202500000VTO130530322617
D0003416947438900837400052096809380010478               01072025CUOTA         000341694745              0009000000P                      00000000000000R00   0000000000000000107202500000VTO130530322617
D0003528745632100011300300309747330010479               01072025CUOTA         000352874565              0009000000P                      00000000000000R00   0000000000000000107202500000VTO130530322617
D0002781106328506797400948956906880010483               01072025CUOTA         000278110635              0009000000P                      00000000000000R00   0000000000000000107202500000VTO130530322617
D0002261879532100011300070040909750010494               01072025CUOTA         000226187955              0009000000P                      00000000000000R00   0000000000000000107202500000VTO130530322617
D0003534352701700718400000366516500010520               01072025CUOTA         000353435275              0009000000P                      00000000000000R00   0000000000000000107202500000VTO130530322617
D0002657027807201512880000382786040010523               01072025CUOTA         000265702785              0009000000P                      00000000000000R00   0000000000000000107202500000VTO130530322617
D0002989418032100011300071168080460010525               01072025CUOTA         000298941805              0009000000P                      00000000000000R00   0000000000000000107202500000VTO130530322617
D0002392598132100011300071326935410010529               01072025CUOTA         000239259815              0009000000P                      00000000000000R00   0000000000000000107202500000VTO130530322617
D0002850306807201512880000224689900010534               01072025CUOTA         000285030685              0009000000P                      00000000000000R00   0000000000000000107202500000VTO130530322617
D0002527679032100011300070455353210010539               01072025CUOTA         000252767905              0007650000P                      00000000000000R00   0000000000000000107202500000VTO130530322617
D0002813914132100011300070504039030010543               01072025CUOTA         000281391415              0007650000P                      00000000000000R00   0000000000000000107202500000VTO130530322617
D0002261829207201512880000220333900010553               01072025CUOTA         000226182925              0009000000P                      00000000000000R00   0000000000000000107202500000VTO130530322617
D0002341136332100011300070406366780010558               01072025CUOTA         000234113635              0009000000P                      00000000000000R00   0000000000000000107202500000VTO130530322617
D0002421656932100011300070446134200010559               01072025CUOTA         000242165695              0009000000P                      00000000000000R00   0000000000000000107202500000VTO130530322617
D0002739114507203648880000360339860010562               01072025CUOTA         000273911455              0009000000P                      00000000000000R00   0000000000000000107202500000VTO130530322617
D0002543793132100011500022562296380010565               01072025CUOTA         000254379315              0009000000P                      00000000000000R00   0000000000000000107202500000VTO130530322617
D0002804897601508404010001200326320010567               01072025CUOTA         000280489765              0009000000P                      00000000000000R00   0000000000000000107202500000VTO130530322617
D0002662943107201512880000365442680010570               01072025CUOTA         000266294315              0009000000P                      00000000000000R00   0000000000000000107202500000VTO130530322617
D0002163125407201512880000221156360010571               01072025CUOTA         000216312545              0009000000P                      00000000000000R00   0000000000000000107202500000VTO130530322617
D0002781108001104992300499251735150010572               01072025CUOTA         000278110805              0009000000P                      00000000000000R00   0000000000000000107202500000VTO130530322617
D0001379069900701217300041424998130010574               01072025CUOTA         000137906995              0009000000P                      00000000000000R00   0000000000000000107202500000VTO130530322617
D0002813917928506797400949717212080010582               01072025CUOTA         000281391795              0009000000P                      00000000000000R00   0000000000000000107202500000VTO130530322617
D0002095990432100011300070556071950010586               01072025CUOTA         000209599045              0009000000P                      00000000000000R00   0000000000000000107202500000VTO130530322617
D0002745737332100011300079585778320010595               01072025CUOTA         000274573735              0009000000P                      00000000000000R00   0000000000000000107202500000VTO130530322617
D0002616115532100011300071099158100010597               01072025CUOTA         000261611555              0007650000P                      00000000000000R00   0000000000000000107202500000VTO130530322617
D0002758175501700718400000359659140010598               01072025CUOTA         000275817555              0009000000P                      00000000000000R00   0000000000000000107202500000VTO130530322617
D0002397632101700718400000005224140010600               01072025CUOTA         000239763215              0009000000P                      00000000000000R00   0000000000000000107202500000VTO130530322617
D0002511441328506797400951955215880010603               01072025CUOTA         000251144135              0009000000P                      00000000000000R00   0000000000000000107202500000VTO130530322617
D0002734212307201512880000020797540010616               01072025CUOTA         000273421235              0009000000P                      00000000000000R00   0000000000000000107202500000VTO130530322617
D0002566570432100011300071395620460010633               01072025CUOTA         000256657045              0009000000P                      00000000000000R00   0000000000000000107202500000VTO130530322617
D0002163288507200298880000023790900010640               01072025CUOTA         000216328855              0009000000P                      00000000000000R00   0000000000000000107202500000VTO130530322617
D0003091830600701217300041774001250010646               01072025CUOTA         000309183065              0007650000P                      00000000000000R00   0000000000000000107202500000VTO130530322617
D0003499419319101059551105010711670010661               01072025CUOTA         000349941935              0009000000P                      00000000000000R00   0000000000000000107202500000VTO130530322617
D0002440965700701217300041804502670010955               01072025CUOTA         000244096575              0009000000P                      00000000000000R00   0000000000000000107202500000VTO130530322617
D0002813949219101059550105533768280010963               01072025CUOTA         000281394925              0009000000P                      00000000000000R00   0000000000000000107202500000VTO130530322617
D0003441408901700718400000333950780010993               01072025CUOTA         000344140895              0007650000P                      00000000000000R00   0000000000000000107202500000VTO130530322617
D0002622065732100011300071321159190011011               01072025CUOTA         000262206575              0009000000P                      00000000000000R00   0000000000000000107202500000VTO130530322617
D0002604046932100011300071209616340011025               01072025CUOTA         000260404695              0009000000P                      00000000000000R00   0000000000000000107202500000VTO130530322617
D0002341184732100011300070263525070011026               01072025CUOTA         000234118475              0009000000P                      00000000000000R00   0000000000000000107202500000VTO130530322617
D0005162671232100011300070526084360011039               01072025CUOTA         000516267125              0009000000P                      00000000000000R00   0000000000000000107202500000VTO130530322617
D0002570958732100011300070494301890011040               01072025CUOTA         000257095875              0009000000P                      00000000000000R00   0000000000000000107202500000VTO130530322617
D0003416765501700718400000373174780011045               01072025CUOTA         000341676555              0009000000P                      00000000000000R00   0000000000000000107202500000VTO130530322617
D0002813949219101059550105533768280011054               01072025CUOTA         000281394925              0009000000P                      00000000000000R00   0000000000000000107202500000VTO130530322617
D0002760822001508404010001203660890011058               01072025CUOTA         000276082205              0009000000P                      00000000000000R00   0000000000000000107202500000VTO130530322617
D0002739197432100011300070241628100011085               01072025CUOTA         000273919745              0009000000P                      00000000000000R00   0000000000000000107202500000VTO130530322617
D0002594604632100011500030239706720011088               01072025CUOTA         000259460465              0009000000P                      00000000000000R00   0000000000000000107202500000VTO130530322617
D0003440969532100011300300369471390011096               01072025CUOTA         000344096955              0009000000P                      00000000000000R00   0000000000000000107202500000VTO130530322617
D0001826003832100011300070325994420011098               01072025CUOTA         000182600385              0009000000P                      00000000000000R00   0000000000000000107202500000VTO130530322617
D0002397625132100011300071246872880011115               01072025CUOTA         000239762515              0009000000P                      00000000000000R00   0000000000000000107202500000VTO130530322617
D0002419334800701217200000056034200011116               01072025CUOTA         000241933485              0009000000P                      00000000000000R00   0000000000000000107202500000VTO130530322617
D0002341185032100011300070587419970011123               01072025CUOTA         000234118505              0007650000P                      00000000000000R00   0000000000000000107202500000VTO130530322617
D0002570997332100011300071112788480011125               01072025CUOTA         000257099735              0009000000P                      00000000000000R00   0000000000000000107202500000VTO130530322617
D0002906003203402841082840160630060011131               01072025CUOTA         000290600325              0007500000P                      00000000000000R00   0000000000000000107202500000VTO130530322617
D0003071221101508404010001152497390011132               01072025CUOTA         000307122115              0007500000P                      00000000000000R00   0000000000000000107202500000VTO130530322617
D0002971691132100011300071399395850011136               01072025CUOTA         000297169115              0007500000P                      00000000000000R00   0000000000000000107202500000VTO130530322617
D0003213241532100011500023217200840011139               01072025CUOTA         000321324155              0006375000P                      00000000000000R00   0000000000000000107202500000VTO130530322617
D0002311785507201512880000021574180011157               01072025CUOTA         000231178555              0007500000P                      00000000000000R00   0000000000000000107202500000VTO130530322617
D0002989415807201512880000382872680011161               01072025CUOTA         000298941585              0007500000P                      00000000000000R00   0000000000000000107202500000VTO130530322617
D0003189723907200250880000376639040011180               01072025CUOTA         000318972395              0007500000P                      00000000000000R00   0000000000000000107202500000VTO130530322617
D0002533389632100011300070274742660011188               01072025CUOTA         000253338965              0007500000P                      00000000000000R00   0000000000000000107202500000VTO130530322617
D0002824610307201512880000361628220011194               01072025CUOTA         000282461035              0007500000P                      00000000000000R00   0000000000000000107202500000VTO130530322617
D0002872472832100011300080043356060011200               01072025CUOTA         000287247285              0007500000P                      00000000000000R00   0000000000000000107202500000VTO130530322617
D0002550196307201512880000020408220011287               01072025CUOTA         000255019635              0007500000P                      00000000000000R00   0000000000000000107202500000VTO130530322617
D0002791817332100011300070447623370011290               01072025CUOTA         000279181735              0007500000P                      00000000000000R00   0000000000000000107202500000VTO130530322617
D0002813917928506797400949717212080011296               01072025CUOTA         000281391795              0007500000P                      00000000000000R00   0000000000000000107202500000VTO130530322617
D0003352060232100011300071403697550011299               01072025CUOTA         000335206025              0006375000P                      00000000000000R00   0000000000000000107202500000VTO130530322617
D0003285993907201512880000371462720011300               01072025CUOTA         000328599395              0007500000P                      00000000000000R00   0000000000000000107202500000VTO130530322617
D0003369312232100011300071310560020011301               01072025CUOTA         000336931225              0006375000P                      00000000000000R00   0000000000000000107202500000VTO130530322617
D0001029316601104992300499179368010011312               01072025CUOTA         000102931665              0007500000P                      00000000000000R00   0000000000000000107202500000VTO130530322617
D0002496743532100011300070600399470011315               01072025CUOTA         000249674355              0009000000P                      00000000000000R00   0000000000000000107202500000VTO130530322617
D0002831892101104992300499088916650011319               01072025CUOTA         000283189215              0009000000P                      00000000000000R00   0000000000000000107202500000VTO130530322617
D0002867732032100011300300198779690011322               01072025CUOTA         000286773205              0009000000P                      00000000000000R00   0000000000000000107202500000VTO130530322617
D0002550791732100011300079664180800011339               01072025CUOTA         000255079175              0007650000P                      00000000000000R00   0000000000000000107202500000VTO130530322617
D0002573003532100011300070502668980011396               01072025CUOTA         000257300353              0006000000P                      00000000000000R00   0000000000000000107202500000VTO130530322617
D0002584425632100011300079815764080011453               01072025CUOTA         000258442565              0009000000P                      00000000000000R00   0000000000000000107202500000VTO130530322617
D0002739338132100011300070954323370011542               01072025CUOTA         000273933815              0009000000P                      00000000000000R00   0000000000000000107202500000VTO130530322617
D0003469555632100011500026114699850011613               01072025CUOTA         000346955565              0001000000P                      00000000000000R00   0000000000000000107202500000VTO130530322617
D0002530142632100011300071240209750011617               01072025CUOTA         000253014265              0009000000P                      00000000000000R00   0000000000000000107202500000VTO130530322617
D0002636876001508404010001253533120011618               01072025CUOTA         000263687605              0007650000P                      00000000000000R00   0000000000000000107202500000VTO130530322617
D0003091757932100011300071436205850011620               01072025CUOTA         000309175795              0009000000P                      00000000000000R00   0000000000000000107202500000VTO130530322617
D0005297087732100011300070990641670011621               01072025CUOTA         000529708775              0009000000P                      00000000000000R00   0000000000000000107202500000VTO130530322617
D0002824606604400349400003087528430011622               01072025CUOTA         000282460665              0009000000P                      00000000000000R00   0000000000000000107202500000VTO130530322617
D0002657657200701217300041504711020011626               01072025CUOTA         000265765725              0009000000P                      00000000000000R00   0000000000000000107202500000VTO130530322617
D0002437669807201512880000370515540011627               01072025CUOTA         000243766985              0009000000P                      00000000000000R00   0000000000000000107202500000VTO130530322617
D0002971998532100011300070595520020011632               01072025CUOTA         000297199855              0009000000P                      00000000000000R00   0000000000000000107202500000VTO130530322617
D0002261737532100011300070988517990011647               01072025CUOTA         000226173755              0009000000P                      00000000000000R00   0000000000000000107202500000VTO130530322617
D0002397665532100011500022987589850011653               01072025CUOTA         000239766555              0009000000P                      00000000000000R00   0000000000000000107202500000VTO130530322617
D0001680222807201512880000045309540011654               01072025CUOTA         000168022285              0009000000P                      00000000000000R00   0000000000000000107202500000VTO130530322617
D0002261879532100011300070040909750011666               01072025CUOTA         000226187955              0009000000P                      00000000000000R00   0000000000000000107202500000VTO130530322617
D0003773688807203648880000003566400011674               01072025CUOTA         000377368885              0009000000P                      00000000000000R00   0000000000000000107202500000VTO130530322617
D0002760894301700718400000333716780011677               01072025CUOTA         000276089435              0009000000P                      00000000000000R00   0000000000000000107202500000VTO130530322617
D0002370577601508404010001204670270011678               01072025CUOTA         000237057765              0009000000P                      00000000000000R00   0000000000000000107202500000VTO130530322617
D0002570974007201512880000381155720011680               01072025CUOTA         000257097405              0009000000P                      00000000000000R00   0000000000000000107202500000VTO130530322617
D0002789993332100011300071369659470011696               01072025CUOTA         000278999335              0009000000P                      00000000000000R00   0000000000000000107202500000VTO130530322617
D0003423637001700718400000353612000011697               01072025CUOTA         000342363705              0009000000P                      00000000000000R00   0000000000000000107202500000VTO130530322617
D0003374901632100011300071237315350011700               01072025CUOTA         000337490165              0009000000P                      00000000000000R00   0000000000000000107202500000VTO130530322617
D0002722298832100011300070477420800011701               01072025CUOTA         000272229885              0009000000P                      00000000000000R00   0000000000000000107202500000VTO130530322617
D0003190502904400349400003128780230011704               01072025CUOTA         000319050295              0009000000P                      00000000000000R00   0000000000000000107202500000VTO130530322617
D0002989431332100011300071278839970011705               01072025CUOTA         000298943135              0009000000P                      00000000000000R00   0000000000000000107202500000VTO130530322617
D0003505224032100011300071991131670011706               01072025CUOTA         000350522405              0009000000P                      00000000000000R00   0000000000000000107202500000VTO130530322617
D0003298049607201512880000375093360011712               01072025CUOTA         000329804965              0009000000P                      00000000000000R00   0000000000000000107202500000VTO130530322617
D0003205417532100011300300398379470011720               01072025CUOTA         000320541755              0009000000P                      00000000000000R00   0000000000000000107202500000VTO130530322617
D0002196813207201512880000021526040011727               01072025CUOTA         000219681325              0009000000P                      00000000000000R00   0000000000000000107202500000VTO130530322617
D0001815488632100011300070496410020011728               01072025CUOTA         000181548865              0009000000P                      00000000000000R00   0000000000000000107202500000VTO130530322617
D0002761593307201512880000021492220011730               01072025CUOTA         000276159335              0009000000P                      00000000000000R00   0000000000000000107202500000VTO130530322617
D0002850306807201512880000224689900011731               01072025CUOTA         000285030685              0009000000P                      00000000000000R00   0000000000000000107202500000VTO130530322617
D0002616165132100011300071923594360011738               01072025CUOTA         000261616515              0009000000P                      00000000000000R00   0000000000000000107202500000VTO130530322617
D0002900107201508404010001094280140011740               01072025CUOTA         000290010725              0009000000P                      00000000000000R00   0000000000000000107202500000VTO130530322617
D0002406826232100011300070448812720011742               01072025CUOTA         000240682625              0009000000P                      00000000000000R00   0000000000000000107202500000VTO130530322617
D0002971675907201512880000372169860011744               01072025CUOTA         000297167595              0009000000P                      00000000000000R00   0000000000000000107202500000VTO130530322617
D0002397640607203648880000350789860011748               01072025CUOTA         000239764065              0009000000P                      00000000000000R00   0000000000000000107202500000VTO130530322617
D0001379069900701217300041424998130011753               01072025CUOTA         000137906995              0007500000P                      00000000000000R00   0000000000000000107202500000VTO130530322617
D0002760807801104992300499992833290011756               01072025CUOTA         000276080785              0007500000P                      00000000000000R00   0000000000000000107202500000VTO130530322617
D0002804866432100011300071080664580011759               01072025CUOTA         000280486645              0007500000P                      00000000000000R00   0000000000000000107202500000VTO130530322617
D0002570932232100011300070326155790011760               01072025CUOTA         000257093225              0007500000P                      00000000000000R00   0000000000000000107202500000VTO130530322617
D0002224289901104992300499099774830011761               01072025CUOTA         000222428995              0007500000P                      00000000000000R00   0000000000000000107202500000VTO130530322617
D0003129739832100011300071804337770011762               01072025CUOTA         000312973985              0007500000P                      00000000000000R00   0000000000000000107202500000VTO130530322617
D0003213241532100011500023217200840011764               01072025CUOTA         000321324155              0006375000P                      00000000000000R00   0000000000000000107202500000VTO130530322617
D0003591796601104992300499194728510011773               01072025CUOTA         000359179665              0006375000P                      00000000000000R00   0000000000000000107202500000VTO130530322617
D0002890035507201512880000020479220011789               01072025CUOTA         000289003555              0007500000P                      00000000000000R00   0000000000000000107202500000VTO130530322617
D0002616115532100011300071099158100011803               01072025CUOTA         000261611555              0006375000P                      00000000000000R00   0000000000000000107202500000VTO130530322617
D0003161340332100011500029930069630011807               01072025CUOTA         000316134035              0007500000P                      00000000000000R00   0000000000000000107202500000VTO130530322617
D0022085145232100011300300291684080011812               01072025CUOTA         002208514525              0007500000P                      00000000000000R00   0000000000000000107202500000VTO130530322617
D0003423142232100011300071880462380011815               01072025CUOTA         000342314225              0007500000P                      00000000000000R00   0000000000000000107202500000VTO130530322617
D0002559604132100011300300195923090011823               01072025CUOTA         000255960415              0007500000P                      00000000000000R00   0000000000000000107202500000VTO130530322617
D0002718586232100011300079526924360011825               01072025CUOTA         000271858625              0007500000P                      00000000000000R00   0000000000000000107202500000VTO130530322617
D0002739338132100011300070954323370011828               01072025CUOTA         000273933815              0007500000P                      00000000000000R00   0000000000000000107202500000VTO130530322617
D0003255804932100011300071680662720011851               01072025CUOTA         000325580495              0007500000P                      00000000000000R00   0000000000000000107202500000VTO130530322617
D0003255804932100011300071680662720011853               01072025CUOTA         000325580495              0007500000P                      00000000000000R00   0000000000000000107202500000VTO130530322617
D0001183339532100011500029056717150011888               01072025CUOTA         000118333955              0007500000P                      00000000000000R00   0000000000000000107202500000VTO130530322617
D0003031809432100011300071363144420011899               01072025CUOTA         000303180945              0009000000P                      00000000000000R00   0000000000000000107202500000VTO130530322617
D0002290250132100011300079229143370011900               01072025CUOTA         000229025015              0009000000P                      00000000000000R00   0000000000000000107202500000VTO130530322617
D0002434677707203648880000357830040011967               01072025CUOTA         000243467775              0009000000P                      00000000000000R00   0000000000000000107202500000VTO130530322617
D0003591756432100011300071273414420012084               01072025CUOTA         000359175645              0007500000P                      00000000000000R00   0000000000000000107202500000VTO130530322617
D0003363400207205002880000051106180012092               01072025CUOTA         000336340025              0007500000P                      00000000000000R00   0000000000000000107202500000VTO130530322617
D0003505206528506797400947013913580012135               01072025CUOTA         000350520655              0007500000P                      00000000000000R00   0000000000000000107202500000VTO130530322617
D0003091836332100011300079584798480012137               01072025CUOTA         000309183635              0007500000P                      00000000000000R00   0000000000000000107202500000VTO130530322617
D0002333538504400349400001246878730012141               01072025CUOTA         000233353855              0007500000P                      00000000000000R00   0000000000000000107202500000VTO130530322617
D0002767792132100011300070561164700012142               01072025CUOTA         000276779215              0007500000P                      00000000000000R00   0000000000000000107202500000VTO130530322617
D0003037296832100011300071990013090012144               01072025CUOTA         000303729685              0007500000P                      00000000000000R00   0000000000000000107202500000VTO130530322617
D0003091814232100011300070491681230012145               01072025CUOTA         000309181425              0007500000P                      00000000000000R00   0000000000000000107202500000VTO130530322617
D0002341075232100011500030123302540012148               01072025CUOTA         000234107525              0007500000P                      00000000000000R00   0000000000000000107202500000VTO130530322617
D0003024139200701217300041797522170012149               01072025CUOTA         000302413925              0007500000P                      00000000000000R00   0000000000000000107202500000VTO130530322617
D0003130554207201512880000378995720012152               01072025CUOTA         000313055425              0007500000P                      00000000000000R00   0000000000000000107202500000VTO130530322617
D0003574126207201512880000399655720012158               01072025CUOTA         000357412625              0007500000P                      00000000000000R00   0000000000000000107202500000VTO130530322617
D0002858961801104992300499994412790012164               01072025CUOTA         000285896185              0007500000P                      00000000000000R00   0000000000000000107202500000VTO130530322617
D0003019024732100011300079701938760012186               01072025CUOTA         000301902475              0007500000P                      00000000000000R00   0000000000000000107202500000VTO130530322617
D0002695476601700718400000338165280012198               01072025CUOTA         000269547665              0007500000P                      00000000000000R00   0000000000000000107202500000VTO130530322617
D0001677204232100011300070224557050012199               01072025CUOTA         000167720425              0007500000P                      00000000000000R00   0000000000000000107202500000VTO130530322617
D0003427830432100011300079665389970012200               01072025CUOTA         000342783045              0007500000P                      00000000000000R00   0000000000000000107202500000VTO130530322617
D0002056483332100011300071432347330012204               01072025CUOTA         000205648335              0007500000P                      00000000000000R00   0000000000000000107202500000VTO130530322617
D0002914275832100011500022670528360012206               01072025CUOTA         000291427585              0007500000P                      00000000000000R00   0000000000000000107202500000VTO130530322617
D0003369312232100011300071310560020012216               01072025CUOTA         000336931225              0006375000P                      00000000000000R00   0000000000000000107202500000VTO130530322617
D0002971998532100011300070595520020012222               01072025CUOTA         000297199855              0007500000P                      00000000000000R00   0000000000000000107202500000VTO130530322617
D0002550791732100011300079664180800012223               01072025CUOTA         000255079175              0006375000P                      00000000000000R00   0000000000000000107202500000VTO130530322617
D0003024109804400349400002650408230012240               01072025CUOTA         000302410985              0007500000P                      00000000000000R00   0000000000000000107202500000VTO130530322617
D0002887064532100011300070262835130012242               01072025CUOTA         000288706455              0007500000P                      00000000000000R00   0000000000000000107202500000VTO130530322617
D0003604549832100011300079334425910012257               01072025CUOTA         000360454985              0007500000P                      00000000000000R00   0000000000000000107202500000VTO130530322617
D0002874422007201512880000388020900012262               01072025CUOTA         000287442205              0007500000P                      00000000000000R00   0000000000000000107202500000VTO130530322617
D0003424067519101059551105010179850012269               01072025CUOTA         000342406755              0007500000P                      00000000000000R00   0000000000000000107202500000VTO130530322617
D0002739115132100011300071375341950012274               01072025CUOTA         000273911515              0007500000P                      00000000000000R00   0000000000000000107202500000VTO130530322617
D0002197942401101092300109246901010012278               01072025CUOTA         000219794245              0007500000P                      00000000000000R00   0000000000000000107202500000VTO130530322617
D0002906241900701217300041796984100012280               01072025CUOTA         000290624195              0007500000P                      00000000000000R00   0000000000000000107202500000VTO130530322617
D0002906241900701217300041796984100012281               01072025CUOTA         000290624195              0007500000P                      00000000000000R00   0000000000000000107202500000VTO130530322617
D0003173972315001308000130601852820012287               01072025CUOTA         000317397235              0007500000P                      00000000000000R00   0000000000000000107202500000VTO130530322617
D0003082410632100011300079762262440012288               01072025CUOTA         000308241065              0007500000P                      00000000000000R00   0000000000000000107202500000VTO130530322617
D0002867717132100011300071390124420012289               01072025CUOTA         000286771715              0007500000P                      00000000000000R00   0000000000000000107202500000VTO130530322617
D0003133398532100011300071213909690012296               01072025CUOTA         000313339855              0007500000P                      00000000000000R00   0000000000000000107202500000VTO130530322617
D0002813987832100011300071427193430012299               01072025CUOTA         000281398785              0007500000P                      00000000000000R00   0000000000000000107202500000VTO130530322617
D0003182538432100011300071427254580012302               01072025CUOTA         000318253845              0007500000P                      00000000000000R00   0000000000000000107202500000VTO130530322617
