H30530322617CUOTA     00006122024
D0002341057407201512880000404078900007958               05122024CUOTA         0002341057410             0003400000P                                    R10   0000000000000000512202400000VTO230530322617
D0002341057407201512880000404078900009010               05122024CUOTA         0002341057410             0003400000P                                    R10   0000000000000000512202400000VTO230530322617
D0003130525307201512880000372950040009024               05122024CUOTA         0003130525310             0003400000P                                    R10   0000000000000000512202400000VTO230530322617
D0003130525307201512880000372950040010550               05122024CUOTA         0003130525310             0003400000P                                    R10   0000000000000000512202400000VTO230530322617
D0003795539807201512880000396344900011782               05122024CUOTA         0003795539810             0003400000P                                    R10   0000000000000000512202400000VTO230530322617
D0002636895007201512880000392074360012207               05122024CUOTA         0002636895010             0003400000P                                    R10   0000000000000000512202400000VTO230530322617
D0003130525307201512880000372950040014365               05122024CUOTA         0003130525310             0003400000P                                    R10   0000000000000000512202400000VTO230530322617
D0003130525307201512880000372950040016722               05122024CUOTA         0003130525310             0003300000P                                    R10   0000000000000000512202400000VTO230530322617
D0003190506200701217300041673149820009843               05122024CUOTA         0003190506210             0003400000P                                    R10   0000000000000000512202400000VTO230530322617
D0002703011200701217300041563904670010660               05122024CUOTA         0002703011210             0003400000P                                    R10   0000000000000000512202400000VTO230530322617
D0003740966400701217300041742973840018890               05122024CUOTA         0003740966410             0003300000P                                    R10   0000000000000000512202400000VTO230530322617
D0003130514000701217300041771272950020038               05122024CUOTA         0003130514010             0003400000P                                    R10   0000000000000000512202400000VTO230530322617
D0003292808900701965300040166847180021297               05122024CUOTA         0003292808910             0003300000P                                    R10   0000000000000000512202400000VTO230530322617
D0003035560704400349400002367972930008383               05122024CUOTA         0003035560710             0003400000P                                    R10   0000000000000000512202400000VTO230530322617
D0002870109904400349400001339761330008937               05122024CUOTA         0002870109910             0003400000P                                    R10   0000000000000000512202400000VTO230530322617
D0003024109804400349400002650408230014305               05122024CUOTA         0003024109810             0002640000P                                    R10   0000000000000000512202400000VTO230530322617
D0002870109904400349400001339761330011786               05122024CUOTA         0002870109910             0003400000P                                    R10   0000000000000000512202400000VTO230530322617
D0003024109804400349400002650408230012240               05122024CUOTA         0003024109810             0002720000P                                    R10   0000000000000000512202400000VTO230530322617
D0002739262704400349400001693111330014456               05122024CUOTA         0002739262710             0003400000P                                    R10   0000000000000000512202400000VTO230530322617
D0002989405004400349400002683558030014174               05122024CUOTA         0002989405010             0003400000P                                    R10   0000000000000000512202400000VTO230530322617
D0003305452201700718400000368076640007313               05122024CUOTA         0003305452210             0003400000P                                    R10   0000000000000000512202400000VTO230530322617
D0002739047501700718400000376672140010032               05122024CUOTA         0002739047510             0003400000P                                    R10   0000000000000000512202400000VTO230530322617
D0002419817001700718400000372602460011114               05122024CUOTA         0002419817010             0003400000P                                    R10   0000000000000000512202400000VTO230530322617
D0002604044001700718400000381399140009842               05122024CUOTA         0002604044010             0003400000P                                    R10   0000000000000000512202400000VTO230530322617
D0002679956701700718400000392321000011729               05122024CUOTA         0002679956710             0003400000P                                    R10   0000000000000000512202400000VTO230530322617
D0002948695701508404010001242773100008324               05122024CUOTA         0002948695710             0003400000P                                    R10   0000000000000000512202400000VTO230530322617
D0002677488432100011300071292042880007334               05122024CUOTA         0002677488410             0003400000P                                    R10   0000000000000000512202400000VTO230530322617
D0002677488432100011300071292042880008382               05122024CUOTA         0002677488410             0003400000P                                    R10   0000000000000000512202400000VTO230530322617
D0003741101732100011300080255904080014189               05122024CUOTA         0003741101710             0003400000P                                    R10   0000000000000000512202400000VTO230530322617
D0001630907732100011300300172666060006819               05122024CUOTA         0001630907710             0003400000P                                    R10   0000000000000000512202400000VTO230530322617
D0002496771932100011300070061066340011267               05122024CUOTA         0002496771910             0000500000P                                    R10   0000000000000000512202400000VTO230530322617
D0003323480732100011300071265214140008374               05122024CUOTA         0003323480710             0003400000P                                    R10   0000000000000000512202400000VTO230530322617
D0003323480732100011300071265214140011774               05122024CUOTA         0003323480710             0003400000P                                    R10   0000000000000000512202400000VTO230530322617
D0001854371732100011300070624146560008514               05122024CUOTA         0001854371710             0003400000P                                    R10   0000000000000000512202400000VTO230530322617
D0001854371732100011300070624146560008356               05122024CUOTA         0001854371710             0003400000P                                    R10   0000000000000000512202400000VTO230530322617
D0003011847032100011300071037145290010024               05122024CUOTA         0003011847010             0003400000P                                    R10   0000000000000000512202400000VTO230530322617
D0003011847032100011300071037145290012690               05122024CUOTA         0003011847010             0003400000P                                    R10   0000000000000000512202400000VTO230530322617
D0002739136632100011300070942893090011162               05122024CUOTA         0002739136610             0003400000P                                    R10   0000000000000000512202400000VTO230530322617
D0002630470032100011300070288300520010456               05122024CUOTA         0002630470010             0003400000P                                    R10   0000000000000000512202400000VTO230530322617
D0002630470032100011300070288300520008909               05122024CUOTA         0002630470010             0003400000P                                    R10   0000000000000000512202400000VTO230530322617
D0002496777932100011300070276950740010527               05122024CUOTA         0002496777910             0003400000P                                    R10   0000000000000000512202400000VTO230530322617
D0002867490032100011300070591091230008392               05122024CUOTA         0002867490010             0002720000P                                    R10   0000000000000000512202400000VTO230530322617
D0002844459532100011300070507826400009894               05122024CUOTA         0002844459510             0003400000P                                    R10   0000000000000000512202400000VTO230530322617
D0002844459532100011300070507826400012718               05122024CUOTA         0002844459510             0003400000P                                    R10   0000000000000000512202400000VTO230530322617
D0001466136832100011300070072315910007894               05122024CUOTA         0001466136810             0003400000P                                    R10   0000000000000000512202400000VTO230530322617
D0003352060232100011300071403697550008896               05122024CUOTA         0003352060210             0002720000P                                    R10   0000000000000000512202400000VTO230530322617
D0003440969532100011300300369471390021156               05122024CUOTA         0003440969510             0002720000P                                    R10   0000000000000000512202400000VTO230530322617
D0003440969532100011300300369471390013128               05122024CUOTA         0003440969510             0002720000P                                    R10   0000000000000000512202400000VTO230530322617
D0003039272932100011300071223586780021235               05122024CUOTA         0003039272910             0003400000P                                    R10   0000000000000000512202400000VTO230530322617
D0003308856332100011300079877296840021117               05122024CUOTA         0003308856310             0003400000P                                    R10   0000000000000000512202400000VTO230530322617
D0002457858932100011300070172215790012940               05122024CUOTA         0002457858910             0003400000P                                    R10   0000000000000000512202400000VTO230530322617
D0003108150832100011500022242111550008921               05122024CUOTA         0003108150810             0003400000P                                    R10   0000000000000000512202400000VTO230530322617
D0003112041432100011500026110673250011017               05122024CUOTA         0003112041410             0003400000P                                    R10   0000000000000000512202400000VTO230530322617
D0003855815932100011500031383993190012765               05122024CUOTA         0003855815910             0000500000P                                    R10   0000000000000000512202400000VTO230530322617
D0003277615032100011500029773064520012094               05122024CUOTA         0003277615010             0000500000P                                    R10   0000000000000000512202400000VTO230530322617
D0003388222332100011500031173137210014232               05122024CUOTA         0003388222310             0003400000P                                    R10   0000000000000000512202400000VTO230530322617
D0003773693932100011500029368314300014498               05122024CUOTA         0003773693910             0000500000P                                    R10   0000000000000000512202400000VTO230530322617
D0003469584532100011500030111414460023579               05122024CUOTA         0003469584510             0003300000P                                    R10   0000000000000000512202400000VTO230530322617
D0002744810132100011500035434908920022546               05122024CUOTA         0002744810110             0003300000P                                    R10   0000000000000000512202400000VTO230530322617
D0002744810132100011500035434908920021362               05122024CUOTA         0002744810110             0003300000P                                    R10   0000000000000000512202400000VTO230530322617
D0002903784232102307500009181109770009642               05122024CUOTA         0002903784210             0000500000P                                    R10   0000000000000000512202400000VTO230530322617
D0003044306632102307500008995332680010034               05122024CUOTA         0003044306610             0003400000P                                    R10   0000000000000000512202400000VTO230530322617
D0003044306632102307500008995332680011311               05122024CUOTA         0003044306610             0003400000P                                    R10   0000000000000000512202400000VTO230530322617
D0003022115932102307500010154310040021169               05122024CUOTA         0003022115910             0003400000P                                    R10   0000000000000000512202400000VTO230530322617
D0003044155301104992300499244909470008972               05122024CUOTA         0003044155310             0003400000P                                    R10   0000000000000000512202400000VTO230530322617
D0003044155301104992300499244909470010566               05122024CUOTA         0003044155310             0003400000P                                    R10   0000000000000000512202400000VTO230530322617
D0003505212401104992300499184339290019010               05122024CUOTA         0003505212410             0003400000P                                    R10   0000000000000000512202400000VTO230530322617
D0003731306801104992300499076670010012304               05122024CUOTA         0003731306810             0003400000P                                    R10   0000000000000000512202400000VTO230530322617
D0003731306801104992300499076670010016657               05122024CUOTA         0003731306810             0003300000P                                    R10   0000000000000000512202400000VTO230530322617
D0003374890203402841082840244010070011791               05122024CUOTA         0003374890210             0003400000P                                    R08   0000000000000000512202400000VTO230530322617
D0003374890203402841082840244010070016693               05122024CUOTA         0003374890210             0003300000P                                    R10   0000000000000000512202400000VTO230530322617
D0003612162007200007880000404202040021288               05122024CUOTA         0003612162010             0003300000P                      00000000000000R00   0000000000000000512202400000VTO230530322617
D0001803718107203648880000351412860009952               05122024CUOTA         0001803718110             0003400000P                      00000000000000R00   0000000000000000512202400000VTO230530322617
D0002708759700701217300041847491920009940               05122024CUOTA         0002708759710             0003400000P                      00000000000000R00   0000000000000000512202400000VTO230530322617
D0003233257804400233400003560980410021167               05122024CUOTA         0003233257810             0003400000P                      00000000000000R00   0000000000000000512202400000VTO230530322617
D0002917549604400349400003435968730012656               05122024CUOTA         0002917549610             0003400000P                      00000000000000R00   0000000000000000512202400000VTO230530322617
D0003071221101700718400000346550500011132               05122024CUOTA         0003071221110             0003400000P                      00000000000000R00   0000000000000000512202400000VTO230530322617
D0003519934401700718400000370034500012790               05122024CUOTA         0003519934410             0003400000P                      00000000000000R00   0000000000000000512202400000VTO230530322617
D0003071221101700718400000346550500016659               05122024CUOTA         0003071221110             0003300000P                      00000000000000R00   0000000000000000512202400000VTO230530322617
D0003024128101508404010001256230440010350               05122024CUOTA         0003024128110             0003400000P                      00000000000000R00   0000000000000000512202400000VTO230530322617
D0003188887701508404010001203504170010458               05122024CUOTA         0003188887710             0003400000P                      00000000000000R00   0000000000000000512202400000VTO230530322617
D0003958366628503798400955167680980022420               05122024CUOTA         0003958366610             0003300000P                      00000000000000R00   0000000000000000512202400000VTO230530322617
D0003505206528506797400947013913580012135               05122024CUOTA         0003505206510             0003400000P                      00000000000000R00   0000000000000000512202400000VTO230530322617
D0003873522701104992300499188195650021124               05122024CUOTA         0003873522710             0003300000P                      00000000000000R00   0000000000000000512202400000VTO230530322617
D0002824563532100011300079665830960012683               05122024CUOTA         0002824563510             0003400000P                      00000000000000R00   0000000000000000512202400000VTO230530322617
D0002824563532100011300079665830960012660               05122024CUOTA         0002824563510             0003400000P                      00000000000000R00   0000000000000000512202400000VTO230530322617
D0003418487303402841082840178940070012862               05122024CUOTA         0003418487310             0003400000P                      00000000000000R00   0000000000000000512202400000VTO230530322617
T0000090000000284020000
