H30530322617CUOTA     02020032024            A C HNOS MISERIC                                                                                                                                           
D0002745737332100011300079585778320006738               03042024CUOTA         000000000002              0001700000P                      00000000000000      00000000000000000000000         30530322617
D0002511441328506797400951955215880006765               03042024CUOTA         000000000002              0001700000P                      00000000000000      00000000000000000000000         30530322617
D0002222259232100011300071423447490006772               03042024CUOTA         000000000002              0001700000P                      00000000000000      00000000000000000000000         30530322617
D0002486823932100011300070990641670006774               03042024CUOTA         000000000002              0001700000P                      00000000000000      00000000000000000000000         30530322617
D0003024109832100011300070458270680006776               03042024CUOTA         000000000002              0001360000P                      00000000000000      00000000000000000000000         30530322617
D0002530174132100011300080281243650006778               03042024CUOTA         000000000002              0001360000P                      00000000000000      00000000000000000000000         30530322617
D0002550191332100011300070217565570006795               03042024CUOTA         000000000002              0001700000P                      00000000000000      00000000000000000000000         30530322617
D0001830054107201512880000220288680006815               03042024CUOTA         000000000002              0001700000P                      00000000000000      00000000000000000000000         30530322617
D0002224289901104992300499099774830007267               03042024CUOTA         000000000002              0001700000P                      00000000000000      00000000000000000000000         30530322617
D0002914275832100011500022670528360007270               03042024CUOTA         000000000002              0001360000P                      00000000000000      00000000000000000000000         30530322617
D0002516861707201512880000021664540007275               03042024CUOTA         000000000002              0001700000P                      00000000000000      00000000000000000000000         30530322617
D0002722290032100011300070497387330007285               03042024CUOTA         000000000002              0001700000P                      00000000000000      00000000000000000000000         30530322617
D0002825384007201512880000390395540007290               03042024CUOTA         000000000002              0001360000P                      00000000000000      00000000000000000000000         30530322617
D0002163288507200298880000023890900007317               03042024CUOTA         000000000002              0001700000P                      00000000000000      00000000000000000000000         30530322617
D0002645991132100011300070235017110007344               03042024CUOTA         000000000002              0001700000P                      00000000000000      00000000000000000000000         30530322617
D0002341075232100011500030123302540007795               03042024CUOTA         000000000002              0001700000P                      00000000000000      00000000000000000000000         30530322617
D0002804876832100011300070620587770007799               03042024CUOTA         000000000002              0001700000P                      00000000000000      00000000000000000000000         30530322617
D0002560114301700718400000346320280007806               03042024CUOTA         000000000002              0001700000P                      00000000000000      00000000000000000000000         30530322617
D0002739013807201512880000369738220007808               03042024CUOTA         000000000002              0001700000P                      00000000000000      00000000000000000000000         30530322617
D0002566570432100011300071395620460007822               03042024CUOTA         000000000002              0001700000P                      00000000000000      00000000000000000000000         30530322617
D0002138190901702257400000309754390007845               03042024CUOTA         000000000002              0001700000P                      00000000000000      00000000000000000000000         30530322617
D0001466136832100011300070072315910007894               03042024CUOTA         000000000002              0001700000P                      00000000000000      00000000000000000000000         30530322617
D0002616178103402841082840230130070007903               03042024CUOTA         000000000002              0001700000P                      00000000000000      00000000000000000000000         30530322617
D0002347384607203648880000351433360007904               03042024CUOTA         000000000002              0001700000P                      00000000000000      00000000000000000000000         30530322617
D0002570932232100011300070326155790007910               03042024CUOTA         000000000002              0001700000P                      00000000000000      00000000000000000000000         30530322617
D0003071204532100011300070839850520007920               03042024CUOTA         000000000002              0001700000P                      00000000000000      00000000000000000000000         30530322617
D0002279602407201512880000363003360007927               03042024CUOTA         000000000002              0001700000P                      00000000000000      00000000000000000000000         30530322617
D0002341057407201512880000404078900007958               03042024CUOTA         000000000002              0001700000P                      00000000000000      00000000000000000000000         30530322617
D0002232974307203648880000358545680007968               03042024CUOTA         000000000002              0001700000P                      00000000000000      00000000000000000000000         30530322617
D0001859995300701217300041558463500007974               03042024CUOTA         000000000002              0001700000P                      00000000000000      00000000000000000000000         30530322617
D0002526789507201512880000021732720007976               03042024CUOTA         000000000002              0001700000P                      00000000000000      00000000000000000000000         30530322617
D0002196813207201512880000021526040007977               03042024CUOTA         000000000002              0001360000P                      00000000000000      00000000000000000000000         30530322617
D0002421656932100011300070446134200007994               03042024CUOTA         000000000002              0001700000P                      00000000000000      00000000000000000000000         30530322617
D0003765124932100011300079396667770008314               03042024CUOTA         000000000002              0001700000P                      00000000000000      00000000000000000000000         30530322617
D0002695492807203648880000357646540008315               03042024CUOTA         000000000002              0001700000P                      00000000000000      00000000000000000000000         30530322617
D0002981428632100011500028612531490008316               03042024CUOTA         000000000002              0001700000P                      00000000000000      00000000000000000000000         30530322617
D0002948695701508404010001242773100008324               03042024CUOTA         000000000002              0001700000P                      00000000000000      00000000000000000000000         30530322617
D0002261791900701217300041868101660008330               03042024CUOTA         000000000002              0001700000P                      00000000000000      00000000000000000000000         30530322617
D0002636884801700718200000304676640008331               03042024CUOTA         000000000002              0001700000P                      00000000000000      00000000000000000000000         30530322617
D0001815743732100011300070203201390008353               03042024CUOTA         000000000002              0001700000P                      00000000000000      00000000000000000000000         30530322617
D0001854371732100011300070624146560008356               03042024CUOTA         000000000002              0001700000P                      00000000000000      00000000000000000000000         30530322617
D0003323480732100011300071265214140008374               03042024CUOTA         000000000002              0001700000P                      00000000000000      00000000000000000000000         30530322617
D0001678235832100011300070210402380008378               03042024CUOTA         000000000002              0001700000P                      00000000000000      00000000000000000000000         30530322617
D0003035560732100011300070561064860008383               03042024CUOTA         000000000002              0001700000P                      00000000000000      00000000000000000000000         30530322617
D0002304269307201512880000377406720008386               03042024CUOTA         000000000002              0001700000P                      00000000000000      00000000000000000000000         30530322617
D0002867490032100011300070591091230008392               03042024CUOTA         000000000002              0001360000P                      00000000000000      00000000000000000000000         30530322617
D0002224264301508404010001060581660008396               03042024CUOTA         000000000002              0001700000P                      00000000000000      00000000000000000000000         30530322617
D0002099726704400349400003462911330008397               03042024CUOTA         000000000002              0001700000P                      00000000000000      00000000000000000000000         30530322617
D0002644700401700718400000360545960008398               03042024CUOTA         000000000002              0001700000P                      00000000000000      00000000000000000000000         30530322617
D0002914288632100011500029472575390008402               03042024CUOTA         000000000002              0001700000P                      00000000000000      00000000000000000000000         30530322617
D0003091757932100011300071436205850008425               03042024CUOTA         000000000002              0001700000P                      00000000000000      00000000000000000000000         30530322617
D0002813914132100011300070504039030008441               03042024CUOTA         000000000002              0001360000P                      00000000000000      00000000000000000000000         30530322617
D0003044322632100011300071323676620008455               03042024CUOTA         000000000002              0001700000P                      00000000000000      00000000000000000000000         30530322617
D0003172929407201512880000376454720008462               03042024CUOTA         000000000002              0001700000P                      00000000000000      00000000000000000000000         30530322617
D0004840988132100011300079541107490008465               03042024CUOTA         000000000002              0001700000P                      00000000000000      00000000000000000000000         30530322617
D0002542901532100011300071178021390008472               03042024CUOTA         000000000002              0001700000P                      00000000000000      00000000000000000000000         30530322617
D0002163208632100011300070303010950008485               03042024CUOTA         000000000002              0001700000P                      00000000000000      00000000000000000000000         30530322617
D0002397606000701217300041614460210008491               03042024CUOTA         000000000002              0001700000P                      00000000000000      00000000000000000000000         30530322617
D0002232974307203648880000358545680008502               03042024CUOTA         000000000002              0001700000P                      00000000000000      00000000000000000000000         30530322617
D0002410185832100011300070207956340008508               03042024CUOTA         000000000002              0001700000P                      00000000000000      00000000000000000000000         30530322617
D0001854371732100011300070624146560008514               03042024CUOTA         000000000002              0001700000P                      00000000000000      00000000000000000000000         30530322617
D0002824606632100011300079832973870008516               03042024CUOTA         000000000002              0001700000P                      00000000000000      00000000000000000000000         30530322617
D0003329297232100011500030352100120008521               03042024CUOTA         000000000002              0001360000P                      00000000000000      00000000000000000000000         30530322617
D0002335311901104992300499110228010008670               03042024CUOTA         000000000002              0001700000P                      00000000000000      00000000000000000000000         30530322617
D0002872454201104992300499055240650008819               03042024CUOTA         000000000002              0001700000P                      00000000000000      00000000000000000000000         30530322617
D0002804866432100011300071080664580008828               03042024CUOTA         000000000002              0001700000P                      00000000000000      00000000000000000000000         30530322617
D0002825384007201512880000390395540008844               03042024CUOTA         000000000002              0001360000P                      00000000000000      00000000000000000000000         30530322617
D0002722290032100011300070497387330008850               03042024CUOTA         000000000002              0001700000P                      00000000000000      00000000000000000000000         30530322617
D0002718573828506797400950332610580008859               03042024CUOTA         000000000002              0001700000P                      00000000000000      00000000000000000000000         30530322617
D0003591796507201512880000378484680008860               03042024CUOTA         000000000002              0001700000P                      00000000000000      00000000000000000000000         30530322617
D0003268890432100011300071409174420008861               03042024CUOTA         000000000002              0001700000P                      00000000000000      00000000000000000000000         30530322617
D0002397632101700718400000005224140008865               03042024CUOTA         000000000002              0001700000P                      00000000000000      00000000000000000000000         30530322617
D0002760812532100011300071353135630008867               03042024CUOTA         000000000002              0001700000P                      00000000000000      00000000000000000000000         30530322617
D0003329297232100011500030352100120008870               03042024CUOTA         000000000002              0001360000P                      00000000000000      00000000000000000000000         30530322617
D0002923699507201512880000362679540008876               03042024CUOTA         000000000002              0001700000P                      00000000000000      00000000000000000000000         30530322617
D0002739045507201512880000017407540008883               03042024CUOTA         000000000002              0001700000P                      00000000000000      00000000000000000000000         30530322617
D0003352060232100011300071403697550008896               03042024CUOTA         000000000002              0001360000P                      00000000000000      00000000000000000000000         30530322617
D0002804876832100011300070620587770008906               03042024CUOTA         000000000002              0001700000P                      00000000000000      00000000000000000000000         30530322617
D0002630470032100011300070288300520008909               03042024CUOTA         000000000002              0001700000P                      00000000000000      00000000000000000000000         30530322617
D0002887623432100011300070496088320008910               03042024CUOTA         000000000002              0001700000P                      00000000000000      00000000000000000000000         30530322617
D0002427748207201512880000365475400008915               03042024CUOTA         000000000002              0001700000P                      00000000000000      00000000000000000000000         30530322617
D0002887081332100011300070614227990008931               03042024CUOTA         000000000002              0001700000P                      00000000000000      00000000000000000000000         30530322617
D0002870109904400349400001339761330008937               03042024CUOTA         000000000002              0001700000P                      00000000000000      00000000000000000000000         30530322617
D0003189723907200250880000376639040008939               03042024CUOTA         000000000002              0001700000P                      00000000000000      00000000000000000000000         30530322617
D0002903782801104992300499091875010008962               03042024CUOTA         000000000002              0001700000P                      00000000000000      00000000000000000000000         30530322617
D0002527679032100011300070455353210008964               03042024CUOTA         000000000002              0001360000P                      00000000000000      00000000000000000000000         30530322617
D0003044155301104992300499244909470008972               03042024CUOTA         000000000002              0001700000P                      00000000000000      00000000000000000000000         30530322617
D0002677468032100011500030207530120008973               03042024CUOTA         000000000002              0001360000P                      00000000000000      00000000000000000000000         30530322617
D0003268883532100011300071367689970008978               03042024CUOTA         000000000002              0001700000P                      00000000000000      00000000000000000000000         30530322617
D0002341185032100011300070587419970008987               03042024CUOTA         000000000002              0001360000P                      00000000000000      00000000000000000000000         30530322617
D0002196813207201512880000021526040009005               03042024CUOTA         000000000002              0001360000P                      00000000000000      00000000000000000000000         30530322617
D0002341057407201512880000404078900009010               03042024CUOTA         000000000002              0001700000P                      00000000000000      00000000000000000000000         30530322617
D0002813914132100011300070504039030009014               03042024CUOTA         000000000002              0001360000P                      00000000000000      00000000000000000000000         30530322617
D0003130525307201512880000372950040009024               03042024CUOTA         000000000002              0001700000P                      00000000000000      00000000000000000000000         30530322617
D0002056473801700718400000006767460009026               03042024CUOTA         000000000002              0001700000P                      00000000000000      00000000000000000000000         30530322617
D0002559669707201512880000021688180009027               03042024CUOTA         000000000002              0001700000P                      00000000000000      00000000000000000000000         30530322617
D0002636841532100011300070859578480009028               03042024CUOTA         000000000002              0001700000P                      00000000000000      00000000000000000000000         30530322617
D0002279602407201512880000363003360009029               03042024CUOTA         000000000002              0001700000P                      00000000000000      00000000000000000000000         30530322617
D0002090009401702257400000302978890009035               03042024CUOTA         000000000002              0001700000P                      00000000000000      00000000000000000000000         30530322617
D0000593775932100011500020620813030009039               03042024CUOTA         000000000002              0001700000P                      00000000000000      00000000000000000000000         30530322617
D0002978570807201659880000376477680009195               03042024CUOTA         000000000002              0001700000P                      00000000000000      00000000000000000000000         30530322617
D0003130546804400349200002882848390009825               03042024CUOTA         000000000002              0001700000P                      00000000000000      00000000000000000000000         30530322617
D0002570954532100011300070494569810009841               03042024CUOTA         000000000002              0001700000P                      00000000000000      00000000000000000000000         30530322617
D0002604044001700718400000381399140009842               03042024CUOTA         000000000002              0001700000P                      00000000000000      00000000000000000000000         30530322617
D0003190506200701217300041673149820009843               03042024CUOTA         000000000002              0001700000P                      00000000000000      00000000000000000000000         30530322617
D0002703767219100476550047542675640009844               03042024CUOTA         000000000002              0001700000P                      00000000000000      00000000000000000000000         30530322617
D0002914288632100011500029472575390009855               03042024CUOTA         000000000002              0001700000P                      00000000000000      00000000000000000000000         30530322617
D0002739013807201512880000369738220009856               03042024CUOTA         000000000002              0001700000P                      00000000000000      00000000000000000000000         30530322617
D0002716914603402841082840054560000009857               03042024CUOTA         000000000002              0001700000P                      00000000000000      00000000000000000000000         30530322617
D0002844491807203648880000363185220009887               03042024CUOTA         000000000002              0001700000P                      00000000000000      00000000000000000000000         30530322617
D0002844459532100011300070507826400009894               03042024CUOTA         000000000002              0001700000P                      00000000000000      00000000000000000000000         30530322617
D0003231526319101059551105011172030009918               03042024CUOTA         000000000002              0001700000P                      00000000000000      00000000000000000000000         30530322617
D0002182613732100011500036091706940009925               03042024CUOTA         000000000002              0001700000P                      00000000000000      00000000000000000000000         30530322617
D0002708759700701217300041847491920009940               03042024CUOTA         000000000002              0001700000P                      00000000000000      00000000000000000000000         30530322617
D0003309283007201512880000377830400009948               03042024CUOTA         000000000002              0001700000P                      00000000000000      00000000000000000000000         30530322617
D0002804897601508404010001200326320009951               03042024CUOTA         000000000002              0001700000P                      00000000000000      00000000000000000000000         30530322617
D0001803718107203648880000351412860009952               03042024CUOTA         000000000002              0001700000P                      00000000000000      00000000000000000000000         30530322617
D0001803718107203648880000351412860009952               03042024CUOTA         000000000002              0001700000P                      00000000000000      00000000000000000000000         30530322617
D0002783471928506797400949066073480009968               03042024CUOTA         000000000002              0001700000P                      00000000000000      00000000000000000000000         30530322617
D0002179172032100011300070441327830009976               03042024CUOTA         000000000002              0001700000P                      00000000000000      00000000000000000000000         30530322617
D0002760807801104992300499992833290009985               03042024CUOTA         000000000002              0001700000P                      00000000000000      00000000000000000000000         30530322617
D0002530174132100011300080281243650010006               03042024CUOTA         000000000002              0001360000P                      00000000000000      00000000000000000000000         30530322617
D0003308933432100011300079981999190010015               03042024CUOTA         000000000002              0001700000P                      00000000000000      00000000000000000000000         30530322617
D0002872472832100011300080043356060010028               03042024CUOTA         000000000002              0001700000P                      00000000000000      00000000000000000000000         30530322617
D0002739071304400349400001711821230010030               03042024CUOTA         000000000002              0001700000P                      00000000000000      00000000000000000000000         30530322617
D0002739047501700718400000376672140010032               03042024CUOTA         000000000002              0001700000P                      00000000000000      00000000000000000000000         30530322617
D0003044306632102307500008995332680010034               03042024CUOTA         000000000002              0001700000P                      00000000000000      00000000000000000000000         30530322617
D0002965329132100011300070477040680010035               03042024CUOTA         000000000002              0001700000P                      00000000000000      00000000000000000000000         30530322617
D0002677468032100011500030207530120010044               03042024CUOTA         000000000002              0001360000P                      00000000000000      00000000000000000000000         30530322617
D0003374916507201512880000037994400010050               03042024CUOTA         000000000002              0001700000P                      00000000000000      00000000000000000000000         30530322617
D0002703767219100476550047542675640010100               03042024CUOTA         000000000002              0001700000P                      00000000000000      00000000000000000000000         30530322617
D0002914275832100011500022670528360010332               03042024CUOTA         000000000002              0001360000P                      00000000000000      00000000000000000000000         30530322617
D0003024128101508404010001256230440010350               03042024CUOTA         000000000002              0001700000P                      00000000000000      00000000000000000000000         30530322617
D0002953617132100011300070909372880010449               03042024CUOTA         000000000002              0001700000P                      00000000000000      00000000000000000000000         30530322617
D0002903783632100011300071350785630010452               03042024CUOTA         000000000002              0001700000P                      00000000000000      00000000000000000000000         30530322617
D0002630470032100011300070288300520010456               03042024CUOTA         000000000002              0001700000P                      00000000000000      00000000000000000000000         30530322617
D0002224264301508404010001060581660010460               03042024CUOTA         000000000002              0001700000P                      00000000000000      00000000000000000000000         30530322617
D0002516861707201512880000021664540010461               03042024CUOTA         000000000002              0001700000P                      00000000000000      00000000000000000000000         30530322617
D0005071492207201512880000021746400010463               03042024CUOTA         000000000002              0001700000P                      00000000000000      00000000000000000000000         30530322617
D0002994937901104992300499093230330010473               03042024CUOTA         000000000002              0001700000P                      00000000000000      00000000000000000000000         30530322617
D0001475411132100011500026813050280010474               03042024CUOTA         000000000002              0001700000P                      00000000000000      00000000000000000000000         30530322617
D0003416947438900837400052096809380010478               03042024CUOTA         000000000002              0001700000P                      00000000000000      00000000000000000000000         30530322617
D0002759845404400349400002166326330010486               03042024CUOTA         000000000002              0001700000P                      00000000000000      00000000000000000000000         30530322617
D0002903763632100011300080237504860010490               03042024CUOTA         000000000002              0001700000P                      00000000000000      00000000000000000000000         30530322617
D0003130587432100011300071170195350010520               03042024CUOTA         000000000002              0001700000P                      00000000000000      00000000000000000000000         30530322617
D0002550106932100011300070555172500010526               03042024CUOTA         000000000002              0001700000P                      00000000000000      00000000000000000000000         30530322617
D0002496777932100011300070276950740010527               03042024CUOTA         000000000002              0001700000P                      00000000000000      00000000000000000000000         30530322617
D0002527679032100011300070455353210010539               03042024CUOTA         000000000002              0001360000P                      00000000000000      00000000000000000000000         30530322617
D0002813914132100011300070504039030010543               03042024CUOTA         000000000002              0001360000P                      00000000000000      00000000000000000000000         30530322617
D0003130525307201512880000372950040010550               03042024CUOTA         000000000002              0001700000P                      00000000000000      00000000000000000000000         30530322617
D0002261829207201512880000220333900010553               03042024CUOTA         000000000002              0001700000P                      00000000000000      00000000000000000000000         30530322617
D0002341136332100011300070406366780010558               03042024CUOTA         000000000002              0001700000P                      00000000000000      00000000000000000000000         30530322617
D0002421656932100011300070446134200010559               03042024CUOTA         000000000002              0001700000P                      00000000000000      00000000000000000000000         30530322617
D0002739114507203648880000360339860010562               03042024CUOTA         000000000002              0001700000P                      00000000000000      00000000000000000000000         30530322617
D0003044155301104992300499244909470010566               03042024CUOTA         000000000002              0001700000P                      00000000000000      00000000000000000000000         30530322617
D0002804897601508404010001200326320010567               03042024CUOTA         000000000002              0001700000P                      00000000000000      00000000000000000000000         30530322617
D0002662943107201512880000365442680010570               03042024CUOTA         000000000002              0001700000P                      00000000000000      00000000000000000000000         30530322617
D0002163125407201512880000221156360010571               03042024CUOTA         000000000002              0001700000P                      00000000000000      00000000000000000000000         30530322617
D0003268887228506797400949717220580010575               03042024CUOTA         000000000002              0001700000P                      00000000000000      00000000000000000000000         30530322617
D0002095990432100011300070556071950010586               03042024CUOTA         000000000002              0001700000P                      00000000000000      00000000000000000000000         30530322617
D0003352060232100011300071403697550010594               03042024CUOTA         000000000002              0001360000P                      00000000000000      00000000000000000000000         30530322617
D0002745737332100011300079585778320010595               03042024CUOTA         000000000002              0001700000P                      00000000000000      00000000000000000000000         30530322617
D0002616115532100011300071099158100010597               03042024CUOTA         000000000002              0001360000P                      00000000000000      00000000000000000000000         30530322617
D0002397632101700718400000005224140010600               03042024CUOTA         000000000002              0001700000P                      00000000000000      00000000000000000000000         30530322617
D0002511441328506797400951955215880010603               03042024CUOTA         000000000002              0001700000P                      00000000000000      00000000000000000000000         30530322617
D0002677468032100011500030207530120010631               03042024CUOTA         000000000002              0001360000P                      00000000000000      00000000000000000000000         30530322617
D0002566570432100011300071395620460010633               03042024CUOTA         000000000002              0001700000P                      00000000000000      00000000000000000000000         30530322617
D0002163288507200298880000023890900010640               03042024CUOTA         000000000002              0001700000P                      00000000000000      00000000000000000000000         30530322617
D0002703011200701217300041563904670010660               03042024CUOTA         000000000002              0001700000P                      00000000000000      00000000000000000000000         30530322617
D0003129616704400349400002488062130010672               03042024CUOTA         000000000002              0001700000P                      00000000000000      00000000000000000000000         30530322617
D0002759845404400349400002166326330010928               03042024CUOTA         000000000002              0001700000P                      00000000000000      00000000000000000000000         30530322617
D0002813949219101059550105533768280010963               03042024CUOTA         000000000002              0001700000P                      00000000000000      00000000000000000000000         30530322617
D0002341032232100011300070297100520010991               03042024CUOTA         000000000002              0001700000P                      00000000000000      00000000000000000000000         30530322617
D0003441408901700718400000333950780010993               03042024CUOTA         000000000002              0001360000P                      00000000000000      00000000000000000000000         30530322617
D0002341184732100011300070263525070011026               03042024CUOTA         000000000002              0001700000P                      00000000000000      00000000000000000000000         30530322617
D0002813949219101059550105533768280011054               03042024CUOTA         000000000002              0001700000P                      00000000000000      00000000000000000000000         30530322617
D0002765093801508404020001025844880011080               03042024CUOTA         000000000002              0001700000P                      00000000000000      00000000000000000000000         30530322617
D0002594604632100011500030239706720011088               03042024CUOTA         000000000002              0001700000P                      00000000000000      00000000000000000000000         30530322617
D0003440969532100011300300369471390011096               03042024CUOTA         000000000002              0001360000P                      00000000000000      00000000000000000000000         30530322617
D0001826003832100011300070325994420011098               03042024CUOTA         000000000002              0001700000P                      00000000000000      00000000000000000000000         30530322617
D0002419817001700718400000372602460011114               03042024CUOTA         000000000002              0001700000P                      00000000000000      00000000000000000000000         30530322617
D0002397625132100011300071246872880011115               03042024CUOTA         000000000002              0001700000P                      00000000000000      00000000000000000000000         30530322617
D0002341185032100011300070587419970011123               03042024CUOTA         000000000002              0001360000P                      00000000000000      00000000000000000000000         30530322617
D0002906003203402841082840160630060011131               03042024CUOTA         000000000002              0001700000P                      00000000000000      00000000000000000000000         30530322617
D0003071221101700718400000346550500011132               03042024CUOTA         000000000002              0001700000P                      00000000000000      00000000000000000000000         30530322617
D0003213241532100011500023217200840011139               03042024CUOTA         000000000002              0001360000P                      00000000000000      00000000000000000000000         30530322617
D0002311785504400349400001404378430011157               03042024CUOTA         000000000002              0001700000P                      00000000000000      00000000000000000000000         30530322617
D0002138190901702257400000309754390011160               03042024CUOTA         000000000002              0001700000P                      00000000000000      00000000000000000000000         30530322617
D0002989415807201512880000382872680011161               03042024CUOTA         000000000002              0001700000P                      00000000000000      00000000000000000000000         30530322617
D0002739136632100011300070942893090011162               03042024CUOTA         000000000002              0001700000P                      00000000000000      00000000000000000000000         30530322617
D0003189723907200250880000376639040011180               03042024CUOTA         000000000002              0001700000P                      00000000000000      00000000000000000000000         30530322617
D0002872472832100011300080043356060011200               03042024CUOTA         000000000002              0001700000P                      00000000000000      00000000000000000000000         30530322617
D0002872454201104992300499055240650011201               03042024CUOTA         000000000002              0001700000P                      00000000000000      00000000000000000000000         30530322617
D0002496771932100011300070061066340011267               03042024CUOTA         000000000002              0000500000P                      00000000000000      00000000000000000000000         30530322617
D0002550196307201512880000020408220011287               03042024CUOTA         000000000002              0001700000P                      00000000000000      00000000000000000000000         30530322617
D0003352060232100011300071403697550011299               03042024CUOTA         000000000002              0001360000P                      00000000000000      00000000000000000000000         30530322617
D0003369312232100011300071310560020011301               03042024CUOTA         000000000002              0001360000P                      00000000000000      00000000000000000000000         30530322617
D0003044306632102307500008995332680011311               03042024CUOTA         000000000002              0001700000P                      00000000000000      00000000000000000000000         30530322617
D0002496743532100011300070600399470011315               03042024CUOTA         000000000002              0001700000P                      00000000000000      00000000000000000000000         30530322617
D0002831892101104992300499088916650011319               03042024CUOTA         000000000002              0001700000P                      00000000000000      00000000000000000000000         30530322617
D0002584425632100011300079815764080011453               03042024CUOTA         000000000002              0001700000P                      00000000000000      00000000000000000000000         30530322617
D0002739338132100011300070954323370011542               03042024CUOTA         000000000002              0001700000P                      00000000000000      00000000000000000000000         30530322617
D0003574127732100011500028033569850011612               03042024CUOTA         000000000002              0001700000P                      00000000000000      00000000000000000000000         30530322617
D0003091757932100011300071436205850011620               03042024CUOTA         000000000002              0001700000P                      00000000000000      00000000000000000000000         30530322617
D0002486823932100011300070990641670011621               03042024CUOTA         000000000002              0001700000P                      00000000000000      00000000000000000000000         30530322617
D0002824606632100011300079832973870011622               03042024CUOTA         000000000002              0001700000P                      00000000000000      00000000000000000000000         30530322617
D0002657657200701217300041504711020011626               03042024CUOTA         000000000002              0001700000P                      00000000000000      00000000000000000000000         30530322617
D0002971998532100011300070595520020011632               03042024CUOTA         000000000002              0001700000P                      00000000000000      00000000000000000000000         30530322617
D0003292831832100011300071323776560011671               03042024CUOTA         000000000002              0001700000P                      00000000000000      00000000000000000000000         30530322617
D0002760894301700718400000333716780011677               03042024CUOTA         000000000002              0001700000P                      00000000000000      00000000000000000000000         30530322617
D0002511476332100011500031110624520011680               03042024CUOTA         000000000002              0001700000P                      00000000000000      00000000000000000000000         30530322617
D0002722298832100011300070477420800011701               03042024CUOTA         000000000002              0001700000P                      00000000000000      00000000000000000000000         30530322617
D0002989431332100011300071278839970011705               03042024CUOTA         000000000002              0001700000P                      00000000000000      00000000000000000000000         30530322617
D0003505224032100011300071991131670011706               03042024CUOTA         000000000002              0001700000P                      00000000000000      00000000000000000000000         30530322617
D0004028548232100011300300377433090011710               03042024CUOTA         000000000002              0001700000P                      00000000000000      00000000000000000000000         30530322617
D0003205417532102307500009969422680011720               03042024CUOTA         000000000002              0001700000P                      00000000000000      00000000000000000000000         30530322617
D0002196813207201512880000021526040011727               03042024CUOTA         000000000002              0001360000P                      00000000000000      00000000000000000000000         30530322617
D0003268887228506797400949717220580011755               03042024CUOTA         000000000002              0001700000P                      00000000000000      00000000000000000000000         30530322617
D0002760807801104992300499992833290011756               03042024CUOTA         000000000002              0001700000P                      00000000000000      00000000000000000000000         30530322617
D0002804866432100011300071080664580011759               03042024CUOTA         000000000002              0001700000P                      00000000000000      00000000000000000000000         30530322617
D0002570932232100011300070326155790011760               03042024CUOTA         000000000002              0001700000P                      00000000000000      00000000000000000000000         30530322617
D0002224289901104992300499099774830011761               03042024CUOTA         000000000002              0001700000P                      00000000000000      00000000000000000000000         30530322617
D0003129739832100011300071804337770011762               03042024CUOTA         000000000002              0001700000P                      00000000000000      00000000000000000000000         30530322617
D0003213241532100011500023217200840011764               03042024CUOTA         000000000002              0001360000P                      00000000000000      00000000000000000000000         30530322617
D0003591796601104992300499194728510011773               03042024CUOTA         000000000002              0001360000P                      00000000000000      00000000000000000000000         30530322617
D0003323480732100011300071265214140011774               03042024CUOTA         000000000002              0001700000P                      00000000000000      00000000000000000000000         30530322617
D0003268890432100011300071409174420011778               03042024CUOTA         000000000002              0001700000P                      00000000000000      00000000000000000000000         30530322617
D0002870109904400349400001339761330011786               03042024CUOTA         000000000002              0001700000P                      00000000000000      00000000000000000000000         30530322617
D0002890035507201512880000020479220011789               03042024CUOTA         000000000002              0001700000P                      00000000000000      00000000000000000000000         30530322617
D0003374890203402841082840244010070011791               03042024CUOTA         000000000002              0001700000P                      00000000000000      00000000000000000000000         30530322617
D0002616115532100011300071099158100011803               03042024CUOTA         000000000002              0001360000P                      00000000000000      00000000000000000000000         30530322617
D0022085145232133311300300291684080011812               03042024CUOTA         000000000002              0001700000P                      00000000000000      00000000000000000000000         30530322617
D0002559604132100011300300195923090011823               03042024CUOTA         000000000002              0001700000P                      00000000000000      00000000000000000000000         30530322617
D0002739338132100011300070954323370011828               03042024CUOTA         000000000002              0001700000P                      00000000000000      00000000000000000000000         30530322617
D0003031809432100011300071363144420011899               03042024CUOTA         000000000002              0001700000P                      00000000000000      00000000000000000000000         30530322617
D0002290250132100011300079229143370011900               03042024CUOTA         000000000002              0001700000P                      00000000000000      00000000000000000000000         30530322617
D0002434677707203648880000357830040011967               03042024CUOTA         000000000002              0001700000P                      00000000000000      00000000000000000000000         30530322617
D0003031657532100011300079789146400012143               03042024CUOTA         000000000002              0001700000P                      00000000000000      00000000000000000000000         30530322617
D0003037296832100011300071990013090012144               03042024CUOTA         000000000002              0001360000P                      00000000000000      00000000000000000000000         30530322617
D0002341075232100011500030123302540012148               03042024CUOTA         000000000002              0001700000P                      00000000000000      00000000000000000000000         30530322617
D0003130554207201512880000378995720012152               03042024CUOTA         000000000002              0001700000P                      00000000000000      00000000000000000000000         30530322617
D0003574126207201512880000399655720012158               03042024CUOTA         000000000002              0001700000P                      00000000000000      00000000000000000000000         30530322617
D0002971699401104992300499138943650012168               03042024CUOTA         000000000002              0001700000P                      00000000000000      00000000000000000000000         30530322617
D0001677204232100011300070224557050012199               03042024CUOTA         000000000002              0001700000P                      00000000000000      00000000000000000000000         30530322617
D0003427830432100011300079665389970012200               03042024CUOTA         000000000002              0001700000P                      00000000000000      00000000000000000000000         30530322617
D0002056483332100011300071432347330012204               03042024CUOTA         000000000002              0001700000P                      00000000000000      00000000000000000000000         30530322617
D0002914275832100011500022670528360012206               03042024CUOTA         000000000002              0001360000P                      00000000000000      00000000000000000000000         30530322617
D0003369312232100011300071310560020012216               03042024CUOTA         000000000002              0001360000P                      00000000000000      00000000000000000000000         30530322617
D0002543815707203648880000354421360012217               03042024CUOTA         000000000002              0001700000P                      00000000000000      00000000000000000000000         30530322617
D0002971998532100011300070595520020012222               03042024CUOTA         000000000002              0001700000P                      00000000000000      00000000000000000000000         30530322617
D0003024109832100011300070458270680012240               03042024CUOTA         000000000002              0001360000P                      00000000000000      00000000000000000000000         30530322617
D0002874422007201512880000388020900012262               03042024CUOTA         000000000002              0001700000P                      00000000000000      00000000000000000000000         30530322617
D0002906241900701217300041796984100012280               03042024CUOTA         000000000002              0001700000P                      00000000000000      00000000000000000000000         30530322617
D0002906241900701217300041796984100012281               03042024CUOTA         000000000002              0001700000P                      00000000000000      00000000000000000000000         30530322617
D0003082410632100011300079762262440012288               03042024CUOTA         000000000002              0001700000P                      00000000000000      00000000000000000000000         30530322617
D0002867717132100011300071390124420012289               03042024CUOTA         000000000002              0001700000P                      00000000000000      00000000000000000000000         30530322617
D0003133398532100011300071213909690012296               03042024CUOTA         000000000002              0001700000P                      00000000000000      00000000000000000000000         30530322617
D0002813987832100011300071427193430012299               03042024CUOTA         000000000002              0001700000P                      00000000000000      00000000000000000000000         30530322617
D0003182538432100011300071427254580012302               03042024CUOTA         000000000002              0001700000P                      00000000000000      00000000000000000000000         30530322617
D0003731306801104992300499076670010012304               03042024CUOTA         000000000002              0001700000P                      00000000000000      00000000000000000000000         30530322617
D0003130587432100011300071170195350012313               03042024CUOTA         000000000002              0001700000P                      00000000000000      00000000000000000000000         30530322617
D0002978570807201659880000376477680012315               03042024CUOTA         000000000002              0001700000P                      00000000000000      00000000000000000000000         30530322617
D0002783471928506797400949066073480012325               03042024CUOTA         000000000002              0001700000P                      00000000000000      00000000000000000000000         30530322617
D0002434677707203648880000357830040012334               03042024CUOTA         000000000002              0001700000P                      00000000000000      00000000000000000000000         30530322617
D0002584425632100011300079815764080012337               03042024CUOTA         000000000002              0001700000P                      00000000000000      00000000000000000000000         30530322617
D0003071204532100011300070839850520012338               03042024CUOTA         000000000002              0001700000P                      00000000000000      00000000000000000000000         30530322617
D0003323484907201512880000384435180012422               03042024CUOTA         000000000002              0000500000P                      00000000000000      00000000000000000000000         30530322617
D0002581884332100011300070561264640012426               03042024CUOTA         000000000002              0001700000P                      00000000000000      00000000000000000000000         30530322617
D0002581884332100011300070561264640012427               03042024CUOTA         000000000002              0001700000P                      00000000000000      00000000000000000000000         30530322617
D0002758153607201512880000372211040012473               03042024CUOTA         000000000002              0001700000P                      00000000000000      00000000000000000000000         30530322617
D0002434613032100011300071188130020012547               03042024CUOTA         000000000002              0001700000P                      00000000000000      00000000000000000000000         30530322617
D0002953617132100011300070909372880012621               03042024CUOTA         000000000002              0001700000P                      00000000000000      00000000000000000000000         30530322617
D0002434613032100011300071188130020012623               03042024CUOTA         000000000002              0001700000P                      00000000000000      00000000000000000000000         30530322617
D0002530174132100011300080281243650012625               03042024CUOTA         000000000002              0001360000P                      00000000000000      00000000000000000000000         30530322617
D0003037296832100011300071990013090012628               03042024CUOTA         000000000002              0001360000P                      00000000000000      00000000000000000000000         30530322617
D0003266201232100011300071365204140012654               03042024CUOTA         000000000002              0001700000P                      00000000000000      00000000000000000000000         30530322617
D0002824563532100011300079665830960012660               03042024CUOTA         000000000002              0001700000P                      00000000000000      00000000000000000000000         30530322617
D0002677463432100011300071364263090012673               03042024CUOTA         000000000002              0001700000P                      00000000000000      00000000000000000000000         30530322617
D0002824563532100011300079665830960012683               03042024CUOTA         000000000002              0001700000P                      00000000000000      00000000000000000000000         30530322617
D0002844459532100011300070507826400012718               03042024CUOTA         000000000002              0001700000P                      00000000000000      00000000000000000000000         30530322617
D0003431424507201512880000373341180012720               03042024CUOTA         000000000002              0001700000P                      00000000000000      00000000000000000000000         30530322617
D0002695492807203648880000357646540012727               03042024CUOTA         000000000002              0001700000P                      00000000000000      00000000000000000000000         30530322617
D0003329297232100011500030352100120012728               03042024CUOTA         000000000002              0001360000P                      00000000000000      00000000000000000000000         30530322617
D0001826003832100011300070325994420012741               03042024CUOTA         000000000002              0001700000P                      00000000000000      00000000000000000000000         30530322617
D0003173935032100011300071240068100012745               03042024CUOTA         000000000002              0001700000P                      00000000000000      00000000000000000000000         30530322617
D0003418250500701996300040458686060012748               03042024CUOTA         000000000002              0001700000P                      00000000000000      00000000000000000000000         30530322617
D0003855815932100011500031383993190012765               03042024CUOTA         000000000002              0000500000P                      00000000000000      00000000000000000000000         30530322617
D0003519934401700718400000370034500012790               03042024CUOTA         000000000002              0001700000P                      00000000000000      00000000000000000000000         30530322617
D0002461873700701217300041746782080012792               03042024CUOTA         000000000002              0001700000P                      00000000000000      00000000000000000000000         30530322617
D0003277522728506612400951795184580012799               03042024CUOTA         000000000002              0001700000P                      00000000000000      00000000000000000000000         30530322617
D0002867714732100011300070986058600012852               03042024CUOTA         000000000002              0001700000P                      00000000000000      00000000000000000000000         30530322617
D0003418487303402841082840178940070012862               03042024CUOTA         000000000002              0001700000P                      00000000000000      00000000000000000000000         30530322617
D0002953367401700718400000350498500012885               03042024CUOTA         000000000002              0001700000P                      00000000000000      00000000000000000000000         30530322617
D0002825384007201512880000390395540012896               03042024CUOTA         000000000002              0001360000P                      00000000000000      00000000000000000000000         30530322617
D0001475411132100011500026813050280012897               03042024CUOTA         000000000002              0001700000P                      00000000000000      00000000000000000000000         30530322617
D0002722174832100011300071218435790012901               03042024CUOTA         000000000002              0001700000P                      00000000000000      00000000000000000000000         30530322617
D0001609581901104992300499119469830012904               03042024CUOTA         000000000002              0001700000P                      00000000000000      00000000000000000000000         30530322617
D0001609581901104992300499119469830012905               03042024CUOTA         000000000002              0001700000P                      00000000000000      00000000000000000000000         30530322617
D0002806462301700718400000382755000012914               03042024CUOTA         000000000002              0001700000P                      00000000000000      00000000000000000000000         30530322617
D0002890044632100011300070955922000013031               03042024CUOTA         000000000002              0001700000P                      00000000000000      00000000000000000000000         30530322617
D0003173935032100011300071240068100013108               03042024CUOTA         000000000002              0001700000P                      00000000000000      00000000000000000000000         30530322617
D0002511476332100011500031110624520013110               03042024CUOTA         000000000002              0001700000P                      00000000000000      00000000000000000000000         30530322617
D0002813987832100011300071427193430013122               03042024CUOTA         000000000002              0001700000P                      00000000000000      00000000000000000000000         30530322617
D0003091759807201512880000374220400013124               03042024CUOTA         000000000002              0001700000P                      00000000000000      00000000000000000000000         30530322617
D0002550196307201512880000020408220013126               03042024CUOTA         000000000002              0001650000P                      00000000000000      00000000000000000000000         30530322617
D0003440969532100011300300369471390013128               03042024CUOTA         000000000002              0001360000P                      00000000000000      00000000000000000000000         30530322617
D0003612186707201512880000377379860013133               03042024CUOTA         000000000002              0001700000P                      00000000000000      00000000000000000000000         30530322617
D0002662943107201512880000365442680013135               03042024CUOTA         000000000002              0001700000P                      00000000000000      00000000000000000000000         30530322617
D0002550106932100011300070555172500013139               03042024CUOTA         000000000002              0001700000P                      00000000000000      00000000000000000000000         30530322617
D0002376470432100011300071082943430013154               03042024CUOTA         000000000002              0001700000P                      00000000000000      00000000000000000000000         30530322617
D0002718573828506797400950332610580013160               03042024CUOTA         000000000002              0001700000P                      00000000000000      00000000000000000000000         30530322617
D0003174094701104992300499077515970014173               03042024CUOTA         000000000002              0001700000P                      00000000000000      00000000000000000000000         30530322617
D0002406333200701217300048929017180014180               03042024CUOTA         000000000002              0001700000P                      00000000000000      00000000000000000000000         30530322617
D0003505207732100011500035184615390014185               03042024CUOTA         000000000002              0001700000P                      00000000000000      00000000000000000000000         30530322617
D0003062695501103111300311161830830014188               03042024CUOTA         000000000002              0001700000P                      00000000000000      00000000000000000000000         30530322617
D0003741101732100011300080255904080014189               03042024CUOTA         000000000002              0001700000P                      00000000000000      00000000000000000000000         30530322617
D0003031616701702257400000309614430014190               03042024CUOTA         000000000002              0001700000P                      00000000000000      00000000000000000000000         30530322617
D0001405433432100011500020918337370014200               03042024CUOTA         000000000002              0001700000P                      00000000000000      00000000000000000000000         30530322617
D0003173960528506797400946385610080014201               03042024CUOTA         000000000002              0001700000P                      00000000000000      00000000000000000000000         30530322617
D0002513069107201659880000366736540014210               03042024CUOTA         000000000002              0001700000P                      00000000000000      00000000000000000000000         30530322617
D0003388222332100011500031173137210014232               03042024CUOTA         000000000002              0001700000P                      00000000000000      00000000000000000000000         30530322617
D0003213241532100011500023217200840014300               03042024CUOTA         000000000002              0001320000P                      00000000000000      00000000000000000000000         30530322617
D0003031657532100011300079789146400014302               03042024CUOTA         000000000002              0001650000P                      00000000000000      00000000000000000000000         30530322617
D0003024109832100011300070458270680014305               03042024CUOTA         000000000002              0001320000P                      00000000000000      00000000000000000000000         30530322617
D0003416779132100011300071680623930014310               03042024CUOTA         000000000002              0001650000P                      00000000000000      00000000000000000000000         30530322617
D0003369312232100011300071310560020014316               03042024CUOTA         000000000002              0001320000P                      00000000000000      00000000000000000000000         30530322617
D0002760812532100011300071353135630014325               03042024CUOTA         000000000002              0001650000P                      00000000000000      00000000000000000000000         30530322617
D0003024128601700718400000321629500014337               03042024CUOTA         000000000002              0001700000P                      00000000000000      00000000000000000000000         30530322617
D0003131153332100011300079496509310014342               03042024CUOTA         000000000002              0001700000P                      00000000000000      00000000000000000000000         30530322617
D0003035531201702592400000037481700014356               03042024CUOTA         000000000002              0001700000P                      00000000000000      00000000000000000000000         30530322617
D0002739198032100011300071014029810014364               03042024CUOTA         000000000002              0001700000P                      00000000000000      00000000000000000000000         30530322617
D0003130525307201512880000372950040014365               03042024CUOTA         000000000002              0001700000P                      00000000000000      00000000000000000000000         30530322617
D0004109394701702745400000040561510014367               03042024CUOTA         000000000002              0001700000P                      00000000000000      00000000000000000000000         30530322617
D0002654966432100011300070587938820014385               03042024CUOTA         000000000002              0000500000P                      00000000000000      00000000000000000000000         30530322617
D0002873842801104206300420115689470014450               03042024CUOTA         000000000002              0001700000P                      00000000000000      00000000000000000000000         30530322617
D0002320005300701217300048910081820014454               03042024CUOTA         000000000002              0001700000P                      00000000000000      00000000000000000000000         30530322617
D0002739262704400349400001693111330014456               03042024CUOTA         000000000002              0001700000P                      00000000000000      00000000000000000000000         30530322617
D0002903782801104992300499091875010014489               03042024CUOTA         000000000002              0001700000P                      00000000000000      00000000000000000000000         30530322617
D0003773693932100011500029368314300014498               03042024CUOTA         000000000002              0000500000P                      00000000000000      00000000000000000000000         30530322617
D0003416779132100011300071680623930014631               03042024CUOTA         000000000002              0001700000P                      00000000000000      00000000000000000000000         30530322617
D0003277522728506612400951795184580014633               03042024CUOTA         000000000002              0001700000P                      00000000000000      00000000000000000000000         30530322617
D0003731306801104992300499076670010016657               03042024CUOTA         000000000002              0001650000P                      00000000000000      00000000000000000000000         30530322617
D0003071221101700718400000346550500016659               03042024CUOTA         000000000002              0001650000P                      00000000000000      00000000000000000000000         30530322617
D0002758153607201512880000372211040016665               03042024CUOTA         000000000002              0001700000P                      00000000000000      00000000000000000000000         30530322617
D0003416947438900837400052096809380016671               03042024CUOTA         000000000002              0001700000P                      00000000000000      00000000000000000000000         30530322617
D0003044322632100011300071323676620016681               03042024CUOTA         000000000002              0001700000P                      00000000000000      00000000000000000000000         30530322617
D0002890044632100011300070955922000016682               03042024CUOTA         000000000002              0001650000P                      00000000000000      00000000000000000000000         30530322617
D0003035531201702592400000037481700016683               03042024CUOTA         000000000002              0001650000P                      00000000000000      00000000000000000000000         30530322617
D0002739198032100011300071014029810016686               03042024CUOTA         000000000002              0001650000P                      00000000000000      00000000000000000000000         30530322617
D0002971699401104992300499138943650016688               03042024CUOTA         000000000002              0001700000P                      00000000000000      00000000000000000000000         30530322617
D0003374890203402841082840244010070016693               03042024CUOTA         000000000002              0001650000P                      00000000000000      00000000000000000000000         30530322617
D0003220798307201512880000379632400016696               03042024CUOTA         000000000002              0001650000P                      00000000000000      00000000000000000000000         30530322617
D0002527679032100011300070455353210016703               03042024CUOTA         000000000002              0001360000P                      00000000000000      00000000000000000000000         30530322617
D0003037296832100011300071990013090016709               03042024CUOTA         000000000002              0001320000P                      00000000000000      00000000000000000000000         30530322617
D0002989415807201512880000382872680016710               03042024CUOTA         000000000002              0001650000P                      00000000000000      00000000000000000000000         30530322617
D0003574126207201512880000399655720016711               03042024CUOTA         000000000002              0001650000P                      00000000000000      00000000000000000000000         30530322617
D0003591796601104992300499194728510016721               03042024CUOTA         000000000002              0001320000P                      00000000000000      00000000000000000000000         30530322617
D0003130525307201512880000372950040016722               03042024CUOTA         000000000002              0001650000P                      00000000000000      00000000000000000000000         30530322617
D0003172929407201512880000376454720017725               03042024CUOTA         000000000002              0001700000P                      00000000000000      00000000000000000000000         30530322617
D0003329297232100011500030352100120017732               03042024CUOTA         000000000002              0001360000P                      00000000000000      00000000000000000000000         30530322617
D0002813914132100011300070504039030017737               03042024CUOTA         000000000002              0001360000P                      00000000000000      00000000000000000000000         30530322617
D0003173966132100011300071804927490017741               03042024CUOTA         000000000002              0001700000P                      00000000000000      00000000000000000000000         30530322617
D0003440957600701217300041792695800017745               03042024CUOTA         000000000002              0001700000P                      00000000000000      00000000000000000000000         30530322617
D0003506647707201512880000375041400017747               03042024CUOTA         000000000002              0001700000P                      00000000000000      00000000000000000000000         30530322617
D0003351985332100011500033765743810018746               03042024CUOTA         000000000002              0001700000P                      00000000000000      00000000000000000000000         30530322617
D0003612171132100011300300206798260018747               03042024CUOTA         000000000002              0001700000P                      00000000000000      00000000000000000000000         30530322617
D0003126756632100011300079800010680018752               03042024CUOTA         000000000002              0001700000P                      00000000000000      00000000000000000000000         30530322617
D0003388750932100011300079835962000018811               03042024CUOTA         000000000002              0001700000P                      00000000000000      00000000000000000000000         30530322617
D0003491334832100011300079352025910018813               03042024CUOTA         000000000002              0001700000P                      00000000000000      00000000000000000000000         30530322617
D0002948678904400349400001602743830018818               03042024CUOTA         000000000002              0001700000P                      00000000000000      00000000000000000000000         30530322617
D0003440966303402841082840089530030018837               03042024CUOTA         000000000002              0001700000P                      00000000000000      00000000000000000000000         30530322617
D0003469545832100011300079751044860018839               03042024CUOTA         000000000002              0001700000P                      00000000000000      00000000000000000000000         30530322617
D0003419570832100011300071396787830018843               03042024CUOTA         000000000002              0000500000P                      00000000000000      00000000000000000000000         30530322617
D0003740966400701217300041742973840018890               03042024CUOTA         000000000002              0001650000P                      00000000000000      00000000000000000000000         30530322617
D0003268852132100011300071423856780018937               03042024CUOTA         000000000002              0001700000P                      00000000000000      00000000000000000000000         30530322617
D0003130514000701217300041771272950020038               03042024CUOTA         000000000002              0001700000P                      00000000000000      00000000000000000000000         30530322617
D0002078723607201512880000365964360021078               03042024CUOTA         000000000002              0001700000P                      00000000000000      00000000000000000000000         30530322617
D0003427830432100011300079665389970021079               03042024CUOTA         000000000002              0001650000P                      00000000000000      00000000000000000000000         30530322617
D0002862972707201512880000372969220021091               03042024CUOTA         000000000002              0001650000P                      00000000000000      00000000000000000000000         30530322617
D0002559604402009029110000305562580021094               03042024CUOTA         000000000002              0001700000P                      00000000000000      00000000000000000000000         30530322617
D0002559604402009029110000305562580021095               03042024CUOTA         000000000002              0001700000P                      00000000000000      00000000000000000000000         30530322617
D0003574127732100011500028033569850021101               03042024CUOTA         000000000002              0001650000P                      00000000000000      00000000000000000000000         30530322617
D0003308856332100011300079877296840021117               03042024CUOTA         000000000002              0001700000P                      00000000000000      00000000000000000000000         30530322617
D0002341185032100011300070587419970021118               03042024CUOTA         000000000002              0001360000P                      00000000000000      00000000000000000000000         30530322617
D0002760894301700718400000333716780021120               03042024CUOTA         000000000002              0001700000P                      00000000000000      00000000000000000000000         30530322617
D0003268883532100011300071367689970021122               03042024CUOTA         000000000002              0001700000P                      00000000000000      00000000000000000000000         30530322617
D0003873522701104992300499188195650021124               03042024CUOTA         000000000002              0001650000P                      00000000000000      00000000000000000000000         30530322617
D0003206091107201512880000385029900021132               03042024CUOTA         000000000002              0001700000P                      00000000000000      00000000000000000000000         30530322617
D0003471150604400349400003562140830021136               03042024CUOTA         000000000002              0001700000P                      00000000000000      00000000000000000000000         30530322617
D0003612186707201512880000377379860021138               03042024CUOTA         000000000002              0001700000P                      00000000000000      00000000000000000000000         30530322617
D0003173960528506797400946385610080021146               03042024CUOTA         000000000002              0001700000P                      00000000000000      00000000000000000000000         30530322617
D0002722174832100011300071218435790021147               03042024CUOTA         000000000002              0001700000P                      00000000000000      00000000000000000000000         30530322617
D0002611616100701910300040149594850021150               03042024CUOTA         000000000002              0001700000P                      00000000000000      00000000000000000000000         30530322617
D0002867714732100011300070986058600021151               03042024CUOTA         000000000002              0001700000P                      00000000000000      00000000000000000000000         30530322617
D0003440969532100011300300369471390021156               03042024CUOTA         000000000002              0001360000P                      00000000000000      00000000000000000000000         30530322617
D0003268554603402117082110143970000021159               03042024CUOTA         000000000002              0001700000P                      00000000000000      00000000000000000000000         30530322617
D0003233257804400233400003560980410021167               03042024CUOTA         000000000002              0001700000P                      00000000000000      00000000000000000000000         30530322617
D0002890099519101059551105001697170021170               03042024CUOTA         000000000002              0001700000P                      00000000000000      00000000000000000000000         30530322617
D0003708600600700764300040880582190021173               03042024CUOTA         000000000002              0001700000P                      00000000000000      00000000000000000000000         30530322617
D0003351973032100011500030683183470021174               03042024CUOTA         000000000002              0001700000P                      00000000000000      00000000000000000000000         30530322617
D0002722273732100011300079248081170021234               03042024CUOTA         000000000002              0001700000P                      00000000000000      00000000000000000000000         30530322617
D0003039272932100011300071223586780021235               03042024CUOTA         000000000002              0001700000P                      00000000000000      00000000000000000000000         30530322617
D0003711909432100011500030469890620021246               03042024CUOTA         000000000002              0000500000P                      00000000000000      00000000000000000000000         30530322617
D0002533362432100011500020218368580021250               03042024CUOTA         000000000002              0000500000P                      00000000000000      00000000000000000000000         30530322617
D0003131196419101059551105006556030021276               03042024CUOTA         000000000002              0001700000P                      00000000000000      00000000000000000000000         30530322617
D0003285969332100011300071956302440021281               03042024CUOTA         000000000002              0001700000P                      00000000000000      00000000000000000000000         30530322617
D0003031651500701217300041867725670021287               03042024CUOTA         000000000002              0001700000P                      00000000000000      00000000000000000000000         30530322617
D0003050747032100011300070477030960021291               03042024CUOTA         000000000002              0001650000P                      00000000000000      00000000000000000000000         30530322617
D0003591716232100011300071353483870021292               03042024CUOTA         000000000002              0001650000P                      00000000000000      00000000000000000000000         30530322617
D0003351950832100011300071937822440021296               03042024CUOTA         000000000002              0001650000P                      00000000000000      00000000000000000000000         30530322617
D0003292808900701965300040166847180021297               03042024CUOTA         000000000002              0001650000P                      00000000000000      00000000000000000000000         30530322617
D0003604525032100011300080311359250021298               03042024CUOTA         000000000002              0001650000P                      00000000000000      00000000000000000000000         30530322617
D0003073893432100011300071396020300021299               03042024CUOTA         000000000002              0001650000P                      00000000000000      00000000000000000000000         30530322617
D0003440985407201512880000388017900021302               03042024CUOTA         000000000002              0001650000P                      00000000000000      00000000000000000000000         30530322617
D0003574394832100011300079747212220021306               03042024CUOTA         000000000002              0001650000P                      00000000000000      00000000000000000000000         30530322617
D0003574109032100011300079903627330021311               03042024CUOTA         000000000002              0001650000P                      00000000000000      00000000000000000000000         30530322617
D0003129621832100011300071329382440021312               03042024CUOTA         000000000002              0001650000P                      00000000000000      00000000000000000000000         30530322617
D0003024138332100011300071389228980021323               03042024CUOTA         000000000002              0001650000P                      00000000000000      00000000000000000000000         30530322617
D0003369321100701217300041942654800021335               03042024CUOTA         000000000002              0001650000P                      00000000000000      00000000000000000000000         30530322617
D0003044338332100011300071265871730021338               03042024CUOTA         000000000002              0001650000P                      00000000000000      00000000000000000000000         30530322617
D0002873359332100011300080386888040021343               03042024CUOTA         000000000002              0001700000P                      00000000000000      00000000000000000000000         30530322617
D0002744810132100011500035434908920021362               03042024CUOTA         000000000002              0001650000P                      00000000000000      00000000000000000000000         30530322617
D0003263103501104992300499227810650021365               03042024CUOTA         000000000002              0001650000P                      00000000000000      00000000000000000000000         30530322617
D0003374929332100011300071406737110021393               03042024CUOTA         000000000002              0001650000P                      00000000000000      00000000000000000000000         30530322617
D0003958366628503798400955167680980022420               03042024CUOTA         000000000002              0001650000P                      00000000000000      00000000000000000000000         30530322617
D0001293529707203648880000350984900022447               03042024CUOTA         000000000002              0001700000P                      00000000000000      00000000000000000000000         30530322617
D0003263103501104992300499227810650022482               03042024CUOTA         000000000002              0001700000P                      00000000000000      00000000000000000000000         30530322617
T0000427000000696280000                                                                                                                                                                                 
