H30530322617CUOTA     00004032024
D0002232974307203648880000358545680007968               01032024CUOTA         000223297431              0001700000P                                    R10   0000000000000000103202400000VTO130530322617
D0002232974307203648880000358545680008502               01032024CUOTA         000223297431              0001700000P                                    R10   0000000000000000103202400000VTO130530322617
D0003130514000701217300041771272950020038               01032024CUOTA         000313051401              0001700000P                                    R10   0000000000000000103202400000VTO130530322617
D0002644700401700718400000360545960008398               01032024CUOTA         000264470041              0001700000P                                    R10   0000000000000000103202400000VTO130530322617
D0002419817001700718400000372602460011114               01032024CUOTA         000241981701              0001700000P                                    R10   0000000000000000103202400000VTO130530322617
D0002311785504400349400001404378430011157               01032024CUOTA         000231178551              0001700000P                                    R10   0000000000000000103202400000VTO130530322617
D0003731306801104992300499076670010012304               01032024CUOTA         000373130681              0001700000P                                    R10   0000000000000000103202400000VTO130530322617
D0003731306801104992300499076670010016657               01032024CUOTA         000373130681              0001650000P                                    R10   0000000000000000103202400000VTO130530322617
D0003873522701104992300499188195650021124               01032024CUOTA         000387352271              0001650000P                                    R10   0000000000000000103202400000VTO130530322617
D0001854371732100011300070624146560008356               01032024CUOTA         000185437171              0001700000P                                    R10   0000000000000000103202400000VTO130530322617
D0001854371732100011300070624146560008514               01032024CUOTA         000185437171              0001700000P                                    R10   0000000000000000103202400000VTO130530322617
D0002981428632100011500028612531490008316               01032024CUOTA         000298142861              0001700000P                                    R10   0000000000000000103202400000VTO130530322617
D0002542901532100011300071178021390008472               01032024CUOTA         000254290151              0001700000P                                    R10   0000000000000000103202400000VTO130530322617
D0002630470032100011300070288300520008909               01032024CUOTA         000263047001              0001700000P                                    R10   0000000000000000103202400000VTO130530322617
D0002630470032100011300070288300520010456               01032024CUOTA         000263047001              0001700000P                                    R10   0000000000000000103202400000VTO130530322617
D0002182613732100011500036091706940009925               01032024CUOTA         000218261371              0001700000P                                    R10   0000000000000000103202400000VTO130530322617
D0002677468032100011500030207530120010044               01032024CUOTA         000267746801              0001360000P                                    R10   0000000000000000103202400000VTO130530322617
D0002677468032100011500030207530120010631               01032024CUOTA         000267746801              0001360000P                                    R10   0000000000000000103202400000VTO130530322617
D0003574127732100011500028033569850011612               01032024CUOTA         000357412771              0001700000P                                    R10   0000000000000000103202400000VTO130530322617
D0003574127732100011500028033569850021101               01032024CUOTA         000357412771              0001650000P                                    R10   0000000000000000103202400000VTO130530322617
D0003292831832100011300071323776560011671               01032024CUOTA         000329283181              0001700000P                                    R10   0000000000000000103202400000VTO130530322617
D0002824563532100011300079665830960012660               01032024CUOTA         000282456351              0001700000P                                    R10   0000000000000000103202400000VTO130530322617
D0002824563532100011300079665830960012683               01032024CUOTA         000282456351              0001700000P                                    R10   0000000000000000103202400000VTO130530322617
D0003388222332100011500031173137210014232               01032024CUOTA         000338822231              0001700000P                                    R10   0000000000000000103202400000VTO130530322617
D0003351985332100011500033765743810018746               01032024CUOTA         000335198531              0001700000P                                    R10   0000000000000000103202400000VTO130530322617
D0003039272932100011300071223586780021235               01032024CUOTA         000303927291              0001700000P                                    R10   0000000000000000103202400000VTO130530322617
D0003711909432100011500030469890620021246               01032024CUOTA         000371190941              0000500000P                                    R10   0000000000000000103202400000VTO130530322617
D0003044306632102307500008995332680010034               01032024CUOTA         000304430661              0001700000P                                    R10   0000000000000000103202400000VTO130530322617
D0003044306632102307500008995332680011311               01032024CUOTA         000304430661              0001700000P                                    R10   0000000000000000103202400000VTO130530322617
D0003205417532102307500009969422680011720               01032024CUOTA         000320541751              0001700000P                                    R10   0000000000000000103202400000VTO130530322617
D0002906003203402841082840160630060011131               01032024CUOTA         000290600321              0001700000P                                    R10   0000000000000000103202400000VTO130530322617
D0002511441328506797400951955215880006765               01032024CUOTA         000251144131              0001700000P                      00000000000000R00   0000000000000000103202400000VTO130530322617
D0002486823932100011300070990641670006774               01032024CUOTA         000248682391              0001700000P                      00000000000000R00   0000000000000000103202400000VTO130530322617
D0001830054107201512880000220288680006815               01032024CUOTA         000183005411              0001700000P                      00000000000000R00   0000000000000000103202400000VTO130530322617
D0002224289901104992300499099774830007267               01032024CUOTA         000222428991              0001700000P                      00000000000000R00   0000000000000000103202400000VTO130530322617
D0002914275832100011500022670528360007270               01032024CUOTA         000291427581              0001360000P                      00000000000000R00   0000000000000000103202400000VTO130530322617
D0002516861707201512880000021664540007275               01032024CUOTA         000251686171              0001700000P                      00000000000000R00   0000000000000000103202400000VTO130530322617
D0002825384007201512880000390395540007290               01032024CUOTA         000282538401              0001360000P                      00000000000000R00   0000000000000000103202400000VTO130530322617
D0002645991132100011300070235017110007344               01032024CUOTA         000264599111              0001700000P                      00000000000000R00   0000000000000000103202400000VTO130530322617
D0002804876832100011300070620587770007799               01032024CUOTA         000280487681              0001700000P                      00000000000000R00   0000000000000000103202400000VTO130530322617
D0002560114301700718400000346320280007806               01032024CUOTA         000256011431              0001700000P                      00000000000000R00   0000000000000000103202400000VTO130530322617
D0002739013807201512880000369738220007808               01032024CUOTA         000273901381              0001700000P                      00000000000000R00   0000000000000000103202400000VTO130530322617
D0002566570432100011300071395620460007822               01032024CUOTA         000256657041              0001700000P                      00000000000000R00   0000000000000000103202400000VTO130530322617
D0002138190901702257400000309754390007845               01032024CUOTA         000213819091              0001700000P                      00000000000000R00   0000000000000000103202400000VTO130530322617
D0002616178103402841082840230130070007903               01032024CUOTA         000261617811              0001700000P                      00000000000000R00   0000000000000000103202400000VTO130530322617
D0002347384607203648880000351433360007904               01032024CUOTA         000234738461              0001700000P                      00000000000000R00   0000000000000000103202400000VTO130530322617
D0003071204532100011300070839850520007920               01032024CUOTA         000307120451              0001700000P                      00000000000000R00   0000000000000000103202400000VTO130530322617
D0002341057407201512880000404078900007958               01032024CUOTA         000234105741              0001700000P                      00000000000000R00   0000000000000000103202400000VTO130530322617
D0001859995300701217300041558463500007974               01032024CUOTA         000185999531              0001700000P                      00000000000000R00   0000000000000000103202400000VTO130530322617
D0002526789507201512880000021732720007976               01032024CUOTA         000252678951              0001700000P                      00000000000000R00   0000000000000000103202400000VTO130530322617
D0002196813207201512880000021526040007977               01032024CUOTA         000219681321              0001360000P                      00000000000000R00   0000000000000000103202400000VTO130530322617
D0002421656932100011300070446134200007994               01032024CUOTA         000242165691              0001700000P                      00000000000000R00   0000000000000000103202400000VTO130530322617
D0003765124932100011300079396667770008314               01032024CUOTA         000376512491              0001700000P                      00000000000000R00   0000000000000000103202400000VTO130530322617
D0002695492807203648880000357646540008315               01032024CUOTA         000269549281              0001700000P                      00000000000000R00   0000000000000000103202400000VTO130530322617
D0002261791900701217300041868101660008330               01032024CUOTA         000226179191              0001700000P                      00000000000000R00   0000000000000000103202400000VTO130530322617
D0002636884801700718200000304676640008331               01032024CUOTA         000263688481              0001700000P                      00000000000000R00   0000000000000000103202400000VTO130530322617
D0001815743732100011300070203201390008353               01032024CUOTA         000181574371              0001700000P                      00000000000000R00   0000000000000000103202400000VTO130530322617
D0003323480732100011300071265214140008374               01032024CUOTA         000332348071              0001700000P                      00000000000000R00   0000000000000000103202400000VTO130530322617
D0002304269307201512880000377406720008386               01032024CUOTA         000230426931              0001700000P                      00000000000000R00   0000000000000000103202400000VTO130530322617
D0002224264301508404010001060581660008396               01032024CUOTA         000222426431              0001700000P                      00000000000000R00   0000000000000000103202400000VTO130530322617
D0002914288632100011500029472575390008402               01032024CUOTA         000291428861              0001700000P                      00000000000000R00   0000000000000000103202400000VTO130530322617
D0003044322632100011300071323676620008455               01032024CUOTA         000304432261              0001700000P                      00000000000000R00   0000000000000000103202400000VTO130530322617
D0002397606000701217300041614460210008491               01032024CUOTA         000239760601              0001700000P                      00000000000000R00   0000000000000000103202400000VTO130530322617
D0002410185832100011300070207956340008508               01032024CUOTA         000241018581              0001700000P                      00000000000000R00   0000000000000000103202400000VTO130530322617
D0002824606632100011300079832973870008516               01032024CUOTA         000282460661              0001700000P                      00000000000000R00   0000000000000000103202400000VTO130530322617
D0003329297232100011500030352100120008521               01032024CUOTA         000332929721              0001360000P                      00000000000000R00   0000000000000000103202400000VTO130530322617
D0002335311901104992300499110228010008670               01032024CUOTA         000233531191              0001700000P                      00000000000000R00   0000000000000000103202400000VTO130530322617
D0002825384007201512880000390395540008844               01032024CUOTA         000282538401              0001360000P                      00000000000000R00   0000000000000000103202400000VTO130530322617
D0003591796507201512880000378484680008860               01032024CUOTA         000359179651              0001700000P                      00000000000000R00   0000000000000000103202400000VTO130530322617
D0002397632101700718400000005224140008865               01032024CUOTA         000239763211              0001700000P                      00000000000000R00   0000000000000000103202400000VTO130530322617
D0003329297232100011500030352100120008870               01032024CUOTA         000332929721              0001360000P                      00000000000000R00   0000000000000000103202400000VTO130530322617
D0002739045507201512880000017407540008883               01032024CUOTA         000273904551              0001700000P                      00000000000000R00   0000000000000000103202400000VTO130530322617
D0002804876832100011300070620587770008906               01032024CUOTA         000280487681              0001700000P                      00000000000000R00   0000000000000000103202400000VTO130530322617
D0002887623432100011300070496088320008910               01032024CUOTA         000288762341              0001700000P                      00000000000000R00   0000000000000000103202400000VTO130530322617
D0002427748207201512880000365475400008915               01032024CUOTA         000242774821              0001700000P                      00000000000000R00   0000000000000000103202400000VTO130530322617
D0002887081332100011300070614227990008931               01032024CUOTA         000288708131              0001700000P                      00000000000000R00   0000000000000000103202400000VTO130530322617
D0003189723907200250880000376639040008939               01032024CUOTA         000318972391              0001700000P                      00000000000000R00   0000000000000000103202400000VTO130530322617
D0002903782801104992300499091875010008962               01032024CUOTA         000290378281              0001700000P                      00000000000000R00   0000000000000000103202400000VTO130530322617
D0002527679032100011300070455353210008964               01032024CUOTA         000252767901              0001700000P                      00000000000000R00   0000000000000000103202400000VTO130530322617
D0002677468032100011500030207530120008973               01032024CUOTA         000267746801              0001360000P                      00000000000000R00   0000000000000000103202400000VTO130530322617
D0002341185032100011300070587419970008987               01032024CUOTA         000234118501              0001360000P                      00000000000000R00   0000000000000000103202400000VTO130530322617
D0002196813207201512880000021526040009005               01032024CUOTA         000219681321              0001360000P                      00000000000000R00   0000000000000000103202400000VTO130530322617
D0002341057407201512880000404078900009010               01032024CUOTA         000234105741              0001700000P                      00000000000000R00   0000000000000000103202400000VTO130530322617
D0003130525307201512880000372950040009024               01032024CUOTA         000313052531              0001700000P                      00000000000000R00   0000000000000000103202400000VTO130530322617
D0002056473801700718400000006767460009026               01032024CUOTA         000205647381              0001700000P                      00000000000000R00   0000000000000000103202400000VTO130530322617
D0002559669707201512880000021688180009027               01032024CUOTA         000255966971              0001700000P                      00000000000000R00   0000000000000000103202400000VTO130530322617
D0002090009401702257400000302978890009035               01032024CUOTA         000209000941              0001700000P                      00000000000000R00   0000000000000000103202400000VTO130530322617
D0000593775932100011500020620813030009039               01032024CUOTA         000059377591              0001700000P                      00000000000000R00   0000000000000000103202400000VTO130530322617
D0002570954532100011300070494569810009841               01032024CUOTA         000257095451              0001700000P                      00000000000000R00   0000000000000000103202400000VTO130530322617
D0002604044001700718400000381399140009842               01032024CUOTA         000260404401              0001700000P                      00000000000000R00   0000000000000000103202400000VTO130530322617
D0002914288632100011500029472575390009855               01032024CUOTA         000291428861              0001700000P                      00000000000000R00   0000000000000000103202400000VTO130530322617
D0002739013807201512880000369738220009856               01032024CUOTA         000273901381              0001700000P                      00000000000000R00   0000000000000000103202400000VTO130530322617
D0002716914603402841082840054560000009857               01032024CUOTA         000271691461              0001700000P                      00000000000000R00   0000000000000000103202400000VTO130530322617
D0002844491807203648880000363185220009887               01032024CUOTA         000284449181              0001700000P                      00000000000000R00   0000000000000000103202400000VTO130530322617
D0002844459532100011300070507826400009894               01032024CUOTA         000284445951              0001700000P                      00000000000000R00   0000000000000000103202400000VTO130530322617
D0003231526319101059551105011172030009918               01032024CUOTA         000323152631              0001700000P                      00000000000000R00   0000000000000000103202400000VTO130530322617
D0002783471928506797400949066073480009968               01032024CUOTA         000278347191              0001700000P                      00000000000000R00   0000000000000000103202400000VTO130530322617
D0002179172032100011300070441327830009976               01032024CUOTA         000217917201              0001700000P                      00000000000000R00   0000000000000000103202400000VTO130530322617
D0002760807801104992300499992833290009985               01032024CUOTA         000276080781              0001700000P                      00000000000000R00   0000000000000000103202400000VTO130530322617
D0003308933432100011300079981999190010015               01032024CUOTA         000330893341              0001700000P                      00000000000000R00   0000000000000000103202400000VTO130530322617
D0002872472832100011300080043356060010028               01032024CUOTA         000287247281              0001700000P                      00000000000000R00   0000000000000000103202400000VTO130530322617
D0002965329132100011300070477040680010035               01032024CUOTA         000296532911              0001700000P                      00000000000000R00   0000000000000000103202400000VTO130530322617
D0003374916507201512880000037994400010050               01032024CUOTA         000337491651              0001700000P                      00000000000000R00   0000000000000000103202400000VTO130530322617
D0002914275832100011500022670528360010332               01032024CUOTA         000291427581              0001360000P                      00000000000000R00   0000000000000000103202400000VTO130530322617
D0002224264301508404010001060581660010460               01032024CUOTA         000222426431              0001700000P                      00000000000000R00   0000000000000000103202400000VTO130530322617
D0002516861707201512880000021664540010461               01032024CUOTA         000251686171              0001700000P                      00000000000000R00   0000000000000000103202400000VTO130530322617
D0005071492207201512880000021746400010463               01032024CUOTA         000507149221              0001700000P                      00000000000000R00   0000000000000000103202400000VTO130530322617
D0002994937901104992300499093230330010473               01032024CUOTA         000299493791              0001700000P                      00000000000000R00   0000000000000000103202400000VTO130530322617
D0001475411132100011500026813050280010474               01032024CUOTA         000147541111              0001700000P                      00000000000000R00   0000000000000000103202400000VTO130530322617
D0003416947438900837400052096809380010478               01032024CUOTA         000341694741              0001700000P                      00000000000000R00   0000000000000000103202400000VTO130530322617
D0002759845404400349400002166326330010486               01032024CUOTA         000275984541              0001700000P                      00000000000000R00   0000000000000000103202400000VTO130530322617
D0002550106932100011300070555172500010526               01032024CUOTA         000255010691              0001700000P                      00000000000000R00   0000000000000000103202400000VTO130530322617
D0002527679032100011300070455353210010539               01032024CUOTA         000252767901              0001700000P                      00000000000000R00   0000000000000000103202400000VTO130530322617
D0003130525307201512880000372950040010550               01032024CUOTA         000313052531              0001700000P                      00000000000000R00   0000000000000000103202400000VTO130530322617
D0002261829207201512880000220333900010553               01032024CUOTA         000226182921              0001700000P                      00000000000000R00   0000000000000000103202400000VTO130530322617
D0002341136332100011300070406366780010558               01032024CUOTA         000234113631              0001700000P                      00000000000000R00   0000000000000000103202400000VTO130530322617
D0002421656932100011300070446134200010559               01032024CUOTA         000242165691              0001700000P                      00000000000000R00   0000000000000000103202400000VTO130530322617
D0002662943107201512880000365442680010570               01032024CUOTA         000266294311              0001700000P                      00000000000000R00   0000000000000000103202400000VTO130530322617
D0002163125407201512880000221156360010571               01032024CUOTA         000216312541              0001700000P                      00000000000000R00   0000000000000000103202400000VTO130530322617
D0002095990432100011300070556071950010586               01032024CUOTA         000209599041              0001700000P                      00000000000000R00   0000000000000000103202400000VTO130530322617
D0002616115532100011300071099158100010597               01032024CUOTA         000261611551              0001700000P                      00000000000000R00   0000000000000000103202400000VTO130530322617
D0002397632101700718400000005224140010600               01032024CUOTA         000239763211              0001700000P                      00000000000000R00   0000000000000000103202400000VTO130530322617
D0002511441328506797400951955215880010603               01032024CUOTA         000251144131              0001700000P                      00000000000000R00   0000000000000000103202400000VTO130530322617
D0002566570432100011300071395620460010633               01032024CUOTA         000256657041              0001700000P                      00000000000000R00   0000000000000000103202400000VTO130530322617
D0003129616704400349400002488062130010672               01032024CUOTA         000312961671              0001700000P                      00000000000000R00   0000000000000000103202400000VTO130530322617
D0002759845404400349400002166326330010928               01032024CUOTA         000275984541              0001700000P                      00000000000000R00   0000000000000000103202400000VTO130530322617
D0002813949219101059550105533768280010963               01032024CUOTA         000281394921              0001700000P                      00000000000000R00   0000000000000000103202400000VTO130530322617
D0002813949219101059550105533768280011054               01032024CUOTA         000281394921              0001700000P                      00000000000000R00   0000000000000000103202400000VTO130530322617
D0003440969532100011300300369471390011096               01032024CUOTA         000344096951              0001360000P                      00000000000000R00   0000000000000000103202400000VTO130530322617
D0001826003832100011300070325994420011098               01032024CUOTA         000182600381              0001700000P                      00000000000000R00   0000000000000000103202400000VTO130530322617
D0002341185032100011300070587419970011123               01032024CUOTA         000234118501              0001360000P                      00000000000000R00   0000000000000000103202400000VTO130530322617
D0003071221101700718400000346550500011132               01032024CUOTA         000307122111              0001700000P                      00000000000000R00   0000000000000000103202400000VTO130530322617
D0003213241532100011500023217200840011139               01032024CUOTA         000321324151              0001360000P                      00000000000000R00   0000000000000000103202400000VTO130530322617
D0002138190901702257400000309754390011160               01032024CUOTA         000213819091              0001700000P                      00000000000000R00   0000000000000000103202400000VTO130530322617
D0002989415807201512880000382872680011161               01032024CUOTA         000298941581              0001700000P                      00000000000000R00   0000000000000000103202400000VTO130530322617
D0003189723907200250880000376639040011180               01032024CUOTA         000318972391              0001700000P                      00000000000000R00   0000000000000000103202400000VTO130530322617
D0002872472832100011300080043356060011200               01032024CUOTA         000287247281              0001700000P                      00000000000000R00   0000000000000000103202400000VTO130530322617
D0002550196307201512880000020408220011287               01032024CUOTA         000255019631              0001700000P                      00000000000000R00   0000000000000000103202400000VTO130530322617
D0002584425632100011300079815764080011453               01032024CUOTA         000258442561              0001700000P                      00000000000000R00   0000000000000000103202400000VTO130530322617
D0002739338132100011300070954323370011542               01032024CUOTA         000273933811              0001700000P                      00000000000000R00   0000000000000000103202400000VTO130530322617
D0002486823932100011300070990641670011621               01032024CUOTA         000248682391              0001700000P                      00000000000000R00   0000000000000000103202400000VTO130530322617
D0002824606632100011300079832973870011622               01032024CUOTA         000282460661              0001700000P                      00000000000000R00   0000000000000000103202400000VTO130530322617
D0002657657200701217300041504711020011626               01032024CUOTA         000265765721              0001700000P                      00000000000000R00   0000000000000000103202400000VTO130530322617
D0002971998532100011300070595520020011632               01032024CUOTA         000297199851              0001700000P                      00000000000000R00   0000000000000000103202400000VTO130530322617
D0002760894301700718400000333716780011677               01032024CUOTA         000276089431              0001700000P                      00000000000000R00   0000000000000000103202400000VTO130530322617
D0002989431332100011300071278839970011705               01032024CUOTA         000298943131              0001700000P                      00000000000000R00   0000000000000000103202400000VTO130530322617
D0003505224032100011300071991131670011706               01032024CUOTA         000350522401              0001700000P                      00000000000000R00   0000000000000000103202400000VTO130530322617
D0004028548232100011300300377433090011710               01032024CUOTA         000402854821              0001700000P                      00000000000000R00   0000000000000000103202400000VTO130530322617
D0002196813207201512880000021526040011727               01032024CUOTA         000219681321              0001360000P                      00000000000000R00   0000000000000000103202400000VTO130530322617
D0002760807801104992300499992833290011756               01032024CUOTA         000276080781              0001700000P                      00000000000000R00   0000000000000000103202400000VTO130530322617
D0002224289901104992300499099774830011761               01032024CUOTA         000222428991              0001700000P                      00000000000000R00   0000000000000000103202400000VTO130530322617
D0003129739832100011300071804337770011762               01032024CUOTA         000312973981              0001700000P                      00000000000000R00   0000000000000000103202400000VTO130530322617
D0003213241532100011500023217200840011764               01032024CUOTA         000321324151              0001360000P                      00000000000000R00   0000000000000000103202400000VTO130530322617
D0003323480732100011300071265214140011774               01032024CUOTA         000332348071              0001700000P                      00000000000000R00   0000000000000000103202400000VTO130530322617
D0002616115532100011300071099158100011803               01032024CUOTA         000261611551              0001700000P                      00000000000000R00   0000000000000000103202400000VTO130530322617
D0002739338132100011300070954323370011828               01032024CUOTA         000273933811              0001700000P                      00000000000000R00   0000000000000000103202400000VTO130530322617
D0003031809432100011300071363144420011899               01032024CUOTA         000303180941              0001700000P                      00000000000000R00   0000000000000000103202400000VTO130530322617
D0002290250132100011300079229143370011900               01032024CUOTA         000229025011              0001700000P                      00000000000000R00   0000000000000000103202400000VTO130530322617
D0002434677707203648880000357830040011967               01032024CUOTA         000243467771              0001700000P                      00000000000000R00   0000000000000000103202400000VTO130530322617
D0003031657532100011300079789146400012143               01032024CUOTA         000303165751              0001700000P                      00000000000000R00   0000000000000000103202400000VTO130530322617
D0003037296832100011300071990013090012144               01032024CUOTA         000303729681              0001360000P                      00000000000000R00   0000000000000000103202400000VTO130530322617
D0003130554207201512880000378995720012152               01032024CUOTA         000313055421              0001700000P                      00000000000000R00   0000000000000000103202400000VTO130530322617
D0002971699401104992300499138943650012168               01032024CUOTA         000297169941              0001700000P                      00000000000000R00   0000000000000000103202400000VTO130530322617
D0001677204232100011300070224557050012199               01032024CUOTA         000167720421              0001700000P                      00000000000000R00   0000000000000000103202400000VTO130530322617
D0003427830432100011300079665389970012200               01032024CUOTA         000342783041              0001700000P                      00000000000000R00   0000000000000000103202400000VTO130530322617
D0002056483332100011300071432347330012204               01032024CUOTA         000205648331              0001700000P                      00000000000000R00   0000000000000000103202400000VTO130530322617
D0002914275832100011500022670528360012206               01032024CUOTA         000291427581              0001360000P                      00000000000000R00   0000000000000000103202400000VTO130530322617
D0002543815707203648880000354421360012217               01032024CUOTA         000254381571              0001700000P                      00000000000000R00   0000000000000000103202400000VTO130530322617
D0002971998532100011300070595520020012222               01032024CUOTA         000297199851              0001700000P                      00000000000000R00   0000000000000000103202400000VTO130530322617
D0002874422007201512880000388020900012262               01032024CUOTA         000287442201              0001700000P                      00000000000000R00   0000000000000000103202400000VTO130530322617
D0003082410632100011300079762262440012288               01032024CUOTA         000308241061              0001700000P                      00000000000000R00   0000000000000000103202400000VTO130530322617
D0002867717132100011300071390124420012289               01032024CUOTA         000286771711              0001700000P                      00000000000000R00   0000000000000000103202400000VTO130530322617
D0002813987832100011300071427193430012299               01032024CUOTA         000281398781              0001700000P                      00000000000000R00   0000000000000000103202400000VTO130530322617
D0003182538432100011300071427254580012302               01032024CUOTA         000318253841              0001700000P                      00000000000000R00   0000000000000000103202400000VTO130530322617
D0002783471928506797400949066073480012325               01032024CUOTA         000278347191              0001700000P                      00000000000000R00   0000000000000000103202400000VTO130530322617
D0002434677707203648880000357830040012334               01032024CUOTA         000243467771              0001700000P                      00000000000000R00   0000000000000000103202400000VTO130530322617
D0002584425632100011300079815764080012337               01032024CUOTA         000258442561              0001700000P                      00000000000000R00   0000000000000000103202400000VTO130530322617
D0003071204532100011300070839850520012338               01032024CUOTA         000307120451              0001700000P                      00000000000000R00   0000000000000000103202400000VTO130530322617
D0003323484907201512880000384435180012422               01032024CUOTA         000332348491              0000500000P                      00000000000000R00   0000000000000000103202400000VTO130530322617
D0002581884332100011300070561264640012426               01032024CUOTA         000258188431              0001700000P                      00000000000000R00   0000000000000000103202400000VTO130530322617
D0002581884332100011300070561264640012427               01032024CUOTA         000258188431              0001700000P                      00000000000000R00   0000000000000000103202400000VTO130530322617
D0002758153607201512880000372211040012473               01032024CUOTA         000275815361              0001700000P                      00000000000000R00   0000000000000000103202400000VTO130530322617
D0003037296832100011300071990013090012628               01032024CUOTA         000303729681              0001360000P                      00000000000000R00   0000000000000000103202400000VTO130530322617
D0003266201232100011300071365204140012654               01032024CUOTA         000326620121              0001700000P                      00000000000000R00   0000000000000000103202400000VTO130530322617
D0002677463432100011300071364263090012673               01032024CUOTA         000267746341              0001700000P                      00000000000000R00   0000000000000000103202400000VTO130530322617
D0002844459532100011300070507826400012718               01032024CUOTA         000284445951              0001700000P                      00000000000000R00   0000000000000000103202400000VTO130530322617
D0002695492807203648880000357646540012727               01032024CUOTA         000269549281              0001700000P                      00000000000000R00   0000000000000000103202400000VTO130530322617
D0003329297232100011500030352100120012728               01032024CUOTA         000332929721              0001360000P                      00000000000000R00   0000000000000000103202400000VTO130530322617
D0001826003832100011300070325994420012741               01032024CUOTA         000182600381              0001700000P                      00000000000000R00   0000000000000000103202400000VTO130530322617
D0003173935032100011300071240068100012745               01032024CUOTA         000317393501              0001700000P                      00000000000000R00   0000000000000000103202400000VTO130530322617
D0003418250500701996300040458686060012748               01032024CUOTA         000341825051              0001700000P                      00000000000000R00   0000000000000000103202400000VTO130530322617
D0002867714732100011300070986058600012852               01032024CUOTA         000286771471              0001700000P                      00000000000000R00   0000000000000000103202400000VTO130530322617
D0002953367401700718400000350498500012885               01032024CUOTA         000295336741              0001700000P                      00000000000000R00   0000000000000000103202400000VTO130530322617
D0002825384007201512880000390395540012896               01032024CUOTA         000282538401              0001360000P                      00000000000000R00   0000000000000000103202400000VTO130530322617
D0001475411132100011500026813050280012897               01032024CUOTA         000147541111              0001700000P                      00000000000000R00   0000000000000000103202400000VTO130530322617
D0002722174832100011300071218435790012901               01032024CUOTA         000272217481              0001700000P                      00000000000000R00   0000000000000000103202400000VTO130530322617
D0002806462301700718400000382755000012914               01032024CUOTA         000280646231              0001700000P                      00000000000000R00   0000000000000000103202400000VTO130530322617
D0002890044632100011300070955922000013031               01032024CUOTA         000289004461              0001700000P                      00000000000000R00   0000000000000000103202400000VTO130530322617
D0003173935032100011300071240068100013108               01032024CUOTA         000317393501              0001700000P                      00000000000000R00   0000000000000000103202400000VTO130530322617
D0002813987832100011300071427193430013122               01032024CUOTA         000281398781              0001700000P                      00000000000000R00   0000000000000000103202400000VTO130530322617
D0003091759807201512880000374220400013124               01032024CUOTA         000309175981              0001700000P                      00000000000000R00   0000000000000000103202400000VTO130530322617
D0002550196307201512880000020408220013126               01032024CUOTA         000255019631              0001650000P                      00000000000000R00   0000000000000000103202400000VTO130530322617
D0003440969532100011300300369471390013128               01032024CUOTA         000344096951              0001360000P                      00000000000000R00   0000000000000000103202400000VTO130530322617
D0002662943107201512880000365442680013135               01032024CUOTA         000266294311              0001700000P                      00000000000000R00   0000000000000000103202400000VTO130530322617
D0002550106932100011300070555172500013139               01032024CUOTA         000255010691              0001700000P                      00000000000000R00   0000000000000000103202400000VTO130530322617
D0003174094701104992300499077515970014173               01032024CUOTA         000317409471              0001700000P                      00000000000000R00   0000000000000000103202400000VTO130530322617
D0002406333200701217300048929017180014180               01032024CUOTA         000240633321              0001700000P                      00000000000000R00   0000000000000000103202400000VTO130530322617
D0003505207732100011500035184615390014185               01032024CUOTA         000350520771              0001700000P                      00000000000000R00   0000000000000000103202400000VTO130530322617
D0003741101732100011300080255904080014189               01032024CUOTA         000374110171              0001700000P                      00000000000000R00   0000000000000000103202400000VTO130530322617
D0003031616701702257400000309614430014190               01032024CUOTA         000303161671              0001700000P                      00000000000000R00   0000000000000000103202400000VTO130530322617
D0003173960528506797400946385610080014201               01032024CUOTA         000317396051              0001700000P                      00000000000000R00   0000000000000000103202400000VTO130530322617
D0002513069107201659880000366736540014210               01032024CUOTA         000251306911              0001700000P                      00000000000000R00   0000000000000000103202400000VTO130530322617
D0003213241532100011500023217200840014300               01032024CUOTA         000321324151              0001320000P                      00000000000000R00   0000000000000000103202400000VTO130530322617
D0003031657532100011300079789146400014302               01032024CUOTA         000303165751              0001650000P                      00000000000000R00   0000000000000000103202400000VTO130530322617
D0003416779132100011300071680623930014310               01032024CUOTA         000341677911              0001650000P                      00000000000000R00   0000000000000000103202400000VTO130530322617
D0003024128601700718400000321629500014337               01032024CUOTA         000302412861              0001700000P                      00000000000000R00   0000000000000000103202400000VTO130530322617
D0003131153332100011300079496509310014342               01032024CUOTA         000313115331              0001700000P                      00000000000000R00   0000000000000000103202400000VTO130530322617
D0002739198032100011300071014029810014364               01032024CUOTA         000273919801              0001700000P                      00000000000000R00   0000000000000000103202400000VTO130530322617
D0003130525307201512880000372950040014365               01032024CUOTA         000313052531              0001700000P                      00000000000000R00   0000000000000000103202400000VTO130530322617
D0002873842801104206300420115689470014450               01032024CUOTA         000287384281              0001700000P                      00000000000000R00   0000000000000000103202400000VTO130530322617
D0002320005300701217300048910081820014454               01032024CUOTA         000232000531              0001700000P                      00000000000000R00   0000000000000000103202400000VTO130530322617
D0002903782801104992300499091875010014489               01032024CUOTA         000290378281              0001700000P                      00000000000000R00   0000000000000000103202400000VTO130530322617
D0003416779132100011300071680623930014631               01032024CUOTA         000341677911              0001700000P                      00000000000000R00   0000000000000000103202400000VTO130530322617
D0003071221101700718400000346550500016659               01032024CUOTA         000307122111              0001650000P                      00000000000000R00   0000000000000000103202400000VTO130530322617
D0002758153607201512880000372211040016665               01032024CUOTA         000275815361              0001700000P                      00000000000000R00   0000000000000000103202400000VTO130530322617
D0003416947438900837400052096809380016671               01032024CUOTA         000341694741              0001700000P                      00000000000000R00   0000000000000000103202400000VTO130530322617
D0003044322632100011300071323676620016681               01032024CUOTA         000304432261              0001700000P                      00000000000000R00   0000000000000000103202400000VTO130530322617
D0002890044632100011300070955922000016682               01032024CUOTA         000289004461              0001650000P                      00000000000000R00   0000000000000000103202400000VTO130530322617
D0002739198032100011300071014029810016686               01032024CUOTA         000273919801              0001650000P                      00000000000000R00   0000000000000000103202400000VTO130530322617
D0002971699401104992300499138943650016688               01032024CUOTA         000297169941              0001700000P                      00000000000000R00   0000000000000000103202400000VTO130530322617
D0003220798307201512880000379632400016696               01032024CUOTA         000322079831              0001650000P                      00000000000000R00   0000000000000000103202400000VTO130530322617
D0002527679032100011300070455353210016703               01032024CUOTA         000252767901              0001700000P                      00000000000000R00   0000000000000000103202400000VTO130530322617
D0003037296832100011300071990013090016709               01032024CUOTA         000303729681              0001320000P                      00000000000000R00   0000000000000000103202400000VTO130530322617
D0002989415807201512880000382872680016710               01032024CUOTA         000298941581              0001650000P                      00000000000000R00   0000000000000000103202400000VTO130530322617
D0003130525307201512880000372950040016722               01032024CUOTA         000313052531              0001650000P                      00000000000000R00   0000000000000000103202400000VTO130530322617
D0003329297232100011500030352100120017732               01032024CUOTA         000332929721              0001360000P                      00000000000000R00   0000000000000000103202400000VTO130530322617
D0003173966132100011300071804927490017741               01032024CUOTA         000317396611              0001700000P                      00000000000000R00   0000000000000000103202400000VTO130530322617
D0003440957600701217300041792695800017745               01032024CUOTA         000344095761              0001700000P                      00000000000000R00   0000000000000000103202400000VTO130530322617
D0003506647707201512880000375041400017747               01032024CUOTA         000350664771              0001700000P                      00000000000000R00   0000000000000000103202400000VTO130530322617
D0003612171132100011300300206798260018747               01032024CUOTA         000361217111              0001700000P                      00000000000000R00   0000000000000000103202400000VTO130530322617
D0003388750932100011300079835962000018811               01032024CUOTA         000338875091              0001700000P                      00000000000000R00   0000000000000000103202400000VTO130530322617
D0003491334832100011300079352025910018813               01032024CUOTA         000349133481              0001700000P                      00000000000000R00   0000000000000000103202400000VTO130530322617
D0002948678904400349400001602743830018818               01032024CUOTA         000294867891              0001700000P                      00000000000000R00   0000000000000000103202400000VTO130530322617
D0003419570832100011300071396787830018843               01032024CUOTA         000341957081              0000500000P                      00000000000000R00   0000000000000000103202400000VTO130530322617
D0003268852132100011300071423856780018937               01032024CUOTA         000326885211              0001700000P                      00000000000000R00   0000000000000000103202400000VTO130530322617
D0002078723607201512880000365964360021078               01032024CUOTA         000207872361              0001700000P                      00000000000000R00   0000000000000000103202400000VTO130530322617
D0003427830432100011300079665389970021079               01032024CUOTA         000342783041              0001650000P                      00000000000000R00   0000000000000000103202400000VTO130530322617
D0002862972707201512880000372969220021091               01032024CUOTA         000286297271              0001650000P                      00000000000000R00   0000000000000000103202400000VTO130530322617
D0002341185032100011300070587419970021118               01032024CUOTA         000234118501              0001360000P                      00000000000000R00   0000000000000000103202400000VTO130530322617
D0002760894301700718400000333716780021120               01032024CUOTA         000276089431              0001700000P                      00000000000000R00   0000000000000000103202400000VTO130530322617
D0003471150604400349400003562140830021136               01032024CUOTA         000347115061              0001700000P                      00000000000000R00   0000000000000000103202400000VTO130530322617
D0003612186707201512880000377379860021138               01032024CUOTA         000361218671              0001700000P                      00000000000000R00   0000000000000000103202400000VTO130530322617
D0003173960528506797400946385610080021146               01032024CUOTA         000317396051              0001700000P                      00000000000000R00   0000000000000000103202400000VTO130530322617
D0002722174832100011300071218435790021147               01032024CUOTA         000272217481              0001700000P                      00000000000000R00   0000000000000000103202400000VTO130530322617
D0002867714732100011300070986058600021151               01032024CUOTA         000286771471              0001700000P                      00000000000000R00   0000000000000000103202400000VTO130530322617
D0003440969532100011300300369471390021156               01032024CUOTA         000344096951              0001360000P                      00000000000000R00   0000000000000000103202400000VTO130530322617
D0003233257804400233400003560980410021167               01032024CUOTA         000323325781              0001700000P                      00000000000000R00   0000000000000000103202400000VTO130530322617
D0003708600600700764300040880582190021173               01032024CUOTA         000370860061              0001700000P                      00000000000000R00   0000000000000000103202400000VTO130530322617
D0002722273732100011300079248081170021234               01032024CUOTA         000272227371              0001700000P                      00000000000000R00   0000000000000000103202400000VTO130530322617
D0003131196419101059551105006556030021276               01032024CUOTA         000313119641              0001700000P                      00000000000000R00   0000000000000000103202400000VTO130530322617
D0003285969332100011300071956302440021281               01032024CUOTA         000328596931              0001700000P                      00000000000000R00   0000000000000000103202400000VTO130530322617
D0003050747032100011300070477030960021291               01032024CUOTA         000305074701              0001650000P                      00000000000000R00   0000000000000000103202400000VTO130530322617
D0003591716232100011300071353483870021292               01032024CUOTA         000359171621              0001650000P                      00000000000000R00   0000000000000000103202400000VTO130530322617
D0003351950832100011300071937822440021296               01032024CUOTA         000335195081              0001650000P                      00000000000000R00   0000000000000000103202400000VTO130530322617
D0003292808900701965300040166847180021297               01032024CUOTA         000329280891              0001650000P                      00000000000000R00   0000000000000000103202400000VTO130530322617
D0003604525032100011300080311359250021298               01032024CUOTA         000360452501              0001650000P                      00000000000000R00   0000000000000000103202400000VTO130530322617
D0003073893432100011300071396020300021299               01032024CUOTA         000307389341              0001650000P                      00000000000000R00   0000000000000000103202400000VTO130530322617
D0003440985407201512880000388017900021302               01032024CUOTA         000344098541              0001650000P                      00000000000000R00   0000000000000000103202400000VTO130530322617
D0003129621832100011300071329382440021312               01032024CUOTA         000312962181              0001650000P                      00000000000000R00   0000000000000000103202400000VTO130530322617
D0003369321100701217300041942654800021335               01032024CUOTA         000336932111              0001650000P                      00000000000000R00   0000000000000000103202400000VTO130530322617
D0003044338332100011300071265871730021338               01032024CUOTA         000304433831              0001650000P                      00000000000000R00   0000000000000000103202400000VTO130530322617
D0002873359332100011300080386888040021343               01032024CUOTA         000287335931              0001700000P                      00000000000000R00   0000000000000000103202400000VTO130530322617
D0002744810132100011500035434908920021362               01032024CUOTA         000274481011              0001650000P                      00000000000000R00   0000000000000000103202400000VTO130530322617
D0003263103501104992300499227810650021365               01032024CUOTA         000326310351              0001650000P                      00000000000000R00   0000000000000000103202400000VTO130530322617
D0003263103501104992300499227810650022482               01032024CUOTA         000326310351              0001700000P                      00000000000000R00   0000000000000000103202400000VTO130530322617
T0000275000000453000000
