H30530322617CUOTA     00006052025
D0003113226607201512880000044950400008459               05052025CUOTA         000311322663              0007650000P                                    R10   0000000000000000505202500000VTO130530322617
D0003591796507201512880000378484680008860               05052025CUOTA         000359179653              0009000000P                                    R10   0000000000000000505202500000VTO130530322617
D0002870109907201512880000047754900008937               05052025CUOTA         000287010993              0009000000P                                    R10   0000000000000000505202500000VTO130530322617
D0002341057407201512880000404078900009010               05052025CUOTA         000234105743              0009000000P                                    R10   0000000000000000505202500000VTO130530322617
D0003130525307201512880000372950040009024               05052025CUOTA         000313052533              0009000000P                                    R10   0000000000000000505202500000VTO130530322617
D0003130525307201512880000372950040010550               05052025CUOTA         000313052533              0009000000P                                    R10   0000000000000000505202500000VTO130530322617
D0003795539807201512880000396344900011172               05052025CUOTA         000379553983              0007500000P                                    R10   0000000000000000505202500000VTO130530322617
D0003113226607201512880000044950400011768               05052025CUOTA         000311322663              0006375000P                                    R10   0000000000000000505202500000VTO130530322617
D0003795539807201512880000396344900011782               05052025CUOTA         000379553983              0007500000P                                    R10   0000000000000000505202500000VTO130530322617
D0002636895007201512880000392074360012207               05052025CUOTA         000263689503              0007500000P                                    R10   0000000000000000505202500000VTO130530322617
D0003113226607201512880000044950400012624               05052025CUOTA         000311322663              0006375000P                                    R10   0000000000000000505202500000VTO130530322617
D0003130525307201512880000372950040014365               05052025CUOTA         000313052533              0007500000P                                    R10   0000000000000000505202500000VTO130530322617
D0003130525307201512880000372950040016722               05052025CUOTA         000313052533              0005000000P                                    R10   0000000000000000505202500000VTO130530322617
D0003591716207201512880000388477540021292               05052025CUOTA         000359171623              0005000000P                                    R10   0000000000000000505202500000VTO130530322617
D0003741088007201512880000405427040022502               05052025CUOTA         000374108803              0007500000P                                    R10   0000000000000000505202500000VTO130530322617
D0003534362907201512880000379196180024847               05052025CUOTA         000353436293              0007500000P                                    R10   0000000000000000505202500000VTO130530322617
D0003031657507203648880000370742720012143               05052025CUOTA         000303165753              0007500000P                                    R10   0000000000000000505202500000VTO130530322617
D0003031657507203648880000370742720014302               05052025CUOTA         000303165753              0007500000P                                    R10   0000000000000000505202500000VTO130530322617
D0003505204007203648880000009848540018834               05052025CUOTA         000350520403              0007500000P                                    R10   0000000000000000505202500000VTO130530322617
D0003505204007203648880000009848540018907               05052025CUOTA         000350520403              0007500000P                                    R10   0000000000000000505202500000VTO130530322617
D0003363400207205002880000051106180012394               05052025CUOTA         000336340023              0009000000P                                    R10   0000000000000000505202500000VTO130530322617
D0003805270338900837400000816963380021144               05052025CUOTA         000380527033              0007500000P                                    R10   0000000000000000505202500000VTO130530322617
D0003190506200701217300041673149820009843               05052025CUOTA         000319050623              0009000000P                                    R10   0000000000000000505202500000VTO130530322617
D0002708759700701217300041847491920009940               05052025CUOTA         000270875973              0009000000P                                    R10   0000000000000000505202500000VTO130530322617
D0002591220500701217300042040581740010540               05052025CUOTA         000259122053              0009000000P                                    R10   0000000000000000505202500000VTO130530322617
D0002782192200701217200000062088460012527               05052025CUOTA         000278219223              0006375000P                                    R10   0000000000000000505202500000VTO130530322617
D0003418250500701996300040458686060012748               05052025CUOTA         000341825053              0007500000P                                    R10   0000000000000000505202500000VTO130530322617
D0002782192200701217200000062088460014225               05052025CUOTA         000278219223              0006375000P                                    R10   0000000000000000505202500000VTO130530322617
D0003740966400701217300041742973840018890               05052025CUOTA         000374096643              0007500000P                                    R10   0000000000000000505202500000VTO130530322617
D0003130514000701217300041771272950020038               05052025CUOTA         000313051403              0007500000P                                    R10   0000000000000000505202500000VTO130530322617
D0003292808900701965300040166847180021297               05052025CUOTA         000329280893              0005000000P                                    R10   0000000000000000505202500000VTO130530322617
D0003035560704400349400002367972930008383               05052025CUOTA         000303556073              0009000000P                                    R10   0000000000000000505202500000VTO130530322617
D0002739071304400349400001711821230010030               05052025CUOTA         000273907133              0009000000P                                    R10   0000000000000000505202500000VTO130530322617
D0002917549604400349400003435968730012656               05052025CUOTA         000291754963              0007500000P                                    R10   0000000000000000505202500000VTO130530322617
D0002739262704400349400001693111330014456               05052025CUOTA         000273926273              0009000000P                                    R10   0000000000000000505202500000VTO130530322617
D0003471150604400349400003562140830021136               05052025CUOTA         000347115063              0007500000P                                    R10   0000000000000000505202500000VTO130530322617
D0002708767219100476550047542675640009844               05052025CUOTA         000270876723              0009000000P                                    R10   0000000000000000505202500000VTO130530322617
D0002708767219100476550047542675640010100               05052025CUOTA         000270876723              0009000000P                                    R10   0000000000000000505202500000VTO130530322617
D0003071221101700718400000346550500016659               05052025CUOTA         000307122113              0005000000P                                    R10   0000000000000000505202500000VTO130530322617
D0003499428501700718400000370965640018977               05052025CUOTA         000349942853              0007500000P                                    R10   0000000000000000505202500000VTO130530322617
D0003305452201700718400000368076640007313               05052025CUOTA         000330545223              0009000000P                                    R10   0000000000000000505202500000VTO130530322617
D0002604044001700718400000381399140009842               05052025CUOTA         000260404403              0009000000P                                    R10   0000000000000000505202500000VTO130530322617
D0002758175501700718400000359659140010598               05052025CUOTA         000275817553              0009000000P                                    R10   0000000000000000505202500000VTO130530322617
D0002419817001700718400000372602460011114               05052025CUOTA         000241981703              0009000000P                                    R10   0000000000000000505202500000VTO130530322617
D0003071221101700718400000346550500011132               05052025CUOTA         000307122113              0007500000P                                    R10   0000000000000000505202500000VTO130530322617
D0003423637001700718400000353612000011697               05052025CUOTA         000342363703              0009000000P                                    R10   0000000000000000505202500000VTO130530322617
D0002530181601702257200000001334610014356               05052025CUOTA         000253018163              0007500000P                                    R10   0000000000000000505202500000VTO130530322617
D0002448434501508404010001220784100007337               05052025CUOTA         000244843453              0009000000P                                    R10   0000000000000000505202500000VTO130530322617
D0002948695701508404010001242773100008324               05052025CUOTA         000294869573              0009000000P                                    R10   0000000000000000505202500000VTO130530322617
D0003024128101508404010001256230440010350               05052025CUOTA         000302412813              0009000000P                                    R10   0000000000000000505202500000VTO130530322617
D0003188887701508404010001203504170010458               05052025CUOTA         000318888773              0009000000P                                    R10   0000000000000000505202500000VTO130530322617
D0003129727401508404010001297218050018815               05052025CUOTA         000312972743              0007500000P                                    R10   0000000000000000505202500000VTO130530322617
D0003129727401508404010001297218050021085               05052025CUOTA         000312972743              0005000000P                                    R10   0000000000000000505202500000VTO130530322617
D0003231547028503507400954066754880011574               05052025CUOTA         000323154703              0009000000P                                    R10   0000000000000000505202500000VTO130530322617
D0003958366628503798400955167680980022420               05052025CUOTA         000395836663              0005000000P                                    R10   0000000000000000505202500000VTO130530322617
D0002783471928506797400949066073480009968               05052025CUOTA         000278347193              0009000000P                                    R10   0000000000000000505202500000VTO130530322617
D0002783471928506797400949066073480012325               05052025CUOTA         000278347193              0007500000P                                    R10   0000000000000000505202500000VTO130530322617
D0002677476128506797400950390250180008473               05052025CUOTA         000267747613              0009000000P                                    R10   0000000000000000505202500000VTO130530322617
D0003268887228506797400949717220580010575               05052025CUOTA         000326888723              0009000000P                                    R15   0000000000000000505202500000VTO130530322617
D0003268887228506797400949717220580011755               05052025CUOTA         000326888723              0007500000P                                    R15   0000000000000000505202500000VTO130530322617
D0002657001901101689300168451445290007863               05052025CUOTA         000265700193              0009000000P                                    R10   0000000000000000505202500000VTO130530322617
D0003044155301104992300499244909470008972               05052025CUOTA         000304415533              0009000000P                                    R10   0000000000000000505202500000VTO130530322617
D0002133911701104992300499091835470009031               05052025CUOTA         000213391173              0009000000P                                    R10   0000000000000000505202500000VTO130530322617
D0003044155301104992300499244909470010566               05052025CUOTA         000304415533              0009000000P                                    R10   0000000000000000505202500000VTO130530322617
D0003440955401104992300499137810470012103               05052025CUOTA         000344095543              0001000000P                                    R10   0000000000000000505202500000VTO130530322617
D0003440955401104992300499137810470012887               05052025CUOTA         000344095543              0001000000P                                    R10   0000000000000000505202500000VTO130530322617
D0003505212401104992300499184339290019010               05052025CUOTA         000350521243              0007500000P                                    R10   0000000000000000505202500000VTO130530322617
D0003873522701104992300499188195650021124               05052025CUOTA         000387352273              0005000000P                                    R10   0000000000000000505202500000VTO130530322617
D0003432978032100011300074545034640013008               05052025CUOTA         000343297803              0009000000P                                    R14   0000000000000000505202500000VTO130530322617
D0002341184732100011300070263525070011026               05052025CUOTA         000234118473              0009000000P                                    R10   0000000000000000505202500000VTO130530322617
D0002341127432100011300070217365790011104               05052025CUOTA         000234112743              0007650000P                                    R10   0000000000000000505202500000VTO130530322617
D0002341127432100011300070217365790011105               05052025CUOTA         000234112743              0007650000P                                    R10   0000000000000000505202500000VTO130530322617
D0002341127432100011300070217365790009964               05052025CUOTA         000234112743              0007650000P                                    R10   0000000000000000505202500000VTO130530322617
D0002410185832100011300070207956340008508               05052025CUOTA         000241018583              0009000000P                                    R10   0000000000000000505202500000VTO130530322617
D0002745737332100011300079585778320010595               05052025CUOTA         000274573733              0009000000P                                    R10   0000000000000000505202500000VTO130530322617
D0002645991132100011300070235017110007344               05052025CUOTA         000264599113              0009000000P                                    R10   0000000000000000505202500000VTO130530322617
D0002437651732100011300079243065290010014               05052025CUOTA         000243765173              0009000000P                                    R10   0000000000000000505202500000VTO130530322617
D0002677488432100011300071292042880007334               05052025CUOTA         000267748843              0009000000P                                    R10   0000000000000000505202500000VTO130530322617
D0002677488432100011300071292042880008382               05052025CUOTA         000267748843              0009000000P                                    R10   0000000000000000505202500000VTO130530322617
D0002717245732100011300070414947270021121               05052025CUOTA         000271724573              0006375000P                                    R10   0000000000000000505202500000VTO130530322617
D0002717245732100011300070414947270011733               05052025CUOTA         000271724573              0007650000P                                    R10   0000000000000000505202500000VTO130530322617
D0002717245732100011300070414947270010348               05052025CUOTA         000271724573              0007650000P                                    R10   0000000000000000505202500000VTO130530322617
D0003165457832100011300070594420800014319               05052025CUOTA         000316545783              0006375000P                                    R10   0000000000000000505202500000VTO130530322617
D0003165457832100011300070594420800021098               05052025CUOTA         000316545783              0004250000P                                    R10   0000000000000000505202500000VTO130530322617
D0003165457832100011300070594420800011809               05052025CUOTA         000316545783              0006375000P                                    R10   0000000000000000505202500000VTO130530322617
D0002760812532100011300071353135630014325               05052025CUOTA         000276081253              0007500000P                                    R10   0000000000000000505202500000VTO130530322617
D0002760812532100011300071353135630008867               05052025CUOTA         000276081253              0009000000P                                    R10   0000000000000000505202500000VTO130530322617
D0002824602232100011300071426284360014349               05052025CUOTA         000282460223              0007500000P                                    R10   0000000000000000505202500000VTO130530322617
D0002824602232100011300071426284360012850               05052025CUOTA         000282460223              0007500000P                                    R10   0000000000000000505202500000VTO130530322617
D0002957687932100011300071382961950014378               05052025CUOTA         000295768793              0001000000P                                    R10   0000000000000000505202500000VTO130530322617
D0002957687932100011300071382961950012785               05052025CUOTA         000295768793              0001000000P                                    R10   0000000000000000505202500000VTO130530322617
D0002654966432100011300070587938820014385               05052025CUOTA         000265496643              0001000000P                                    R10   0000000000000000505202500000VTO130530322617
D0003773693932100011500029368314300014498               05052025CUOTA         000377369393              0001000000P                                    R10   0000000000000000505202500000VTO130530322617
D0001325171632100011500025045368080014596               05052025CUOTA         000132517163              0007500000P                                    R10   0000000000000000505202500000VTO130530322617
D0003416779132100011300071680623930014631               05052025CUOTA         000341677913              0007500000P                                    R10   0000000000000000505202500000VTO130530322617
D0003416779132100011300071680623930014310               05052025CUOTA         000341677913              0007500000P                                    R10   0000000000000000505202500000VTO130530322617
D0002550791732100011300079664180800016679               05052025CUOTA         000255079173              0004250000P                                    R10   0000000000000000505202500000VTO130530322617
D0002550791732100011300079664180800011339               05052025CUOTA         000255079173              0007650000P                                    R10   0000000000000000505202500000VTO130530322617
D0002550791732100011300079664180800012223               05052025CUOTA         000255079173              0006375000P                                    R10   0000000000000000505202500000VTO130530322617
D0003044322632100011300071323676620016681               05052025CUOTA         000304432263              0007500000P                                    R10   0000000000000000505202500000VTO130530322617
D0003044322632100011300071323676620008455               05052025CUOTA         000304432263              0009000000P                                    R10   0000000000000000505202500000VTO130530322617
D0003591774932100011300080219463590016701               05052025CUOTA         000359177493              0005000000P                                    R10   0000000000000000505202500000VTO130530322617
D0003591774932100011300080219463590011722               05052025CUOTA         000359177493              0009000000P                                    R10   0000000000000000505202500000VTO130530322617
D0002527679032100011300070455353210016703               05052025CUOTA         000252767903              0006375000P                                    R10   0000000000000000505202500000VTO130530322617
D0002527679032100011300070455353210010539               05052025CUOTA         000252767903              0007650000P                                    R10   0000000000000000505202500000VTO130530322617
D0002527679032100011300070455353210008964               05052025CUOTA         000252767903              0007650000P                                    R10   0000000000000000505202500000VTO130530322617
D0003044321832100011300070614646900016706               05052025CUOTA         000304432183              0007500000P                                    R10   0000000000000000505202500000VTO130530322617
D0003037296832100011300071990013090016709               05052025CUOTA         000303729683              0005000000P                                    R10   0000000000000000505202500000VTO130530322617
D0003037296832100011300071990013090012144               05052025CUOTA         000303729683              0007500000P                                    R10   0000000000000000505202500000VTO130530322617
D0003037296832100011300071990013090012628               05052025CUOTA         000303729683              0007500000P                                    R10   0000000000000000505202500000VTO130530322617
D0003255804932100011300071680662720017723               05052025CUOTA         000325580493              0005000000P                                    R10   0000000000000000505202500000VTO130530322617
D0003255804932100011300071680662720011851               05052025CUOTA         000325580493              0007500000P                                    R10   0000000000000000505202500000VTO130530322617
D0003255804932100011300071680662720011853               05052025CUOTA         000325580493              0007500000P                                    R10   0000000000000000505202500000VTO130530322617
D0002813914132100011300070504039030017737               05052025CUOTA         000281391413              0006375000P                                    R10   0000000000000000505202500000VTO130530322617
D0002813914132100011300070504039030010543               05052025CUOTA         000281391413              0007650000P                                    R10   0000000000000000505202500000VTO130530322617
D0002813914132100011300070504039030008441               05052025CUOTA         000281391413              0007650000P                                    R10   0000000000000000505202500000VTO130530322617
D0002813914132100011300070504039030009014               05052025CUOTA         000281391413              0007650000P                                    R10   0000000000000000505202500000VTO130530322617
D0003612171132100011300300206798260018747               05052025CUOTA         000361217113              0007500000P                                    R10   0000000000000000505202500000VTO130530322617
D0003126756632100011300079800010680018752               05052025CUOTA         000312675663              0007500000P                                    R10   0000000000000000505202500000VTO130530322617
D0004044658132100011500028389540840018777               05052025CUOTA         000404465813              0000300000P                                    R10   0000000000000000505202500000VTO130530322617
D0003388750932100011300079835962000018811               05052025CUOTA         000338875093              0007500000P                                    R10   0000000000000000505202500000VTO130530322617
D0004016917932100011500029021313750018837               05052025CUOTA         000401691793              0007500000P                                    R10   0000000000000000505202500000VTO130530322617
D0003469545832100011300079751044860018839               05052025CUOTA         000346954583              0007500000P                                    R10   0000000000000000505202500000VTO130530322617
D0002812509732100011300300198402000018903               05052025CUOTA         000281250973              0007500000P                                    R10   0000000000000000505202500000VTO130530322617
D0003369315032100011300079604108600019026               05052025CUOTA         000336931503              0007500000P                                    R10   0000000000000000505202500000VTO130530322617
D0002887052932100011300079663461890021108               05052025CUOTA         000288705293              0005000000P                                    R10   0000000000000000505202500000VTO130530322617
D0003308856332100011300079877296840021117               05052025CUOTA         000330885633              0007500000P                                    R10   0000000000000000505202500000VTO130530322617
D0002341185032100011300070587419970021118               05052025CUOTA         000234118503              0006375000P                                    R10   0000000000000000505202500000VTO130530322617
D0002341185032100011300070587419970011123               05052025CUOTA         000234118503              0007650000P                                    R10   0000000000000000505202500000VTO130530322617
D0002341185032100011300070587419970008987               05052025CUOTA         000234118503              0007650000P                                    R10   0000000000000000505202500000VTO130530322617
D0002789993332100011300071369659470021126               05052025CUOTA         000278999333              0007500000P                                    R10   0000000000000000505202500000VTO130530322617
D0002789993332100011300071369659470011696               05052025CUOTA         000278999333              0009000000P                                    R10   0000000000000000505202500000VTO130530322617
D0003017853132100011300070491642440021129               05052025CUOTA         000301785313              0007500000P                                    R10   0000000000000000505202500000VTO130530322617
D0003017853132100011300070491642440014177               05052025CUOTA         000301785313              0007500000P                                    R10   0000000000000000505202500000VTO130530322617
D0003293786632100011300071126874920021131               05052025CUOTA         000329378663              0007500000P                                    R10   0000000000000000505202500000VTO130530322617
D0003293786632100011300071126874920011863               05052025CUOTA         000329378663              0009000000P                                    R10   0000000000000000505202500000VTO130530322617
D0002163127932100011300070564413870021145               05052025CUOTA         000216312793              0007500000P                                    R10   0000000000000000505202500000VTO130530322617
D0002163127932100011300070564413870011628               05052025CUOTA         000216312793              0009000000P                                    R10   0000000000000000505202500000VTO130530322617
D0002867714732100011300070986058600021151               05052025CUOTA         000286771473              0007500000P                                    R10   0000000000000000505202500000VTO130530322617
D0002867714732100011300070986058600012852               05052025CUOTA         000286771473              0007500000P                                    R10   0000000000000000505202500000VTO130530322617
D0003440969532100011300300369471390021156               05052025CUOTA         000344096953              0007500000P                                    R10   0000000000000000505202500000VTO130530322617
D0003440969532100011300300369471390011096               05052025CUOTA         000344096953              0009000000P                                    R10   0000000000000000505202500000VTO130530322617
D0003440969532100011300300369471390013128               05052025CUOTA         000344096953              0007500000P                                    R10   0000000000000000505202500000VTO130530322617
D0003091836332100011300079584798480021160               05052025CUOTA         000309183633              0007500000P                                    R10   0000000000000000505202500000VTO130530322617
D0003091836332100011300079584798480012137               05052025CUOTA         000309183633              0007500000P                                    R10   0000000000000000505202500000VTO130530322617
D0003469332332100011300072006796400021165               05052025CUOTA         000346933233              0007500000P                                    R10   0000000000000000505202500000VTO130530322617
D0002702983832100011300079784878320021180               05052025CUOTA         000270298383              0007500000P                                    R10   0000000000000000505202500000VTO130530322617
D0002722273732100011300079248081170021234               05052025CUOTA         000272227373              0007500000P                                    R10   0000000000000000505202500000VTO130530322617
D0003039272932100011300071223586780021235               05052025CUOTA         000303927293              0007500000P                                    R10   0000000000000000505202500000VTO130530322617
D0002790367532100011300300181385570021239               05052025CUOTA         000279036753              0007500000P                                    R10   0000000000000000505202500000VTO130530322617
D0003285969332100011300071956302440021281               05052025CUOTA         000328596933              0007500000P                                    R10   0000000000000000505202500000VTO130530322617
D0003351950832100011300071937822440021296               05052025CUOTA         000335195083              0005000000P                                    R10   0000000000000000505202500000VTO130530322617
D0003073893432100011300071396020300021299               05052025CUOTA         000307389343              0005000000P                                    R10   0000000000000000505202500000VTO130530322617
D0003073893432100011300071396020300023649               05052025CUOTA         000307389343              0005000000P                                    R10   0000000000000000505202500000VTO130530322617
D0003574394832100011300079747212220021306               05052025CUOTA         000357439483              0005000000P                                    R10   0000000000000000505202500000VTO130530322617
D0002996746332100011300079350646120021310               05052025CUOTA         000299674633              0005000000P                                    R10   0000000000000000505202500000VTO130530322617
D0003129621832100011300071329382440021312               05052025CUOTA         000312962183              0005000000P                                    R10   0000000000000000505202500000VTO130530322617
D0003024138332100011300071389228980021323               05052025CUOTA         000302413833              0005000000P                                    R10   0000000000000000505202500000VTO130530322617
D0003604533232100011300071421738820021337               05052025CUOTA         000360453323              0007500000P                                    R10   0000000000000000505202500000VTO130530322617
D0002873359332100011300080386888040021343               05052025CUOTA         000287335933              0007500000P                                    R10   0000000000000000505202500000VTO130530322617
D0002624135932100011300071386988540021350               05052025CUOTA         000262413593              0007500000P                                    R10   0000000000000000505202500000VTO130530322617
D0002677454132100011300070909192440021374               05052025CUOTA         000267745413              0007500000P                                    R10   0000000000000000505202500000VTO130530322617
D0003374929332100011300071406737110021393               05052025CUOTA         000337492933              0005000000P                                    R10   0000000000000000505202500000VTO130530322617
D0002944447832100011300080015627990022491               05052025CUOTA         000294444783              0007500000P                                    R10   0000000000000000505202500000VTO130530322617
D0003469584532100011500030111414460023579               05052025CUOTA         000346958453              0005000000P                                    R10   0000000000000000505202500000VTO130530322617
D0002636841532100011300070859578480023635               05052025CUOTA         000263684153              0007500000P                                    R10   0000000000000000505202500000VTO130530322617
D0002636841532100011300070859578480009028               05052025CUOTA         000263684153              0009000000P                                    R10   0000000000000000505202500000VTO130530322617
D0003213200132100011300079928502720023639               05052025CUOTA         000321320013              0007500000P                                    R10   0000000000000000505202500000VTO130530322617
D0002739115132100011300071375341950023659               05052025CUOTA         000273911513              0007500000P                                    R10   0000000000000000505202500000VTO130530322617
D0002739115132100011300071375341950012274               05052025CUOTA         000273911513              0007500000P                                    R10   0000000000000000505202500000VTO130530322617
D0003269285232100011300300203052220023660               05052025CUOTA         000326928523              0001000000P                                    R10   0000000000000000505202500000VTO130530322617
D0003269285232100011300300203052220012343               05052025CUOTA         000326928523              0001000000P                                    R10   0000000000000000505202500000VTO130530322617
D0003757554232100011500027240190060023731               05052025CUOTA         000375755423              0005000000P                                    R10   0000000000000000505202500000VTO130530322617
D0003848436632100011500027045867370023763               05052025CUOTA         000384843663              0000300000P                                    R10   0000000000000000505202500000VTO130530322617
D0003848436632100011500027045867370011255               05052025CUOTA         000384843663              0001000000P                                    R10   0000000000000000505202500000VTO130530322617
D0003131178432100011300300363085630023786               05052025CUOTA         000313117843              0005000000P                                    R10   0000000000000000505202500000VTO130530322617
D0002813913132100011300071128493370023792               05052025CUOTA         000281391313              0007500000P                                    R10   0000000000000000505202500000VTO130530322617
D0003958188432100011300080387668100023796               05052025CUOTA         000395818843              0007500000P                                    R10   0000000000000000505202500000VTO130530322617
D0003534453932100011300079944072160024879               05052025CUOTA         000353445393              0007500000P                                    R10   0000000000000000505202500000VTO130530322617
D0005878744232100011300080331367110024893               05052025CUOTA         000587874423              0005000000P                                    R10   0000000000000000505202500000VTO130530322617
D0003753082432100011300080312268320024925               05052025CUOTA         000375308243              0005000000P                                    R10   0000000000000000505202500000VTO130530322617
D0002808639032100011300300198399470024994               05052025CUOTA         000280863903              0007500000P                                    R10   0000000000000000505202500000VTO130530322617
D0003528745632100011300300309747330010479               05052025CUOTA         000352874563              0009000000P                                    R10   0000000000000000505202500000VTO130530322617
D0002261879532100011300070040909750010494               05052025CUOTA         000226187953              0009000000P                                    R10   0000000000000000505202500000VTO130530322617
D0002261879532100011300070040909750011666               05052025CUOTA         000226187953              0009000000P                                    R10   0000000000000000505202500000VTO130530322617
D0002989418032100011300071168080460010525               05052025CUOTA         000298941803              0009000000P                                    R10   0000000000000000505202500000VTO130530322617
D0002496777932100011300070276950740010527               05052025CUOTA         000249677793              0009000000P                                    R10   0000000000000000505202500000VTO130530322617
D0002341136332100011300070406366780010558               05052025CUOTA         000234113633              0009000000P                                    R10   0000000000000000505202500000VTO130530322617
D0002543793132100011500022562296380010565               05052025CUOTA         000254379313              0009000000P                                    R10   0000000000000000505202500000VTO130530322617
D0002543793132100011500022562296380008467               05052025CUOTA         000254379313              0009000000P                                    R10   0000000000000000505202500000VTO130530322617
D0002095990432100011300070556071950010586               05052025CUOTA         000209599043              0009000000P                                    R10   0000000000000000505202500000VTO130530322617
D0003352060232100011300071403697550010594               05052025CUOTA         000335206023              0007650000P                                    R10   0000000000000000505202500000VTO130530322617
D0003352060232100011300071403697550011299               05052025CUOTA         000335206023              0006375000P                                    R10   0000000000000000505202500000VTO130530322617
D0003352060232100011300071403697550008896               05052025CUOTA         000335206023              0007650000P                                    R10   0000000000000000505202500000VTO130530322617
D0002566570432100011300071395620460010633               05052025CUOTA         000256657043              0009000000P                                    R10   0000000000000000505202500000VTO130530322617
D0002971995332100011500022476843810010676               05052025CUOTA         000297199533              0001000000P                                    R10   0000000000000000505202500000VTO130530322617
D0003112041432100011500026110673250011017               05052025CUOTA         000311204143              0009000000P                                    R10   0000000000000000505202500000VTO130530322617
D0002604046932100011300071209616340011025               05052025CUOTA         000260404693              0009000000P                                    R10   0000000000000000505202500000VTO130530322617
D0002570958732100011300070494301890011040               05052025CUOTA         000257095873              0009000000P                                    R10   0000000000000000505202500000VTO130530322617
D0002739197432100011300070241628100011085               05052025CUOTA         000273919743              0009000000P                                    R10   0000000000000000505202500000VTO130530322617
D0002594604632100011500030239706720011088               05052025CUOTA         000259460463              0009000000P                                    R10   0000000000000000505202500000VTO130530322617
D0001826003832100011300070325994420011098               05052025CUOTA         000182600383              0009000000P                                    R10   0000000000000000505202500000VTO130530322617
D0001826003832100011300070325994420012741               05052025CUOTA         000182600383              0007500000P                                    R10   0000000000000000505202500000VTO130530322617
D0002397625132100011300071246872880011115               05052025CUOTA         000239762513              0009000000P                                    R10   0000000000000000505202500000VTO130530322617
D0002570997332100011300071112788480011125               05052025CUOTA         000257099733              0009000000P                                    R10   0000000000000000505202500000VTO130530322617
D0003416764732100011500031294624240011144               05052025CUOTA         000341676473              0006375000P                                    R10   0000000000000000505202500000VTO130530322617
D0003416764732100011500031294624240011864               05052025CUOTA         000341676473              0006375000P                                    R10   0000000000000000505202500000VTO130530322617
D0002739136632100011300070942893090011162               05052025CUOTA         000273913663              0007500000P                                    R10   0000000000000000505202500000VTO130530322617
D0002533389632100011300070274742660011188               05052025CUOTA         000253338963              0007500000P                                    R10   0000000000000000505202500000VTO130530322617
D0002533389632100011300070274742660008884               05052025CUOTA         000253338963              0009000000P                                    R10   0000000000000000505202500000VTO130530322617
D0002872472832100011300080043356060011200               05052025CUOTA         000287247283              0007500000P                                    R10   0000000000000000505202500000VTO130530322617
D0002872472832100011300080043356060010028               05052025CUOTA         000287247283              0009000000P                                    R10   0000000000000000505202500000VTO130530322617
D0003369312232100011300071310560020011301               05052025CUOTA         000336931223              0006375000P                                    R10   0000000000000000505202500000VTO130530322617
D0003369312232100011300071310560020012216               05052025CUOTA         000336931223              0006375000P                                    R10   0000000000000000505202500000VTO130530322617
D0003369312232100011300071310560020014316               05052025CUOTA         000336931223              0006375000P                                    R10   0000000000000000505202500000VTO130530322617
D0002496743532100011300070600399470011315               05052025CUOTA         000249674353              0009000000P                                    R10   0000000000000000505202500000VTO130530322617
D0002867732032100011300300198779690011322               05052025CUOTA         000286773203              0009000000P                                    R10   0000000000000000505202500000VTO130530322617
D0002897705332100011500031208877870011332               05052025CUOTA         000289770533              0001000000P                                    R10   0000000000000000505202500000VTO130530322617
D0002584425632100011300079815764080011453               05052025CUOTA         000258442563              0009000000P                                    R10   0000000000000000505202500000VTO130530322617
D0002584425632100011300079815764080012337               05052025CUOTA         000258442563              0007500000P                                    R10   0000000000000000505202500000VTO130530322617
D0002530142632100011300071240209750011617               05052025CUOTA         000253014263              0009000000P                                    R10   0000000000000000505202500000VTO130530322617
D0005297087732100011300070990641670011621               05052025CUOTA         000529708773              0009000000P                                    R10   0000000000000000505202500000VTO130530322617
D0002971998532100011300070595520020011632               05052025CUOTA         000297199853              0009000000P                                    R10   0000000000000000505202500000VTO130530322617
D0002971998532100011300070595520020012222               05052025CUOTA         000297199853              0007500000P                                    R10   0000000000000000505202500000VTO130530322617
D0002983185332100011300070591461730011643               05052025CUOTA         000298318533              0009000000P                                    R10   0000000000000000505202500000VTO130530322617
D0003374901632100011300071237315350011700               05052025CUOTA         000337490163              0009000000P                                    R10   0000000000000000505202500000VTO130530322617
D0003374901632100011300071237315350013148               05052025CUOTA         000337490163              0007500000P                                    R10   0000000000000000505202500000VTO130530322617
D0002722298832100011300070477420800011701               05052025CUOTA         000272229883              0009000000P                                    R10   0000000000000000505202500000VTO130530322617
D0002989431332100011300071278839970011705               05052025CUOTA         000298943133              0009000000P                                    R10   0000000000000000505202500000VTO130530322617
D0003505224032100011300071991131670011706               05052025CUOTA         000350522403              0009000000P                                    R10   0000000000000000505202500000VTO130530322617
D0003205417532100011300300398379470011720               05052025CUOTA         000320541753              0009000000P                                    R10   0000000000000000505202500000VTO130530322617
D0001815488632100011300070496410020011728               05052025CUOTA         000181548863              0009000000P                                    R10   0000000000000000505202500000VTO130530322617
D0001815488632100011300070496410020009966               05052025CUOTA         000181548863              0009000000P                                    R10   0000000000000000505202500000VTO130530322617
D0002616165132100011300071923594360011738               05052025CUOTA         000261616513              0009000000P                                    R10   0000000000000000505202500000VTO130530322617
D0002804866432100011300071080664580011759               05052025CUOTA         000280486643              0007500000P                                    R10   0000000000000000505202500000VTO130530322617
D0002570932232100011300070326155790011760               05052025CUOTA         000257093223              0007500000P                                    R10   0000000000000000505202500000VTO130530322617
D0002570932232100011300070326155790007910               05052025CUOTA         000257093223              0009000000P                                    R10   0000000000000000505202500000VTO130530322617
D0003129739832100011300071804337770011762               05052025CUOTA         000312973983              0007500000P                                    R10   0000000000000000505202500000VTO130530322617
D0003323480732100011300071265214140011774               05052025CUOTA         000332348073              0007500000P                                    R10   0000000000000000505202500000VTO130530322617
D0003323480732100011300071265214140008374               05052025CUOTA         000332348073              0009000000P                                    R10   0000000000000000505202500000VTO130530322617
D0003423142232100011300071880462380011815               05052025CUOTA         000342314223              0007500000P                                    R10   0000000000000000505202500000VTO130530322617
D0003423142232100011300071880462380012631               05052025CUOTA         000342314223              0007500000P                                    R10   0000000000000000505202500000VTO130530322617
D0002559604132100011300300195923090011823               05052025CUOTA         000255960413              0007500000P                                    R10   0000000000000000505202500000VTO130530322617
D0003534500232100011500030639305950011837               05052025CUOTA         000353450023              0001000000P                                    R10   0000000000000000505202500000VTO130530322617
D0003534500232100011500030639305950012888               05052025CUOTA         000353450023              0001000000P                                    R10   0000000000000000505202500000VTO130530322617
D0003584662932100011500023223251270011874               05052025CUOTA         000358466293              0001000000P                                    R10   0000000000000000505202500000VTO130530322617
D0003031809432100011300071363144420011899               05052025CUOTA         000303180943              0009000000P                                    R10   0000000000000000505202500000VTO130530322617
D0002290250132100011300079229143370011900               05052025CUOTA         000229025013              0009000000P                                    R10   0000000000000000505202500000VTO130530322617
D0002767792132100011300070561164700012142               05052025CUOTA         000276779213              0007500000P                                    R10   0000000000000000505202500000VTO130530322617
D0002767792132100011300070561164700014169               05052025CUOTA         000276779213              0007500000P                                    R10   0000000000000000505202500000VTO130530322617
D0003091814232100011300070491681230012145               05052025CUOTA         000309181423              0007500000P                                    R10   0000000000000000505202500000VTO130530322617
D0003019024732100011300079701938760012186               05052025CUOTA         000301902473              0007500000P                                    R10   0000000000000000505202500000VTO130530322617
D0003019024732100011300079701938760007318               05052025CUOTA         000301902473              0009000000P                                    R10   0000000000000000505202500000VTO130530322617
D0003427830432100011300079665389970012200               05052025CUOTA         000342783043              0007500000P                                    R10   0000000000000000505202500000VTO130530322617
D0002056483332100011300071432347330012204               05052025CUOTA         000205648333              0007500000P                                    R10   0000000000000000505202500000VTO130530322617
D0002761028932100011300070503797270012241               05052025CUOTA         000276102893              0007500000P                                    R10   0000000000000000505202500000VTO130530322617
D0002761028932100011300070503797270008843               05052025CUOTA         000276102893              0009000000P                                    R10   0000000000000000505202500000VTO130530322617
D0002887064532100011300070262835130012242               05052025CUOTA         000288706453              0007500000P                                    R10   0000000000000000505202500000VTO130530322617
D0003604549832100011300079334425910012257               05052025CUOTA         000360454983              0007500000P                                    R10   0000000000000000505202500000VTO130530322617
D0003604549832100011300079334425910014307               05052025CUOTA         000360454983              0007500000P                                    R10   0000000000000000505202500000VTO130530322617
D0003082410632100011300079762262440012288               05052025CUOTA         000308241063              0007500000P                                    R10   0000000000000000505202500000VTO130530322617
D0002867717132100011300071390124420012289               05052025CUOTA         000286771713              0007500000P                                    R10   0000000000000000505202500000VTO130530322617
D0003133398532100011300071213909690012296               05052025CUOTA         000313339853              0007500000P                                    R10   0000000000000000505202500000VTO130530322617
D0002135558032100011300070055135290012319               05052025CUOTA         000213555803              0007500000P                                    R10   0000000000000000505202500000VTO130530322617
D0002767781832100011500025556245670012389               05052025CUOTA         000276778183              0007500000P                                    R10   0000000000000000505202500000VTO130530322617
D0002767781832100011500025556245670007841               05052025CUOTA         000276778183              0009000000P                                    R10   0000000000000000505202500000VTO130530322617
D0002581884332100011300070561264640012426               05052025CUOTA         000258188433              0007500000P                                    R10   0000000000000000505202500000VTO130530322617
D0002581884332100011300070561264640012427               05052025CUOTA         000258188433              0009000000P                                    R10   0000000000000000505202500000VTO130530322617
D0002434613032100011300071188130020012547               05052025CUOTA         000243461303              0009000000P                                    R10   0000000000000000505202500000VTO130530322617
D0002434613032100011300071188130020012623               05052025CUOTA         000243461303              0007500000P                                    R10   0000000000000000505202500000VTO130530322617
D0002953617132100011300070909372880012621               05052025CUOTA         000295361713              0007500000P                                    R10   0000000000000000505202500000VTO130530322617
D0002953617132100011300070909372880010449               05052025CUOTA         000295361713              0009000000P                                    R10   0000000000000000505202500000VTO130530322617
D0002341002032100011300070467002720012622               05052025CUOTA         000234100203              0007500000P                                    R10   0000000000000000505202500000VTO130530322617
D0002530174132100011300080281243650012625               05052025CUOTA         000253017413              0007500000P                                    R10   0000000000000000505202500000VTO130530322617
D0002530174132100011300080281243650010006               05052025CUOTA         000253017413              0009000000P                                    R10   0000000000000000505202500000VTO130530322617
D0003266201232100011300071365204140012654               05052025CUOTA         000326620123              0007500000P                                    R10   0000000000000000505202500000VTO130530322617
D0002677463432100011300071364263090012673               05052025CUOTA         000267746343              0007500000P                                    R10   0000000000000000505202500000VTO130530322617
D0002718036932100011300071080606340012684               05052025CUOTA         000271803693              0007500000P                                    R10   0000000000000000505202500000VTO130530322617
D0002844459532100011300070507826400012718               05052025CUOTA         000284445953              0007500000P                                    R10   0000000000000000505202500000VTO130530322617
D0002844459532100011300070507826400009894               05052025CUOTA         000284445953              0009000000P                                    R10   0000000000000000505202500000VTO130530322617
D0002030734832100011300079642754360012725               05052025CUOTA         000203073483              0007500000P                                    R10   0000000000000000505202500000VTO130530322617
D0002030734832100011300079642754360008951               05052025CUOTA         000203073483              0009000000P                                    R10   0000000000000000505202500000VTO130530322617
D0003173935032100011300071240068100012745               05052025CUOTA         000317393503              0007500000P                                    R10   0000000000000000505202500000VTO130530322617
D0003173935032100011300071240068100013108               05052025CUOTA         000317393503              0007500000P                                    R10   0000000000000000505202500000VTO130530322617
D0003469318432100011500035715567710012762               05052025CUOTA         000346931843              0001000000P                                    R10   0000000000000000505202500000VTO130530322617
D0003612104332100011500029932519290012782               05052025CUOTA         000361210433              0007500000P                                    R10   0000000000000000505202500000VTO130530322617
D0002722174832100011300071218435790012901               05052025CUOTA         000272217483              0009000000P                                    R10   0000000000000000505202500000VTO130530322617
D0002457858932100011300070172215790012940               05052025CUOTA         000245785893              0007500000P                                    R10   0000000000000000505202500000VTO130530322617
D0002890044632100011300070955922000013031               05052025CUOTA         000289004463              0007500000P                                    R10   0000000000000000505202500000VTO130530322617
D0002616350332100011300071214209690013103               05052025CUOTA         000261635033              0007500000P                                    R10   0000000000000000505202500000VTO130530322617
D0003691218532100011300080166213150013119               05052025CUOTA         000369121853              0007500000P                                    R10   0000000000000000505202500000VTO130530322617
D0002564453432100011300070990371010013159               05052025CUOTA         000256445343              0007500000P                                    R10   0000000000000000505202500000VTO130530322617
D0002564453432100011300070990371010009009               05052025CUOTA         000256445343              0009000000P                                    R10   0000000000000000505202500000VTO130530322617
D0002388690832100011300300227518320014166               05052025CUOTA         000238869083              0009000000P                                    R10   0000000000000000505202500000VTO130530322617
D0003741101732100011300080255904080014189               05052025CUOTA         000374110173              0007500000P                                    R10   0000000000000000505202500000VTO130530322617
D0003469552232100011500036281945890014206               05052025CUOTA         000346955223              0007500000P                                    R10   0000000000000000505202500000VTO130530322617
D0003028517532100011300071264643590014216               05052025CUOTA         000302851753              0007500000P                                    R10   0000000000000000505202500000VTO130530322617
D0003547637132100011300079844613650014229               05052025CUOTA         000354763713              0007500000P                                    R10   0000000000000000505202500000VTO130530322617
D0003388222332100011500031173137210014232               05052025CUOTA         000338822233              0007500000P                                    R10   0000000000000000505202500000VTO130530322617
D0002315803132100011300070365423430007286               05052025CUOTA         000231580313              0009000000P                                    R10   0000000000000000505202500000VTO130530322617
D0002280600932100011300070373604360007305               05052025CUOTA         000228060093              0009000000P                                    R10   0000000000000000505202500000VTO130530322617
D0002280600932100011300070373604360008325               05052025CUOTA         000228060093              0009000000P                                    R10   0000000000000000505202500000VTO130530322617
D0002849836132100011300070492113150007311               05052025CUOTA         000284983613              0009000000P                                    R10   0000000000000000505202500000VTO130530322617
D0002867717732100011300071275922220007873               05052025CUOTA         000286771773              0009000000P                                    R10   0000000000000000505202500000VTO130530322617
D0001466136832100011300070072315910007894               05052025CUOTA         000146613683              0009000000P                                    R10   0000000000000000505202500000VTO130530322617
D0003765124932100011300079396667770008314               05052025CUOTA         000376512493              0009000000P                                    R10   0000000000000000505202500000VTO130530322617
D0002455397832100011300300059134640008342               05052025CUOTA         000245539783              0009000000P                                    R10   0000000000000000505202500000VTO130530322617
D0001815743732100011300070203201390008353               05052025CUOTA         000181574373              0009000000P                                    R10   0000000000000000505202500000VTO130530322617
D0001854371732100011300070624146560008356               05052025CUOTA         000185437173              0009000000P                                    R10   0000000000000000505202500000VTO130530322617
D0001854371732100011300070624146560008514               05052025CUOTA         000185437173              0009000000P                                    R10   0000000000000000505202500000VTO130530322617
D0001678235832100011300070210402380008378               05052025CUOTA         000167823583              0009000000P                                    R10   0000000000000000505202500000VTO130530322617
D0002867490032100011300070591091230008392               05052025CUOTA         000286749003              0006300000P                                    R10   0000000000000000505202500000VTO130530322617
D0002824639332100011300079541107490008465               05052025CUOTA         000282463933              0009000000P                                    R10   0000000000000000505202500000VTO130530322617
D0002542901532100011300071178021390008472               05052025CUOTA         000254290153              0009000000P                                    R10   0000000000000000505202500000VTO130530322617
D0002163208632100011300070303010950008485               05052025CUOTA         000216320863              0009000000P                                    R10   0000000000000000505202500000VTO130530322617
D0002133927532100011300070272773150008499               05052025CUOTA         000213392753              0009000000P                                    R10   0000000000000000505202500000VTO130530322617
D0002224279832100011300070542346280008831               05052025CUOTA         000222427983              0009000000P                                    R10   0000000000000000505202500000VTO130530322617
D0002948667832100011300300000954080008881               05052025CUOTA         000294866783              0009000000P                                    R10   0000000000000000505202500000VTO130530322617
D0002804876832100011300070620587770008906               05052025CUOTA         000280487683              0009000000P                                    R10   0000000000000000505202500000VTO130530322617
D0002630470032100011300070288300520008909               05052025CUOTA         000263047003              0009000000P                                    R10   0000000000000000505202500000VTO130530322617
D0002630470032100011300070288300520010456               05052025CUOTA         000263047003              0009000000P                                    R10   0000000000000000505202500000VTO130530322617
D0002887623432100011300070496088320008910               05052025CUOTA         000288762343              0009000000P                                    R10   0000000000000000505202500000VTO130530322617
D0002419344232100011300070401270020008920               05052025CUOTA         000241934423              0009000000P                                    R10   0000000000000000505202500000VTO130530322617
D0003108150832100011500022242111550008921               05052025CUOTA         000310815083              0009000000P                                    R10   0000000000000000505202500000VTO130530322617
D0002718591432100011500021102035010008936               05052025CUOTA         000271859143              0009000000P                                    R10   0000000000000000505202500000VTO130530322617
D0001762455932100011300070042347770008985               05052025CUOTA         000176245593              0009000000P                                    R10   0000000000000000505202500000VTO130530322617
D0002341138332100011300070247733590008989               05052025CUOTA         000234113833              0009000000P                                    R10   0000000000000000505202500000VTO130530322617
D0001843304632100011300070171255290008993               05052025CUOTA         000184330463              0009000000P                                    R10   0000000000000000505202500000VTO130530322617
D0002484061332100011300071318084360009859               05052025CUOTA         000248406133              0009000000P                                    R10   0000000000000000505202500000VTO130530322617
D0002484061332100011300071318084360009860               05052025CUOTA         000248406133              0009000000P                                    R10   0000000000000000505202500000VTO130530322617
D0002179172032100011300070441327830009976               05052025CUOTA         000217917203              0009000000P                                    R10   0000000000000000505202500000VTO130530322617
D0002957673832100011300071125086120009989               05052025CUOTA         000295767383              0007650000P                                    R10   0000000000000000505202500000VTO130530322617
D0003308933432100011300079981999190010015               05052025CUOTA         000330893343              0009000000P                                    R10   0000000000000000505202500000VTO130530322617
D0002965329132100011300070477040680010035               05052025CUOTA         000296532913              0009000000P                                    R10   0000000000000000505202500000VTO130530322617
D0002030729932100011500032856824300010042               05052025CUOTA         000203072993              0009000000P                                    R10   0000000000000000505202500000VTO130530322617
D0002903783632100011300071350785630010452               05052025CUOTA         000290378363              0009000000P                                    R10   0000000000000000505202500000VTO130530322617
D0002304219832102307500010044298900008995               05052025CUOTA         000230421983              0009000000P                                    R10   0000000000000000505202500000VTO130530322617
D0003044306632102307500008995332680010034               05052025CUOTA         000304430663              0009000000P                                    R10   0000000000000000505202500000VTO130530322617
D0003044306632102307500008995332680011311               05052025CUOTA         000304430663              0007500000P                                    R10   0000000000000000505202500000VTO130530322617
D0003022115932102307500010154310040021169               05052025CUOTA         000302211593              0007500000P                                    R10   0000000000000000505202500000VTO130530322617
D0003374890203402841082840244010070011791               05052025CUOTA         000337489023              0007500000P                                    R15   0000000000000000505202500000VTO130530322617
D0003268554603402117082110143970000021159               05052025CUOTA         000326855463              0007500000P                                    R10   0000000000000000505202500000VTO130530322617
D0004153344303402841082840176790060023787               05052025CUOTA         000415334433              0007500000P                                    R10   0000000000000000505202500000VTO130530322617
D0002616178103402841082840230130070007903               05052025CUOTA         000261617813              0009000000P                                    R10   0000000000000000505202500000VTO130530322617
D0003374890203402841082840244010070016693               05052025CUOTA         000337489023              0005000000P                                    R10   0000000000000000505202500000VTO130530322617
D0003873556803402841082840261210060012657               05052025CUOTA         000387355683              0007500000P                                    R10   0000000000000000505202500000VTO130530322617
D0003873556803402841082840261210060014312               05052025CUOTA         000387355683              0007500000P                                    R10   0000000000000000505202500000VTO130530322617
D0002224289901104992300499099774830007267               05052025CUOTA         000222428993              0009000000P                      00000000000000R00   0000000000000000505202500000VTO130530322617
D0002914275832100011500022670528360007270               05052025CUOTA         000291427583              0009000000P                      00000000000000R00   0000000000000000505202500000VTO130530322617
D0002516861707201512880000021664540007275               05052025CUOTA         000251686173              0009000000P                      00000000000000R00   0000000000000000505202500000VTO130530322617
D0002636876001508404010001253533120007277               05052025CUOTA         000263687603              0007650000P                      00000000000000R00   0000000000000000505202500000VTO130530322617
D0002722290032100011300070497387330007285               05052025CUOTA         000272229003              0009000000P                      00000000000000R00   0000000000000000505202500000VTO130530322617
D0002825384007201512880000390395540007290               05052025CUOTA         000282538403              0009000000P                      00000000000000R00   0000000000000000505202500000VTO130530322617
D0002193519432100011500031183307090007297               05052025CUOTA         000219351943              0009000000P                      00000000000000R00   0000000000000000505202500000VTO130530322617
D0002163288507200298880000023790900007317               05052025CUOTA         000216328853              0009000000P                      00000000000000R00   0000000000000000505202500000VTO130530322617
D0002341075232100011500030123302540007795               05052025CUOTA         000234107523              0009000000P                      00000000000000R00   0000000000000000505202500000VTO130530322617
D0002718512632100011300300187113650007846               05052025CUOTA         000271851263              0009000000P                      00000000000000R00   0000000000000000505202500000VTO130530322617
D0002594610101700718400000353415500007850               05052025CUOTA         000259461013              0009000000P                      00000000000000R00   0000000000000000505202500000VTO130530322617
D0002616115532100011300071099158100007855               05052025CUOTA         000261611553              0007650000P                      00000000000000R00   0000000000000000505202500000VTO130530322617
D0002835495619101059551105011173710007865               05052025CUOTA         000283549563              0009000000P                      00000000000000R00   0000000000000000505202500000VTO130530322617
D0002616168907201512880000383041900007880               05052025CUOTA         000261616893              0009000000P                      00000000000000R00   0000000000000000505202500000VTO130530322617
D0003091830600701217300041774001250007893               05052025CUOTA         000309183063              0007650000P                      00000000000000R00   0000000000000000505202500000VTO130530322617
D0002347384607203648880000351433360007904               05052025CUOTA         000234738463              0009000000P                      00000000000000R00   0000000000000000505202500000VTO130530322617
D0002695492807203648880000357646540008315               05052025CUOTA         000269549283              0009000000P                      00000000000000R00   0000000000000000505202500000VTO130530322617
D0002981428632100011500028612531490008316               05052025CUOTA         000298142863              0009000000P                      00000000000000R00   0000000000000000505202500000VTO130530322617
D0002015153300701217300041939351110008321               05052025CUOTA         000201515333              0009000000P                      00000000000000R00   0000000000000000505202500000VTO130530322617
D0002261791900701217300041868101660008330               05052025CUOTA         000226179193              0009000000P                      00000000000000R00   0000000000000000505202500000VTO130530322617
D0002636884801700718200000304676640008331               05052025CUOTA         000263688483              0009000000P                      00000000000000R00   0000000000000000505202500000VTO130530322617
D0002341123732100011300070446034360008335               05052025CUOTA         000234112373              0009000000P                      00000000000000R00   0000000000000000505202500000VTO130530322617
D0002261899701700718400000345880000008343               05052025CUOTA         000226189973              0009000000P                      00000000000000R00   0000000000000000505202500000VTO130530322617
D0002812501932100011300071013978100008347               05052025CUOTA         000281250193              0009000000P                      00000000000000R00   0000000000000000505202500000VTO130530322617
D0002304269307201512880000377406720008386               05052025CUOTA         000230426933              0009000000P                      00000000000000R00   0000000000000000505202500000VTO130530322617
D0002224264301508404010001060581660008396               05052025CUOTA         000222426433              0009000000P                      00000000000000R00   0000000000000000505202500000VTO130530322617
D0002099726704400349400003462911330008397               05052025CUOTA         000209972673              0009000000P                      00000000000000R00   0000000000000000505202500000VTO130530322617
D0002530185807201512880000252129900008400               05052025CUOTA         000253018583              0009000000P                      00000000000000R00   0000000000000000505202500000VTO130530322617
D0002903797107201512880000403342860008424               05052025CUOTA         000290379713              0009000000P                      00000000000000R00   0000000000000000505202500000VTO130530322617
D0003091757932100011300071436205850008425               05052025CUOTA         000309175793              0009000000P                      00000000000000R00   0000000000000000505202500000VTO130530322617
D0003112051532100011300070569178820008447               05052025CUOTA         000311205153              0009000000P                      00000000000000R00   0000000000000000505202500000VTO130530322617
D0003172929407201512880000376454720008462               05052025CUOTA         000317292943              0009000000P                      00000000000000R00   0000000000000000505202500000VTO130530322617
D0002397640607203648880000350789860008474               05052025CUOTA         000239764063              0009000000P                      00000000000000R00   0000000000000000505202500000VTO130530322617
D0002781108001104992300499251735150008475               05052025CUOTA         000278110803              0009000000P                      00000000000000R00   0000000000000000505202500000VTO130530322617
D0002163182407201512880000020646040008489               05052025CUOTA         000216318243              0009000000P                      00000000000000R00   0000000000000000505202500000VTO130530322617
D0002397606000701217300041614460210008491               05052025CUOTA         000239760603              0009000000P                      00000000000000R00   0000000000000000505202500000VTO130530322617
D0002329805407203648880000353754900008494               05052025CUOTA         000232980543              0009000000P                      00000000000000R00   0000000000000000505202500000VTO130530322617
D0002232974307203648880000358545680008502               05052025CUOTA         000223297433              0009000000P                      00000000000000R00   0000000000000000505202500000VTO130530322617
D0002261756528506797400949661735680008506               05052025CUOTA         000226175653              0009000000P                      00000000000000R00   0000000000000000505202500000VTO130530322617
D0002261816207201512880000019986720008511               05052025CUOTA         000226181623              0009000000P                      00000000000000R00   0000000000000000505202500000VTO130530322617
D0002824606604400349400003087528430008516               05052025CUOTA         000282460663              0009000000P                      00000000000000R00   0000000000000000505202500000VTO130530322617
D0003329297207201512880000399685400008521               05052025CUOTA         000332929723              0007650000P                      00000000000000R00   0000000000000000505202500000VTO130530322617
D0002825384007201512880000390395540008844               05052025CUOTA         000282538403              0009000000P                      00000000000000R00   0000000000000000505202500000VTO130530322617
D0002739198507203648880000350035400008848               05052025CUOTA         000273919853              0009000000P                      00000000000000R00   0000000000000000505202500000VTO130530322617
D0002722290032100011300070497387330008850               05052025CUOTA         000272229003              0009000000P                      00000000000000R00   0000000000000000505202500000VTO130530322617
D0002718573819101059551105013635210008859               05052025CUOTA         000271857383              0009000000P                      00000000000000R00   0000000000000000505202500000VTO130530322617
D0003268890432100011300071409174420008861               05052025CUOTA         000326889043              0009000000P                      00000000000000R00   0000000000000000505202500000VTO130530322617
D0002397632101700718400000005224140008865               05052025CUOTA         000239763213              0009000000P                      00000000000000R00   0000000000000000505202500000VTO130530322617
D0003329297207201512880000399685400008870               05052025CUOTA         000332929723              0007650000P                      00000000000000R00   0000000000000000505202500000VTO130530322617
D0002923699507201512880000362679540008876               05052025CUOTA         000292369953              0009000000P                      00000000000000R00   0000000000000000505202500000VTO130530322617
D0002824610307201512880000361628220008878               05052025CUOTA         000282461033              0009000000P                      00000000000000R00   0000000000000000505202500000VTO130530322617
D0002903797107201512880000403342860008879               05052025CUOTA         000290379713              0009000000P                      00000000000000R00   0000000000000000505202500000VTO130530322617
D0002844486032100011500028963445170008882               05052025CUOTA         000284448603              0009000000P                      00000000000000R00   0000000000000000505202500000VTO130530322617
D0003091830600701217300041774001250008885               05052025CUOTA         000309183063              0007650000P                      00000000000000R00   0000000000000000505202500000VTO130530322617
D0002616178007203648880000351313220008890               05052025CUOTA         000261617803              0009000000P                      00000000000000R00   0000000000000000505202500000VTO130530322617
D0002427748207201512880000365475400008915               05052025CUOTA         000242774823              0009000000P                      00000000000000R00   0000000000000000505202500000VTO130530322617
D0002540026301100136300013106687470008938               05052025CUOTA         000254002633              0009000000P                      00000000000000R00   0000000000000000505202500000VTO130530322617
D0003189723907200250880000376639040008939               05052025CUOTA         000318972393              0009000000P                      00000000000000R00   0000000000000000505202500000VTO130530322617
D0002030729932100011500032856824300008940               05052025CUOTA         000203072993              0009000000P                      00000000000000R00   0000000000000000505202500000VTO130530322617
D0002134049607201512880000019971360008948               05052025CUOTA         000213404963              0009000000P                      00000000000000R00   0000000000000000505202500000VTO130530322617
D0002903782801104992300499091875010008962               05052025CUOTA         000290378283              0009000000P                      00000000000000R00   0000000000000000505202500000VTO130530322617
D0002677468032100011500030207530120008973               05052025CUOTA         000267746803              0007650000P                      00000000000000R00   0000000000000000505202500000VTO130530322617
D0002222471607201512880000022278180008981               05052025CUOTA         000222247163              0009000000P                      00000000000000R00   0000000000000000505202500000VTO130530322617
D0003112046401104992300499050069650008984               05052025CUOTA         000311204643              0009000000P                      00000000000000R00   0000000000000000505202500000VTO130530322617
D0001826007307201512880000220361220008999               05052025CUOTA         000182600733              0009000000P                      00000000000000R00   0000000000000000505202500000VTO130530322617
D0002196813207201512880000021526040009005               05052025CUOTA         000219681323              0009000000P                      00000000000000R00   0000000000000000505202500000VTO130530322617
D0002643868307203648880000358543220009018               05052025CUOTA         000264386833              0009000000P                      00000000000000R00   0000000000000000505202500000VTO130530322617
D0002484094201700718400000325308500009022               05052025CUOTA         000248409423              0009000000P                      00000000000000R00   0000000000000000505202500000VTO130530322617
D0002056473801700718400000006767460009026               05052025CUOTA         000205647383              0009000000P                      00000000000000R00   0000000000000000505202500000VTO130530322617
D0002279602407201512880000363003360009029               05052025CUOTA         000227960243              0009000000P                      00000000000000R00   0000000000000000505202500000VTO130530322617
D0002362548307201512880000396539180009030               05052025CUOTA         000236254833              0009000000P                      00000000000000R00   0000000000000000505202500000VTO130530322617
D0002090009401702257400000302978890009035               05052025CUOTA         000209000943              0009000000P                      00000000000000R00   0000000000000000505202500000VTO130530322617
D0000593775932100011500020620813030009039               05052025CUOTA         000059377593              0009000000P                      00000000000000R00   0000000000000000505202500000VTO130530322617
D0002978570807201659880000376477680009195               05052025CUOTA         000297857083              0009000000P                      00000000000000R00   0000000000000000505202500000VTO130530322617
D0002867722601508404010001146143340009715               05052025CUOTA         000286772263              0009000000P                      00000000000000R00   0000000000000000505202500000VTO130530322617
D0002971685201104992300499093297650009795               05052025CUOTA         000297168523              0009000000P                      00000000000000R00   0000000000000000505202500000VTO130530322617
D0002570954532100011300070494569810009841               05052025CUOTA         000257095453              0009000000P                      00000000000000R00   0000000000000000505202500000VTO130530322617
D0002739013807201512880000369738220009856               05052025CUOTA         000273901383              0009000000P                      00000000000000R00   0000000000000000505202500000VTO130530322617
D0002716914603402841082840054560000009857               05052025CUOTA         000271691463              0009000000P                      00000000000000R00   0000000000000000505202500000VTO130530322617
D0002844491807203648880000363185220009887               05052025CUOTA         000284449183              0009000000P                      00000000000000R00   0000000000000000505202500000VTO130530322617
D0003416764732100011500031294624240009896               05052025CUOTA         000341676473              0007650000P                      00000000000000R00   0000000000000000505202500000VTO130530322617
D0003231526319101059551105011172030009918               05052025CUOTA         000323152633              0009000000P                      00000000000000R00   0000000000000000505202500000VTO130530322617
D0002182613701700718400000361840460009925               05052025CUOTA         000218261373              0009000000P                      00000000000000R00   0000000000000000505202500000VTO130530322617
D0001313206707203648880000363768360009928               05052025CUOTA         000131320673              0009000000P                      00000000000000R00   0000000000000000505202500000VTO130530322617
D0003173921232100011500029875033750009947               05052025CUOTA         000317392123              0009000000P                      00000000000000R00   0000000000000000505202500000VTO130530322617
D0003309283007201512880000377830400009948               05052025CUOTA         000330928303              0009000000P                      00000000000000R00   0000000000000000505202500000VTO130530322617
D0002804897601508404010001200326320009951               05052025CUOTA         000280489763              0009000000P                      00000000000000R00   0000000000000000505202500000VTO130530322617
D0001803718107203648880000351412860009952               05052025CUOTA         000180371813              0009000000P                      00000000000000R00   0000000000000000505202500000VTO130530322617
D0002397640607203648880000350789860009965               05052025CUOTA         000239764063              0009000000P                      00000000000000R00   0000000000000000505202500000VTO130530322617
D0002760807801104992300499992833290009985               05052025CUOTA         000276080783              0009000000P                      00000000000000R00   0000000000000000505202500000VTO130530322617
D0002304117500701217300041754165910010008               05052025CUOTA         000230411753              0009000000P                      00000000000000R00   0000000000000000505202500000VTO130530322617
D0002718512632100011300300187113650010011               05052025CUOTA         000271851263              0009000000P                      00000000000000R00   0000000000000000505202500000VTO130530322617
D0002739047501700718400000376672140010032               05052025CUOTA         000273904753              0009000000P                      00000000000000R00   0000000000000000505202500000VTO130530322617
D0002540026301100136300013106687470010041               05052025CUOTA         000254002633              0009000000P                      00000000000000R00   0000000000000000505202500000VTO130530322617
D0002677468032100011500030207530120010044               05052025CUOTA         000267746803              0007650000P                      00000000000000R00   0000000000000000505202500000VTO130530322617
D0002812501932100011300071013978100010048               05052025CUOTA         000281250193              0009000000P                      00000000000000R00   0000000000000000505202500000VTO130530322617
D0003374916507201512880000037994400010050               05052025CUOTA         000337491653              0009000000P                      00000000000000R00   0000000000000000505202500000VTO130530322617
D0002739175004400349400003107152830010099               05052025CUOTA         000273917503              0009000000P                      00000000000000R00   0000000000000000505202500000VTO130530322617
D0002485013200701217300041920359280010450               05052025CUOTA         000248501323              0009000000P                      00000000000000R00   0000000000000000505202500000VTO130530322617
D0002739090007201512880000370605900010451               05052025CUOTA         000273909003              0009000000P                      00000000000000R00   0000000000000000505202500000VTO130530322617
D0002224264301508404010001060581660010460               05052025CUOTA         000222426433              0009000000P                      00000000000000R00   0000000000000000505202500000VTO130530322617
D0002516861707201512880000021664540010461               05052025CUOTA         000251686173              0009000000P                      00000000000000R00   0000000000000000505202500000VTO130530322617
D0002616131107201512880000021746400010463               05052025CUOTA         000261613113              0009000000P                      00000000000000R00   0000000000000000505202500000VTO130530322617
D0002530185807201512880000252129900010464               05052025CUOTA         000253018583              0009000000P                      00000000000000R00   0000000000000000505202500000VTO130530322617
D0003591756432100011300071273414420010471               05052025CUOTA         000359175643              0009000000P                      00000000000000R00   0000000000000000505202500000VTO130530322617
D0002994937901104992300499093230330010473               05052025CUOTA         000299493793              0009000000P                      00000000000000R00   0000000000000000505202500000VTO130530322617
D0001475411132100011500026813050280010474               05052025CUOTA         000147541113              0009000000P                      00000000000000R00   0000000000000000505202500000VTO130530322617
D0003416947438900837400052096809380010478               05052025CUOTA         000341694743              0009000000P                      00000000000000R00   0000000000000000505202500000VTO130530322617
D0002781106328506797400948956906880010483               05052025CUOTA         000278110633              0009000000P                      00000000000000R00   0000000000000000505202500000VTO130530322617
D0003534352701700718400000366516500010520               05052025CUOTA         000353435273              0009000000P                      00000000000000R00   0000000000000000505202500000VTO130530322617
D0002657027807201512880000382786040010523               05052025CUOTA         000265702783              0009000000P                      00000000000000R00   0000000000000000505202500000VTO130530322617
D0002392598132100011300071326935410010529               05052025CUOTA         000239259813              0009000000P                      00000000000000R00   0000000000000000505202500000VTO130530322617
D0002850306807201512880000224689900010534               05052025CUOTA         000285030683              0009000000P                      00000000000000R00   0000000000000000505202500000VTO130530322617
D0002261829207201512880000220333900010553               05052025CUOTA         000226182923              0009000000P                      00000000000000R00   0000000000000000505202500000VTO130530322617
D0002421656932100011300070446134200010559               05052025CUOTA         000242165693              0009000000P                      00000000000000R00   0000000000000000505202500000VTO130530322617
D0002739114507203648880000360339860010562               05052025CUOTA         000273911453              0009000000P                      00000000000000R00   0000000000000000505202500000VTO130530322617
D0002804897601508404010001200326320010567               05052025CUOTA         000280489763              0009000000P                      00000000000000R00   0000000000000000505202500000VTO130530322617
D0002662943107201512880000365442680010570               05052025CUOTA         000266294313              0009000000P                      00000000000000R00   0000000000000000505202500000VTO130530322617
D0002163125407201512880000221156360010571               05052025CUOTA         000216312543              0009000000P                      00000000000000R00   0000000000000000505202500000VTO130530322617
D0002781108001104992300499251735150010572               05052025CUOTA         000278110803              0009000000P                      00000000000000R00   0000000000000000505202500000VTO130530322617
D0001379069900701217300041424998130010574               05052025CUOTA         000137906993              0009000000P                      00000000000000R00   0000000000000000505202500000VTO130530322617
D0002813917928506797400949717212080010582               05052025CUOTA         000281391793              0009000000P                      00000000000000R00   0000000000000000505202500000VTO130530322617
D0002616115532100011300071099158100010597               05052025CUOTA         000261611553              0007650000P                      00000000000000R00   0000000000000000505202500000VTO130530322617
D0002397632101700718400000005224140010600               05052025CUOTA         000239763213              0009000000P                      00000000000000R00   0000000000000000505202500000VTO130530322617
D0002511441328506797400951955215880010603               05052025CUOTA         000251144133              0009000000P                      00000000000000R00   0000000000000000505202500000VTO130530322617
D0002734212307201512880000020797540010616               05052025CUOTA         000273421233              0009000000P                      00000000000000R00   0000000000000000505202500000VTO130530322617
D0002677468032100011500030207530120010631               05052025CUOTA         000267746803              0007650000P                      00000000000000R00   0000000000000000505202500000VTO130530322617
D0002163288507200298880000023790900010640               05052025CUOTA         000216328853              0009000000P                      00000000000000R00   0000000000000000505202500000VTO130530322617
D0003091830600701217300041774001250010646               05052025CUOTA         000309183063              0007650000P                      00000000000000R00   0000000000000000505202500000VTO130530322617
D0003499419319101059551105010711670010661               05052025CUOTA         000349941933              0009000000P                      00000000000000R00   0000000000000000505202500000VTO130530322617
D0002739053001700718400000325267960010952               05052025CUOTA         000273905303              0006300000P                      00000000000000R00   0000000000000000505202500000VTO130530322617
D0002440965700701217300041804502670010955               05052025CUOTA         000244096573              0009000000P                      00000000000000R00   0000000000000000505202500000VTO130530322617
D0002813949219101059550105533768280010963               05052025CUOTA         000281394923              0009000000P                      00000000000000R00   0000000000000000505202500000VTO130530322617
D0003441408901700718400000333950780010993               05052025CUOTA         000344140893              0007650000P                      00000000000000R00   0000000000000000505202500000VTO130530322617
D0003416765501700718400000373174780011045               05052025CUOTA         000341676553              0009000000P                      00000000000000R00   0000000000000000505202500000VTO130530322617
D0002813949219101059550105533768280011054               05052025CUOTA         000281394923              0009000000P                      00000000000000R00   0000000000000000505202500000VTO130530322617
D0002760822001508404010001203660890011058               05052025CUOTA         000276082203              0009000000P                      00000000000000R00   0000000000000000505202500000VTO130530322617
D0002765093801508404020001025844880011080               05052025CUOTA         000276509383              0009000000P                      00000000000000R00   0000000000000000505202500000VTO130530322617
D0002419334800701217200000056034200011116               05052025CUOTA         000241933483              0009000000P                      00000000000000R00   0000000000000000505202500000VTO130530322617
D0002906003203402841082840160630060011131               05052025CUOTA         000290600323              0007500000P                      00000000000000R00   0000000000000000505202500000VTO130530322617
D0003213241532100011500023217200840011139               05052025CUOTA         000321324153              0006375000P                      00000000000000R00   0000000000000000505202500000VTO130530322617
D0002485013200701217300041920359280011145               05052025CUOTA         000248501323              0007500000P                      00000000000000R00   0000000000000000505202500000VTO130530322617
D0002311785507201512880000021574180011157               05052025CUOTA         000231178553              0007500000P                      00000000000000R00   0000000000000000505202500000VTO130530322617
D0002989415807201512880000382872680011161               05052025CUOTA         000298941583              0007500000P                      00000000000000R00   0000000000000000505202500000VTO130530322617
D0003189723907200250880000376639040011180               05052025CUOTA         000318972393              0007500000P                      00000000000000R00   0000000000000000505202500000VTO130530322617
D0002824610307201512880000361628220011194               05052025CUOTA         000282461033              0007500000P                      00000000000000R00   0000000000000000505202500000VTO130530322617
D0002550196307201512880000020408220011287               05052025CUOTA         000255019633              0007500000P                      00000000000000R00   0000000000000000505202500000VTO130530322617
D0002791817332100011300070447623370011290               05052025CUOTA         000279181733              0007500000P                      00000000000000R00   0000000000000000505202500000VTO130530322617
D0002813917928506797400949717212080011296               05052025CUOTA         000281391793              0007500000P                      00000000000000R00   0000000000000000505202500000VTO130530322617
D0003285993907201512880000371462720011300               05052025CUOTA         000328599393              0007500000P                      00000000000000R00   0000000000000000505202500000VTO130530322617
