H30530322617CUOTA     00007102024
D0003612162007200007880000404202040021288               04102024CUOTA         000361216208              0003300000P                                    R10   0000000000000000410202400000VTO130530322617
D0003591796507201512880000378484680008860               04102024CUOTA         000359179658              0003400000P                                    R10   0000000000000000410202400000VTO130530322617
D0003130525307201512880000372950040009024               04102024CUOTA         000313052538              0003400000P                                    R10   0000000000000000410202400000VTO130530322617
D0003130525307201512880000372950040010550               04102024CUOTA         000313052538              0003400000P                                    R10   0000000000000000410202400000VTO130530322617
D0003795539807201512880000396344900011172               04102024CUOTA         000379553988              0003400000P                                    R10   0000000000000000410202400000VTO130530322617
D0003795539807201512880000396344900011782               04102024CUOTA         000379553988              0003400000P                                    R10   0000000000000000410202400000VTO130530322617
D0002636895007201512880000392074360012207               04102024CUOTA         000263689508              0003400000P                                    R10   0000000000000000410202400000VTO130530322617
D0003130525307201512880000372950040014365               04102024CUOTA         000313052538              0003400000P                                    R10   0000000000000000410202400000VTO130530322617
D0003130525307201512880000372950040016722               04102024CUOTA         000313052538              0003300000P                                    R10   0000000000000000410202400000VTO130530322617
D0003190506200701217300041673149820009843               04102024CUOTA         000319050628              0003400000P                                    R10   0000000000000000410202400000VTO130530322617
D0003130514000701217300041771272950020038               04102024CUOTA         000313051408              0003400000P                                    R10   0000000000000000410202400000VTO130530322617
D0003292808900701965300040166847180021297               04102024CUOTA         000329280898              0003300000P                                    R10   0000000000000000410202400000VTO130530322617
D0002948695701508404010001242773100008324               04102024CUOTA         000294869578              0003400000P                                    R10   0000000000000000410202400000VTO130530322617
D0003024128101508404010001256230440010350               04102024CUOTA         000302412818              0003400000P                                    R10   0000000000000000410202400000VTO130530322617
D0003188887701508404010001203504170010458               04102024CUOTA         000318888778              0003400000P                                    R10   0000000000000000410202400000VTO130530322617
D0002739071304400349400001711821230010030               04102024CUOTA         000273907138              0003400000P                                    R10   0000000000000000410202400000VTO130530322617
D0003035560704400349400002367972930008383               04102024CUOTA         000303556078              0003400000P                                    R10   0000000000000000410202400000VTO130530322617
D0002870109904400349400001339761330008937               04102024CUOTA         000287010998              0003400000P                                    R10   0000000000000000410202400000VTO130530322617
D0002870109904400349400001339761330011786               04102024CUOTA         000287010998              0003400000P                                    R10   0000000000000000410202400000VTO130530322617
D0002989405004400349400002683558030014174               04102024CUOTA         000298940508              0003400000P                                    R10   0000000000000000410202400000VTO130530322617
D0002739262704400349400001693111330014456               04102024CUOTA         000273926278              0003400000P                                    R10   0000000000000000410202400000VTO130530322617
D0003130546804400349200002882848390009825               04102024CUOTA         000313054688              0003400000P                                    R20   0000000000000000410202400000VTO130530322617
D0002739047501700718400000376672140010032               04102024CUOTA         000273904758              0003400000P                                    R10   0000000000000000410202400000VTO130530322617
D0002419817001700718400000372602460011114               04102024CUOTA         000241981708              0003400000P                                    R10   0000000000000000410202400000VTO130530322617
D0003035531201702592400000037481700014356               04102024CUOTA         000303553128              0003400000P                                    R10   0000000000000000410202400000VTO130530322617
D0003035531201702592400000037481700016683               04102024CUOTA         000303553128              0003300000P                                    R10   0000000000000000410202400000VTO130530322617
D0003277522728506612400951795184580012799               04102024CUOTA         000327752278              0003400000P                                    R10   0000000000000000410202400000VTO130530322617
D0003277522728506612400951795184580014633               04102024CUOTA         000327752278              0003400000P                                    R10   0000000000000000410202400000VTO130530322617
D0003044155301104992300499244909470008972               04102024CUOTA         000304415538              0003400000P                                    R10   0000000000000000410202400000VTO130530322617
D0003044155301104992300499244909470010566               04102024CUOTA         000304415538              0003400000P                                    R10   0000000000000000410202400000VTO130530322617
D0003731306801104992300499076670010012304               04102024CUOTA         000373130688              0003400000P                                    R10   0000000000000000410202400000VTO130530322617
D0003731306801104992300499076670010016657               04102024CUOTA         000373130688              0003300000P                                    R10   0000000000000000410202400000VTO130530322617
D0003505212401104992300499184339290019010               04102024CUOTA         000350521248              0003400000P                                    R10   0000000000000000410202400000VTO130530322617
D0002630470032100011300070288300520008909               04102024CUOTA         000263047008              0003400000P                                    R10   0000000000000000410202400000VTO130530322617
D0002630470032100011300070288300520010456               04102024CUOTA         000263047008              0003400000P                                    R10   0000000000000000410202400000VTO130530322617
D0001466136832100011300070072315910007894               04102024CUOTA         000146613688              0003400000P                                    R10   0000000000000000410202400000VTO130530322617
D0001854371732100011300070624146560008356               04102024CUOTA         000185437178              0003400000P                                    R10   0000000000000000410202400000VTO130530322617
D0001854371732100011300070624146560008514               04102024CUOTA         000185437178              0003400000P                                    R10   0000000000000000410202400000VTO130530322617
D0003323480732100011300071265214140008374               04102024CUOTA         000332348078              0003400000P                                    R10   0000000000000000410202400000VTO130530322617
D0003323480732100011300071265214140011774               04102024CUOTA         000332348078              0003400000P                                    R10   0000000000000000410202400000VTO130530322617
D0002867490032100011300070591091230008392               04102024CUOTA         000286749008              0002720000P                                    R10   0000000000000000410202400000VTO130530322617
D0002542901532100011300071178021390008472               04102024CUOTA         000254290158              0003400000P                                    R10   0000000000000000410202400000VTO130530322617
D0003352060232100011300071403697550008896               04102024CUOTA         000335206028              0002720000P                                    R10   0000000000000000410202400000VTO130530322617
D0003352060232100011300071403697550010594               04102024CUOTA         000335206028              0002720000P                                    R10   0000000000000000410202400000VTO130530322617
D0003352060232100011300071403697550011299               04102024CUOTA         000335206028              0002720000P                                    R10   0000000000000000410202400000VTO130530322617
D0001762455932100011300070042347770008985               04102024CUOTA         000176245598              0003400000P                                    R10   0000000000000000410202400000VTO130530322617
D0002844459532100011300070507826400009894               04102024CUOTA         000284445958              0003400000P                                    R10   0000000000000000410202400000VTO130530322617
D0002844459532100011300070507826400012718               04102024CUOTA         000284445958              0003400000P                                    R10   0000000000000000410202400000VTO130530322617
D0003011847032100011300071037145290010024               04102024CUOTA         000301184708              0003400000P                                    R10   0000000000000000410202400000VTO130530322617
D0003011847032100011300071037145290012690               04102024CUOTA         000301184708              0003400000P                                    R10   0000000000000000410202400000VTO130530322617
D0002965329132100011300070477040680010035               04102024CUOTA         000296532918              0003400000P                                    R10   0000000000000000410202400000VTO130530322617
D0002496777932100011300070276950740010527               04102024CUOTA         000249677798              0003400000P                                    R10   0000000000000000410202400000VTO130530322617
D0003440969532100011300300369471390011096               04102024CUOTA         000344096958              0002720000P                                    R10   0000000000000000410202400000VTO130530322617
D0003440969532100011300300369471390013128               04102024CUOTA         000344096958              0002720000P                                    R10   0000000000000000410202400000VTO130530322617
D0003440969532100011300300369471390021156               04102024CUOTA         000344096958              0002720000P                                    R10   0000000000000000410202400000VTO130530322617
D0002739136632100011300070942893090011162               04102024CUOTA         000273913668              0003400000P                                    R10   0000000000000000410202400000VTO130530322617
D0002496771932100011300070061066340011267               04102024CUOTA         000249677198              0000500000P                                    R10   0000000000000000410202400000VTO130530322617
D0002457858932100011300070172215790012940               04102024CUOTA         000245785898              0003400000P                                    R10   0000000000000000410202400000VTO130530322617
D0003741101732100011300080255904080014189               04102024CUOTA         000374110178              0003400000P                                    R10   0000000000000000410202400000VTO130530322617
D0003308856332100011300079877296840021117               04102024CUOTA         000330885638              0003400000P                                    R10   0000000000000000410202400000VTO130530322617
D0003039272932100011300071223586780021235               04102024CUOTA         000303927298              0003400000P                                    R10   0000000000000000410202400000VTO130530322617
D0003374929332100011300071406737110021393               04102024CUOTA         000337492938              0003300000P                                    R10   0000000000000000410202400000VTO130530322617
D0003108150832100011500022242111550008921               04102024CUOTA         000310815088              0003400000P                                    R10   0000000000000000410202400000VTO130530322617
D0002677468032100011500030207530120008973               04102024CUOTA         000267746808              0002720000P                                    R10   0000000000000000410202400000VTO130530322617
D0002677468032100011500030207530120010044               04102024CUOTA         000267746808              0002720000P                                    R10   0000000000000000410202400000VTO130530322617
D0002677468032100011500030207530120010631               04102024CUOTA         000267746808              0002720000P                                    R10   0000000000000000410202400000VTO130530322617
D0003112041432100011500026110673250011017               04102024CUOTA         000311204148              0003400000P                                    R10   0000000000000000410202400000VTO130530322617
D0002594604632100011500030239706720011088               04102024CUOTA         000259460468              0003400000P                                    R10   0000000000000000410202400000VTO130530322617
D0003277615032100011500029773064520012094               04102024CUOTA         000327761508              0000500000P                                    R10   0000000000000000410202400000VTO130530322617
D0003855815932100011500031383993190012765               04102024CUOTA         000385581598              0000500000P                                    R10   0000000000000000410202400000VTO130530322617
D0003773693932100011500029368314300014498               04102024CUOTA         000377369398              0000500000P                                    R10   0000000000000000410202400000VTO130530322617
D0002903784232102307500009181109770009642               04102024CUOTA         000290378428              0000500000P                                    R10   0000000000000000410202400000VTO130530322617
D0003044306632102307500008995332680010034               04102024CUOTA         000304430668              0003400000P                                    R10   0000000000000000410202400000VTO130530322617
D0003044306632102307500008995332680011311               04102024CUOTA         000304430668              0003400000P                                    R10   0000000000000000410202400000VTO130530322617
D0003022115932102307500010154310040021169               04102024CUOTA         000302211598              0003400000P                                    R10   0000000000000000410202400000VTO130530322617
D0003374890203402841082840244010070016693               04102024CUOTA         000337489028              0003300000P                                    R10   0000000000000000410202400000VTO130530322617
D0003374890203402841082840244010070011791               04102024CUOTA         000337489028              0003400000P                                    R10   0000000000000000410202400000VTO130530322617
D0001810105303401008087101574440010011662               04102024CUOTA         000181010538              0003400000P                                    R10   0000000000000000410202400000VTO130530322617
D0002745737332100011300079585778320006738               04102024CUOTA         000274573738              0003400000P                      00000000000000R00   0000000000000000410202400000VTO130530322617
D0002222259232100011300071423447490006772               04102024CUOTA         000222225928              0003400000P                      00000000000000R00   0000000000000000410202400000VTO130530322617
D0003024109804400349400002650408230006776               04102024CUOTA         000302410988              0002720000P                      00000000000000R00   0000000000000000410202400000VTO130530322617
D0002530174132100011300080281243650006778               04102024CUOTA         000253017418              0002720000P                      00000000000000R00   0000000000000000410202400000VTO130530322617
D0002550191332100011300070217565570006795               04102024CUOTA         000255019138              0003400000P                      00000000000000R00   0000000000000000410202400000VTO130530322617
D0002511408003402841082840136650070006807               04102024CUOTA         000251140808              0003400000P                      00000000000000R00   0000000000000000410202400000VTO130530322617
D0001830054107201512880000220288680006815               04102024CUOTA         000183005418              0003400000P                      00000000000000R00   0000000000000000410202400000VTO130530322617
D0001630907732100011300300172666060006819               04102024CUOTA         000163090778              0003400000P                      00000000000000R00   0000000000000000410202400000VTO130530322617
D0002419819432100011300070598247610006962               04102024CUOTA         000241981948              0003400000P                      00000000000000R00   0000000000000000410202400000VTO130530322617
D0002224289901104992300499099774830007267               04102024CUOTA         000222428998              0003400000P                      00000000000000R00   0000000000000000410202400000VTO130530322617
D0002914275832100011500022670528360007270               04102024CUOTA         000291427588              0002720000P                      00000000000000R00   0000000000000000410202400000VTO130530322617
D0002516861707201512880000021664540007275               04102024CUOTA         000251686178              0003400000P                      00000000000000R00   0000000000000000410202400000VTO130530322617
D0002825384007201512880000390395540007290               04102024CUOTA         000282538408              0002720000P                      00000000000000R00   0000000000000000410202400000VTO130530322617
D0003305452201700718400000368076640007313               04102024CUOTA         000330545228              0003400000P                      00000000000000R00   0000000000000000410202400000VTO130530322617
D0002677488432100011300071292042880007334               04102024CUOTA         000267748848              0003400000P                      00000000000000R00   0000000000000000410202400000VTO130530322617
D0002645991132100011300070235017110007344               04102024CUOTA         000264599118              0003400000P                      00000000000000R00   0000000000000000410202400000VTO130530322617
D0002341075232100011500030123302540007795               04102024CUOTA         000234107528              0003400000P                      00000000000000R00   0000000000000000410202400000VTO130530322617
D0001451406501104992300499281132330007798               04102024CUOTA         000145140658              0003400000P                      00000000000000R00   0000000000000000410202400000VTO130530322617
D0002804876832100011300070620587770007799               04102024CUOTA         000280487688              0003400000P                      00000000000000R00   0000000000000000410202400000VTO130530322617
D0002560114301700718400000346320280007806               04102024CUOTA         000256011438              0003400000P                      00000000000000R00   0000000000000000410202400000VTO130530322617
D0002739013807201512880000369738220007808               04102024CUOTA         000273901388              0003400000P                      00000000000000R00   0000000000000000410202400000VTO130530322617
D0002566570432100011300071395620460007822               04102024CUOTA         000256657048              0003400000P                      00000000000000R00   0000000000000000410202400000VTO130530322617
D0002594610101700718400000353415500007850               04102024CUOTA         000259461018              0003400000P                      00000000000000R00   0000000000000000410202400000VTO130530322617
D0002616115532100011300071099158100007855               04102024CUOTA         000261611558              0002720000P                      00000000000000R00   0000000000000000410202400000VTO130530322617
D0002867717732100011300071275922220007873               04102024CUOTA         000286771778              0003400000P                      00000000000000R00   0000000000000000410202400000VTO130530322617
D0003091830600701217300041774001250007893               04102024CUOTA         000309183068              0002720000P                      00000000000000R00   0000000000000000410202400000VTO130530322617
D0002616178103402841082840230130070007903               04102024CUOTA         000261617818              0003400000P                      00000000000000R00   0000000000000000410202400000VTO130530322617
D0002570932232100011300070326155790007910               04102024CUOTA         000257093228              0003400000P                      00000000000000R00   0000000000000000410202400000VTO130530322617
D0002679956701700718400000392321000007914               04102024CUOTA         000267995678              0003400000P                      00000000000000R00   0000000000000000410202400000VTO130530322617
D0002849702201101160300116125640830007923               04102024CUOTA         000284970228              0003400000P                      00000000000000R00   0000000000000000410202400000VTO130530322617
D0002279602407201512880000363003360007927               04102024CUOTA         000227960248              0003400000P                      00000000000000R00   0000000000000000410202400000VTO130530322617
D0002341057407201512880000404078900007958               04102024CUOTA         000234105748              0003400000P                      00000000000000R00   0000000000000000410202400000VTO130530322617
D0002232974307203648880000358545680007968               04102024CUOTA         000223297438              0003400000P                      00000000000000R00   0000000000000000410202400000VTO130530322617
D0001859995300701217300041558463500007974               04102024CUOTA         000185999538              0003400000P                      00000000000000R00   0000000000000000410202400000VTO130530322617
D0002526789507201512880000021732720007976               04102024CUOTA         000252678958              0003400000P                      00000000000000R00   0000000000000000410202400000VTO130530322617
D0002196813207201512880000021526040007977               04102024CUOTA         000219681328              0002720000P                      00000000000000R00   0000000000000000410202400000VTO130530322617
D0002406301832100011300071217207550007989               04102024CUOTA         000240630188              0003400000P                      00000000000000R00   0000000000000000410202400000VTO130530322617
D0002406301832100011300071217207550007990               04102024CUOTA         000240630188              0003400000P                      00000000000000R00   0000000000000000410202400000VTO130530322617
D0002421656932100011300070446134200007994               04102024CUOTA         000242165698              0003400000P                      00000000000000R00   0000000000000000410202400000VTO130530322617
D0003765124932100011300079396667770008314               04102024CUOTA         000376512498              0003400000P                      00000000000000R00   0000000000000000410202400000VTO130530322617
D0002981428632100011500028612531490008316               04102024CUOTA         000298142868              0003400000P                      00000000000000R00   0000000000000000410202400000VTO130530322617
D0002261791900701217300041868101660008330               04102024CUOTA         000226179198              0003400000P                      00000000000000R00   0000000000000000410202400000VTO130530322617
D0002636884801700718200000304676640008331               04102024CUOTA         000263688488              0003400000P                      00000000000000R00   0000000000000000410202400000VTO130530322617
D0002341123732100011300070446034360008335               04102024CUOTA         000234112378              0003400000P                      00000000000000R00   0000000000000000410202400000VTO130530322617
D0001815743732100011300070203201390008353               04102024CUOTA         000181574378              0003400000P                      00000000000000R00   0000000000000000410202400000VTO130530322617
D0001678235832100011300070210402380008378               04102024CUOTA         000167823588              0003400000P                      00000000000000R00   0000000000000000410202400000VTO130530322617
D0002677488432100011300071292042880008382               04102024CUOTA         000267748848              0003400000P                      00000000000000R00   0000000000000000410202400000VTO130530322617
D0002304269307201512880000377406720008386               04102024CUOTA         000230426938              0003400000P                      00000000000000R00   0000000000000000410202400000VTO130530322617
D0002224264301508404010001060581660008396               04102024CUOTA         000222426438              0003400000P                      00000000000000R00   0000000000000000410202400000VTO130530322617
D0002099726704400349400003462911330008397               04102024CUOTA         000209972678              0003400000P                      00000000000000R00   0000000000000000410202400000VTO130530322617
D0003091757932100011300071436205850008425               04102024CUOTA         000309175798              0003400000P                      00000000000000R00   0000000000000000410202400000VTO130530322617
D0002813914132100011300070504039030008441               04102024CUOTA         000281391418              0002720000P                      00000000000000R00   0000000000000000410202400000VTO130530322617
D0003112051532100011300070569178820008447               04102024CUOTA         000311205158              0003400000P                      00000000000000R00   0000000000000000410202400000VTO130530322617
D0003172929407201512880000376454720008462               04102024CUOTA         000317292948              0003400000P                      00000000000000R00   0000000000000000410202400000VTO130530322617
D0002163208632100011300070303010950008485               04102024CUOTA         000216320868              0003400000P                      00000000000000R00   0000000000000000410202400000VTO130530322617
D0002397606000701217300041614460210008491               04102024CUOTA         000239760608              0003400000P                      00000000000000R00   0000000000000000410202400000VTO130530322617
D0002329805407203648880000353754900008494               04102024CUOTA         000232980548              0003400000P                      00000000000000R00   0000000000000000410202400000VTO130530322617
D0002232974307203648880000358545680008502               04102024CUOTA         000223297438              0003400000P                      00000000000000R00   0000000000000000410202400000VTO130530322617
D0002410185832100011300070207956340008508               04102024CUOTA         000241018588              0003400000P                      00000000000000R00   0000000000000000410202400000VTO130530322617
D0002824606604400349400003087528430008516               04102024CUOTA         000282460668              0003400000P                      00000000000000R00   0000000000000000410202400000VTO130530322617
D0003329297207201512880000399685400008521               04102024CUOTA         000332929728              0002720000P                      00000000000000R00   0000000000000000410202400000VTO130530322617
D0002335311901104992300499110228010008670               04102024CUOTA         000233531198              0003400000P                      00000000000000R00   0000000000000000410202400000VTO130530322617
D0002804866432100011300071080664580008828               04102024CUOTA         000280486648              0003400000P                      00000000000000R00   0000000000000000410202400000VTO130530322617
D0002825384007201512880000390395540008844               04102024CUOTA         000282538408              0002720000P                      00000000000000R00   0000000000000000410202400000VTO130530322617
D0002718573828506797400950332610580008859               04102024CUOTA         000271857388              0003400000P                      00000000000000R00   0000000000000000410202400000VTO130530322617
D0003268890432100011300071409174420008861               04102024CUOTA         000326889048              0003400000P                      00000000000000R00   0000000000000000410202400000VTO130530322617
D0002397632101700718400000005224140008865               04102024CUOTA         000239763218              0003400000P                      00000000000000R00   0000000000000000410202400000VTO130530322617
D0002760812532100011300071353135630008867               04102024CUOTA         000276081258              0003400000P                      00000000000000R00   0000000000000000410202400000VTO130530322617
D0003329297207201512880000399685400008870               04102024CUOTA         000332929728              0002720000P                      00000000000000R00   0000000000000000410202400000VTO130530322617
D0003091830600701217300041774001250008885               04102024CUOTA         000309183068              0002720000P                      00000000000000R00   0000000000000000410202400000VTO130530322617
D0002616178007203648880000351313220008890               04102024CUOTA         000261617808              0003400000P                      00000000000000R00   0000000000000000410202400000VTO130530322617
D0002804876832100011300070620587770008906               04102024CUOTA         000280487688              0003400000P                      00000000000000R00   0000000000000000410202400000VTO130530322617
D0002887623432100011300070496088320008910               04102024CUOTA         000288762348              0003400000P                      00000000000000R00   0000000000000000410202400000VTO130530322617
D0003189723907200250880000376639040008939               04102024CUOTA         000318972398              0003400000P                      00000000000000R00   0000000000000000410202400000VTO130530322617
D0002134049607201512880000019971360008948               04102024CUOTA         000213404968              0003400000P                      00000000000000R00   0000000000000000410202400000VTO130530322617
D0002903782801104992300499091875010008962               04102024CUOTA         000290378288              0003400000P                      00000000000000R00   0000000000000000410202400000VTO130530322617
D0002527679032100011300070455353210008964               04102024CUOTA         000252767908              0002720000P                      00000000000000R00   0000000000000000410202400000VTO130530322617
D0002341185032100011300070587419970008987               04102024CUOTA         000234118508              0002720000P                      00000000000000R00   0000000000000000410202400000VTO130530322617
D0001843304632100011300070171255290008993               04102024CUOTA         000184330468              0003400000P                      00000000000000R00   0000000000000000410202400000VTO130530322617
D0002196813207201512880000021526040009005               04102024CUOTA         000219681328              0002720000P                      00000000000000R00   0000000000000000410202400000VTO130530322617
D0002341057407201512880000404078900009010               04102024CUOTA         000234105748              0003400000P                      00000000000000R00   0000000000000000410202400000VTO130530322617
D0002813914132100011300070504039030009014               04102024CUOTA         000281391418              0002720000P                      00000000000000R00   0000000000000000410202400000VTO130530322617
D0002484094201700718400000325308500009022               04102024CUOTA         000248409428              0003400000P                      00000000000000R00   0000000000000000410202400000VTO130530322617
D0002056473801700718400000006767460009026               04102024CUOTA         000205647388              0003400000P                      00000000000000R00   0000000000000000410202400000VTO130530322617
D0002636841532100011300070859578480009028               04102024CUOTA         000263684158              0003400000P                      00000000000000R00   0000000000000000410202400000VTO130530322617
D0002279602407201512880000363003360009029               04102024CUOTA         000227960248              0003400000P                      00000000000000R00   0000000000000000410202400000VTO130530322617
D0002090009401702257400000302978890009035               04102024CUOTA         000209000948              0003400000P                      00000000000000R00   0000000000000000410202400000VTO130530322617
D0000593775932100011500020620813030009039               04102024CUOTA         000059377598              0003400000P                      00000000000000R00   0000000000000000410202400000VTO130530322617
D0002978570807201659880000376477680009195               04102024CUOTA         000297857088              0003400000P                      00000000000000R00   0000000000000000410202400000VTO130530322617
D0002971685201104992300499093297650009795               04102024CUOTA         000297168528              0003400000P                      00000000000000R00   0000000000000000410202400000VTO130530322617
D0002570954532100011300070494569810009841               04102024CUOTA         000257095458              0003400000P                      00000000000000R00   0000000000000000410202400000VTO130530322617
D0002604044001700718400000381399140009842               04102024CUOTA         000260404408              0003400000P                      00000000000000R00   0000000000000000410202400000VTO130530322617
D0002739013807201512880000369738220009856               04102024CUOTA         000273901388              0003400000P                      00000000000000R00   0000000000000000410202400000VTO130530322617
D0002716914603402841082840054560000009857               04102024CUOTA         000271691468              0003400000P                      00000000000000R00   0000000000000000410202400000VTO130530322617
D0002844491807203648880000363185220009887               04102024CUOTA         000284449188              0003400000P                      00000000000000R00   0000000000000000410202400000VTO130530322617
D0003231526319101059551105011172030009918               04102024CUOTA         000323152638              0003400000P                      00000000000000R00   0000000000000000410202400000VTO130530322617
D0002182613701700718400000361840460009925               04102024CUOTA         000218261378              0003400000P                      00000000000000R00   0000000000000000410202400000VTO130530322617
D0002708759700701217300041847491920009940               04102024CUOTA         000270875978              0003400000P                      00000000000000R00   0000000000000000410202400000VTO130530322617
D0003309283007201512880000377830400009948               04102024CUOTA         000330928308              0003400000P                      00000000000000R00   0000000000000000410202400000VTO130530322617
D0001803718107203648880000351412860009952               04102024CUOTA         000180371818              0003400000P                      00000000000000R00   0000000000000000410202400000VTO130530322617
D0002783471928506797400949066073480009968               04102024CUOTA         000278347198              0003400000P                      00000000000000R00   0000000000000000410202400000VTO130530322617
D0002179172032100011300070441327830009976               04102024CUOTA         000217917208              0003400000P                      00000000000000R00   0000000000000000410202400000VTO130530322617
D0002760807801104992300499992833290009985               04102024CUOTA         000276080788              0003400000P                      00000000000000R00   0000000000000000410202400000VTO130530322617
D0002971685201104992300499093297650009997               04102024CUOTA         000297168528              0003400000P                      00000000000000R00   0000000000000000410202400000VTO130530322617
D0002530174132100011300080281243650010006               04102024CUOTA         000253017418              0002720000P                      00000000000000R00   0000000000000000410202400000VTO130530322617
D0002872472832100011300080043356060010028               04102024CUOTA         000287247288              0003400000P                      00000000000000R00   0000000000000000410202400000VTO130530322617
D0003374916507201512880000037994400010050               04102024CUOTA         000337491658              0003400000P                      00000000000000R00   0000000000000000410202400000VTO130530322617
D0002914275832100011500022670528360010332               04102024CUOTA         000291427588              0002720000P                      00000000000000R00   0000000000000000410202400000VTO130530322617
D0002953617132100011300070909372880010449               04102024CUOTA         000295361718              0003400000P                      00000000000000R00   0000000000000000410202400000VTO130530322617
D0002485013200701217300041920359280010450               04102024CUOTA         000248501328              0003400000P                      00000000000000R00   0000000000000000410202400000VTO130530322617
D0002903783632100011300071350785630010452               04102024CUOTA         000290378368              0003400000P                      00000000000000R00   0000000000000000410202400000VTO130530322617
D0002224264301508404010001060581660010460               04102024CUOTA         000222426438              0003400000P                      00000000000000R00   0000000000000000410202400000VTO130530322617
D0002516861707201512880000021664540010461               04102024CUOTA         000251686178              0003400000P                      00000000000000R00   0000000000000000410202400000VTO130530322617
D0002994937901104992300499093230330010473               04102024CUOTA         000299493798              0003400000P                      00000000000000R00   0000000000000000410202400000VTO130530322617
D0001475411132100011500026813050280010474               04102024CUOTA         000147541118              0003400000P                      00000000000000R00   0000000000000000410202400000VTO130530322617
D0003416947438900837400052096809380010478               04102024CUOTA         000341694748              0003400000P                      00000000000000R00   0000000000000000410202400000VTO130530322617
D0002759845404400349400002166326330010486               04102024CUOTA         000275984548              0003400000P                      00000000000000R00   0000000000000000410202400000VTO130530322617
D0002903763604400349400001070392930010490               04102024CUOTA         000290376368              0003400000P                      00000000000000R00   0000000000000000410202400000VTO130530322617
D0002261879501508404010001014511990010494               04102024CUOTA         000226187958              0003400000P                      00000000000000R00   0000000000000000410202400000VTO130530322617
D0003534352701700718400000366516500010520               04102024CUOTA         000353435278              0003400000P                      00000000000000R00   0000000000000000410202400000VTO130530322617
D0002657027807201512880000382786040010523               04102024CUOTA         000265702788              0003400000P                      00000000000000R00   0000000000000000410202400000VTO130530322617
D0002392598132100011300071326935410010529               04102024CUOTA         000239259818              0003400000P                      00000000000000R00   0000000000000000410202400000VTO130530322617
D0002527679032100011300070455353210010539               04102024CUOTA         000252767908              0002720000P                      00000000000000R00   0000000000000000410202400000VTO130530322617
D0002813914132100011300070504039030010543               04102024CUOTA         000281391418              0002720000P                      00000000000000R00   0000000000000000410202400000VTO130530322617
D0002261829207201512880000220333900010553               04102024CUOTA         000226182928              0003400000P                      00000000000000R00   0000000000000000410202400000VTO130530322617
D0002421656932100011300070446134200010559               04102024CUOTA         000242165698              0003400000P                      00000000000000R00   0000000000000000410202400000VTO130530322617
D0002739114507203648880000360339860010562               04102024CUOTA         000273911458              0003400000P                      00000000000000R00   0000000000000000410202400000VTO130530322617
D0002662943107201512880000365442680010570               04102024CUOTA         000266294318              0003400000P                      00000000000000R00   0000000000000000410202400000VTO130530322617
D0002163125407201512880000221156360010571               04102024CUOTA         000216312548              0003400000P                      00000000000000R00   0000000000000000410202400000VTO130530322617
D0001379069900701217300041424998130010574               04102024CUOTA         000137906998              0003400000P                      00000000000000R00   0000000000000000410202400000VTO130530322617
D0002095990432100011300070556071950010586               04102024CUOTA         000209599048              0003400000P                      00000000000000R00   0000000000000000410202400000VTO130530322617
D0002745737332100011300079585778320010595               04102024CUOTA         000274573738              0003400000P                      00000000000000R00   0000000000000000410202400000VTO130530322617
D0002616115532100011300071099158100010597               04102024CUOTA         000261611558              0002720000P                      00000000000000R00   0000000000000000410202400000VTO130530322617
D0002397632101700718400000005224140010600               04102024CUOTA         000239763218              0003400000P                      00000000000000R00   0000000000000000410202400000VTO130530322617
D0002511441328506797400951955215880010603               04102024CUOTA         000251144138              0003400000P                      00000000000000R00   0000000000000000410202400000VTO130530322617
D0002566570432100011300071395620460010633               04102024CUOTA         000256657048              0003400000P                      00000000000000R00   0000000000000000410202400000VTO130530322617
D0003091830600701217300041774001250010646               04102024CUOTA         000309183068              0002720000P                      00000000000000R00   0000000000000000410202400000VTO130530322617
D0002703011200701217300041563904670010660               04102024CUOTA         000270301128              0003400000P                      00000000000000R00   0000000000000000410202400000VTO130530322617
D0002759845404400349400002166326330010928               04102024CUOTA         000275984548              0003400000P                      00000000000000R00   0000000000000000410202400000VTO130530322617
D0002813949219101059550105533768280010963               04102024CUOTA         000281394928              0003400000P                      00000000000000R00   0000000000000000410202400000VTO130530322617
D0003441408901700718400000333950780010993               04102024CUOTA         000344140898              0002720000P                      00000000000000R00   0000000000000000410202400000VTO130530322617
D0002341184732100011300070263525070011026               04102024CUOTA         000234118478              0003400000P                      00000000000000R00   0000000000000000410202400000VTO130530322617
D0003416765501700718400000373174780011045               04102024CUOTA         000341676558              0003400000P                      00000000000000R00   0000000000000000410202400000VTO130530322617
D0002813949219101059550105533768280011054               04102024CUOTA         000281394928              0003400000P                      00000000000000R00   0000000000000000410202400000VTO130530322617
D0002765093801508404020001025844880011080               04102024CUOTA         000276509388              0003400000P                      00000000000000R00   0000000000000000410202400000VTO130530322617
D0001826003832100011300070325994420011098               04102024CUOTA         000182600388              0003400000P                      00000000000000R00   0000000000000000410202400000VTO130530322617
D0002397625132100011300071246872880011115               04102024CUOTA         000239762518              0003400000P                      00000000000000R00   0000000000000000410202400000VTO130530322617
D0002341185032100011300070587419970011123               04102024CUOTA         000234118508              0002720000P                      00000000000000R00   0000000000000000410202400000VTO130530322617
D0002906003203402841082840160630060011131               04102024CUOTA         000290600328              0003400000P                      00000000000000R00   0000000000000000410202400000VTO130530322617
D0003071221101700718400000346550500011132               04102024CUOTA         000307122118              0003400000P                      00000000000000R00   0000000000000000410202400000VTO130530322617
D0003213241532100011500023217200840011139               04102024CUOTA         000321324158              0002720000P                      00000000000000R00   0000000000000000410202400000VTO130530322617
D0002485013200701217300041920359280011145               04102024CUOTA         000248501328              0003400000P                      00000000000000R00   0000000000000000410202400000VTO130530322617
D0002311785504400349400001404378430011157               04102024CUOTA         000231178558              0003400000P                      00000000000000R00   0000000000000000410202400000VTO130530322617
D0002989415807201512880000382872680011161               04102024CUOTA         000298941588              0003400000P                      00000000000000R00   0000000000000000410202400000VTO130530322617
D0003189723907200250880000376639040011180               04102024CUOTA         000318972398              0003400000P                      00000000000000R00   0000000000000000410202400000VTO130530322617
D0002872472832100011300080043356060011200               04102024CUOTA         000287247288              0003400000P                      00000000000000R00   0000000000000000410202400000VTO130530322617
D0003369312232100011300071310560020011301               04102024CUOTA         000336931228              0002720000P                      00000000000000R00   0000000000000000410202400000VTO130530322617
D0002496743532100011300070600399470011315               04102024CUOTA         000249674358              0003400000P                      00000000000000R00   0000000000000000410202400000VTO130530322617
D0002831892101104992300499088916650011319               04102024CUOTA         000283189218              0003400000P                      00000000000000R00   0000000000000000410202400000VTO130530322617
D0002584425632100011300079815764080011453               04102024CUOTA         000258442568              0003400000P                      00000000000000R00   0000000000000000410202400000VTO130530322617
D0002739338132100011300070954323370011542               04102024CUOTA         000273933818              0003400000P                      00000000000000R00   0000000000000000410202400000VTO130530322617
D0003091757932100011300071436205850011620               04102024CUOTA         000309175798              0003400000P                      00000000000000R00   0000000000000000410202400000VTO130530322617
D0002824606604400349400003087528430011622               04102024CUOTA         000282460668              0003400000P                      00000000000000R00   0000000000000000410202400000VTO130530322617
D0002657657200701217300041504711020011626               04102024CUOTA         000265765728              0003400000P                      00000000000000R00   0000000000000000410202400000VTO130530322617
D0002971998532100011300070595520020011632               04102024CUOTA         000297199858              0003400000P                      00000000000000R00   0000000000000000410202400000VTO130530322617
D0002261879501508404010001014511990011666               04102024CUOTA         000226187958              0003400000P                      00000000000000R00   0000000000000000410202400000VTO130530322617
D0002722298832100011300070477420800011701               04102024CUOTA         000272229888              0003400000P                      00000000000000R00   0000000000000000410202400000VTO130530322617
D0002989431332100011300071278839970011705               04102024CUOTA         000298943138              0003400000P                      00000000000000R00   0000000000000000410202400000VTO130530322617
D0003505224032100011300071991131670011706               04102024CUOTA         000350522408              0003400000P                      00000000000000R00   0000000000000000410202400000VTO130530322617
D0004028548232100011300300377433090011710               04102024CUOTA         000402854828              0003400000P                      00000000000000R00   0000000000000000410202400000VTO130530322617
D0002196813207201512880000021526040011727               04102024CUOTA         000219681328              0002720000P                      00000000000000R00   0000000000000000410202400000VTO130530322617
D0002679956701700718400000392321000011729               04102024CUOTA         000267995678              0003400000P                      00000000000000R00   0000000000000000410202400000VTO130530322617
D0001379069900701217300041424998130011753               04102024CUOTA         000137906998              0003400000P                      00000000000000R00   0000000000000000410202400000VTO130530322617
D0002760807801104992300499992833290011756               04102024CUOTA         000276080788              0003400000P                      00000000000000R00   0000000000000000410202400000VTO130530322617
D0002804866432100011300071080664580011759               04102024CUOTA         000280486648              0003400000P                      00000000000000R00   0000000000000000410202400000VTO130530322617
D0002570932232100011300070326155790011760               04102024CUOTA         000257093228              0003400000P                      00000000000000R00   0000000000000000410202400000VTO130530322617
D0002224289901104992300499099774830011761               04102024CUOTA         000222428998              0003400000P                      00000000000000R00   0000000000000000410202400000VTO130530322617
D0003129739832100011300071804337770011762               04102024CUOTA         000312973988              0003400000P                      00000000000000R00   0000000000000000410202400000VTO130530322617
D0003213241532100011500023217200840011764               04102024CUOTA         000321324158              0002720000P                      00000000000000R00   0000000000000000410202400000VTO130530322617
D0003591796601104992300499194728510011773               04102024CUOTA         000359179668              0002720000P                      00000000000000R00   0000000000000000410202400000VTO130530322617
D0003268890432100011300071409174420011778               04102024CUOTA         000326889048              0003400000P                      00000000000000R00   0000000000000000410202400000VTO130530322617
D0002890035507201512880000020479220011789               04102024CUOTA         000289003558              0003400000P                      00000000000000R00   0000000000000000410202400000VTO130530322617
D0002616115532100011300071099158100011803               04102024CUOTA         000261611558              0002720000P                      00000000000000R00   0000000000000000410202400000VTO130530322617
D0022085145232100011300300291684080011812               04102024CUOTA         002208514528              0003400000P                      00000000000000R00   0000000000000000410202400000VTO130530322617
D0002559604132100011300300195923090011823               04102024CUOTA         000255960418              0003400000P                      00000000000000R00   0000000000000000410202400000VTO130530322617
D0002739338132100011300070954323370011828               04102024CUOTA         000273933818              0003400000P                      00000000000000R00   0000000000000000410202400000VTO130530322617
D0003255804932100011300071680662720011851               04102024CUOTA         000325580498              0002720000P                      00000000000000R00   0000000000000000410202400000VTO130530322617
D0003255804932100011300071680662720011853               04102024CUOTA         000325580498              0002720000P                      00000000000000R00   0000000000000000410202400000VTO130530322617
D0003031809432100011300071363144420011899               04102024CUOTA         000303180948              0003400000P                      00000000000000R00   0000000000000000410202400000VTO130530322617
D0002290250132100011300079229143370011900               04102024CUOTA         000229025018              0003400000P                      00000000000000R00   0000000000000000410202400000VTO130530322617
D0002434677707203648880000357830040011967               04102024CUOTA         000243467778              0003400000P                      00000000000000R00   0000000000000000410202400000VTO130530322617
D0003505206528506797400947013913580012135               04102024CUOTA         000350520658              0003400000P                      00000000000000R00   0000000000000000410202400000VTO130530322617
D0002767792132100011300070561164700012142               04102024CUOTA         000276779218              0003400000P                      00000000000000R00   0000000000000000410202400000VTO130530322617
D0003031657507203648880000370742720012143               04102024CUOTA         000303165758              0003400000P                      00000000000000R00   0000000000000000410202400000VTO130530322617
D0003037296832100011300071990013090012144               04102024CUOTA         000303729688              0002720000P                      00000000000000R00   0000000000000000410202400000VTO130530322617
D0002341075232100011500030123302540012148               04102024CUOTA         000234107528              0003400000P                      00000000000000R00   0000000000000000410202400000VTO130530322617
D0003574126207201512880000399655720012158               04102024CUOTA         000357412628              0003400000P                      00000000000000R00   0000000000000000410202400000VTO130530322617
D0002971699401104992300499138943650012168               04102024CUOTA         000297169948              0003400000P                      00000000000000R00   0000000000000000410202400000VTO130530322617
D0001677204232100011300070224557050012199               04102024CUOTA         000167720428              0003400000P                      00000000000000R00   0000000000000000410202400000VTO130530322617
D0003427830432100011300079665389970012200               04102024CUOTA         000342783048              0003400000P                      00000000000000R00   0000000000000000410202400000VTO130530322617
D0002056483332100011300071432347330012204               04102024CUOTA         000205648338              0003400000P                      00000000000000R00   0000000000000000410202400000VTO130530322617
D0002914275832100011500022670528360012206               04102024CUOTA         000291427588              0002720000P                      00000000000000R00   0000000000000000410202400000VTO130530322617
D0003369312232100011300071310560020012216               04102024CUOTA         000336931228              0002720000P                      00000000000000R00   0000000000000000410202400000VTO130530322617
D0002543815707203648880000354421360012217               04102024CUOTA         000254381578              0003400000P                      00000000000000R00   0000000000000000410202400000VTO130530322617
D0002971998532100011300070595520020012222               04102024CUOTA         000297199858              0003400000P                      00000000000000R00   0000000000000000410202400000VTO130530322617
D0003024109804400349400002650408230012240               04102024CUOTA         000302410988              0002720000P                      00000000000000R00   0000000000000000410202400000VTO130530322617
D0003424067519101059551105010179850012269               04102024CUOTA         000342406758              0003400000P                      00000000000000R00   0000000000000000410202400000VTO130530322617
D0002739115132100011300071375341950012274               04102024CUOTA         000273911518              0003400000P                      00000000000000R00   0000000000000000410202400000VTO130530322617
D0002906241900701217300041796984100012280               04102024CUOTA         000290624198              0003400000P                      00000000000000R00   0000000000000000410202400000VTO130530322617
D0002906241900701217300041796984100012281               04102024CUOTA         000290624198              0003400000P                      00000000000000R00   0000000000000000410202400000VTO130530322617
D0003082410632100011300079762262440012288               04102024CUOTA         000308241068              0003400000P                      00000000000000R00   0000000000000000410202400000VTO130530322617
D0003133398532100011300071213909690012296               04102024CUOTA         000313339858              0003400000P                      00000000000000R00   0000000000000000410202400000VTO130530322617
D0002813987832100011300071427193430012299               04102024CUOTA         000281398788              0003400000P                      00000000000000R00   0000000000000000410202400000VTO130530322617
D0003182538432100011300071427254580012302               04102024CUOTA         000318253848              0003400000P                      00000000000000R00   0000000000000000410202400000VTO130530322617
D0003534352701700718400000366516500012313               04102024CUOTA         000353435278              0003400000P                      00000000000000R00   0000000000000000410202400000VTO130530322617
D0002978570807201659880000376477680012315               04102024CUOTA         000297857088              0003400000P                      00000000000000R00   0000000000000000410202400000VTO130530322617
D0002657027807201512880000382786040012318               04102024CUOTA         000265702788              0003400000P                      00000000000000R00   0000000000000000410202400000VTO130530322617
D0002135558032100011300070055135290012319               04102024CUOTA         000213555808              0003400000P                      00000000000000R00   0000000000000000410202400000VTO130530322617
D0002783471928506797400949066073480012325               04102024CUOTA         000278347198              0003400000P                      00000000000000R00   0000000000000000410202400000VTO130530322617
D0002434677707203648880000357830040012334               04102024CUOTA         000243467778              0003400000P                      00000000000000R00   0000000000000000410202400000VTO130530322617
D0002584425632100011300079815764080012337               04102024CUOTA         000258442568              0003400000P                      00000000000000R00   0000000000000000410202400000VTO130530322617
D0003323484907201512880000384435180012422               04102024CUOTA         000332348498              0000500000P                      00000000000000R00   0000000000000000410202400000VTO130530322617
D0002581884332100011300070561264640012426               04102024CUOTA         000258188438              0003400000P                      00000000000000R00   0000000000000000410202400000VTO130530322617
D0002581884332100011300070561264640012427               04102024CUOTA         000258188438              0003400000P                      00000000000000R00   0000000000000000410202400000VTO130530322617
D0002758153607201512880000372211040012473               04102024CUOTA         000275815368              0003400000P                      00000000000000R00   0000000000000000410202400000VTO130530322617
D0003388243100701217300041720570500012523               04102024CUOTA         000338824318              0003400000P                      00000000000000R00   0000000000000000410202400000VTO130530322617
D0002434613032100011300071188130020012623               04102024CUOTA         000243461308              0003400000P                      00000000000000R00   0000000000000000410202400000VTO130530322617
D0002530174132100011300080281243650012625               04102024CUOTA         000253017418              0002720000P                      00000000000000R00   0000000000000000410202400000VTO130530322617
D0003037296832100011300071990013090012628               04102024CUOTA         000303729688              0002720000P                      00000000000000R00   0000000000000000410202400000VTO130530322617
D0002917549604400349400003435968730012656               04102024CUOTA         000291754968              0003400000P                      00000000000000R00   0000000000000000410202400000VTO130530322617
D0002824563532100011300079665830960012660               04102024CUOTA         000282456358              0003400000P                      00000000000000R00   0000000000000000410202400000VTO130530322617
D0002677463432100011300071364263090012673               04102024CUOTA         000267746348              0003400000P                      00000000000000R00   0000000000000000410202400000VTO130530322617
D0002824563532100011300079665830960012683               04102024CUOTA         000282456358              0003400000P                      00000000000000R00   0000000000000000410202400000VTO130530322617
D0003388239803402841082840192720050012710               04102024CUOTA         000338823988              0003400000P                      00000000000000R00   0000000000000000410202400000VTO130530322617
D0003431424507201512880000373341180012720               04102024CUOTA         000343142458              0003400000P                      00000000000000R00   0000000000000000410202400000VTO130530322617
D0003329297207201512880000399685400012728               04102024CUOTA         000332929728              0002720000P                      00000000000000R00   0000000000000000410202400000VTO130530322617
D0001826003832100011300070325994420012741               04102024CUOTA         000182600388              0003400000P                      00000000000000R00   0000000000000000410202400000VTO130530322617
D0003173935032100011300071240068100012745               04102024CUOTA         000317393508              0003400000P                      00000000000000R00   0000000000000000410202400000VTO130530322617
D0003309272507201512880000385072540012747               04102024CUOTA         000330927258              0003400000P                      00000000000000R00   0000000000000000410202400000VTO130530322617
D0003418250500701996300040458686060012748               04102024CUOTA         000341825058              0003400000P                      00000000000000R00   0000000000000000410202400000VTO130530322617
D0003519934401700718400000370034500012790               04102024CUOTA         000351993448              0003400000P                      00000000000000R00   0000000000000000410202400000VTO130530322617
D0002461873700701217300041746782080012792               04102024CUOTA         000246187378              0003400000P                      00000000000000R00   0000000000000000410202400000VTO130530322617
D0002867714732100011300070986058600012852               04102024CUOTA         000286771478              0003400000P                      00000000000000R00   0000000000000000410202400000VTO130530322617
D0003418487303402841082840178940070012862               04102024CUOTA         000341848738              0003400000P                      00000000000000R00   0000000000000000410202400000VTO130530322617
D0003116908001104992300499128941510012879               04102024CUOTA         000311690808              0003400000P                      00000000000000R00   0000000000000000410202400000VTO130530322617
D0002953367401700718400000350498500012885               04102024CUOTA         000295336748              0003400000P                      00000000000000R00   0000000000000000410202400000VTO130530322617
D0002825384007201512880000390395540012896               04102024CUOTA         000282538408              0002720000P                      00000000000000R00   0000000000000000410202400000VTO130530322617
D0001475411132100011500026813050280012897               04102024CUOTA         000147541118              0003400000P                      00000000000000R00   0000000000000000410202400000VTO130530322617
D0002722174832100011300071218435790012901               04102024CUOTA         000272217488              0003400000P                      00000000000000R00   0000000000000000410202400000VTO130530322617
D0001609581901104992300499119469830012904               04102024CUOTA         000160958198              0003400000P                      00000000000000R00   0000000000000000410202400000VTO130530322617
D0001609581901104992300499119469830012905               04102024CUOTA         000160958198              0003400000P                      00000000000000R00   0000000000000000410202400000VTO130530322617
D0002806462301700718400000382755000012914               04102024CUOTA         000280646238              0003400000P                      00000000000000R00   0000000000000000410202400000VTO130530322617
D0002158079307201468880000018815360013002               04102024CUOTA         000215807936              0003400000P                      00000000000000R00   0000000000000000410202400000VTO130530322617
D0002890044632100011300070955922000013031               04102024CUOTA         000289004468              0003400000P                      00000000000000R00   0000000000000000410202400000VTO130530322617
D0003173935032100011300071240068100013108               04102024CUOTA         000317393508              0003400000P                      00000000000000R00   0000000000000000410202400000VTO130530322617
D0002813987832100011300071427193430013122               04102024CUOTA         000281398788              0003400000P                      00000000000000R00   0000000000000000410202400000VTO130530322617
D0003612186707201512880000377379860013133               04102024CUOTA         000361218678              0003400000P                      00000000000000R00   0000000000000000410202400000VTO130530322617
D0002662943107201512880000365442680013135               04102024CUOTA         000266294318              0003400000P                      00000000000000R00   0000000000000000410202400000VTO130530322617
D0002376470432100011300071082943430013154               04102024CUOTA         000237647048              0003400000P                      00000000000000R00   0000000000000000410202400000VTO130530322617
D0002718573828506797400950332610580013160               04102024CUOTA         000271857388              0003400000P                      00000000000000R00   0000000000000000410202400000VTO130530322617
D0002767792132100011300070561164700014169               04102024CUOTA         000276779218              0003400000P                      00000000000000R00   0000000000000000410202400000VTO130530322617
D0002406333200701217300048929017180014180               04102024CUOTA         000240633328              0003400000P                      00000000000000R00   0000000000000000410202400000VTO130530322617
D0003062695501103111300311161830830014188               04102024CUOTA         000306269558              0003400000P                      00000000000000R00   0000000000000000410202400000VTO130530322617
D0003213241532100011500023217200840014300               04102024CUOTA         000321324158              0002640000P                      00000000000000R00   0000000000000000410202400000VTO130530322617
D0003031657507203648880000370742720014302               04102024CUOTA         000303165758              0003300000P                      00000000000000R00   0000000000000000410202400000VTO130530322617
D0003024109804400349400002650408230014305               04102024CUOTA         000302410988              0002640000P                      00000000000000R00   0000000000000000410202400000VTO130530322617
D0003416779132100011300071680623930014310               04102024CUOTA         000341677918              0003300000P                      00000000000000R00   0000000000000000410202400000VTO130530322617
D0003369312232100011300071310560020014316               04102024CUOTA         000336931228              0002640000P                      00000000000000R00   0000000000000000410202400000VTO130530322617
D0002760812532100011300071353135630014325               04102024CUOTA         000276081258              0003300000P                      00000000000000R00   0000000000000000410202400000VTO130530322617
D0003024128601700718400000321629500014337               04102024CUOTA         000302412868              0003400000P                      00000000000000R00   0000000000000000410202400000VTO130530322617
D0003131153332100011300079496509310014342               04102024CUOTA         000313115338              0003400000P                      00000000000000R00   0000000000000000410202400000VTO130530322617
D0002739198032100011300071014029810014364               04102024CUOTA         000273919808              0003400000P                      00000000000000R00   0000000000000000410202400000VTO130530322617
D0002654966432100011300070587938820014385               04102024CUOTA         000265496648              0000500000P                      00000000000000R00   0000000000000000410202400000VTO130530322617
D0004411534101104992300499191576790014413               04102024CUOTA         000441153416              0003400000P                      00000000000000R00   0000000000000000410202400000VTO130530322617
D0002873842801104206300420115689470014450               04102024CUOTA         000287384288              0003400000P                      00000000000000R00   0000000000000000410202400000VTO130530322617
D0002320005300701217300048910081820014454               04102024CUOTA         000232000538              0003400000P                      00000000000000R00   0000000000000000410202400000VTO130530322617
D0002903782801104992300499091875010014489               04102024CUOTA         000290378288              0003400000P                      00000000000000R00   0000000000000000410202400000VTO130530322617
D0002437674101104992300499001401470014509               04102024CUOTA         000243767418              0000500000P                      00000000000000R00   0000000000000000410202400000VTO130530322617
D0003416779132100011300071680623930014631               04102024CUOTA         000341677918              0003400000P                      00000000000000R00   0000000000000000410202400000VTO130530322617
D0003071221101700718400000346550500016659               04102024CUOTA         000307122118              0003300000P                      00000000000000R00   0000000000000000410202400000VTO130530322617
D0002758153607201512880000372211040016665               04102024CUOTA         000275815368              0003400000P                      00000000000000R00   0000000000000000410202400000VTO130530322617
D0003416947438900837400052096809380016671               04102024CUOTA         000341694748              0003400000P                      00000000000000R00   0000000000000000410202400000VTO130530322617
D0003424067519101059551105010179850016674               04102024CUOTA         000342406758              0003400000P                      00000000000000R00   0000000000000000410202400000VTO130530322617
D0002890044632100011300070955922000016682               04102024CUOTA         000289004468              0003300000P                      00000000000000R00   0000000000000000410202400000VTO130530322617
D0002739198032100011300071014029810016686               04102024CUOTA         000273919808              0003300000P                      00000000000000R00   0000000000000000410202400000VTO130530322617
D0002971699401104992300499138943650016688               04102024CUOTA         000297169948              0003400000P                      00000000000000R00   0000000000000000410202400000VTO130530322617
D0003220798307201512880000379632400016696               04102024CUOTA         000322079838              0003300000P                      00000000000000R00   0000000000000000410202400000VTO130530322617
D0002527679032100011300070455353210016703               04102024CUOTA         000252767908              0002720000P                      00000000000000R00   0000000000000000410202400000VTO130530322617
D0003037296832100011300071990013090016709               04102024CUOTA         000303729688              0002640000P                      00000000000000R00   0000000000000000410202400000VTO130530322617
D0002989415807201512880000382872680016710               04102024CUOTA         000298941588              0003300000P                      00000000000000R00   0000000000000000410202400000VTO130530322617
D0003574126207201512880000399655720016711               04102024CUOTA         000357412628              0003300000P                      00000000000000R00   0000000000000000410202400000VTO130530322617
D0003591796601104992300499194728510016721               04102024CUOTA         000359179668              0002640000P                      00000000000000R00   0000000000000000410202400000VTO130530322617
D0003255804932100011300071680662720017723               04102024CUOTA         000325580498              0002640000P                      00000000000000R00   0000000000000000410202400000VTO130530322617
D0003172929407201512880000376454720017725               04102024CUOTA         000317292948              0003400000P                      00000000000000R00   0000000000000000410202400000VTO130530322617
D0003329297207201512880000399685400017732               04102024CUOTA         000332929728              0002720000P                      00000000000000R00   0000000000000000410202400000VTO130530322617
D0002813914132100011300070504039030017737               04102024CUOTA         000281391418              0002720000P                      00000000000000R00   0000000000000000410202400000VTO130530322617
D0003388243100701217300041720570500017740               04102024CUOTA         000338824318              0003400000P                      00000000000000R00   0000000000000000410202400000VTO130530322617
D0003440957600701217300041792695800017745               04102024CUOTA         000344095768              0003400000P                      00000000000000R00   0000000000000000410202400000VTO130530322617
D0003612171132100011300300206798260018747               04102024CUOTA         000361217118              0003400000P                      00000000000000R00   0000000000000000410202400000VTO130530322617
D0003126756632100011300079800010680018752               04102024CUOTA         000312675668              0003400000P                      00000000000000R00   0000000000000000410202400000VTO130530322617
D0003388750932100011300079835962000018811               04102024CUOTA         000338875098              0003400000P                      00000000000000R00   0000000000000000410202400000VTO130530322617
D0003491334832100011300079352025910018813               04102024CUOTA         000349133488              0003400000P                      00000000000000R00   0000000000000000410202400000VTO130530322617
D0002948678904400349400001602743830018818               04102024CUOTA         000294867898              0003400000P                      00000000000000R00   0000000000000000410202400000VTO130530322617
D0003469545832100011300079751044860018839               04102024CUOTA         000346954588              0003400000P                      00000000000000R00   0000000000000000410202400000VTO130530322617
D0003419570832100011300071396787830018843               04102024CUOTA         000341957088              0000500000P                      00000000000000R00   0000000000000000410202400000VTO130530322617
D0003740966400701217300041742973840018890               04102024CUOTA         000374096648              0003300000P                      00000000000000R00   0000000000000000410202400000VTO130530322617
D0003268852132100011300071423856780018937               04102024CUOTA         000326885218              0003400000P                      00000000000000R00   0000000000000000410202400000VTO130530322617
D0002410185401104992300499261083830018947               04102024CUOTA         000241018546              0003400000P                      00000000000000R00   0000000000000000410202400000VTO130530322617
D0003499428501700718400000370965640018977               04102024CUOTA         000349942858              0003400000P                      00000000000000R00   0000000000000000410202400000VTO130530322617
D0002078723607201512880000365964360021078               04102024CUOTA         000207872368              0003400000P                      00000000000000R00   0000000000000000410202400000VTO130530322617
D0003427830432100011300079665389970021079               04102024CUOTA         000342783048              0003300000P                      00000000000000R00   0000000000000000410202400000VTO130530322617
D0002559604402009029110000305562580021094               04102024CUOTA         000255960448              0003400000P                      00000000000000R00   0000000000000000410202400000VTO130530322617
D0002559604402009029110000305562580021095               04102024CUOTA         000255960448              0003400000P                      00000000000000R00   0000000000000000410202400000VTO130530322617
D0002341185032100011300070587419970021118               04102024CUOTA         000234118508              0002720000P                      00000000000000R00   0000000000000000410202400000VTO130530322617
D0003873522701104992300499188195650021124               04102024CUOTA         000387352278              0003300000P                      00000000000000R00   0000000000000000410202400000VTO130530322617
D0003206091107201512880000385029900021132               04102024CUOTA         000320609118              0003400000P                      00000000000000R00   0000000000000000410202400000VTO130530322617
D0003471150604400349400003562140830021136               04102024CUOTA         000347115068              0003400000P                      00000000000000R00   0000000000000000410202400000VTO130530322617
D0002722174832100011300071218435790021147               04102024CUOTA         000272217488              0003400000P                      00000000000000R00   0000000000000000410202400000VTO130530322617
D0002867714732100011300070986058600021151               04102024CUOTA         000286771478              0003400000P                      00000000000000R00   0000000000000000410202400000VTO130530322617
D0003268554603402117082110143970000021159               04102024CUOTA         000326855468              0003400000P                      00000000000000R00   0000000000000000410202400000VTO130530322617
D0003469332332100011300072006796400021165               04102024CUOTA         000346933238              0003400000P                      00000000000000R00   0000000000000000410202400000VTO130530322617
D0003233257804400233400003560980410021167               04102024CUOTA         000323325788              0003400000P                      00000000000000R00   0000000000000000410202400000VTO130530322617
D0002890099519101059551105001697170021170               04102024CUOTA         000289009958              0003400000P                      00000000000000R00   0000000000000000410202400000VTO130530322617
D0003708600600700764300040880582190021173               04102024CUOTA         000370860068              0003400000P                      00000000000000R00   0000000000000000410202400000VTO130530322617
D0002722273732100011300079248081170021234               04102024CUOTA         000272227378              0003400000P                      00000000000000R00   0000000000000000410202400000VTO130530322617
D0002533362432100011500020218368580021250               04102024CUOTA         000253336248              0000500000P                      00000000000000R00   0000000000000000410202400000VTO130530322617
D0003285969332100011300071956302440021281               04102024CUOTA         000328596938              0003400000P                      00000000000000R00   0000000000000000410202400000VTO130530322617
D0003031651500701217300041867725670021287               04102024CUOTA         000303165158              0003400000P                      00000000000000R00   0000000000000000410202400000VTO130530322617
D0003050747032100011300070477030960021291               04102024CUOTA         000305074708              0003300000P                      00000000000000R00   0000000000000000410202400000VTO130530322617
D0003591716232100011300071353483870021292               04102024CUOTA         000359171628              0003300000P                      00000000000000R00   0000000000000000410202400000VTO130530322617
D0003351950832100011300071937822440021296               04102024CUOTA         000335195088              0003300000P                      00000000000000R00   0000000000000000410202400000VTO130530322617
D0003604525032100011300080311359250021298               04102024CUOTA         000360452508              0003300000P                      00000000000000R00   0000000000000000410202400000VTO130530322617
D0003073893432100011300071396020300021299               04102024CUOTA         000307389348              0003300000P                      00000000000000R00   0000000000000000410202400000VTO130530322617
D0003440985407201512880000388017900021302               04102024CUOTA         000344098548              0003300000P                      00000000000000R00   0000000000000000410202400000VTO130530322617
D0003574394832100011300079747212220021306               04102024CUOTA         000357439488              0003300000P                      00000000000000R00   0000000000000000410202400000VTO130530322617
D0002996746332100011300079350646120021310               04102024CUOTA         000299674638              0003300000P                      00000000000000R00   0000000000000000410202400000VTO130530322617
D0003574109000701217300041929569950021311               04102024CUOTA         000357410908              0003300000P                      00000000000000R00   0000000000000000410202400000VTO130530322617
D0003129621832100011300071329382440021312               04102024CUOTA         000312962188              0003300000P                      00000000000000R00   0000000000000000410202400000VTO130530322617
D0003024138332100011300071389228980021323               04102024CUOTA         000302413838              0003300000P                      00000000000000R00   0000000000000000410202400000VTO130530322617
D0002873359332100011300080386888040021343               04102024CUOTA         000287335938              0003400000P                      00000000000000R00   0000000000000000410202400000VTO130530322617
D0002744810132100011500035434908920021362               04102024CUOTA         000274481018              0003300000P                      00000000000000R00   0000000000000000410202400000VTO130530322617
D0003263103501104992300499227810650021365               04102024CUOTA         000326310358              0003300000P                      00000000000000R00   0000000000000000410202400000VTO130530322617
D0003162131301104992300499023650470021392               04102024CUOTA         000316213138              0003300000P                      00000000000000R00   0000000000000000410202400000VTO130530322617
D0002795899407201512880000042720900022401               04102024CUOTA         000279589948              0003400000P                      00000000000000R00   0000000000000000410202400000VTO130530322617
D0003958366628503798400955167680980022420               04102024CUOTA         000395836668              0003300000P                      00000000000000R00   0000000000000000410202400000VTO130530322617
D0001293529707203648880000350984900022441               04102024CUOTA         000129352978              0003400000P                      00000000000000R00   0000000000000000410202400000VTO130530322617
D0001293529707203648880000350984900022447               04102024CUOTA         000129352978              0003400000P                      00000000000000R00   0000000000000000410202400000VTO130530322617
D0003424160700701217300041710648000022480               04102024CUOTA         000342416078              0003400000P                      00000000000000R00   0000000000000000410202400000VTO130530322617
D0003263103501104992300499227810650022482               04102024CUOTA         000326310358              0003400000P                      00000000000000R00   0000000000000000410202400000VTO130530322617
D0002944447832100011300080015627990022491               04102024CUOTA         000294444788              0003400000P                      00000000000000R00   0000000000000000410202400000VTO130530322617
D0002744810132100011500035434908920022546               04102024CUOTA         000274481018              0003300000P                      00000000000000R00   0000000000000000410202400000VTO130530322617
D0003247640332100011300079847721170023555               04102024CUOTA         000324764036              0003400000P                      00000000000000R00   0000000000000000410202400000VTO130530322617
D0003469584532100011500030111414460023579               04102024CUOTA         000346958458              0003300000P                      00000000000000R00   0000000000000000410202400000VTO130530322617
T0000432000001394920000
